{
  "_format": "hh-sol-artifact-1",
  "contractName": "ChallengeFactory",
  "sourceName": "src/ChallengeFactory.sol",
  "abi": [
    {
      "inputs": [
        {
          "internalType": "address payable",
          "name": "_stakeEscrow",
          "type": "address"
        },
        {
          "internalType": "address",
          "name": "_admin",
          "type": "address"
        },
        {
          "internalType": "address",
          "name": "_platformFeeRecipient",
          "type": "address"
        }
      ],
      "stateMutability": "nonpayable",
      "type": "constructor"
    },
    {
      "inputs": [
        {
          "internalType": "address",
          "name": "owner",
          "type": "address"
        }
      ],
      "name": "OwnableInvalidOwner",
      "type": "error"
    },
    {
      "inputs": [
        {
          "internalType": "address",
          "name": "account",
          "type": "address"
        }
      ],
      "name": "OwnableUnauthorizedAccount",
      "type": "error"
    },
    {
      "inputs": [],
      "name": "ReentrancyGuardReentrantCall",
      "type": "error"
    },
    {
      "inputs": [
        {
          "internalType": "address",
          "name": "token",
          "type": "address"
        }
      ],
      "name": "SafeERC20FailedOperation",
      "type": "error"
    },
    {
      "anonymous": false,
      "inputs": [
        {
          "indexed": true,
          "internalType": "uint256",
          "name": "challengeId",
          "type": "uint256"
        },
        {
          "indexed": false,
          "internalType": "string",
          "name": "reason",
          "type": "string"
        }
      ],
      "name": "AdminForcedRefund",
      "type": "event"
    },
    {
      "anonymous": false,
      "inputs": [
        {
          "indexed": true,
          "internalType": "address",
          "name": "newAdmin",
          "type": "address"
        }
      ],
      "name": "AdminUpdated",
      "type": "event"
    },
    {
      "anonymous": false,
      "inputs": [
        {
          "indexed": true,
          "internalType": "uint256",
          "name": "challengeId",
          "type": "uint256"
        },
        {
          "indexed": true,
          "internalType": "address",
          "name": "creator",
          "type": "address"
        },
        {
          "indexed": true,
          "internalType": "address",
          "name": "paymentToken",
          "type": "address"
        },
        {
          "indexed": false,
          "internalType": "uint256",
          "name": "stakeAmount",
          "type": "uint256"
        },
        {
          "indexed": false,
          "internalType": "uint256",
          "name": "pointsReward",
          "type": "uint256"
        }
      ],
      "name": "ChallengeCreatedGroup",
      "type": "event"
    },
    {
      "anonymous": false,
      "inputs": [
        {
          "indexed": true,
          "internalType": "uint256",
          "name": "challengeId",
          "type": "uint256"
        },
        {
          "indexed": true,
          "internalType": "address",
          "name": "creator",
          "type": "address"
        },
        {
          "indexed": true,
          "internalType": "address",
          "name": "participant",
          "type": "address"
        },
        {
          "indexed": false,
          "internalType": "address",
          "name": "paymentToken",
          "type": "address"
        },
        {
          "indexed": false,
          "internalType": "uint256",
          "name": "stakeAmount",
          "type": "uint256"
        },
        {
          "indexed": false,
          "internalType": "uint256",
          "name": "pointsReward",
          "type": "uint256"
        }
      ],
      "name": "ChallengeCreatedP2P",
      "type": "event"
    },
    {
      "anonymous": false,
      "inputs": [
        {
          "indexed": true,
          "internalType": "uint256",
          "name": "challengeId",
          "type": "uint256"
        },
        {
          "indexed": true,
          "internalType": "address",
          "name": "winner",
          "type": "address"
        },
        {
          "indexed": true,
          "internalType": "address",
          "name": "paymentToken",
          "type": "address"
        },
        {
          "indexed": false,
          "internalType": "uint256",
          "name": "stakeAmount",
          "type": "uint256"
        },
        {
          "indexed": false,
          "internalType": "uint256",
          "name": "pointsAwarded",
          "type": "uint256"
        }
      ],
      "name": "ChallengeResolved",
      "type": "event"
    },
    {
      "anonymous": false,
      "inputs": [
        {
          "indexed": true,
          "internalType": "uint256",
          "name": "challengeId",
          "type": "uint256"
        },
        {
          "indexed": true,
          "internalType": "address",
          "name": "creator",
          "type": "address"
        },
        {
          "indexed": false,
          "internalType": "uint256",
          "name": "stakeAmount",
          "type": "uint256"
        }
      ],
      "name": "CreatorStakeLocked",
      "type": "event"
    },
    {
      "anonymous": false,
      "inputs": [
        {
          "indexed": true,
          "internalType": "address",
          "name": "previousOwner",
          "type": "address"
        },
        {
          "indexed": true,
          "internalType": "address",
          "name": "newOwner",
          "type": "address"
        }
      ],
      "name": "OwnershipTransferred",
      "type": "event"
    },
    {
      "anonymous": false,
      "inputs": [
        {
          "indexed": true,
          "internalType": "uint256",
          "name": "challengeId",
          "type": "uint256"
        },
        {
          "indexed": true,
          "internalType": "address",
          "name": "participant",
          "type": "address"
        },
        {
          "indexed": false,
          "internalType": "uint256",
          "name": "stakeAmount",
          "type": "uint256"
        }
      ],
      "name": "ParticipantStakeLocked",
      "type": "event"
    },
    {
      "anonymous": false,
      "inputs": [
        {
          "indexed": true,
          "internalType": "address",
          "name": "token",
          "type": "address"
        },
        {
          "indexed": false,
          "internalType": "bool",
          "name": "enabled",
          "type": "bool"
        }
      ],
      "name": "PaymentTokenToggled",
      "type": "event"
    },
    {
      "anonymous": false,
      "inputs": [
        {
          "indexed": true,
          "internalType": "address",
          "name": "token",
          "type": "address"
        },
        {
          "indexed": false,
          "internalType": "uint256",
          "name": "amount",
          "type": "uint256"
        }
      ],
      "name": "PlatformFeeCollected",
      "type": "event"
    },
    {
      "anonymous": false,
      "inputs": [
        {
          "indexed": false,
          "internalType": "uint256",
          "name": "newPercentage",
          "type": "uint256"
        }
      ],
      "name": "PlatformFeePercentageUpdated",
      "type": "event"
    },
    {
      "anonymous": false,
      "inputs": [
        {
          "indexed": true,
          "internalType": "address",
          "name": "newRecipient",
          "type": "address"
        }
      ],
      "name": "PlatformFeeRecipientUpdated",
      "type": "event"
    },
    {
      "anonymous": false,
      "inputs": [
        {
          "indexed": true,
          "internalType": "address",
          "name": "token",
          "type": "address"
        },
        {
          "indexed": false,
          "internalType": "uint256",
          "name": "amount",
          "type": "uint256"
        },
        {
          "indexed": true,
          "internalType": "address",
          "name": "recipient",
          "type": "address"
        }
      ],
      "name": "PlatformFeeWithdrawn",
      "type": "event"
    },
    {
      "anonymous": false,
      "inputs": [
        {
          "indexed": true,
          "internalType": "uint256",
          "name": "challengeId",
          "type": "uint256"
        },
        {
          "indexed": true,
          "internalType": "address",
          "name": "acceptor",
          "type": "address"
        }
      ],
      "name": "RefundAccepted",
      "type": "event"
    },
    {
      "anonymous": false,
      "inputs": [
        {
          "indexed": true,
          "internalType": "uint256",
          "name": "challengeId",
          "type": "uint256"
        },
        {
          "indexed": true,
          "internalType": "address",
          "name": "decliner",
          "type": "address"
        }
      ],
      "name": "RefundDeclined",
      "type": "event"
    },
    {
      "anonymous": false,
      "inputs": [
        {
          "indexed": true,
          "internalType": "uint256",
          "name": "challengeId",
          "type": "uint256"
        },
        {
          "indexed": true,
          "internalType": "address",
          "name": "requester",
          "type": "address"
        },
        {
          "indexed": false,
          "internalType": "string",
          "name": "reason",
          "type": "string"
        }
      ],
      "name": "RefundRequested",
      "type": "event"
    },
    {
      "anonymous": false,
      "inputs": [
        {
          "indexed": true,
          "internalType": "uint256",
          "name": "challengeId",
          "type": "uint256"
        },
        {
          "indexed": true,
          "internalType": "address",
          "name": "user",
          "type": "address"
        },
        {
          "indexed": true,
          "internalType": "address",
          "name": "paymentToken",
          "type": "address"
        },
        {
          "indexed": false,
          "internalType": "uint256",
          "name": "amount",
          "type": "uint256"
        }
      ],
      "name": "StakeClaimed",
      "type": "event"
    },
    {
      "anonymous": false,
      "inputs": [
        {
          "indexed": true,
          "internalType": "uint256",
          "name": "challengeId",
          "type": "uint256"
        },
        {
          "indexed": true,
          "internalType": "address",
          "name": "creator",
          "type": "address"
        },
        {
          "indexed": true,
          "internalType": "address",
          "name": "participant",
          "type": "address"
        },
        {
          "indexed": false,
          "internalType": "uint256",
          "name": "refundAmount",
          "type": "uint256"
        }
      ],
      "name": "StakesRefunded",
      "type": "event"
    },
    {
      "anonymous": false,
      "inputs": [
        {
          "indexed": true,
          "internalType": "address",
          "name": "token",
          "type": "address"
        },
        {
          "indexed": false,
          "internalType": "bool",
          "name": "blacklisted",
          "type": "bool"
        }
      ],
      "name": "TokenBlacklisted",
      "type": "event"
    },
    {
      "anonymous": false,
      "inputs": [
        {
          "indexed": true,
          "internalType": "address",
          "name": "token",
          "type": "address"
        },
        {
          "indexed": false,
          "internalType": "bool",
          "name": "verified",
          "type": "bool"
        }
      ],
      "name": "TokenVerified",
      "type": "event"
    },
    {
      "inputs": [
        {
          "internalType": "uint256",
          "name": "challengeId",
          "type": "uint256"
        },
        {
          "internalType": "uint256",
          "name": "participantSide",
          "type": "uint256"
        },
        {
          "internalType": "uint256",
          "name": "permitDeadline",
          "type": "uint256"
        },
        {
          "internalType": "uint8",
          "name": "v",
          "type": "uint8"
        },
        {
          "internalType": "bytes32",
          "name": "r",
          "type": "bytes32"
        },
        {
          "internalType": "bytes32",
          "name": "s",
          "type": "bytes32"
        }
      ],
      "name": "acceptP2PChallenge",
      "outputs": [],
      "stateMutability": "payable",
      "type": "function"
    },
    {
      "inputs": [
        {
          "internalType": "uint256",
          "name": "challengeId",
          "type": "uint256"
        }
      ],
      "name": "acceptRefund",
      "outputs": [],
      "stateMutability": "nonpayable",
      "type": "function"
    },
    {
      "inputs": [],
      "name": "admin",
      "outputs": [
        {
          "internalType": "address",
          "name": "",
          "type": "address"
        }
      ],
      "stateMutability": "view",
      "type": "function"
    },
    {
      "inputs": [
        {
          "internalType": "address",
          "name": "token",
          "type": "address"
        },
        {
          "internalType": "bool",
          "name": "blacklisted",
          "type": "bool"
        }
      ],
      "name": "blacklistToken",
      "outputs": [],
      "stateMutability": "nonpayable",
      "type": "function"
    },
    {
      "inputs": [
        {
          "internalType": "address",
          "name": "",
          "type": "address"
        }
      ],
      "name": "blacklistedTokens",
      "outputs": [
        {
          "internalType": "bool",
          "name": "",
          "type": "bool"
        }
      ],
      "stateMutability": "view",
      "type": "function"
    },
    {
      "inputs": [
        {
          "internalType": "uint256",
          "name": "",
          "type": "uint256"
        }
      ],
      "name": "challenges",
      "outputs": [
        {
          "internalType": "uint256",
          "name": "id",
          "type": "uint256"
        },
        {
          "internalType": "enum ChallengeFactory.ChallengeType",
          "name": "challengeType",
          "type": "uint8"
        },
        {
          "internalType": "address",
          "name": "creator",
          "type": "address"
        },
        {
          "internalType": "address",
          "name": "participant",
          "type": "address"
        },
        {
          "internalType": "address",
          "name": "paymentToken",
          "type": "address"
        },
        {
          "internalType": "uint256",
          "name": "stakeAmount",
          "type": "uint256"
        },
        {
          "internalType": "uint256",
          "name": "pointsReward",
          "type": "uint256"
        },
        {
          "internalType": "enum ChallengeFactory.ChallengeStatus",
          "name": "status",
          "type": "uint8"
        },
        {
          "internalType": "address",
          "name": "winner",
          "type": "address"
        },
        {
          "internalType": "uint256",
          "name": "createdAt",
          "type": "uint256"
        },
        {
          "internalType": "uint256",
          "name": "resolvedAt",
          "type": "uint256"
        },
        {
          "internalType": "string",
          "name": "metadataURI",
          "type": "string"
        },
        {
          "internalType": "enum ChallengeFactory.Side",
          "name": "creatorSide",
          "type": "uint8"
        },
        {
          "internalType": "enum ChallengeFactory.Side",
          "name": "participantSide",
          "type": "uint8"
        },
        {
          "internalType": "bool",
          "name": "creatorStaked",
          "type": "bool"
        },
        {
          "internalType": "bool",
          "name": "participantStaked",
          "type": "bool"
        },
        {
          "internalType": "uint256",
          "name": "stakedAt",
          "type": "uint256"
        },
        {
          "internalType": "uint256",
          "name": "refundRequestedAt",
          "type": "uint256"
        },
        {
          "internalType": "bool",
          "name": "refundAccepted",
          "type": "bool"
        }
      ],
      "stateMutability": "view",
      "type": "function"
    },
    {
      "inputs": [
        {
          "internalType": "uint256",
          "name": "challengeId",
          "type": "uint256"
        }
      ],
      "name": "claimStake",
      "outputs": [],
      "stateMutability": "nonpayable",
      "type": "function"
    },
    {
      "inputs": [
        {
          "internalType": "address",
          "name": "paymentToken",
          "type": "address"
        },
        {
          "internalType": "uint256",
          "name": "stakeAmount",
          "type": "uint256"
        },
        {
          "internalType": "uint256",
          "name": "pointsReward",
          "type": "uint256"
        },
        {
          "internalType": "string",
          "name": "metadataURI",
          "type": "string"
        }
      ],
      "name": "createGroupChallenge",
      "outputs": [
        {
          "internalType": "uint256",
          "name": "",
          "type": "uint256"
        }
      ],
      "stateMutability": "nonpayable",
      "type": "function"
    },
    {
      "inputs": [
        {
          "internalType": "address",
          "name": "participant",
          "type": "address"
        },
        {
          "internalType": "address",
          "name": "paymentToken",
          "type": "address"
        },
        {
          "internalType": "uint256",
          "name": "stakeAmount",
          "type": "uint256"
        },
        {
          "internalType": "uint256",
          "name": "creatorSide",
          "type": "uint256"
        },
        {
          "internalType": "uint256",
          "name": "pointsReward",
          "type": "uint256"
        },
        {
          "internalType": "string",
          "name": "metadataURI",
          "type": "string"
        }
      ],
      "name": "createP2PChallenge",
      "outputs": [
        {
          "internalType": "uint256",
          "name": "",
          "type": "uint256"
        }
      ],
      "stateMutability": "payable",
      "type": "function"
    },
    {
      "inputs": [
        {
          "internalType": "uint256",
          "name": "challengeId",
          "type": "uint256"
        }
      ],
      "name": "declineRefund",
      "outputs": [],
      "stateMutability": "nonpayable",
      "type": "function"
    },
    {
      "inputs": [
        {
          "internalType": "uint256",
          "name": "challengeId",
          "type": "uint256"
        },
        {
          "internalType": "string",
          "name": "reason",
          "type": "string"
        }
      ],
      "name": "forceRefund",
      "outputs": [],
      "stateMutability": "nonpayable",
      "type": "function"
    },
    {
      "inputs": [
        {
          "internalType": "uint256",
          "name": "challengeId",
          "type": "uint256"
        }
      ],
      "name": "getChallenge",
      "outputs": [
        {
          "components": [
            {
              "internalType": "uint256",
              "name": "id",
              "type": "uint256"
            },
            {
              "internalType": "enum ChallengeFactory.ChallengeType",
              "name": "challengeType",
              "type": "uint8"
            },
            {
              "internalType": "address",
              "name": "creator",
              "type": "address"
            },
            {
              "internalType": "address",
              "name": "participant",
              "type": "address"
            },
            {
              "internalType": "address",
              "name": "paymentToken",
              "type": "address"
            },
            {
              "internalType": "uint256",
              "name": "stakeAmount",
              "type": "uint256"
            },
            {
              "internalType": "uint256",
              "name": "pointsReward",
              "type": "uint256"
            },
            {
              "internalType": "enum ChallengeFactory.ChallengeStatus",
              "name": "status",
              "type": "uint8"
            },
            {
              "internalType": "address",
              "name": "winner",
              "type": "address"
            },
            {
              "internalType": "uint256",
              "name": "createdAt",
              "type": "uint256"
            },
            {
              "internalType": "uint256",
              "name": "resolvedAt",
              "type": "uint256"
            },
            {
              "internalType": "string",
              "name": "metadataURI",
              "type": "string"
            },
            {
              "internalType": "enum ChallengeFactory.Side",
              "name": "creatorSide",
              "type": "uint8"
            },
            {
              "internalType": "enum ChallengeFactory.Side",
              "name": "participantSide",
              "type": "uint8"
            },
            {
              "internalType": "bool",
              "name": "creatorStaked",
              "type": "bool"
            },
            {
              "internalType": "bool",
              "name": "participantStaked",
              "type": "bool"
            },
            {
              "internalType": "uint256",
              "name": "stakedAt",
              "type": "uint256"
            },
            {
              "internalType": "uint256",
              "name": "refundRequestedAt",
              "type": "uint256"
            },
            {
              "internalType": "bool",
              "name": "refundAccepted",
              "type": "bool"
            }
          ],
          "internalType": "struct ChallengeFactory.Challenge",
          "name": "",
          "type": "tuple"
        }
      ],
      "stateMutability": "view",
      "type": "function"
    },
    {
      "inputs": [
        {
          "internalType": "address",
          "name": "token",
          "type": "address"
        }
      ],
      "name": "getPlatformFeeBalance",
      "outputs": [
        {
          "internalType": "uint256",
          "name": "",
          "type": "uint256"
        }
      ],
      "stateMutability": "view",
      "type": "function"
    },
    {
      "inputs": [
        {
          "internalType": "uint256",
          "name": "",
          "type": "uint256"
        },
        {
          "internalType": "uint256",
          "name": "",
          "type": "uint256"
        }
      ],
      "name": "groupChallengeParticipants",
      "outputs": [
        {
          "internalType": "address",
          "name": "user",
          "type": "address"
        },
        {
          "internalType": "bool",
          "name": "side",
          "type": "bool"
        },
        {
          "internalType": "uint256",
          "name": "stakeAmount",
          "type": "uint256"
        },
        {
          "internalType": "bool",
          "name": "claimed",
          "type": "bool"
        }
      ],
      "stateMutability": "view",
      "type": "function"
    },
    {
      "inputs": [
        {
          "internalType": "address",
          "name": "token",
          "type": "address"
        }
      ],
      "name": "isTokenBlacklisted",
      "outputs": [
        {
          "internalType": "bool",
          "name": "",
          "type": "bool"
        }
      ],
      "stateMutability": "view",
      "type": "function"
    },
    {
      "inputs": [
        {
          "internalType": "address",
          "name": "token",
          "type": "address"
        }
      ],
      "name": "isTokenVerified",
      "outputs": [
        {
          "internalType": "bool",
          "name": "",
          "type": "bool"
        }
      ],
      "stateMutability": "view",
      "type": "function"
    },
    {
      "inputs": [
        {
          "internalType": "uint256",
          "name": "challengeId",
          "type": "uint256"
        }
      ],
      "name": "lockCreatorStake",
      "outputs": [],
      "stateMutability": "payable",
      "type": "function"
    },
    {
      "inputs": [],
      "name": "nextChallengeId",
      "outputs": [
        {
          "internalType": "uint256",
          "name": "",
          "type": "uint256"
        }
      ],
      "stateMutability": "view",
      "type": "function"
    },
    {
      "inputs": [],
      "name": "owner",
      "outputs": [
        {
          "internalType": "address",
          "name": "",
          "type": "address"
        }
      ],
      "stateMutability": "view",
      "type": "function"
    },
    {
      "inputs": [
        {
          "internalType": "uint256",
          "name": "",
          "type": "uint256"
        }
      ],
      "name": "p2pChallengeAmounts",
      "outputs": [
        {
          "internalType": "uint256",
          "name": "",
          "type": "uint256"
        }
      ],
      "stateMutability": "view",
      "type": "function"
    },
    {
      "inputs": [
        {
          "internalType": "address",
          "name": "",
          "type": "address"
        }
      ],
      "name": "platformFeeBalance",
      "outputs": [
        {
          "internalType": "uint256",
          "name": "",
          "type": "uint256"
        }
      ],
      "stateMutability": "view",
      "type": "function"
    },
    {
      "inputs": [],
      "name": "platformFeePercentage",
      "outputs": [
        {
          "internalType": "uint256",
          "name": "",
          "type": "uint256"
        }
      ],
      "stateMutability": "view",
      "type": "function"
    },
    {
      "inputs": [],
      "name": "platformFeeRecipient",
      "outputs": [
        {
          "internalType": "address",
          "name": "",
          "type": "address"
        }
      ],
      "stateMutability": "view",
      "type": "function"
    },
    {
      "inputs": [],
      "name": "renounceOwnership",
      "outputs": [],
      "stateMutability": "nonpayable",
      "type": "function"
    },
    {
      "inputs": [
        {
          "internalType": "uint256",
          "name": "challengeId",
          "type": "uint256"
        },
        {
          "internalType": "string",
          "name": "reason",
          "type": "string"
        }
      ],
      "name": "requestRefund",
      "outputs": [],
      "stateMutability": "nonpayable",
      "type": "function"
    },
    {
      "inputs": [
        {
          "internalType": "address",
          "name": "newAdmin",
          "type": "address"
        }
      ],
      "name": "setAdmin",
      "outputs": [],
      "stateMutability": "nonpayable",
      "type": "function"
    },
    {
      "inputs": [
        {
          "internalType": "uint256",
          "name": "newPercentage",
          "type": "uint256"
        }
      ],
      "name": "setPlatformFeePercentage",
      "outputs": [],
      "stateMutability": "nonpayable",
      "type": "function"
    },
    {
      "inputs": [
        {
          "internalType": "address",
          "name": "newRecipient",
          "type": "address"
        }
      ],
      "name": "setPlatformFeeRecipient",
      "outputs": [],
      "stateMutability": "nonpayable",
      "type": "function"
    },
    {
      "inputs": [
        {
          "internalType": "address",
          "name": "participant",
          "type": "address"
        },
        {
          "internalType": "address",
          "name": "paymentToken",
          "type": "address"
        },
        {
          "internalType": "uint256",
          "name": "stakeAmount",
          "type": "uint256"
        },
        {
          "internalType": "uint256",
          "name": "creatorSide",
          "type": "uint256"
        },
        {
          "internalType": "uint256",
          "name": "pointsReward",
          "type": "uint256"
        },
        {
          "internalType": "string",
          "name": "metadataURI",
          "type": "string"
        },
        {
          "internalType": "uint256",
          "name": "permitDeadline",
          "type": "uint256"
        },
        {
          "internalType": "uint8",
          "name": "v",
          "type": "uint8"
        },
        {
          "internalType": "bytes32",
          "name": "r",
          "type": "bytes32"
        },
        {
          "internalType": "bytes32",
          "name": "s",
          "type": "bytes32"
        }
      ],
      "name": "stakeAndCreateP2PChallenge",
      "outputs": [
        {
          "internalType": "uint256",
          "name": "",
          "type": "uint256"
        }
      ],
      "stateMutability": "payable",
      "type": "function"
    },
    {
      "inputs": [],
      "name": "stakeEscrow",
      "outputs": [
        {
          "internalType": "contract ChallengeEscrow",
          "name": "",
          "type": "address"
        }
      ],
      "stateMutability": "view",
      "type": "function"
    },
    {
      "inputs": [
        {
          "internalType": "address",
          "name": "newOwner",
          "type": "address"
        }
      ],
      "name": "transferOwnership",
      "outputs": [],
      "stateMutability": "nonpayable",
      "type": "function"
    },
    {
      "inputs": [
        {
          "internalType": "address",
          "name": "",
          "type": "address"
        }
      ],
      "name": "verifiedTokens",
      "outputs": [
        {
          "internalType": "bool",
          "name": "",
          "type": "bool"
        }
      ],
      "stateMutability": "view",
      "type": "function"
    },
    {
      "inputs": [
        {
          "internalType": "address",
          "name": "token",
          "type": "address"
        },
        {
          "internalType": "bool",
          "name": "verified",
          "type": "bool"
        }
      ],
      "name": "verifyToken",
      "outputs": [],
      "stateMutability": "nonpayable",
      "type": "function"
    },
    {
      "inputs": [
        {
          "internalType": "address",
          "name": "token",
          "type": "address"
        }
      ],
      "name": "withdrawPlatformFees",
      "outputs": [],
      "stateMutability": "nonpayable",
      "type": "function"
    },
    {
      "stateMutability": "payable",
      "type": "receive"
    }
  ],
  "bytecode": "0x608034620001d857601f6200347438819003918201601f191683019291906001600160401b03841183851017620001dd578160609284926040968752833981010312620001d85780516001600160a01b038082169291839003620001d85762000078846200007060208501620001f3565b9301620001f3565b9060016000553315620001c05760018054336001600160a01b0319808316821790935587519295929184167f8be0079c531659141344cd1fd0a4f28419497f9722a3daafe3b4186f6b6457e0600080a36001600555600a60065585156200018d57508116918215620001595716928315620001155782600254161760025581600354161760035560045416176004555161326b9081620002098239f35b845162461bcd60e51b815260206004820152601560248201527f496e76616c69642066656520726563697069656e7400000000000000000000006044820152606490fd5b855162461bcd60e51b815260206004820152600d60248201526c24b73b30b634b21030b236b4b760991b6044820152606490fd5b62461bcd60e51b815260206004820152600e60248201526d496e76616c696420657363726f7760901b6044820152606490fd5b8451631e4fbdf760e01b815260006004820152602490fd5b600080fd5b634e487b7160e01b600052604160045260246000fd5b51906001600160a01b0382168203620001d85756fe608080604052600436101561001d575b50361561001b57600080fd5b005b600090813560e01c908163017b975b14612ace57508063028df0d4146128935780630d8d2d081461281e5780631871e2431461277b578063190e4c551461270a5780631baaaffe146105615780631bdd4b74146123e55780632880d7691461200a5780633ae5ef0e14611e2c57806344c7d6ef14611c8c5780634b117e3214611b825780635c8b5f441461083b57806362193bc81461159e57806368a2b7de146113b257806369249fba14611574578063704b6c02146114d5578063715018a6146114775780638333903e146113eb57806386ff06e7146113b25780638da5cb5b146113895780638f1d377614611219578063907cc00c14610d2b578063c25d8b7b14610a8b578063c5ac3d4b14610898578063cdd78cfc1461087a578063ce9be9ba1461083b578063d2d66482146107be578063eb13554f14610795578063ec3889b5146105a0578063ec867b2714610561578063f2fde38b146104d1578063f4a947ef146101e5578063f851a440146101bc5763fc67aa500361000f57346101b957806003193601126101b9576020600554604051908152f35b80fd5b50346101b957806003193601126101b9576003546040516001600160a01b039091168152602090f35b506020806003193601126104cd576004356101fe612ea1565b8083526007825260408320600181015490610227600160ff841661022181612b4e565b146130d7565b600681019160ff83541660088110156104b95760016102469114613136565b6001600160a01b039060081c8116330361047457600a820190815460ff8160101c166104365760181c60ff16156103f1576003830180548892908116806103535750600485015490610299823414612f97565b8060025416925416823b1561034f576102cf928285938a9360405196879586948593637a443e3d60e11b85523360048601612ff1565b03925af1801561034457610328575b505090600080516020613216833981519152926004925b805462ff000019166201000017905542600b830155805460ff191660021790550154604051908152339390a36001815580f35b61033490939293612c3f565b610340579085386102de565b8580fd5b6040513d84823e3d90fd5b8380fd5b9061035e3415612f4b565b6103768160025416926004880193845491339061301b565b8060025416925416905490823b1561034f576103af928492838a9360405196879586948593637a443e3d60e11b85523360048601612ff1565b03925af18015610344576103d9575b505090600080516020613216833981519152926004926102f5565b6103e590939293612c3f565b610340579085386103be565b60405162461bcd60e51b815260048101879052601e60248201527f5061727469636970616e7420686173206e6f74207374616b65642079657400006044820152606490fd5b60405162461bcd60e51b815260048101889052601660248201527510dc99585d1bdc88185b1c9958591e481cdd185ad95960521b6044820152606490fd5b60405162461bcd60e51b815260048101869052601b60248201527f4f6e6c792063726561746f722063616e206c6f636b207374616b6500000000006044820152606490fd5b634e487b7160e01b87526021600452602487fd5b5080fd5b50346101b95760203660031901126101b9576104eb612af3565b6104f3612d35565b6001600160a01b0390811690811561054857600154826bffffffffffffffffffffffff60a01b821617600155167f8be0079c531659141344cd1fd0a4f28419497f9722a3daafe3b4186f6b6457e0600080a380f35b604051631e4fbdf760e01b815260048101849052602490fd5b50346101b95760203660031901126101b95760209060ff906040906001600160a01b0361058c612af3565b168152600a84522054166040519015158152f35b50346101b9576020806003193601126104cd576105bb612af3565b906105c4612d35565b6105cc612ea1565b6001600160a01b03918216808452600c8252604084205492909190831561075a57828552600c825284604081205582156000146106d457848080808785600454165af13d156106cf573d6001600160401b0381116106bb576040519061063b601f8201601f1916860183612c6e565b815286843d92013e5b1561068057907f08273342a380b5301480c28ba6b7dfb7bfda23bfd871714c935e45a15e9cb823915b6004541693604051908152a36001815580f35b60405162461bcd60e51b8152600481018390526013602482015272115512081d1c985b9cd9995c8819985a5b1959606a1b6044820152606490fd5b634e487b7160e01b87526041600452602487fd5b610644565b60045460405163a9059cbb60e01b818501529082166024820152604480820186905281529190608083016001600160401b03811184821017610744577f08273342a380b5301480c28ba6b7dfb7bfda23bfd871714c935e45a15e9cb8239361073f916040528561306f565b61066d565b634e487b7160e01b600052604160045260246000fd5b60405162461bcd60e51b81526004810183905260136024820152724e6f206665657320746f20776974686472617760681b6044820152606490fd5b50346101b957806003193601126101b9576004546040516001600160a01b039091168152602090f35b50346101b95760207fd128f4457567637d4d9a19a54a44a6e47ba1ed0cc875b3cff7b762c8bb27b4166107f036612b1f565b92906107fa612d35565b6001600160a01b03169261080f8415156131d9565b838552600a825261082f81604087209060ff801983541691151516179055565b6040519015158152a280f35b50346101b95760203660031901126101b95760209060ff906040906001600160a01b03610866612af3565b168152600b84522054166040519015158152f35b50346101b957806003193601126101b9576020600654604051908152f35b50346101b9576108a736612bd2565b91906108b1612ea1565b81845260076020526040842060018101546108d4600160ff831661022181612b4e565b600a82015460ff8160101c169081610a7d575b5015610a4057600682019081549060ff82169060088210159081610a2c576002831480938115610a1b575b5061091c90613136565b60018060a01b03809160081c163314908115610a0b575b50156109ba576109a6579161098493917f5a28917ada7e719e75deb413b0eddfb869b62c4cf3808ecd3c5ceb107b882450959361098e575b5050506040519182916020835233966020840191613173565b0390a36001815580f35b60069060ff1916179055600c4291015538808061096b565b634e487b7160e01b88526021600452602488fd5b60405162461bcd60e51b8152602060048201526024808201527f4f6e6c79207061727469636970616e74732063616e2072657175657374207265604482015263199d5b9960e21b6064820152608490fd5b9050600286015416331438610933565b60009350600614905061091c610912565b634e487b7160e01b8a52602160045260248afd5b60405162461bcd60e51b8152602060048201526015602482015274109bdd1a081b5d5cdd081a185d99481cdd185ad959605a1b6044820152606490fd5b60ff915060181c16386108e7565b50346101b95760803660031901126101b957610aa5612af3565b6001600160401b03916024359190604435606435858111610d2757610ace903690600401612ba5565b949093610ad9612d35565b610ae1612ea1565b6001600160a01b0316918215610cea57828452602096600b8852610b0c60ff60408720541615612d61565b610b17831515612da4565b610b22821515612de4565b610b306101f4831115612e30565b60055496610b3d88612e7c565b6005558786526007895260408620888155600180820180546001600160a81b0319163360081b610100600160a81b0316179055979060099060ff1960038201896bffffffffffffffffffffffff60a01b82541617905587600483015586600583015560068201908154169055426007820155019282116106bb578190610bc38454612c05565b601f8111610c9a575b508790601f8311600114610c3a578892610c2f575b5050600019600383901b1c191690871b1790555b60405191825286820152847fac61621ed399481a7fdd906a7b94c9d3667dee8643e9c121e783b860a3f2282d60403393a455604051908152f35b013590503880610be1565b8489528b89208a945091601f1984168a8e5b828210610c835750508411610c69575b505050811b019055610bf5565b0135600019600384901b60f8161c19169055388080610c5c565b8385013586558d979095019492830192018e610c4c565b9091508388528a8820601f840160051c8101918c8510610ce0575b84939291601f8c920160051c01915b828110610cd2575050610bcc565b8a81558594508b9101610cc4565b9091508190610cb5565b60405162461bcd60e51b815260206004820152601560248201527424b73b30b634b2103830bcb6b2b73a103a37b5b2b760591b6044820152606490fd5b8280fd5b5060c03660031901126101b957606460ff81351681350361121457610d4e612ea1565b6004358252600760205260408220906001820154610d74600160ff831661022181612b4e565b60ff6006840154166008811015611200576111c8573360089190911c6001600160a01b0316146111785760243515801561116c575b610db290612f10565b60ff600a83015416610dc381612b4e565b6111635760ff835b1660243514611110576002820180546001600160a01b038116156110fd5750546001600160a01b031633036110bb575b600382015483906001600160a01b031680610f74575060048301610e2181543414612f97565b610e2c602435612b4e565b610e3b602435600a8601613117565b6002549054600385015490916001600160a01b039081169116813b1561034f578391610e8391604051948580948193637a443e3d60e11b835283600435913360048601612ff1565b03925af1801561034457610f60575b50505b600a82015460ff80630100000063ff000000198416179283600a870155169160081c1690610ec282612b4e565b610ecb81612b4e565b14610f1e5750600490600160ff19600683015416176006820155015460405190815233907faa5d071b783a3c78ef80284714eeba5fe6e9dcbb542ff148b3f55702594c1bcd602060043592a36001815580f35b60405162461bcd60e51b815260206004820152601a60248201527f496e76616c6964207369646520636f6e66696775726174696f6e0000000000006044820152fd5b610f6990612c3f565b610d27578238610e92565b610f7e3415612f4b565b60443561103b575b5060038301546002546004850180549092610faf926001600160a01b039081169133911661301b565b610fba602435612b4e565b610fc9602435600a8601613117565b600254600385015491546001600160a01b0391821692909116823b1561034f5761101192849283604051809681958294637a443e3d60e11b8452600435913360048601612ff1565b03925af1801561034457611027575b5050610e95565b61103090612c3f565b610d27578238611020565b600484015490803b15610d275760405163d505accf60e01b815233600482015230602482015260448082019390935291356064830152833560ff166084808401919091523560a4808401919091523560c48301528290829060e490829084905af180156103445715610f86576110b090612c3f565b610d27578238610f86565b60405162461bcd60e51b815260206004820152601d60248201527f4e6f742074686520737065636966696564207061727469636970616e740000006044820152fd5b6001600160a01b03191633179055610dfb565b608490653932b0ba37b960d11b6040519162461bcd60e51b835260206004840152602660248401527f4d7573742063686f6f7365206f70706f7369746520736964652066726f6d20636044840152820152fd5b60ff6001610dcb565b50602435600114610da9565b608490626e676560e81b6040519162461bcd60e51b835260206004840152602360248401527f43726561746f722063616e6e6f7420616363657074206f776e206368616c6c656044840152820152fd5b5060405162461bcd60e51b815260206004820152601260248201527121b430b63632b733b2903737ba1037b832b760711b6044820152fd5b634e487b7160e01b85526021600452602485fd5b600080fd5b50346101b95760203660031901126101b95760043581526007602052604090208054600182015491600160a01b60019003600282015416600160a01b60019003600383015416916004810154926005820154600683015460078401546008850154916009860161128890612c8f565b93600a87015498600b88015496600c89015498600d015460ff1699604051809e819e825260ff81166112b981612b4e565b602083015260081c6001600160a01b031660409091015260608d015260808c015260a08b015260c08a01526112f460e08a0160ff8316612b58565b60081c6001600160a01b0316610100890152610120880152610140870152610260610160870181905261132a9190870190612b65565b9360ff811661133881612b4e565b6101808701528060081c60ff1661134e81612b4e565b6101a08701528060101c60ff1615156101c087015260181c60ff1615156101e086015261020085015261022084015215156102408301520390f35b50346101b957806003193601126101b9576001546040516001600160a01b039091168152602090f35b50346101b95760203660031901126101b9576020906040906001600160a01b036113da612af3565b168152600c83522054604051908152f35b50346101b95760203660031901126101b957600435611408612d35565b6127108111611443576020817fd0a5ddfa06600c6481dcd2923a572827c06e53859f23f7ddab41ff3144ee868792600655604051908152a180f35b60405162461bcd60e51b815260206004820152600c60248201526b08ccaca40e8dede40d0d2ced60a31b6044820152606490fd5b50346101b957806003193601126101b957611490612d35565b600180546001600160a01b031981169091556000906001600160a01b03167f8be0079c531659141344cd1fd0a4f28419497f9722a3daafe3b4186f6b6457e08280a380f35b50346101b95760203660031901126101b9576114ef612af3565b6114f7612d35565b6001600160a01b0316801561153f57600380546001600160a01b031916821790557f54e4612788f90384e6843298d7854436f3a585b2c3831ab66abf1de63bfa6c2d8280a280f35b60405162461bcd60e51b815260206004820152600d60248201526c24b73b30b634b21030b236b4b760991b6044820152606490fd5b50346101b95760203660031901126101b95760406020916004358152600983522054604051908152f35b5060c03660031901126101b9576115b3612af3565b6115bb612b09565b9060a4356001600160401b03811161034f576115db903690600401612ba5565b92906115e5612ea1565b6001600160a01b038316611b68575b606435158015611b5c575b61160890612f10565b6001600160a01b0382168552600b602052604085205461162b9060ff1615612d61565b6116386044351515612da4565b6116456084351515612de4565b6116556101f46084351115612e30565b6001600160a01b038216611b2d576116706044353414612f97565b6005549361167d85612e7c565b600555848652600760205260408620858155600180820180546001600160a81b0319163360081b610100600160a81b03161790911790559160ff196002840180546001600160a01b038881166001600160a01b0319928316179092556003860180549288169290911691909117905560443560048501556084356005850155611707606435612b4e565b611716606435600a8601612fd9565b6001600160a01b038616611b2757875b60068501916008821015611b115760ff9083541691161790554260078401556001600160401b0382116106bb5781906117626009850154612c05565b601f8111611ac1575b508790601f8311600114611a55578892611a4a575b50508160011b916000199060031b1c19161760098201555b600a8101805463ffff0000191690556001600160a01b03831615611936576001600160a01b0382166118cd576002546001600160a01b0316803b1561034057856040518092637a443e3d60e11b825281806117fb8a6044358a3360048601612ff1565b0391604435905af180156118c2576118aa575b5091602094916001935b600a6201000062ff000019828401541617910155604051604435815285600080516020613216833981519152883393a35b604080516001600160a01b0392909216825260443560208301526084359082015260a084901b8490039190911690339085907ff4f5a9f479b06cd99960b03cddc4864cb98eaa763a8f668617c80f589512777990606090a455604051908152f35b6118b48691612c3f565b6118be573861180e565b8480fd5b6040513d88823e3d90fd5b6002546001600160a01b0316803b1561034057856040518092637a443e3d60e11b82528183816119058b6044358b3360048601612ff1565b03925af180156118c257611922575b509160209491600193611818565b61192c8691612c3f565b6118be5738611914565b6001600160a01b0382166119e1576002546001600160a01b0316803b1561034057856040518092637a443e3d60e11b8252818061197b8a6044358a3360048601612ff1565b0391604435905af180156118c2576119cd575b5091602094916001935b600a6201000062ff000019828401541617910155604051604435815285600080516020613216833981519152883393a3611849565b6119d78691612c3f565b6118be573861198e565b6002546001600160a01b0316803b1561034057856040518092637a443e3d60e11b8252818381611a198b6044358b3360048601612ff1565b03925af180156118c257611a36575b509160209491600193611998565b611a408691612c3f565b6118be5738611a28565b013590503880611780565b60098501895260208920899450915b601f1984168510611aa9576001945083601f19811610611a8f575b505050811b016009820155611798565b0135600019600384901b60f8161c19169055388080611a7f565b81810135835560209485019460019093019201611a64565b90915060098401885260208820601f840160051c810160208510611b0a575b90849392915b601f830160051c82018110611afc57505061176b565b8a8155859450600101611ae6565b5080611ae0565b634e487b7160e01b600052602160045260246000fd5b87611726565b611b373415612f4b565b600254611b5790604435906001600160a01b03908116903390861661301b565b611670565b506064356001146115ff565b611b7d6001600160a01b038416331415612ec4565b6115f4565b50346101b95760203660031901126101b957600435611b9f612ea1565b8082526007602052604082206001810154611bc2600160ff831661022181612b4e565b60ff6006830154166008811015611200576006611bdf9114613194565b60018060a01b03809160081c163314918215611c7b575b505015611c2a5733907f8662f95f63b18bd2d50a68ba55da66f73e4e5e1619d07dd9a7b7012e93a426ff8380a36001815580f35b60405162461bcd60e51b8152602060048201526024808201527f4f6e6c79207061727469636970616e74732063616e206465636c696e65207265604482015263199d5b9960e21b6064820152608490fd5b600291925001541633143880611bf6565b50346101b9576020806003193601126104cd5760043590611cab612ea1565b8183526007815260408320916006830180549060ff821660088110156104b957600303611dee576001600160a01b0391600881901c8316338103611db15715611d7c57604051604081018181106001600160401b03821117610744576040526001815285810190863683375115611d68579160047f401af6acaf4dfd2ab7650e060f96cf76f6a51fd9d42102601e60fdacd4eacff29492819433905260ff1916179055600386015416940154926040519384523393a46001815580f35b634e487b7160e01b88526032600452602488fd5b60405162461bcd60e51b815260048101869052600d60248201526c139bc81dda5b9b995c881cd95d609a1b6044820152606490fd5b60405162461bcd60e51b81526004810187905260156024820152744f6e6c792077696e6e65722063616e20636c61696d60581b6044820152606490fd5b60405162461bcd60e51b815260048101859052601660248201527510da185b1b195b99d9481b9bdd081c995cdbdb1d995960521b6044820152606490fd5b50346101b957611e3b36612bd2565b90611e44612d35565b611e4c612ea1565b828452600760205260408420916001830192835490611e73600160ff841661022181612b4e565b60068101805460ff81166008811015610a2c57600603611fc55760079060ff191617905560048101549160018060a01b03958887600254166002850194896003818854169201541691803b1561034f5783928c928c6040519889956360dae9af60e11b8752600487015260081c1660248501526044840152606483015287608483015260c060a4830152818381611f0f8d8d60c4840191613173565b03925af1928315611fb8578993611f9b575b50506020877fbea640a4e0032618e4dab2cbcc4a119af2c351ae2c26e3c0bdf8aec842313391987ff91aa0a9813cbc386975170e821fb6193d22ab6759de1354d8f4c4f7cf42ad91935460081c1694541694604051908152a4611f91604051928392602084526020840191613173565b0390a26001815580f35b611fa791929350612c3f565b611fb45786908838611f21565b8780fd5b50604051903d90823e3d90fd5b60405162461bcd60e51b815260206004820152601a60248201527f4368616c6c656e6765206d7573742062652064697370757465640000000000006044820152606490fd5b506101403660031901126101b957612020612af3565b612028612b09565b9060a4356001600160401b03811161034f57612048903690600401612ba5565b929060ff60e4351660e4350361121457612060612ea1565b6001600160a01b0383166123cb575b6064351580156123bf575b61208390612f10565b6001600160a01b0382168552600b60205260408520546120a69060ff1615612d61565b6120b36044351515612da4565b6120c06084351515612de4565b6120d06101f46084351115612e30565b600554936120dd85612e7c565b600555848652600760205260408620858155600180820180546001600160a81b0319163360081b610100600160a81b03161790911790559160ff196002840180546001600160a01b038881166001600160a01b0319928316179092556003860180549288169290911691909117905560443560048501556084356005850155612167606435612b4e565b612176606435600a8601612fd9565b600684019081541690554260078401556001600160401b0382116106bb5781906121a36009850154612c05565b601f811161236f575b508790601f83116001146123035788926122f8575b50508160011b916000199060031b1c19161760098201555b600a8101805463ffff0000191690556001600160a01b03821661223a576122036044353414612f97565b6002546001600160a01b0316803b1561034057856040518092637a443e3d60e11b825281806117fb8a6044358a3360048601612ff1565b6122443415612f4b565b8460c43580612270575b50506002546118cd90604435906001600160a01b03908116903390861661301b565b6001600160a01b0384163b156104cd5760405163d505accf60e01b81523360048201523060248201526044803590820152606481019190915260e4803560ff1660848301526101043560a48301526101243560c48301528290829081836001600160a01b0389165af18015610344571561224e576122ed90612c3f565b6118be57843861224e565b0135905038806121c1565b60098501895260208920899450915b601f1984168510612357576001945083601f1981161061233d575b505050811b0160098201556121d9565b0135600019600384901b60f8161c1916905538808061232d565b81810135835560209485019460019093019201612312565b90915060098401885260208820601f840160051c8101602085106123b8575b90849392915b601f830160051c820181106123aa5750506121ac565b8a8155859450600101612394565b508061238e565b5060643560011461207a565b6123e06001600160a01b038416331415612ec4565b61206f565b50346101b95760203660031901126101b9578061024060405161240781612c52565b8281528260208201528260408201528260608201528260808201528260a08201528260c08201528260e0820152826101008201528261012082015282610140820152606061016082015282610180820152826101a0820152826101c0820152826101e08201528261020082015282610220820152015260043581526007602052604081206040519161249883612c52565b8154835260018201546124ad60ff8216612b4e565b60ff81811660208601526001600160a01b03600892831c811660408701526002850154811660608701526003850154166080860152600484015460a0860152600584015460c08601526006840154929190831610156126f6575060ff81811660e0850152600891821c6001600160a01b031661010085015260078301546101208501529082015461014084015290600d9061254a60098201612c8f565b61016085015282600a820154612561828216612b4e565b818116610180870152612578828260081c16612b4e565b818160081c166101a0870152818160101c1615156101c087015260181c1615156101e0850152600b810154610200850152600c81015461022085015201541615156102408201526040518091602082528051602083015260208101516125dd81612b4e565b604083015260018060a01b03604082015116606083015260018060a01b03606082015116608083015260018060a01b0360808201511660a083015260a081015160c083015260c081015160e083015261263f60e0820151610100840190612b58565b60018060a01b036101008201511661012083015261012081015161014083015261014081015161016083015261016081015161024061268d6102609283610180870152610280860190612b65565b9261018081015161269d81612b4e565b6101a08601526101a08101516126b281612b4e565b6101c08601526101c081015115156101e08601526101e081015115156102008601526102008101516102208601526102208101518286015201511515908301520390f35b634e487b7160e01b81526021600452602490fd5b50346101b95760207fced2684241c29578df8f7fbab74348d0053114fa157b900b2f1f4a1d4a2b339561273c36612b1f565b9290612746612d35565b6001600160a01b03169261275b8415156131d9565b838552600b825261082f81604087209060ff801983541691151516179055565b50346101b95760203660031901126101b957612795612af3565b61279d612d35565b6001600160a01b031680156127e557600480546001600160a01b031916821790557fba887708e7d4436dd36b62187bdced03e0b9abe66caf392a66dd84386641b2098280a280f35b60405162461bcd60e51b8152602060048201526011602482015270125b9d985b1a59081c9958da5c1a595b9d607a1b6044820152606490fd5b50346101b95760403660031901126101b95760243560043582526008602052604082208054821015610d2757602083600392608095522091020180549060ff60026001830154920154169060ff6040519360018060a01b038116855260a01c1615156020840152604083015215156060820152f35b50346101b95760203660031901126101b9576004356128b0612ea1565b8082526007602052604082206001810180546128d4600160ff831661022181612b4e565b6006830191825460ff811660088110156109a65760066128f49114613194565b60018060a01b03809360081c16938433148015612abf575b15612a6e57600760ff198093161790556001600d860191825416179055600484015493868360025416946002830195856003818954169501541690803b1561034f57838a916101049360405197889687956360dae9af60e11b875260048701526024860152604485015260648401528a608484015260c060a4840152602060c48401527f4d757475616c20726566756e642061677265656d656e7420616363657074656460e48401525af18015612a6357612a27575b5060208286937ff91aa0a9813cbc386975170e821fb6193d22ab6759de1354d8f4c4f7cf42ad91935460081c1694541694604051908152a433907ffd3d8eb8c74c125342483824fd0ad7e0033d5d74d8ed512a0b4fb798d38c685a8380a36001815580f35b8286937ff91aa0a9813cbc386975170e821fb6193d22ab6759de1354d8f4c4f7cf42ad919398612a58602094612c3f565b9893505092506129c2565b6040513d89823e3d90fd5b60405162461bcd60e51b815260206004820152602360248201527f4f6e6c79207061727469636970616e74732063616e20616363657074207265666044820152621d5b9960ea1b6064820152608490fd5b5083600287015416331461290c565b9050346104cd57816003193601126104cd576002546001600160a01b03168152602090f35b600435906001600160a01b038216820361121457565b602435906001600160a01b038216820361121457565b6040906003190112611214576004356001600160a01b0381168103611214579060243580151581036112145790565b60021115611b1157565b906008821015611b115752565b919082519283825260005b848110612b91575050826000602080949584010152601f8019910116010190565b602081830181015184830182015201612b70565b9181601f84011215611214578235916001600160401b038311611214576020838186019501011161121457565b9060406003198301126112145760043591602435906001600160401b03821161121457612c0191600401612ba5565b9091565b90600182811c92168015612c35575b6020831014612c1f57565b634e487b7160e01b600052602260045260246000fd5b91607f1691612c14565b6001600160401b03811161074457604052565b61026081019081106001600160401b0382111761074457604052565b90601f801991011681019081106001600160401b0382111761074457604052565b9060405191826000825492612ca384612c05565b908184526001948581169081600014612d125750600114612ccf575b5050612ccd92500383612c6e565b565b9093915060005260209081600020936000915b818310612cfa575050612ccd93508201013880612cbf565b85548884018501529485019487945091830191612ce2565b915050612ccd94506020925060ff191682840152151560051b8201013880612cbf565b6001546001600160a01b03163303612d4957565b60405163118cdaa760e01b8152336004820152602490fd5b15612d6857565b60405162461bcd60e51b8152602060048201526014602482015273151bdad95b881a5cc8189b1858dadb1a5cdd195960621b6044820152606490fd5b15612dab57565b60405162461bcd60e51b815260206004820152601160248201527005374616b65206d757374206265203e203607c1b6044820152606490fd5b15612deb57565b60405162461bcd60e51b815260206004820152601960248201527f506f696e747320726577617264206d757374206265203e2030000000000000006044820152606490fd5b15612e3757565b60405162461bcd60e51b815260206004820152601f60248201527f506f696e7473207265776172642063616e6e6f742065786365656420353030006044820152606490fd5b6000198114612e8b5760010190565b634e487b7160e01b600052601160045260246000fd5b600260005414612eb2576002600055565b604051633ee5aeb560e01b8152600490fd5b15612ecb57565b60405162461bcd60e51b815260206004820152601960248201527f43616e6e6f74206368616c6c656e676520796f757273656c66000000000000006044820152606490fd5b15612f1757565b60405162461bcd60e51b815260206004820152600c60248201526b496e76616c6964207369646560a01b6044820152606490fd5b15612f5257565b60405162461bcd60e51b815260206004820152601960248201527f446f206e6f742073656e642045544820666f72204552433230000000000000006044820152606490fd5b15612f9e57565b60405162461bcd60e51b815260206004820152601360248201527208aa89040c2dadeeadce840dad2e6dac2e8c6d606b1b6044820152606490fd5b90612fe381612b4e565b60ff80198354169116179055565b6001600160a01b039182168152911660208201526040810191909152606081019190915260800190565b6040516323b872dd60e01b60208201526001600160a01b03928316602482015292909116604483015260648083019390935291815260a08101918183106001600160401b0384111761074457612ccd926040525b906000602091828151910182855af1156130cb576000513d6130c257506001600160a01b0381163b155b6130a05750565b604051635274afe760e01b81526001600160a01b039091166004820152602490fd5b60011415613099565b6040513d6000823e3d90fd5b156130de57565b60405162461bcd60e51b81526020600482015260116024820152704e6f7420503250206368616c6c656e676560781b6044820152606490fd5b9061312181612b4e565b61ff0082549160081b169061ff001916179055565b1561313d57565b60405162461bcd60e51b815260206004820152600e60248201526d496e76616c69642073746174757360901b6044820152606490fd5b908060209392818452848401376000828201840152601f01601f1916010190565b1561319b57565b60405162461bcd60e51b815260206004820152601660248201527510da185b1b195b99d9481b9bdd08191a5cdc1d5d195960521b6044820152606490fd5b156131e057565b60405162461bcd60e51b815260206004820152600d60248201526c24b73b30b634b2103a37b5b2b760991b6044820152606490fdfeda802d1f712d76bc374130e717018a5b3a7ad3af3df40efa559a23b96a485067a26469706673582212207f1cad135e57eb734bee72d3801e3469d02d777d696c9454d1604ba9fb989fb664736f6c63430008140033",
  "linkReferences": {},
  "deployedLinkReferences": {}
}