{
  "_format": "hh-sol-artifact-1",
  "contractName": "ChallengeFactory",
  "sourceName": "src/ChallengeFactory.sol",
  "abi": [
    {
      "inputs": [
        {
          "internalType": "address payable",
          "name": "_stakeEscrow",
          "type": "address"
        },
        {
          "internalType": "address",
          "name": "_admin",
          "type": "address"
        },
        {
          "internalType": "address",
          "name": "_platformFeeRecipient",
          "type": "address"
        }
      ],
      "stateMutability": "nonpayable",
      "type": "constructor"
    },
    {
      "inputs": [
        {
          "internalType": "address",
          "name": "owner",
          "type": "address"
        }
      ],
      "name": "OwnableInvalidOwner",
      "type": "error"
    },
    {
      "inputs": [
        {
          "internalType": "address",
          "name": "account",
          "type": "address"
        }
      ],
      "name": "OwnableUnauthorizedAccount",
      "type": "error"
    },
    {
      "inputs": [],
      "name": "ReentrancyGuardReentrantCall",
      "type": "error"
    },
    {
      "inputs": [
        {
          "internalType": "address",
          "name": "token",
          "type": "address"
        }
      ],
      "name": "SafeERC20FailedOperation",
      "type": "error"
    },
    {
      "anonymous": false,
      "inputs": [
        {
          "indexed": true,
          "internalType": "uint256",
          "name": "challengeId",
          "type": "uint256"
        },
        {
          "indexed": false,
          "internalType": "string",
          "name": "reason",
          "type": "string"
        }
      ],
      "name": "AdminForcedRefund",
      "type": "event"
    },
    {
      "anonymous": false,
      "inputs": [
        {
          "indexed": true,
          "internalType": "address",
          "name": "newAdmin",
          "type": "address"
        }
      ],
      "name": "AdminUpdated",
      "type": "event"
    },
    {
      "anonymous": false,
      "inputs": [
        {
          "indexed": true,
          "internalType": "uint256",
          "name": "challengeId",
          "type": "uint256"
        },
        {
          "indexed": true,
          "internalType": "address",
          "name": "creator",
          "type": "address"
        },
        {
          "indexed": true,
          "internalType": "address",
          "name": "paymentToken",
          "type": "address"
        },
        {
          "indexed": false,
          "internalType": "uint256",
          "name": "stakeAmount",
          "type": "uint256"
        },
        {
          "indexed": false,
          "internalType": "uint256",
          "name": "pointsReward",
          "type": "uint256"
        }
      ],
      "name": "ChallengeCreatedGroup",
      "type": "event"
    },
    {
      "anonymous": false,
      "inputs": [
        {
          "indexed": true,
          "internalType": "uint256",
          "name": "challengeId",
          "type": "uint256"
        },
        {
          "indexed": true,
          "internalType": "address",
          "name": "creator",
          "type": "address"
        },
        {
          "indexed": true,
          "internalType": "address",
          "name": "participant",
          "type": "address"
        },
        {
          "indexed": false,
          "internalType": "address",
          "name": "paymentToken",
          "type": "address"
        },
        {
          "indexed": false,
          "internalType": "uint256",
          "name": "stakeAmount",
          "type": "uint256"
        },
        {
          "indexed": false,
          "internalType": "uint256",
          "name": "pointsReward",
          "type": "uint256"
        }
      ],
      "name": "ChallengeCreatedP2P",
      "type": "event"
    },
    {
      "anonymous": false,
      "inputs": [
        {
          "indexed": true,
          "internalType": "uint256",
          "name": "challengeId",
          "type": "uint256"
        },
        {
          "indexed": true,
          "internalType": "address",
          "name": "winner",
          "type": "address"
        },
        {
          "indexed": true,
          "internalType": "address",
          "name": "paymentToken",
          "type": "address"
        },
        {
          "indexed": false,
          "internalType": "uint256",
          "name": "stakeAmount",
          "type": "uint256"
        },
        {
          "indexed": false,
          "internalType": "uint256",
          "name": "pointsAwarded",
          "type": "uint256"
        }
      ],
      "name": "ChallengeResolved",
      "type": "event"
    },
    {
      "anonymous": false,
      "inputs": [
        {
          "indexed": true,
          "internalType": "uint256",
          "name": "challengeId",
          "type": "uint256"
        },
        {
          "indexed": true,
          "internalType": "address",
          "name": "creator",
          "type": "address"
        },
        {
          "indexed": false,
          "internalType": "uint256",
          "name": "stakeAmount",
          "type": "uint256"
        }
      ],
      "name": "CreatorStakeLocked",
      "type": "event"
    },
    {
      "anonymous": false,
      "inputs": [
        {
          "indexed": true,
          "internalType": "address",
          "name": "previousOwner",
          "type": "address"
        },
        {
          "indexed": true,
          "internalType": "address",
          "name": "newOwner",
          "type": "address"
        }
      ],
      "name": "OwnershipTransferred",
      "type": "event"
    },
    {
      "anonymous": false,
      "inputs": [
        {
          "indexed": true,
          "internalType": "uint256",
          "name": "challengeId",
          "type": "uint256"
        },
        {
          "indexed": true,
          "internalType": "address",
          "name": "participant",
          "type": "address"
        },
        {
          "indexed": false,
          "internalType": "uint256",
          "name": "stakeAmount",
          "type": "uint256"
        }
      ],
      "name": "ParticipantStakeLocked",
      "type": "event"
    },
    {
      "anonymous": false,
      "inputs": [
        {
          "indexed": true,
          "internalType": "address",
          "name": "token",
          "type": "address"
        },
        {
          "indexed": false,
          "internalType": "bool",
          "name": "enabled",
          "type": "bool"
        }
      ],
      "name": "PaymentTokenToggled",
      "type": "event"
    },
    {
      "anonymous": false,
      "inputs": [
        {
          "indexed": true,
          "internalType": "address",
          "name": "token",
          "type": "address"
        },
        {
          "indexed": false,
          "internalType": "uint256",
          "name": "amount",
          "type": "uint256"
        }
      ],
      "name": "PlatformFeeCollected",
      "type": "event"
    },
    {
      "anonymous": false,
      "inputs": [
        {
          "indexed": false,
          "internalType": "uint256",
          "name": "newPercentage",
          "type": "uint256"
        }
      ],
      "name": "PlatformFeePercentageUpdated",
      "type": "event"
    },
    {
      "anonymous": false,
      "inputs": [
        {
          "indexed": true,
          "internalType": "address",
          "name": "newRecipient",
          "type": "address"
        }
      ],
      "name": "PlatformFeeRecipientUpdated",
      "type": "event"
    },
    {
      "anonymous": false,
      "inputs": [
        {
          "indexed": true,
          "internalType": "address",
          "name": "token",
          "type": "address"
        },
        {
          "indexed": false,
          "internalType": "uint256",
          "name": "amount",
          "type": "uint256"
        },
        {
          "indexed": true,
          "internalType": "address",
          "name": "recipient",
          "type": "address"
        }
      ],
      "name": "PlatformFeeWithdrawn",
      "type": "event"
    },
    {
      "anonymous": false,
      "inputs": [
        {
          "indexed": true,
          "internalType": "uint256",
          "name": "challengeId",
          "type": "uint256"
        },
        {
          "indexed": true,
          "internalType": "address",
          "name": "acceptor",
          "type": "address"
        }
      ],
      "name": "RefundAccepted",
      "type": "event"
    },
    {
      "anonymous": false,
      "inputs": [
        {
          "indexed": true,
          "internalType": "uint256",
          "name": "challengeId",
          "type": "uint256"
        },
        {
          "indexed": true,
          "internalType": "address",
          "name": "decliner",
          "type": "address"
        }
      ],
      "name": "RefundDeclined",
      "type": "event"
    },
    {
      "anonymous": false,
      "inputs": [
        {
          "indexed": true,
          "internalType": "uint256",
          "name": "challengeId",
          "type": "uint256"
        },
        {
          "indexed": true,
          "internalType": "address",
          "name": "requester",
          "type": "address"
        },
        {
          "indexed": false,
          "internalType": "string",
          "name": "reason",
          "type": "string"
        }
      ],
      "name": "RefundRequested",
      "type": "event"
    },
    {
      "anonymous": false,
      "inputs": [
        {
          "indexed": true,
          "internalType": "uint256",
          "name": "challengeId",
          "type": "uint256"
        },
        {
          "indexed": true,
          "internalType": "address",
          "name": "user",
          "type": "address"
        },
        {
          "indexed": true,
          "internalType": "address",
          "name": "paymentToken",
          "type": "address"
        },
        {
          "indexed": false,
          "internalType": "uint256",
          "name": "amount",
          "type": "uint256"
        }
      ],
      "name": "StakeClaimed",
      "type": "event"
    },
    {
      "anonymous": false,
      "inputs": [
        {
          "indexed": true,
          "internalType": "uint256",
          "name": "challengeId",
          "type": "uint256"
        },
        {
          "indexed": true,
          "internalType": "address",
          "name": "creator",
          "type": "address"
        },
        {
          "indexed": true,
          "internalType": "address",
          "name": "participant",
          "type": "address"
        },
        {
          "indexed": false,
          "internalType": "uint256",
          "name": "refundAmount",
          "type": "uint256"
        }
      ],
      "name": "StakesRefunded",
      "type": "event"
    },
    {
      "anonymous": false,
      "inputs": [
        {
          "indexed": true,
          "internalType": "address",
          "name": "token",
          "type": "address"
        },
        {
          "indexed": false,
          "internalType": "bool",
          "name": "blacklisted",
          "type": "bool"
        }
      ],
      "name": "TokenBlacklisted",
      "type": "event"
    },
    {
      "anonymous": false,
      "inputs": [
        {
          "indexed": true,
          "internalType": "address",
          "name": "token",
          "type": "address"
        },
        {
          "indexed": false,
          "internalType": "bool",
          "name": "verified",
          "type": "bool"
        }
      ],
      "name": "TokenVerified",
      "type": "event"
    },
    {
      "inputs": [
        {
          "internalType": "uint256",
          "name": "challengeId",
          "type": "uint256"
        },
        {
          "internalType": "uint256",
          "name": "participantSide",
          "type": "uint256"
        }
      ],
      "name": "acceptP2PChallenge",
      "outputs": [],
      "stateMutability": "payable",
      "type": "function"
    },
    {
      "inputs": [
        {
          "internalType": "uint256",
          "name": "challengeId",
          "type": "uint256"
        }
      ],
      "name": "acceptRefund",
      "outputs": [],
      "stateMutability": "nonpayable",
      "type": "function"
    },
    {
      "inputs": [],
      "name": "admin",
      "outputs": [
        {
          "internalType": "address",
          "name": "",
          "type": "address"
        }
      ],
      "stateMutability": "view",
      "type": "function"
    },
    {
      "inputs": [
        {
          "internalType": "address",
          "name": "token",
          "type": "address"
        },
        {
          "internalType": "bool",
          "name": "blacklisted",
          "type": "bool"
        }
      ],
      "name": "blacklistToken",
      "outputs": [],
      "stateMutability": "nonpayable",
      "type": "function"
    },
    {
      "inputs": [
        {
          "internalType": "address",
          "name": "",
          "type": "address"
        }
      ],
      "name": "blacklistedTokens",
      "outputs": [
        {
          "internalType": "bool",
          "name": "",
          "type": "bool"
        }
      ],
      "stateMutability": "view",
      "type": "function"
    },
    {
      "inputs": [
        {
          "internalType": "uint256",
          "name": "",
          "type": "uint256"
        }
      ],
      "name": "challenges",
      "outputs": [
        {
          "internalType": "uint256",
          "name": "id",
          "type": "uint256"
        },
        {
          "internalType": "enum ChallengeFactory.ChallengeType",
          "name": "challengeType",
          "type": "uint8"
        },
        {
          "internalType": "address",
          "name": "creator",
          "type": "address"
        },
        {
          "internalType": "address",
          "name": "participant",
          "type": "address"
        },
        {
          "internalType": "address",
          "name": "paymentToken",
          "type": "address"
        },
        {
          "internalType": "uint256",
          "name": "stakeAmount",
          "type": "uint256"
        },
        {
          "internalType": "uint256",
          "name": "pointsReward",
          "type": "uint256"
        },
        {
          "internalType": "enum ChallengeFactory.ChallengeStatus",
          "name": "status",
          "type": "uint8"
        },
        {
          "internalType": "address",
          "name": "winner",
          "type": "address"
        },
        {
          "internalType": "uint256",
          "name": "createdAt",
          "type": "uint256"
        },
        {
          "internalType": "uint256",
          "name": "resolvedAt",
          "type": "uint256"
        },
        {
          "internalType": "string",
          "name": "metadataURI",
          "type": "string"
        },
        {
          "internalType": "enum ChallengeFactory.Side",
          "name": "creatorSide",
          "type": "uint8"
        },
        {
          "internalType": "enum ChallengeFactory.Side",
          "name": "participantSide",
          "type": "uint8"
        },
        {
          "internalType": "bool",
          "name": "creatorStaked",
          "type": "bool"
        },
        {
          "internalType": "bool",
          "name": "participantStaked",
          "type": "bool"
        },
        {
          "internalType": "uint256",
          "name": "stakedAt",
          "type": "uint256"
        },
        {
          "internalType": "uint256",
          "name": "refundRequestedAt",
          "type": "uint256"
        },
        {
          "internalType": "bool",
          "name": "refundAccepted",
          "type": "bool"
        }
      ],
      "stateMutability": "view",
      "type": "function"
    },
    {
      "inputs": [
        {
          "internalType": "uint256",
          "name": "challengeId",
          "type": "uint256"
        }
      ],
      "name": "claimStake",
      "outputs": [],
      "stateMutability": "nonpayable",
      "type": "function"
    },
    {
      "inputs": [
        {
          "internalType": "address",
          "name": "paymentToken",
          "type": "address"
        },
        {
          "internalType": "uint256",
          "name": "stakeAmount",
          "type": "uint256"
        },
        {
          "internalType": "uint256",
          "name": "pointsReward",
          "type": "uint256"
        },
        {
          "internalType": "string",
          "name": "metadataURI",
          "type": "string"
        }
      ],
      "name": "createGroupChallenge",
      "outputs": [
        {
          "internalType": "uint256",
          "name": "",
          "type": "uint256"
        }
      ],
      "stateMutability": "nonpayable",
      "type": "function"
    },
    {
      "inputs": [
        {
          "internalType": "address",
          "name": "participant",
          "type": "address"
        },
        {
          "internalType": "address",
          "name": "paymentToken",
          "type": "address"
        },
        {
          "internalType": "uint256",
          "name": "stakeAmount",
          "type": "uint256"
        },
        {
          "internalType": "uint256",
          "name": "creatorSide",
          "type": "uint256"
        },
        {
          "internalType": "uint256",
          "name": "pointsReward",
          "type": "uint256"
        },
        {
          "internalType": "string",
          "name": "metadataURI",
          "type": "string"
        }
      ],
      "name": "createP2PChallenge",
      "outputs": [
        {
          "internalType": "uint256",
          "name": "",
          "type": "uint256"
        }
      ],
      "stateMutability": "payable",
      "type": "function"
    },
    {
      "inputs": [
        {
          "internalType": "uint256",
          "name": "challengeId",
          "type": "uint256"
        }
      ],
      "name": "declineRefund",
      "outputs": [],
      "stateMutability": "nonpayable",
      "type": "function"
    },
    {
      "inputs": [
        {
          "internalType": "uint256",
          "name": "challengeId",
          "type": "uint256"
        },
        {
          "internalType": "string",
          "name": "reason",
          "type": "string"
        }
      ],
      "name": "forceRefund",
      "outputs": [],
      "stateMutability": "nonpayable",
      "type": "function"
    },
    {
      "inputs": [
        {
          "internalType": "uint256",
          "name": "challengeId",
          "type": "uint256"
        }
      ],
      "name": "getChallenge",
      "outputs": [
        {
          "components": [
            {
              "internalType": "uint256",
              "name": "id",
              "type": "uint256"
            },
            {
              "internalType": "enum ChallengeFactory.ChallengeType",
              "name": "challengeType",
              "type": "uint8"
            },
            {
              "internalType": "address",
              "name": "creator",
              "type": "address"
            },
            {
              "internalType": "address",
              "name": "participant",
              "type": "address"
            },
            {
              "internalType": "address",
              "name": "paymentToken",
              "type": "address"
            },
            {
              "internalType": "uint256",
              "name": "stakeAmount",
              "type": "uint256"
            },
            {
              "internalType": "uint256",
              "name": "pointsReward",
              "type": "uint256"
            },
            {
              "internalType": "enum ChallengeFactory.ChallengeStatus",
              "name": "status",
              "type": "uint8"
            },
            {
              "internalType": "address",
              "name": "winner",
              "type": "address"
            },
            {
              "internalType": "uint256",
              "name": "createdAt",
              "type": "uint256"
            },
            {
              "internalType": "uint256",
              "name": "resolvedAt",
              "type": "uint256"
            },
            {
              "internalType": "string",
              "name": "metadataURI",
              "type": "string"
            },
            {
              "internalType": "enum ChallengeFactory.Side",
              "name": "creatorSide",
              "type": "uint8"
            },
            {
              "internalType": "enum ChallengeFactory.Side",
              "name": "participantSide",
              "type": "uint8"
            },
            {
              "internalType": "bool",
              "name": "creatorStaked",
              "type": "bool"
            },
            {
              "internalType": "bool",
              "name": "participantStaked",
              "type": "bool"
            },
            {
              "internalType": "uint256",
              "name": "stakedAt",
              "type": "uint256"
            },
            {
              "internalType": "uint256",
              "name": "refundRequestedAt",
              "type": "uint256"
            },
            {
              "internalType": "bool",
              "name": "refundAccepted",
              "type": "bool"
            }
          ],
          "internalType": "struct ChallengeFactory.Challenge",
          "name": "",
          "type": "tuple"
        }
      ],
      "stateMutability": "view",
      "type": "function"
    },
    {
      "inputs": [
        {
          "internalType": "address",
          "name": "token",
          "type": "address"
        }
      ],
      "name": "getPlatformFeeBalance",
      "outputs": [
        {
          "internalType": "uint256",
          "name": "",
          "type": "uint256"
        }
      ],
      "stateMutability": "view",
      "type": "function"
    },
    {
      "inputs": [
        {
          "internalType": "uint256",
          "name": "",
          "type": "uint256"
        },
        {
          "internalType": "uint256",
          "name": "",
          "type": "uint256"
        }
      ],
      "name": "groupChallengeParticipants",
      "outputs": [
        {
          "internalType": "address",
          "name": "user",
          "type": "address"
        },
        {
          "internalType": "bool",
          "name": "side",
          "type": "bool"
        },
        {
          "internalType": "uint256",
          "name": "stakeAmount",
          "type": "uint256"
        },
        {
          "internalType": "bool",
          "name": "claimed",
          "type": "bool"
        }
      ],
      "stateMutability": "view",
      "type": "function"
    },
    {
      "inputs": [
        {
          "internalType": "address",
          "name": "token",
          "type": "address"
        }
      ],
      "name": "isTokenBlacklisted",
      "outputs": [
        {
          "internalType": "bool",
          "name": "",
          "type": "bool"
        }
      ],
      "stateMutability": "view",
      "type": "function"
    },
    {
      "inputs": [
        {
          "internalType": "address",
          "name": "token",
          "type": "address"
        }
      ],
      "name": "isTokenVerified",
      "outputs": [
        {
          "internalType": "bool",
          "name": "",
          "type": "bool"
        }
      ],
      "stateMutability": "view",
      "type": "function"
    },
    {
      "inputs": [
        {
          "internalType": "uint256",
          "name": "challengeId",
          "type": "uint256"
        }
      ],
      "name": "lockCreatorStake",
      "outputs": [],
      "stateMutability": "payable",
      "type": "function"
    },
    {
      "inputs": [],
      "name": "nextChallengeId",
      "outputs": [
        {
          "internalType": "uint256",
          "name": "",
          "type": "uint256"
        }
      ],
      "stateMutability": "view",
      "type": "function"
    },
    {
      "inputs": [],
      "name": "owner",
      "outputs": [
        {
          "internalType": "address",
          "name": "",
          "type": "address"
        }
      ],
      "stateMutability": "view",
      "type": "function"
    },
    {
      "inputs": [
        {
          "internalType": "uint256",
          "name": "",
          "type": "uint256"
        }
      ],
      "name": "p2pChallengeAmounts",
      "outputs": [
        {
          "internalType": "uint256",
          "name": "",
          "type": "uint256"
        }
      ],
      "stateMutability": "view",
      "type": "function"
    },
    {
      "inputs": [
        {
          "internalType": "address",
          "name": "",
          "type": "address"
        }
      ],
      "name": "platformFeeBalance",
      "outputs": [
        {
          "internalType": "uint256",
          "name": "",
          "type": "uint256"
        }
      ],
      "stateMutability": "view",
      "type": "function"
    },
    {
      "inputs": [],
      "name": "platformFeePercentage",
      "outputs": [
        {
          "internalType": "uint256",
          "name": "",
          "type": "uint256"
        }
      ],
      "stateMutability": "view",
      "type": "function"
    },
    {
      "inputs": [],
      "name": "platformFeeRecipient",
      "outputs": [
        {
          "internalType": "address",
          "name": "",
          "type": "address"
        }
      ],
      "stateMutability": "view",
      "type": "function"
    },
    {
      "inputs": [],
      "name": "renounceOwnership",
      "outputs": [],
      "stateMutability": "nonpayable",
      "type": "function"
    },
    {
      "inputs": [
        {
          "internalType": "uint256",
          "name": "challengeId",
          "type": "uint256"
        },
        {
          "internalType": "string",
          "name": "reason",
          "type": "string"
        }
      ],
      "name": "requestRefund",
      "outputs": [],
      "stateMutability": "nonpayable",
      "type": "function"
    },
    {
      "inputs": [
        {
          "internalType": "address",
          "name": "newAdmin",
          "type": "address"
        }
      ],
      "name": "setAdmin",
      "outputs": [],
      "stateMutability": "nonpayable",
      "type": "function"
    },
    {
      "inputs": [
        {
          "internalType": "uint256",
          "name": "newPercentage",
          "type": "uint256"
        }
      ],
      "name": "setPlatformFeePercentage",
      "outputs": [],
      "stateMutability": "nonpayable",
      "type": "function"
    },
    {
      "inputs": [
        {
          "internalType": "address",
          "name": "newRecipient",
          "type": "address"
        }
      ],
      "name": "setPlatformFeeRecipient",
      "outputs": [],
      "stateMutability": "nonpayable",
      "type": "function"
    },
    {
      "inputs": [],
      "name": "stakeEscrow",
      "outputs": [
        {
          "internalType": "contract ChallengeEscrow",
          "name": "",
          "type": "address"
        }
      ],
      "stateMutability": "view",
      "type": "function"
    },
    {
      "inputs": [
        {
          "internalType": "address",
          "name": "newOwner",
          "type": "address"
        }
      ],
      "name": "transferOwnership",
      "outputs": [],
      "stateMutability": "nonpayable",
      "type": "function"
    },
    {
      "inputs": [
        {
          "internalType": "address",
          "name": "",
          "type": "address"
        }
      ],
      "name": "verifiedTokens",
      "outputs": [
        {
          "internalType": "bool",
          "name": "",
          "type": "bool"
        }
      ],
      "stateMutability": "view",
      "type": "function"
    },
    {
      "inputs": [
        {
          "internalType": "address",
          "name": "token",
          "type": "address"
        },
        {
          "internalType": "bool",
          "name": "verified",
          "type": "bool"
        }
      ],
      "name": "verifyToken",
      "outputs": [],
      "stateMutability": "nonpayable",
      "type": "function"
    },
    {
      "inputs": [
        {
          "internalType": "address",
          "name": "token",
          "type": "address"
        }
      ],
      "name": "withdrawPlatformFees",
      "outputs": [],
      "stateMutability": "nonpayable",
      "type": "function"
    },
    {
      "stateMutability": "payable",
      "type": "receive"
    }
  ],
  "bytecode": "0x608034620001d857601f62002dfb38819003918201601f191683019291906001600160401b03841183851017620001dd578160609284926040968752833981010312620001d85780516001600160a01b038082169291839003620001d85762000078846200007060208501620001f3565b9301620001f3565b9060016000553315620001c05760018054336001600160a01b0319808316821790935587519295929184167f8be0079c531659141344cd1fd0a4f28419497f9722a3daafe3b4186f6b6457e0600080a36001600555600a60065585156200018d575081169182156200015957169283156200011557826002541617600255816003541617600355600454161760045551612bf29081620002098239f35b845162461bcd60e51b815260206004820152601560248201527f496e76616c69642066656520726563697069656e7400000000000000000000006044820152606490fd5b855162461bcd60e51b815260206004820152600d60248201526c24b73b30b634b21030b236b4b760991b6044820152606490fd5b62461bcd60e51b815260206004820152600e60248201526d496e76616c696420657363726f7760901b6044820152606490fd5b8451631e4fbdf760e01b815260006004820152602490fd5b600080fd5b634e487b7160e01b600052604160045260246000fd5b51906001600160a01b0382168203620001d85756fe608080604052600436101561001d575b50361561001b57600080fd5b005b600090813560e01c908163017b975b1461251c57508063028df0d4146122e15780630d8d2d08146122745780631871e243146121d1578063190e4c55146121605780631baaaffe146105035780631bdd4b7414611e3b5780633ae5ef0e14611c6157806344c7d6ef14611ac05780634b117e32146119a25780635c8b5f4414610b9057806362193bc8146113f257806368a2b7de1461120657806369249fba146113c8578063704b6c0214611329578063715018a6146112cb5780638333903e1461123f57806386ff06e7146112065780638da5cb5b146111dd5780638f1d37761461106d578063c25d8b7b14610dcc578063c5ac3d4b14610bed578063cdd78cfc14610bcf578063ce9be9ba14610b90578063d2d6648214610b13578063d917fd4714610762578063eb13554f14610739578063ec3889b514610542578063ec867b2714610503578063f2fde38b14610473578063f4a947ef146101da578063f851a440146101b15763fc67aa500361000f57346101ae57806003193601126101ae576020600554604051908152f35b80fd5b50346101ae57806003193601126101ae576003546040516001600160a01b039091168152602090f35b5060208060031936011261046f576004356101f36128f4565b8083526007825260408320600181015461021b600160ff83166102158161259c565b14612a9d565b6006820160ff815416600881101561045b5760016102399114612add565b6001600160a01b039160081c8216330361041657600a830192835460ff8160101c166103d85760181c60ff16156103935786600382019380855416801560001461036e575061028d6004840154341461299e565b8060025416945416936004830194855490823b1561036a57604051637a443e3d60e11b81523360048201526001600160a01b039190911660248201526044810191909152606481018890529082908290608490829084905af1801561035f57610347575b50507fda802d1f712d76bc374130e717018a5b3a7ad3af3df40efa559a23b96a485067936201000062ff000019825416179055600b42910155600260ff1982541617905554926040519384523393a36001815580f35b6103509061268f565b61035b5786386102f1565b8680fd5b6040513d84823e3d90fd5b8380fd5b61038e9061037c3415612952565b826002541660048601549133906129e0565b61028d565b60405162461bcd60e51b815260048101879052601e60248201527f5061727469636970616e7420686173206e6f74207374616b65642079657400006044820152606490fd5b60405162461bcd60e51b815260048101889052601660248201527510dc99585d1bdc88185b1c9958591e481cdd185ad95960521b6044820152606490fd5b60405162461bcd60e51b815260048101869052601b60248201527f4f6e6c792063726561746f722063616e206c6f636b207374616b6500000000006044820152606490fd5b634e487b7160e01b87526021600452602487fd5b5080fd5b50346101ae5760203660031901126101ae5761048d612557565b610495612788565b6001600160a01b039081169081156104ea57600154826bffffffffffffffffffffffff60a01b821617600155167f8be0079c531659141344cd1fd0a4f28419497f9722a3daafe3b4186f6b6457e0600080a380f35b604051631e4fbdf760e01b815260048101849052602490fd5b50346101ae5760203660031901126101ae5760209060ff906040906001600160a01b0361052e612557565b168152600a84522054166040519015158152f35b50346101ae5760208060031936011261046f5761055d612557565b90610566612788565b61056e6128f4565b6001600160a01b03918216808452600c825260408420549290919083156106fe57828552600c8252846040812055821560001461067757848080808785600454165af13d15610672573d67ffffffffffffffff811161065e57604051906105de601f8201601f19168601836126c0565b815286843d92013e5b1561062357907f08273342a380b5301480c28ba6b7dfb7bfda23bfd871714c935e45a15e9cb823915b6004541693604051908152a36001815580f35b60405162461bcd60e51b8152600481018390526013602482015272115512081d1c985b9cd9995c8819985a5b1959606a1b6044820152606490fd5b634e487b7160e01b87526041600452602487fd5b6105e7565b60045460405163a9059cbb60e01b8185015290821660248201526044808201869052815291906080830167ffffffffffffffff8111848210176106e8577f08273342a380b5301480c28ba6b7dfb7bfda23bfd871714c935e45a15e9cb823936106e39160405285612a35565b610610565b634e487b7160e01b600052604160045260246000fd5b60405162461bcd60e51b81526004810183905260136024820152724e6f206665657320746f20776974686472617760681b6044820152606490fd5b50346101ae57806003193601126101ae576004546040516001600160a01b039091168152602090f35b5061076c36612541565b906107756128f4565b80835260209060078252604084206001938482015460ff61079c878284166102158161259c565b6006840192818454166008811015610aff57610ac5576001600160a01b039260081c83163314610a745780158015610a6b575b6107d890612917565b600a850192828454166107ea8161259c565b610a6457828a5b168214610a10576002860180548b93929190808316156109fa575081929350541633036109b5579060048a925b6003880192818454168015600014610991575061083f838a0154341461299e565b6108488161259c565b6108518161259c565b61ff0087549160081b169061ff0019161786558060025416925416960195865490823b1561036a57604051637a443e3d60e11b81523360048201526001600160a01b039190911660248201526044810191909152606481018890529082908290608490829084905af1801561035f57610979575b5050808254630100000063ff00000019821617809455169160081c16906108eb8261259c565b6108f48161259c565b1461093457805460ff1916851790555460405190815233927faa5d071b783a3c78ef80284714eeba5fe6e9dcbb542ff148b3f55702594c1bcd91a3815580f35b60405162461bcd60e51b815260048101859052601a60248201527f496e76616c6964207369646520636f6e66696775726174696f6e0000000000006044820152606490fd5b6109829061268f565b61098d5787386108c5565b8780fd5b6109b09061099f3415612952565b8360025416858c01549133906129e0565b61083f565b60405162461bcd60e51b815260048101899052601d60248201527f4e6f742074686520737065636966696564207061727469636970616e740000006044820152606490fd5b6001600160a01b0319163317905560049061081e565b60405162461bcd60e51b815260048101899052602660248201527f4d7573742063686f6f7365206f70706f7369746520736964652066726f6d20636044820152653932b0ba37b960d11b6064820152608490fd5b82896107f1565b508088146107cf565b60405162461bcd60e51b815260048101889052602360248201527f43726561746f722063616e6e6f7420616363657074206f776e206368616c6c656044820152626e676560e81b6064820152608490fd5b60405162461bcd60e51b815260048101889052601260248201527121b430b63632b733b2903737ba1037b832b760711b6044820152606490fd5b634e487b7160e01b8a52602160045260248afd5b50346101ae5760207fd128f4457567637d4d9a19a54a44a6e47ba1ed0cc875b3cff7b762c8bb27b416610b453661256d565b9290610b4f612788565b6001600160a01b031692610b64841515612b80565b838552600a8252610b8481604087209060ff801983541691151516179055565b6040519015158152a280f35b50346101ae5760203660031901126101ae5760209060ff906040906001600160a01b03610bbb612557565b168152600b84522054166040519015158152f35b50346101ae57806003193601126101ae576020600654604051908152f35b50346101ae57610bfc36612621565b9190610c066128f4565b8184526007602052604084206001810154610c29600160ff83166102158161259c565b600a82015460ff8160101c169081610dbe575b5015610d8157600682019081549060ff82169060088210159081610aff576002831480938115610d70575b50610c7190612add565b60018060a01b03809160081c163314908115610d60575b5015610d0f57610cfb5791610cd993917f5a28917ada7e719e75deb413b0eddfb869b62c4cf3808ecd3c5ceb107b8824509593610ce3575b5050506040519182916020835233966020840191612b1a565b0390a36001815580f35b60069060ff1916179055600c42910155388080610cc0565b634e487b7160e01b88526021600452602488fd5b60405162461bcd60e51b8152602060048201526024808201527f4f6e6c79207061727469636970616e74732063616e2072657175657374207265604482015263199d5b9960e21b6064820152608490fd5b9050600286015416331438610c88565b600093506006149050610c71610c67565b60405162461bcd60e51b8152602060048201526015602482015274109bdd1a081b5d5cdd081a185d99481cdd185ad959605a1b6044820152606490fd5b60ff915060181c1638610c3c565b50346101ae5760803660031901126101ae57610de6612557565b67ffffffffffffffff91602435919060443560643585811161106957610e109036906004016125f3565b949093610e1b612788565b610e236128f4565b6001600160a01b031691821561102c57828452602096600b8852610e4e60ff604087205416156127b4565b610e598315156127f7565b610e64821515612837565b610e726101f4831115612883565b60055496610e7f886128cf565b6005558786526007895260408620888155600180820180546001600160a81b0319163360081b610100600160a81b0316179055979060099060ff1960038201896bffffffffffffffffffffffff60a01b825416179055876004830155866005830155600682019081541690554260078201550192821161065e578190610f058454612655565b601f8111610fdc575b508790601f8311600114610f7c578892610f71575b5050600019600383901b1c191690871b1790555b60405191825286820152847fac61621ed399481a7fdd906a7b94c9d3667dee8643e9c121e783b860a3f2282d60403393a455604051908152f35b013590503880610f23565b8489528b89208a945091601f1984168a8e5b828210610fc55750508411610fab575b505050811b019055610f37565b0135600019600384901b60f8161c19169055388080610f9e565b8385013586558d979095019492830192018e610f8e565b9091508388528a8820601f840160051c8101918c8510611022575b84939291601f8c920160051c01915b828110611014575050610f0e565b8a81558594508b9101611006565b9091508190610ff7565b60405162461bcd60e51b815260206004820152601560248201527424b73b30b634b2103830bcb6b2b73a103a37b5b2b760591b6044820152606490fd5b8280fd5b50346101ae5760203660031901126101ae5760043581526007602052604090208054600182015491600160a01b60019003600282015416600160a01b6001900360038301541691600481015492600582015460068301546007840154600885015491600986016110dc906126e2565b93600a87015498600b88015496600c89015498600d015460ff1699604051809e819e825260ff811661110d8161259c565b602083015260081c6001600160a01b031660409091015260608d015260808c015260a08b015260c08a015261114860e08a0160ff83166125a6565b60081c6001600160a01b0316610100890152610120880152610140870152610260610160870181905261117e91908701906125b3565b9360ff811661118c8161259c565b6101808701528060081c60ff166111a28161259c565b6101a08701528060101c60ff1615156101c087015260181c60ff1615156101e086015261020085015261022084015215156102408301520390f35b50346101ae57806003193601126101ae576001546040516001600160a01b039091168152602090f35b50346101ae5760203660031901126101ae576020906040906001600160a01b0361122e612557565b168152600c83522054604051908152f35b50346101ae5760203660031901126101ae5760043561125c612788565b6127108111611297576020817fd0a5ddfa06600c6481dcd2923a572827c06e53859f23f7ddab41ff3144ee868792600655604051908152a180f35b60405162461bcd60e51b815260206004820152600c60248201526b08ccaca40e8dede40d0d2ced60a31b6044820152606490fd5b50346101ae57806003193601126101ae576112e4612788565b600180546001600160a01b031981169091556000906001600160a01b03167f8be0079c531659141344cd1fd0a4f28419497f9722a3daafe3b4186f6b6457e08280a380f35b50346101ae5760203660031901126101ae57611343612557565b61134b612788565b6001600160a01b0316801561139357600380546001600160a01b031916821790557f54e4612788f90384e6843298d7854436f3a585b2c3831ab66abf1de63bfa6c2d8280a280f35b60405162461bcd60e51b815260206004820152600d60248201526c24b73b30b634b21030b236b4b760991b6044820152606490fd5b50346101ae5760203660031901126101ae5760406020916004358152600983522054604051908152f35b5060c03660031901126101ae57611407612557565b6024356001600160a01b038116900361199d5760a43567ffffffffffffffff81116110695761143a9036906004016125f3565b91906114446128f4565b6001600160a01b038216611948575b60643515801561193c575b61146790612917565b6024356001600160a01b03168452600b602052604084205461148c9060ff16156127b4565b61149960443515156127f7565b6114a66084351515612837565b6114b66101f46084351115612883565b6024356001600160a01b031661190b576114d3604435341461299e565b600554926114e0846128cf565b600555838552600760205260408520848155600180820180546001600160a81b0319163360081b610100600160a81b03161790911790559160ff196002840180546001600160a01b038781166001600160a01b031992831617909255600386018054602435909316929091169190911790556044356004850155608435600585015561156d60643561259c565b61157860643561259c565b600a84018054821660ff606435161790556001600160a01b03851661190557865b600685019160088210156118ef5760ff90835416911617905542600784015567ffffffffffffffff82116118db5781906115d66009850154612655565b601f811161188b575b508690601f831160011461181f578792611814575b50508160011b916000199060031b1c19161760098201555b600a8101805463ffff0000191690556001600160a01b03821615611750576002546001600160a01b0316803b1561174c57604051637a443e3d60e11b8152336004820152602480356001600160a01b03169082015260448035908201526064810185905290859082908183816084810103925af180156117415761172d575b5092600191602094600a6201000062ff0000198284015416179101556040516044358152847fda802d1f712d76bc374130e717018a5b3a7ad3af3df40efa559a23b96a485067873393a35b60405190838060a01b03602435168252604435868301526084356040830152838060a01b031690847ff4f5a9f479b06cd99960b03cddc4864cb98eaa763a8f668617c80f589512777960603393a455604051908152f35b611737859161268f565b61036a573861168b565b6040513d87823e3d90fd5b8480fd5b6002546001600160a01b0316803b1561174c57604051637a443e3d60e11b8152336004820152602480356001600160a01b03169082015260448035908201526064810185905290859082908183816084810103925af1801561174157611800575b5092600191602094600a6201000062ff0000198284015416179101556040516044358152847fda802d1f712d76bc374130e717018a5b3a7ad3af3df40efa559a23b96a485067873393a36116d6565b61180a859161268f565b61036a57386117b1565b0135905038806115f4565b60098501885260208820889450915b601f1984168510611873576001945083601f19811610611859575b505050811b01600982015561160c565b0135600019600384901b60f8161c19169055388080611849565b8181013583556020948501946001909301920161182e565b90915060098401875260208720601f840160051c8101602085106118d4575b90849392915b601f830160051c820181106118c65750506115df565b8981558594506001016118b0565b50806118aa565b634e487b7160e01b86526041600452602486fd5b634e487b7160e01b600052602160045260246000fd5b86611599565b6119153415612952565b60025461193790604435906001600160a01b03908116903390602435166129e0565b6114d3565b5060643560011461145e565b336001600160a01b038316036114535760405162461bcd60e51b815260206004820152601960248201527f43616e6e6f74206368616c6c656e676520796f757273656c66000000000000006044820152606490fd5b600080fd5b50346101ae5760203660031901126101ae576004356119bf6128f4565b80825260076020526040822060018101546119e2600160ff83166102158161259c565b60ff6006830154166008811015611aac5760066119ff9114612b3b565b60018060a01b03809160081c163314918215611a9b575b505015611a4a5733907f8662f95f63b18bd2d50a68ba55da66f73e4e5e1619d07dd9a7b7012e93a426ff8380a36001815580f35b60405162461bcd60e51b8152602060048201526024808201527f4f6e6c79207061727469636970616e74732063616e206465636c696e65207265604482015263199d5b9960e21b6064820152608490fd5b600291925001541633143880611a16565b634e487b7160e01b85526021600452602485fd5b50346101ae5760208060031936011261046f5760043590611adf6128f4565b8183526007815260408320916006830180549060ff8216600881101561045b57600303611c23576001600160a01b0391600881901c8316338103611be65715611bb1576040516040810181811067ffffffffffffffff8211176106e8576040526001815285810190863683375115611b9d579160047f401af6acaf4dfd2ab7650e060f96cf76f6a51fd9d42102601e60fdacd4eacff29492819433905260ff1916179055600386015416940154926040519384523393a46001815580f35b634e487b7160e01b88526032600452602488fd5b60405162461bcd60e51b815260048101869052600d60248201526c139bc81dda5b9b995c881cd95d609a1b6044820152606490fd5b60405162461bcd60e51b81526004810187905260156024820152744f6e6c792077696e6e65722063616e20636c61696d60581b6044820152606490fd5b60405162461bcd60e51b815260048101859052601660248201527510da185b1b195b99d9481b9bdd081c995cdbdb1d995960521b6044820152606490fd5b50346101ae57611c7036612621565b90611c79612788565b611c816128f4565b828452600760205260408420916001830192835490611ca8600160ff84166102158161259c565b60068101805460ff81166008811015610aff57600603611df65760079060ff191617905560048101549160018060a01b03958887600254166002850194896003818854169201541691803b1561036a5783928c928c6040519889956360dae9af60e11b8752600487015260081c1660248501526044840152606483015287608483015260c060a4830152818381611d448d8d60c4840191612b1a565b03925af1928315611de9578993611dd0575b50506020877fbea640a4e0032618e4dab2cbcc4a119af2c351ae2c26e3c0bdf8aec842313391987ff91aa0a9813cbc386975170e821fb6193d22ab6759de1354d8f4c4f7cf42ad91935460081c1694541694604051908152a4611dc6604051928392602084526020840191612b1a565b0390a26001815580f35b611ddc9192935061268f565b61098d5786908838611d56565b50604051903d90823e3d90fd5b60405162461bcd60e51b815260206004820152601a60248201527f4368616c6c656e6765206d7573742062652064697370757465640000000000006044820152606490fd5b50346101ae5760203660031901126101ae5780610240604051611e5d816126a3565b8281528260208201528260408201528260608201528260808201528260a08201528260c08201528260e0820152826101008201528261012082015282610140820152606061016082015282610180820152826101a0820152826101c0820152826101e082015282610200820152826102208201520152600435815260076020526040812060405191611eee836126a3565b815483526001820154611f0360ff821661259c565b60ff81811660208601526001600160a01b03600892831c811660408701526002850154811660608701526003850154166080860152600484015460a0860152600584015460c086015260068401549291908316101561214c575060ff81811660e0850152600891821c6001600160a01b031661010085015260078301546101208501529082015461014084015290600d90611fa0600982016126e2565b61016085015282600a820154611fb782821661259c565b818116610180870152611fce828260081c1661259c565b818160081c166101a0870152818160101c1615156101c087015260181c1615156101e0850152600b810154610200850152600c81015461022085015201541615156102408201526040518091602082528051602083015260208101516120338161259c565b604083015260018060a01b03604082015116606083015260018060a01b03606082015116608083015260018060a01b0360808201511660a083015260a081015160c083015260c081015160e083015261209560e08201516101008401906125a6565b60018060a01b03610100820151166101208301526101208101516101408301526101408101516101608301526101608101516102406120e361026092836101808701526102808601906125b3565b926101808101516120f38161259c565b6101a08601526101a08101516121088161259c565b6101c08601526101c081015115156101e08601526101e081015115156102008601526102008101516102208601526102208101518286015201511515908301520390f35b634e487b7160e01b81526021600452602490fd5b50346101ae5760207fced2684241c29578df8f7fbab74348d0053114fa157b900b2f1f4a1d4a2b33956121923661256d565b929061219c612788565b6001600160a01b0316926121b1841515612b80565b838552600b8252610b8481604087209060ff801983541691151516179055565b50346101ae5760203660031901126101ae576121eb612557565b6121f3612788565b6001600160a01b0316801561223b57600480546001600160a01b031916821790557fba887708e7d4436dd36b62187bdced03e0b9abe66caf392a66dd84386641b2098280a280f35b60405162461bcd60e51b8152602060048201526011602482015270125b9d985b1a59081c9958da5c1a595b9d607a1b6044820152606490fd5b50346101ae5761228336612541565b908252600860205260408220805482101561106957602083600392608095522091020180549060ff60026001830154920154169060ff6040519360018060a01b038116855260a01c1615156020840152604083015215156060820152f35b50346101ae5760203660031901126101ae576004356122fe6128f4565b808252600760205260408220600181018054612322600160ff83166102158161259c565b6006830191825460ff81166008811015610cfb5760066123429114612b3b565b60018060a01b03809360081c1693843314801561250d575b156124bc57600760ff198093161790556001600d860191825416179055600484015493868360025416946002830195856003818954169501541690803b1561036a57838a916101049360405197889687956360dae9af60e11b875260048701526024860152604485015260648401528a608484015260c060a4840152602060c48401527f4d757475616c20726566756e642061677265656d656e7420616363657074656460e48401525af180156124b157612475575b5060208286937ff91aa0a9813cbc386975170e821fb6193d22ab6759de1354d8f4c4f7cf42ad91935460081c1694541694604051908152a433907ffd3d8eb8c74c125342483824fd0ad7e0033d5d74d8ed512a0b4fb798d38c685a8380a36001815580f35b8286937ff91aa0a9813cbc386975170e821fb6193d22ab6759de1354d8f4c4f7cf42ad9193986124a660209461268f565b989350509250612410565b6040513d89823e3d90fd5b60405162461bcd60e51b815260206004820152602360248201527f4f6e6c79207061727469636970616e74732063616e20616363657074207265666044820152621d5b9960ea1b6064820152608490fd5b5083600287015416331461235a565b90503461046f578160031936011261046f576002546001600160a01b03168152602090f35b604090600319011261199d576004359060243590565b600435906001600160a01b038216820361199d57565b604090600319011261199d576004356001600160a01b038116810361199d5790602435801515810361199d5790565b600211156118ef57565b9060088210156118ef5752565b919082519283825260005b8481106125df575050826000602080949584010152601f8019910116010190565b6020818301810151848301820152016125be565b9181601f8401121561199d5782359167ffffffffffffffff831161199d576020838186019501011161199d57565b90604060031983011261199d57600435916024359067ffffffffffffffff821161199d57612651916004016125f3565b9091565b90600182811c92168015612685575b602083101461266f57565b634e487b7160e01b600052602260045260246000fd5b91607f1691612664565b67ffffffffffffffff81116106e857604052565b610260810190811067ffffffffffffffff8211176106e857604052565b90601f8019910116810190811067ffffffffffffffff8211176106e857604052565b90604051918260008254926126f684612655565b9081845260019485811690816000146127655750600114612722575b5050612720925003836126c0565b565b9093915060005260209081600020936000915b81831061274d57505061272093508201013880612712565b85548884018501529485019487945091830191612735565b91505061272094506020925060ff191682840152151560051b8201013880612712565b6001546001600160a01b0316330361279c57565b60405163118cdaa760e01b8152336004820152602490fd5b156127bb57565b60405162461bcd60e51b8152602060048201526014602482015273151bdad95b881a5cc8189b1858dadb1a5cdd195960621b6044820152606490fd5b156127fe57565b60405162461bcd60e51b815260206004820152601160248201527005374616b65206d757374206265203e203607c1b6044820152606490fd5b1561283e57565b60405162461bcd60e51b815260206004820152601960248201527f506f696e747320726577617264206d757374206265203e2030000000000000006044820152606490fd5b1561288a57565b60405162461bcd60e51b815260206004820152601f60248201527f506f696e7473207265776172642063616e6e6f742065786365656420353030006044820152606490fd5b60001981146128de5760010190565b634e487b7160e01b600052601160045260246000fd5b600260005414612905576002600055565b604051633ee5aeb560e01b8152600490fd5b1561291e57565b60405162461bcd60e51b815260206004820152600c60248201526b496e76616c6964207369646560a01b6044820152606490fd5b1561295957565b60405162461bcd60e51b815260206004820152601960248201527f446f206e6f742073656e642045544820666f72204552433230000000000000006044820152606490fd5b156129a557565b60405162461bcd60e51b815260206004820152601360248201527208aa89040c2dadeeadce840dad2e6dac2e8c6d606b1b6044820152606490fd5b6040516323b872dd60e01b60208201526001600160a01b03928316602482015292909116604483015260648083019390935291815260a081019181831067ffffffffffffffff8411176106e857612720926040525b906000602091828151910182855af115612a91576000513d612a8857506001600160a01b0381163b155b612a665750565b604051635274afe760e01b81526001600160a01b039091166004820152602490fd5b60011415612a5f565b6040513d6000823e3d90fd5b15612aa457565b60405162461bcd60e51b81526020600482015260116024820152704e6f7420503250206368616c6c656e676560781b6044820152606490fd5b15612ae457565b60405162461bcd60e51b815260206004820152600e60248201526d496e76616c69642073746174757360901b6044820152606490fd5b908060209392818452848401376000828201840152601f01601f1916010190565b15612b4257565b60405162461bcd60e51b815260206004820152601660248201527510da185b1b195b99d9481b9bdd08191a5cdc1d5d195960521b6044820152606490fd5b15612b8757565b60405162461bcd60e51b815260206004820152600d60248201526c24b73b30b634b2103a37b5b2b760991b6044820152606490fdfea2646970667358221220012d7d4fb51500b9dd84884831aab5cc711c4524a9650cbb907914532e4e56e064736f6c63430008140033",
  "linkReferences": {},
  "deployedLinkReferences": {}
}