{"src/ChallengeFactory.sol":{"ChallengeFactory":{"abi":[{"inputs":[{"internalType":"address payable","name":"_stakeEscrow","type":"address"},{"internalType":"address","name":"_admin","type":"address"},{"internalType":"address","name":"_platformFeeRecipient","type":"address"}],"stateMutability":"nonpayable","type":"constructor"},{"inputs":[{"internalType":"address","name":"owner","type":"address"}],"name":"OwnableInvalidOwner","type":"error"},{"inputs":[{"internalType":"address","name":"account","type":"address"}],"name":"OwnableUnauthorizedAccount","type":"error"},{"inputs":[],"name":"ReentrancyGuardReentrantCall","type":"error"},{"inputs":[{"internalType":"address","name":"token","type":"address"}],"name":"SafeERC20FailedOperation","type":"error"},{"anonymous":false,"inputs":[{"indexed":true,"internalType":"uint256","name":"challengeId","type":"uint256"},{"indexed":false,"internalType":"string","name":"reason","type":"string"}],"name":"AdminForcedRefund","type":"event"},{"anonymous":false,"inputs":[{"indexed":true,"internalType":"address","name":"newAdmin","type":"address"}],"name":"AdminUpdated","type":"event"},{"anonymous":false,"inputs":[{"indexed":true,"internalType":"uint256","name":"challengeId","type":"uint256"},{"indexed":true,"internalType":"address","name":"creator","type":"address"},{"indexed":true,"internalType":"address","name":"paymentToken","type":"address"},{"indexed":false,"internalType":"uint256","name":"stakeAmount","type":"uint256"},{"indexed":false,"internalType":"uint256","name":"pointsReward","type":"uint256"}],"name":"ChallengeCreatedGroup","type":"event"},{"anonymous":false,"inputs":[{"indexed":true,"internalType":"uint256","name":"challengeId","type":"uint256"},{"indexed":true,"internalType":"address","name":"creator","type":"address"},{"indexed":true,"internalType":"address","name":"participant","type":"address"},{"indexed":false,"internalType":"address","name":"paymentToken","type":"address"},{"indexed":false,"internalType":"uint256","name":"stakeAmount","type":"uint256"},{"indexed":false,"internalType":"uint256","name":"pointsReward","type":"uint256"}],"name":"ChallengeCreatedP2P","type":"event"},{"anonymous":false,"inputs":[{"indexed":true,"internalType":"uint256","name":"challengeId","type":"uint256"},{"indexed":true,"internalType":"address","name":"winner","type":"address"},{"indexed":true,"internalType":"address","name":"paymentToken","type":"address"},{"indexed":false,"internalType":"uint256","name":"stakeAmount","type":"uint256"},{"indexed":false,"internalType":"uint256","name":"pointsAwarded","type":"uint256"}],"name":"ChallengeResolved","type":"event"},{"anonymous":false,"inputs":[{"indexed":true,"internalType":"uint256","name":"challengeId","type":"uint256"},{"indexed":true,"internalType":"address","name":"creator","type":"address"},{"indexed":false,"internalType":"uint256","name":"stakeAmount","type":"uint256"}],"name":"CreatorStakeLocked","type":"event"},{"anonymous":false,"inputs":[{"indexed":true,"internalType":"address","name":"previousOwner","type":"address"},{"indexed":true,"internalType":"address","name":"newOwner","type":"address"}],"name":"OwnershipTransferred","type":"event"},{"anonymous":false,"inputs":[{"indexed":true,"internalType":"uint256","name":"challengeId","type":"uint256"},{"indexed":true,"internalType":"address","name":"participant","type":"address"},{"indexed":false,"internalType":"uint256","name":"stakeAmount","type":"uint256"}],"name":"ParticipantStakeLocked","type":"event"},{"anonymous":false,"inputs":[{"indexed":true,"internalType":"address","name":"token","type":"address"},{"indexed":false,"internalType":"bool","name":"enabled","type":"bool"}],"name":"PaymentTokenToggled","type":"event"},{"anonymous":false,"inputs":[{"indexed":true,"internalType":"address","name":"token","type":"address"},{"indexed":false,"internalType":"uint256","name":"amount","type":"uint256"}],"name":"PlatformFeeCollected","type":"event"},{"anonymous":false,"inputs":[{"indexed":false,"internalType":"uint256","name":"newPercentage","type":"uint256"}],"name":"PlatformFeePercentageUpdated","type":"event"},{"anonymous":false,"inputs":[{"indexed":true,"internalType":"address","name":"newRecipient","type":"address"}],"name":"PlatformFeeRecipientUpdated","type":"event"},{"anonymous":false,"inputs":[{"indexed":true,"internalType":"address","name":"token","type":"address"},{"indexed":false,"internalType":"uint256","name":"amount","type":"uint256"},{"indexed":true,"internalType":"address","name":"recipient","type":"address"}],"name":"PlatformFeeWithdrawn","type":"event"},{"anonymous":false,"inputs":[{"indexed":true,"internalType":"uint256","name":"challengeId","type":"uint256"},{"indexed":true,"internalType":"address","name":"acceptor","type":"address"}],"name":"RefundAccepted","type":"event"},{"anonymous":false,"inputs":[{"indexed":true,"internalType":"uint256","name":"challengeId","type":"uint256"},{"indexed":true,"internalType":"address","name":"decliner","type":"address"}],"name":"RefundDeclined","type":"event"},{"anonymous":false,"inputs":[{"indexed":true,"internalType":"uint256","name":"challengeId","type":"uint256"},{"indexed":true,"internalType":"address","name":"requester","type":"address"},{"indexed":false,"internalType":"string","name":"reason","type":"string"}],"name":"RefundRequested","type":"event"},{"anonymous":false,"inputs":[{"indexed":true,"internalType":"uint256","name":"challengeId","type":"uint256"},{"indexed":true,"internalType":"address","name":"user","type":"address"},{"indexed":true,"internalType":"address","name":"paymentToken","type":"address"},{"indexed":false,"internalType":"uint256","name":"amount","type":"uint256"}],"name":"StakeClaimed","type":"event"},{"anonymous":false,"inputs":[{"indexed":true,"internalType":"uint256","name":"challengeId","type":"uint256"},{"indexed":true,"internalType":"address","name":"creator","type":"address"},{"indexed":true,"internalType":"address","name":"participant","type":"address"},{"indexed":false,"internalType":"uint256","name":"refundAmount","type":"uint256"}],"name":"StakesRefunded","type":"event"},{"anonymous":false,"inputs":[{"indexed":true,"internalType":"address","name":"token","type":"address"},{"indexed":false,"internalType":"bool","name":"blacklisted","type":"bool"}],"name":"TokenBlacklisted","type":"event"},{"anonymous":false,"inputs":[{"indexed":true,"internalType":"address","name":"token","type":"address"},{"indexed":false,"internalType":"bool","name":"verified","type":"bool"}],"name":"TokenVerified","type":"event"},{"inputs":[{"internalType":"uint256","name":"challengeId","type":"uint256"},{"internalType":"uint256","name":"participantSide","type":"uint256"}],"name":"acceptP2PChallenge","outputs":[],"stateMutability":"payable","type":"function"},{"inputs":[{"internalType":"uint256","name":"challengeId","type":"uint256"}],"name":"acceptRefund","outputs":[],"stateMutability":"nonpayable","type":"function"},{"inputs":[],"name":"admin","outputs":[{"internalType":"address","name":"","type":"address"}],"stateMutability":"view","type":"function"},{"inputs":[{"internalType":"address","name":"token","type":"address"},{"internalType":"bool","name":"blacklisted","type":"bool"}],"name":"blacklistToken","outputs":[],"stateMutability":"nonpayable","type":"function"},{"inputs":[{"internalType":"address","name":"","type":"address"}],"name":"blacklistedTokens","outputs":[{"internalType":"bool","name":"","type":"bool"}],"stateMutability":"view","type":"function"},{"inputs":[{"internalType":"uint256","name":"","type":"uint256"}],"name":"challenges","outputs":[{"internalType":"uint256","name":"id","type":"uint256"},{"internalType":"enum ChallengeFactory.ChallengeType","name":"challengeType","type":"uint8"},{"internalType":"address","name":"creator","type":"address"},{"internalType":"address","name":"participant","type":"address"},{"internalType":"address","name":"paymentToken","type":"address"},{"internalType":"uint256","name":"stakeAmount","type":"uint256"},{"internalType":"uint256","name":"pointsReward","type":"uint256"},{"internalType":"enum ChallengeFactory.ChallengeStatus","name":"status","type":"uint8"},{"internalType":"address","name":"winner","type":"address"},{"internalType":"uint256","name":"createdAt","type":"uint256"},{"internalType":"uint256","name":"resolvedAt","type":"uint256"},{"internalType":"string","name":"metadataURI","type":"string"},{"internalType":"enum ChallengeFactory.Side","name":"creatorSide","type":"uint8"},{"internalType":"enum ChallengeFactory.Side","name":"participantSide","type":"uint8"},{"internalType":"bool","name":"creatorStaked","type":"bool"},{"internalType":"bool","name":"participantStaked","type":"bool"},{"internalType":"uint256","name":"stakedAt","type":"uint256"},{"internalType":"uint256","name":"refundRequestedAt","type":"uint256"},{"internalType":"bool","name":"refundAccepted","type":"bool"}],"stateMutability":"view","type":"function"},{"inputs":[{"internalType":"uint256","name":"challengeId","type":"uint256"}],"name":"claimStake","outputs":[],"stateMutability":"nonpayable","type":"function"},{"inputs":[{"internalType":"address","name":"paymentToken","type":"address"},{"internalType":"uint256","name":"stakeAmount","type":"uint256"},{"internalType":"uint256","name":"pointsReward","type":"uint256"},{"internalType":"string","name":"metadataURI","type":"string"}],"name":"createGroupChallenge","outputs":[{"internalType":"uint256","name":"","type":"uint256"}],"stateMutability":"nonpayable","type":"function"},{"inputs":[{"internalType":"address","name":"participant","type":"address"},{"internalType":"address","name":"paymentToken","type":"address"},{"internalType":"uint256","name":"stakeAmount","type":"uint256"},{"internalType":"uint256","name":"creatorSide","type":"uint256"},{"internalType":"uint256","name":"pointsReward","type":"uint256"},{"internalType":"string","name":"metadataURI","type":"string"}],"name":"createP2PChallenge","outputs":[{"internalType":"uint256","name":"","type":"uint256"}],"stateMutability":"payable","type":"function"},{"inputs":[{"internalType":"uint256","name":"challengeId","type":"uint256"}],"name":"declineRefund","outputs":[],"stateMutability":"nonpayable","type":"function"},{"inputs":[{"internalType":"uint256","name":"challengeId","type":"uint256"},{"internalType":"string","name":"reason","type":"string"}],"name":"forceRefund","outputs":[],"stateMutability":"nonpayable","type":"function"},{"inputs":[{"internalType":"uint256","name":"challengeId","type":"uint256"}],"name":"getChallenge","outputs":[{"components":[{"internalType":"uint256","name":"id","type":"uint256"},{"internalType":"enum ChallengeFactory.ChallengeType","name":"challengeType","type":"uint8"},{"internalType":"address","name":"creator","type":"address"},{"internalType":"address","name":"participant","type":"address"},{"internalType":"address","name":"paymentToken","type":"address"},{"internalType":"uint256","name":"stakeAmount","type":"uint256"},{"internalType":"uint256","name":"pointsReward","type":"uint256"},{"internalType":"enum ChallengeFactory.ChallengeStatus","name":"status","type":"uint8"},{"internalType":"address","name":"winner","type":"address"},{"internalType":"uint256","name":"createdAt","type":"uint256"},{"internalType":"uint256","name":"resolvedAt","type":"uint256"},{"internalType":"string","name":"metadataURI","type":"string"},{"internalType":"enum ChallengeFactory.Side","name":"creatorSide","type":"uint8"},{"internalType":"enum ChallengeFactory.Side","name":"participantSide","type":"uint8"},{"internalType":"bool","name":"creatorStaked","type":"bool"},{"internalType":"bool","name":"participantStaked","type":"bool"},{"internalType":"uint256","name":"stakedAt","type":"uint256"},{"internalType":"uint256","name":"refundRequestedAt","type":"uint256"},{"internalType":"bool","name":"refundAccepted","type":"bool"}],"internalType":"struct ChallengeFactory.Challenge","name":"","type":"tuple"}],"stateMutability":"view","type":"function"},{"inputs":[{"internalType":"address","name":"token","type":"address"}],"name":"getPlatformFeeBalance","outputs":[{"internalType":"uint256","name":"","type":"uint256"}],"stateMutability":"view","type":"function"},{"inputs":[{"internalType":"uint256","name":"","type":"uint256"},{"internalType":"uint256","name":"","type":"uint256"}],"name":"groupChallengeParticipants","outputs":[{"internalType":"address","name":"user","type":"address"},{"internalType":"bool","name":"side","type":"bool"},{"internalType":"uint256","name":"stakeAmount","type":"uint256"},{"internalType":"bool","name":"claimed","type":"bool"}],"stateMutability":"view","type":"function"},{"inputs":[{"internalType":"address","name":"token","type":"address"}],"name":"isTokenBlacklisted","outputs":[{"internalType":"bool","name":"","type":"bool"}],"stateMutability":"view","type":"function"},{"inputs":[{"internalType":"address","name":"token","type":"address"}],"name":"isTokenVerified","outputs":[{"internalType":"bool","name":"","type":"bool"}],"stateMutability":"view","type":"function"},{"inputs":[{"internalType":"uint256","name":"challengeId","type":"uint256"}],"name":"lockCreatorStake","outputs":[],"stateMutability":"payable","type":"function"},{"inputs":[],"name":"nextChallengeId","outputs":[{"internalType":"uint256","name":"","type":"uint256"}],"stateMutability":"view","type":"function"},{"inputs":[],"name":"owner","outputs":[{"internalType":"address","name":"","type":"address"}],"stateMutability":"view","type":"function"},{"inputs":[{"internalType":"uint256","name":"","type":"uint256"}],"name":"p2pChallengeAmounts","outputs":[{"internalType":"uint256","name":"","type":"uint256"}],"stateMutability":"view","type":"function"},{"inputs":[{"internalType":"address","name":"","type":"address"}],"name":"platformFeeBalance","outputs":[{"internalType":"uint256","name":"","type":"uint256"}],"stateMutability":"view","type":"function"},{"inputs":[],"name":"platformFeePercentage","outputs":[{"internalType":"uint256","name":"","type":"uint256"}],"stateMutability":"view","type":"function"},{"inputs":[],"name":"platformFeeRecipient","outputs":[{"internalType":"address","name":"","type":"address"}],"stateMutability":"view","type":"function"},{"inputs":[],"name":"renounceOwnership","outputs":[],"stateMutability":"nonpayable","type":"function"},{"inputs":[{"internalType":"uint256","name":"challengeId","type":"uint256"},{"internalType":"string","name":"reason","type":"string"}],"name":"requestRefund","outputs":[],"stateMutability":"nonpayable","type":"function"},{"inputs":[{"internalType":"address","name":"newAdmin","type":"address"}],"name":"setAdmin","outputs":[],"stateMutability":"nonpayable","type":"function"},{"inputs":[{"internalType":"uint256","name":"newPercentage","type":"uint256"}],"name":"setPlatformFeePercentage","outputs":[],"stateMutability":"nonpayable","type":"function"},{"inputs":[{"internalType":"address","name":"newRecipient","type":"address"}],"name":"setPlatformFeeRecipient","outputs":[],"stateMutability":"nonpayable","type":"function"},{"inputs":[],"name":"stakeEscrow","outputs":[{"internalType":"contract ChallengeEscrow","name":"","type":"address"}],"stateMutability":"view","type":"function"},{"inputs":[{"internalType":"address","name":"newOwner","type":"address"}],"name":"transferOwnership","outputs":[],"stateMutability":"nonpayable","type":"function"},{"inputs":[{"internalType":"address","name":"","type":"address"}],"name":"verifiedTokens","outputs":[{"internalType":"bool","name":"","type":"bool"}],"stateMutability":"view","type":"function"},{"inputs":[{"internalType":"address","name":"token","type":"address"},{"internalType":"bool","name":"verified","type":"bool"}],"name":"verifyToken","outputs":[],"stateMutability":"nonpayable","type":"function"},{"inputs":[{"internalType":"address","name":"token","type":"address"}],"name":"withdrawPlatformFees","outputs":[],"stateMutability":"nonpayable","type":"function"},{"stateMutability":"payable","type":"receive"}],"evm":{"bytecode":{"linkReferences":{},"object":"608034620001d857601f62002dfb38819003918201601f191683019291906001600160401b03841183851017620001dd578160609284926040968752833981010312620001d85780516001600160a01b038082169291839003620001d85762000078846200007060208501620001f3565b9301620001f3565b9060016000553315620001c05760018054336001600160a01b0319808316821790935587519295929184167f8be0079c531659141344cd1fd0a4f28419497f9722a3daafe3b4186f6b6457e0600080a36001600555600a60065585156200018d575081169182156200015957169283156200011557826002541617600255816003541617600355600454161760045551612bf29081620002098239f35b845162461bcd60e51b815260206004820152601560248201527f496e76616c69642066656520726563697069656e7400000000000000000000006044820152606490fd5b855162461bcd60e51b815260206004820152600d60248201526c24b73b30b634b21030b236b4b760991b6044820152606490fd5b62461bcd60e51b815260206004820152600e60248201526d496e76616c696420657363726f7760901b6044820152606490fd5b8451631e4fbdf760e01b815260006004820152602490fd5b600080fd5b634e487b7160e01b600052604160045260246000fd5b51906001600160a01b0382168203620001d85756fe608080604052600436101561001d575b50361561001b57600080fd5b005b600090813560e01c908163017b975b1461251c57508063028df0d4146122e15780630d8d2d08146122745780631871e243146121d1578063190e4c55146121605780631baaaffe146105035780631bdd4b7414611e3b5780633ae5ef0e14611c6157806344c7d6ef14611ac05780634b117e32146119a25780635c8b5f4414610b9057806362193bc8146113f257806368a2b7de1461120657806369249fba146113c8578063704b6c0214611329578063715018a6146112cb5780638333903e1461123f57806386ff06e7146112065780638da5cb5b146111dd5780638f1d37761461106d578063c25d8b7b14610dcc578063c5ac3d4b14610bed578063cdd78cfc14610bcf578063ce9be9ba14610b90578063d2d6648214610b13578063d917fd4714610762578063eb13554f14610739578063ec3889b514610542578063ec867b2714610503578063f2fde38b14610473578063f4a947ef146101da578063f851a440146101b15763fc67aa500361000f57346101ae57806003193601126101ae576020600554604051908152f35b80fd5b50346101ae57806003193601126101ae576003546040516001600160a01b039091168152602090f35b5060208060031936011261046f576004356101f36128f4565b8083526007825260408320600181015461021b600160ff83166102158161259c565b14612a9d565b6006820160ff815416600881101561045b5760016102399114612add565b6001600160a01b039160081c8216330361041657600a830192835460ff8160101c166103d85760181c60ff16156103935786600382019380855416801560001461036e575061028d6004840154341461299e565b8060025416945416936004830194855490823b1561036a57604051637a443e3d60e11b81523360048201526001600160a01b039190911660248201526044810191909152606481018890529082908290608490829084905af1801561035f57610347575b50507fda802d1f712d76bc374130e717018a5b3a7ad3af3df40efa559a23b96a485067936201000062ff000019825416179055600b42910155600260ff1982541617905554926040519384523393a36001815580f35b6103509061268f565b61035b5786386102f1565b8680fd5b6040513d84823e3d90fd5b8380fd5b61038e9061037c3415612952565b826002541660048601549133906129e0565b61028d565b60405162461bcd60e51b815260048101879052601e60248201527f5061727469636970616e7420686173206e6f74207374616b65642079657400006044820152606490fd5b60405162461bcd60e51b815260048101889052601660248201527510dc99585d1bdc88185b1c9958591e481cdd185ad95960521b6044820152606490fd5b60405162461bcd60e51b815260048101869052601b60248201527f4f6e6c792063726561746f722063616e206c6f636b207374616b6500000000006044820152606490fd5b634e487b7160e01b87526021600452602487fd5b5080fd5b50346101ae5760203660031901126101ae5761048d612557565b610495612788565b6001600160a01b039081169081156104ea57600154826bffffffffffffffffffffffff60a01b821617600155167f8be0079c531659141344cd1fd0a4f28419497f9722a3daafe3b4186f6b6457e0600080a380f35b604051631e4fbdf760e01b815260048101849052602490fd5b50346101ae5760203660031901126101ae5760209060ff906040906001600160a01b0361052e612557565b168152600a84522054166040519015158152f35b50346101ae5760208060031936011261046f5761055d612557565b90610566612788565b61056e6128f4565b6001600160a01b03918216808452600c825260408420549290919083156106fe57828552600c8252846040812055821560001461067757848080808785600454165af13d15610672573d67ffffffffffffffff811161065e57604051906105de601f8201601f19168601836126c0565b815286843d92013e5b1561062357907f08273342a380b5301480c28ba6b7dfb7bfda23bfd871714c935e45a15e9cb823915b6004541693604051908152a36001815580f35b60405162461bcd60e51b8152600481018390526013602482015272115512081d1c985b9cd9995c8819985a5b1959606a1b6044820152606490fd5b634e487b7160e01b87526041600452602487fd5b6105e7565b60045460405163a9059cbb60e01b8185015290821660248201526044808201869052815291906080830167ffffffffffffffff8111848210176106e8577f08273342a380b5301480c28ba6b7dfb7bfda23bfd871714c935e45a15e9cb823936106e39160405285612a35565b610610565b634e487b7160e01b600052604160045260246000fd5b60405162461bcd60e51b81526004810183905260136024820152724e6f206665657320746f20776974686472617760681b6044820152606490fd5b50346101ae57806003193601126101ae576004546040516001600160a01b039091168152602090f35b5061076c36612541565b906107756128f4565b80835260209060078252604084206001938482015460ff61079c878284166102158161259c565b6006840192818454166008811015610aff57610ac5576001600160a01b039260081c83163314610a745780158015610a6b575b6107d890612917565b600a850192828454166107ea8161259c565b610a6457828a5b168214610a10576002860180548b93929190808316156109fa575081929350541633036109b5579060048a925b6003880192818454168015600014610991575061083f838a0154341461299e565b6108488161259c565b6108518161259c565b61ff0087549160081b169061ff0019161786558060025416925416960195865490823b1561036a57604051637a443e3d60e11b81523360048201526001600160a01b039190911660248201526044810191909152606481018890529082908290608490829084905af1801561035f57610979575b5050808254630100000063ff00000019821617809455169160081c16906108eb8261259c565b6108f48161259c565b1461093457805460ff1916851790555460405190815233927faa5d071b783a3c78ef80284714eeba5fe6e9dcbb542ff148b3f55702594c1bcd91a3815580f35b60405162461bcd60e51b815260048101859052601a60248201527f496e76616c6964207369646520636f6e66696775726174696f6e0000000000006044820152606490fd5b6109829061268f565b61098d5787386108c5565b8780fd5b6109b09061099f3415612952565b8360025416858c01549133906129e0565b61083f565b60405162461bcd60e51b815260048101899052601d60248201527f4e6f742074686520737065636966696564207061727469636970616e740000006044820152606490fd5b6001600160a01b0319163317905560049061081e565b60405162461bcd60e51b815260048101899052602660248201527f4d7573742063686f6f7365206f70706f7369746520736964652066726f6d20636044820152653932b0ba37b960d11b6064820152608490fd5b82896107f1565b508088146107cf565b60405162461bcd60e51b815260048101889052602360248201527f43726561746f722063616e6e6f7420616363657074206f776e206368616c6c656044820152626e676560e81b6064820152608490fd5b60405162461bcd60e51b815260048101889052601260248201527121b430b63632b733b2903737ba1037b832b760711b6044820152606490fd5b634e487b7160e01b8a52602160045260248afd5b50346101ae5760207fd128f4457567637d4d9a19a54a44a6e47ba1ed0cc875b3cff7b762c8bb27b416610b453661256d565b9290610b4f612788565b6001600160a01b031692610b64841515612b80565b838552600a8252610b8481604087209060ff801983541691151516179055565b6040519015158152a280f35b50346101ae5760203660031901126101ae5760209060ff906040906001600160a01b03610bbb612557565b168152600b84522054166040519015158152f35b50346101ae57806003193601126101ae576020600654604051908152f35b50346101ae57610bfc36612621565b9190610c066128f4565b8184526007602052604084206001810154610c29600160ff83166102158161259c565b600a82015460ff8160101c169081610dbe575b5015610d8157600682019081549060ff82169060088210159081610aff576002831480938115610d70575b50610c7190612add565b60018060a01b03809160081c163314908115610d60575b5015610d0f57610cfb5791610cd993917f5a28917ada7e719e75deb413b0eddfb869b62c4cf3808ecd3c5ceb107b8824509593610ce3575b5050506040519182916020835233966020840191612b1a565b0390a36001815580f35b60069060ff1916179055600c42910155388080610cc0565b634e487b7160e01b88526021600452602488fd5b60405162461bcd60e51b8152602060048201526024808201527f4f6e6c79207061727469636970616e74732063616e2072657175657374207265604482015263199d5b9960e21b6064820152608490fd5b9050600286015416331438610c88565b600093506006149050610c71610c67565b60405162461bcd60e51b8152602060048201526015602482015274109bdd1a081b5d5cdd081a185d99481cdd185ad959605a1b6044820152606490fd5b60ff915060181c1638610c3c565b50346101ae5760803660031901126101ae57610de6612557565b67ffffffffffffffff91602435919060443560643585811161106957610e109036906004016125f3565b949093610e1b612788565b610e236128f4565b6001600160a01b031691821561102c57828452602096600b8852610e4e60ff604087205416156127b4565b610e598315156127f7565b610e64821515612837565b610e726101f4831115612883565b60055496610e7f886128cf565b6005558786526007895260408620888155600180820180546001600160a81b0319163360081b610100600160a81b0316179055979060099060ff1960038201896bffffffffffffffffffffffff60a01b825416179055876004830155866005830155600682019081541690554260078201550192821161065e578190610f058454612655565b601f8111610fdc575b508790601f8311600114610f7c578892610f71575b5050600019600383901b1c191690871b1790555b60405191825286820152847fac61621ed399481a7fdd906a7b94c9d3667dee8643e9c121e783b860a3f2282d60403393a455604051908152f35b013590503880610f23565b8489528b89208a945091601f1984168a8e5b828210610fc55750508411610fab575b505050811b019055610f37565b0135600019600384901b60f8161c19169055388080610f9e565b8385013586558d979095019492830192018e610f8e565b9091508388528a8820601f840160051c8101918c8510611022575b84939291601f8c920160051c01915b828110611014575050610f0e565b8a81558594508b9101611006565b9091508190610ff7565b60405162461bcd60e51b815260206004820152601560248201527424b73b30b634b2103830bcb6b2b73a103a37b5b2b760591b6044820152606490fd5b8280fd5b50346101ae5760203660031901126101ae5760043581526007602052604090208054600182015491600160a01b60019003600282015416600160a01b6001900360038301541691600481015492600582015460068301546007840154600885015491600986016110dc906126e2565b93600a87015498600b88015496600c89015498600d015460ff1699604051809e819e825260ff811661110d8161259c565b602083015260081c6001600160a01b031660409091015260608d015260808c015260a08b015260c08a015261114860e08a0160ff83166125a6565b60081c6001600160a01b0316610100890152610120880152610140870152610260610160870181905261117e91908701906125b3565b9360ff811661118c8161259c565b6101808701528060081c60ff166111a28161259c565b6101a08701528060101c60ff1615156101c087015260181c60ff1615156101e086015261020085015261022084015215156102408301520390f35b50346101ae57806003193601126101ae576001546040516001600160a01b039091168152602090f35b50346101ae5760203660031901126101ae576020906040906001600160a01b0361122e612557565b168152600c83522054604051908152f35b50346101ae5760203660031901126101ae5760043561125c612788565b6127108111611297576020817fd0a5ddfa06600c6481dcd2923a572827c06e53859f23f7ddab41ff3144ee868792600655604051908152a180f35b60405162461bcd60e51b815260206004820152600c60248201526b08ccaca40e8dede40d0d2ced60a31b6044820152606490fd5b50346101ae57806003193601126101ae576112e4612788565b600180546001600160a01b031981169091556000906001600160a01b03167f8be0079c531659141344cd1fd0a4f28419497f9722a3daafe3b4186f6b6457e08280a380f35b50346101ae5760203660031901126101ae57611343612557565b61134b612788565b6001600160a01b0316801561139357600380546001600160a01b031916821790557f54e4612788f90384e6843298d7854436f3a585b2c3831ab66abf1de63bfa6c2d8280a280f35b60405162461bcd60e51b815260206004820152600d60248201526c24b73b30b634b21030b236b4b760991b6044820152606490fd5b50346101ae5760203660031901126101ae5760406020916004358152600983522054604051908152f35b5060c03660031901126101ae57611407612557565b6024356001600160a01b038116900361199d5760a43567ffffffffffffffff81116110695761143a9036906004016125f3565b91906114446128f4565b6001600160a01b038216611948575b60643515801561193c575b61146790612917565b6024356001600160a01b03168452600b602052604084205461148c9060ff16156127b4565b61149960443515156127f7565b6114a66084351515612837565b6114b66101f46084351115612883565b6024356001600160a01b031661190b576114d3604435341461299e565b600554926114e0846128cf565b600555838552600760205260408520848155600180820180546001600160a81b0319163360081b610100600160a81b03161790911790559160ff196002840180546001600160a01b038781166001600160a01b031992831617909255600386018054602435909316929091169190911790556044356004850155608435600585015561156d60643561259c565b61157860643561259c565b600a84018054821660ff606435161790556001600160a01b03851661190557865b600685019160088210156118ef5760ff90835416911617905542600784015567ffffffffffffffff82116118db5781906115d66009850154612655565b601f811161188b575b508690601f831160011461181f578792611814575b50508160011b916000199060031b1c19161760098201555b600a8101805463ffff0000191690556001600160a01b03821615611750576002546001600160a01b0316803b1561174c57604051637a443e3d60e11b8152336004820152602480356001600160a01b03169082015260448035908201526064810185905290859082908183816084810103925af180156117415761172d575b5092600191602094600a6201000062ff0000198284015416179101556040516044358152847fda802d1f712d76bc374130e717018a5b3a7ad3af3df40efa559a23b96a485067873393a35b60405190838060a01b03602435168252604435868301526084356040830152838060a01b031690847ff4f5a9f479b06cd99960b03cddc4864cb98eaa763a8f668617c80f589512777960603393a455604051908152f35b611737859161268f565b61036a573861168b565b6040513d87823e3d90fd5b8480fd5b6002546001600160a01b0316803b1561174c57604051637a443e3d60e11b8152336004820152602480356001600160a01b03169082015260448035908201526064810185905290859082908183816084810103925af1801561174157611800575b5092600191602094600a6201000062ff0000198284015416179101556040516044358152847fda802d1f712d76bc374130e717018a5b3a7ad3af3df40efa559a23b96a485067873393a36116d6565b61180a859161268f565b61036a57386117b1565b0135905038806115f4565b60098501885260208820889450915b601f1984168510611873576001945083601f19811610611859575b505050811b01600982015561160c565b0135600019600384901b60f8161c19169055388080611849565b8181013583556020948501946001909301920161182e565b90915060098401875260208720601f840160051c8101602085106118d4575b90849392915b601f830160051c820181106118c65750506115df565b8981558594506001016118b0565b50806118aa565b634e487b7160e01b86526041600452602486fd5b634e487b7160e01b600052602160045260246000fd5b86611599565b6119153415612952565b60025461193790604435906001600160a01b03908116903390602435166129e0565b6114d3565b5060643560011461145e565b336001600160a01b038316036114535760405162461bcd60e51b815260206004820152601960248201527f43616e6e6f74206368616c6c656e676520796f757273656c66000000000000006044820152606490fd5b600080fd5b50346101ae5760203660031901126101ae576004356119bf6128f4565b80825260076020526040822060018101546119e2600160ff83166102158161259c565b60ff6006830154166008811015611aac5760066119ff9114612b3b565b60018060a01b03809160081c163314918215611a9b575b505015611a4a5733907f8662f95f63b18bd2d50a68ba55da66f73e4e5e1619d07dd9a7b7012e93a426ff8380a36001815580f35b60405162461bcd60e51b8152602060048201526024808201527f4f6e6c79207061727469636970616e74732063616e206465636c696e65207265604482015263199d5b9960e21b6064820152608490fd5b600291925001541633143880611a16565b634e487b7160e01b85526021600452602485fd5b50346101ae5760208060031936011261046f5760043590611adf6128f4565b8183526007815260408320916006830180549060ff8216600881101561045b57600303611c23576001600160a01b0391600881901c8316338103611be65715611bb1576040516040810181811067ffffffffffffffff8211176106e8576040526001815285810190863683375115611b9d579160047f401af6acaf4dfd2ab7650e060f96cf76f6a51fd9d42102601e60fdacd4eacff29492819433905260ff1916179055600386015416940154926040519384523393a46001815580f35b634e487b7160e01b88526032600452602488fd5b60405162461bcd60e51b815260048101869052600d60248201526c139bc81dda5b9b995c881cd95d609a1b6044820152606490fd5b60405162461bcd60e51b81526004810187905260156024820152744f6e6c792077696e6e65722063616e20636c61696d60581b6044820152606490fd5b60405162461bcd60e51b815260048101859052601660248201527510da185b1b195b99d9481b9bdd081c995cdbdb1d995960521b6044820152606490fd5b50346101ae57611c7036612621565b90611c79612788565b611c816128f4565b828452600760205260408420916001830192835490611ca8600160ff84166102158161259c565b60068101805460ff81166008811015610aff57600603611df65760079060ff191617905560048101549160018060a01b03958887600254166002850194896003818854169201541691803b1561036a5783928c928c6040519889956360dae9af60e11b8752600487015260081c1660248501526044840152606483015287608483015260c060a4830152818381611d448d8d60c4840191612b1a565b03925af1928315611de9578993611dd0575b50506020877fbea640a4e0032618e4dab2cbcc4a119af2c351ae2c26e3c0bdf8aec842313391987ff91aa0a9813cbc386975170e821fb6193d22ab6759de1354d8f4c4f7cf42ad91935460081c1694541694604051908152a4611dc6604051928392602084526020840191612b1a565b0390a26001815580f35b611ddc9192935061268f565b61098d5786908838611d56565b50604051903d90823e3d90fd5b60405162461bcd60e51b815260206004820152601a60248201527f4368616c6c656e6765206d7573742062652064697370757465640000000000006044820152606490fd5b50346101ae5760203660031901126101ae5780610240604051611e5d816126a3565b8281528260208201528260408201528260608201528260808201528260a08201528260c08201528260e0820152826101008201528261012082015282610140820152606061016082015282610180820152826101a0820152826101c0820152826101e082015282610200820152826102208201520152600435815260076020526040812060405191611eee836126a3565b815483526001820154611f0360ff821661259c565b60ff81811660208601526001600160a01b03600892831c811660408701526002850154811660608701526003850154166080860152600484015460a0860152600584015460c086015260068401549291908316101561214c575060ff81811660e0850152600891821c6001600160a01b031661010085015260078301546101208501529082015461014084015290600d90611fa0600982016126e2565b61016085015282600a820154611fb782821661259c565b818116610180870152611fce828260081c1661259c565b818160081c166101a0870152818160101c1615156101c087015260181c1615156101e0850152600b810154610200850152600c81015461022085015201541615156102408201526040518091602082528051602083015260208101516120338161259c565b604083015260018060a01b03604082015116606083015260018060a01b03606082015116608083015260018060a01b0360808201511660a083015260a081015160c083015260c081015160e083015261209560e08201516101008401906125a6565b60018060a01b03610100820151166101208301526101208101516101408301526101408101516101608301526101608101516102406120e361026092836101808701526102808601906125b3565b926101808101516120f38161259c565b6101a08601526101a08101516121088161259c565b6101c08601526101c081015115156101e08601526101e081015115156102008601526102008101516102208601526102208101518286015201511515908301520390f35b634e487b7160e01b81526021600452602490fd5b50346101ae5760207fced2684241c29578df8f7fbab74348d0053114fa157b900b2f1f4a1d4a2b33956121923661256d565b929061219c612788565b6001600160a01b0316926121b1841515612b80565b838552600b8252610b8481604087209060ff801983541691151516179055565b50346101ae5760203660031901126101ae576121eb612557565b6121f3612788565b6001600160a01b0316801561223b57600480546001600160a01b031916821790557fba887708e7d4436dd36b62187bdced03e0b9abe66caf392a66dd84386641b2098280a280f35b60405162461bcd60e51b8152602060048201526011602482015270125b9d985b1a59081c9958da5c1a595b9d607a1b6044820152606490fd5b50346101ae5761228336612541565b908252600860205260408220805482101561106957602083600392608095522091020180549060ff60026001830154920154169060ff6040519360018060a01b038116855260a01c1615156020840152604083015215156060820152f35b50346101ae5760203660031901126101ae576004356122fe6128f4565b808252600760205260408220600181018054612322600160ff83166102158161259c565b6006830191825460ff81166008811015610cfb5760066123429114612b3b565b60018060a01b03809360081c1693843314801561250d575b156124bc57600760ff198093161790556001600d860191825416179055600484015493868360025416946002830195856003818954169501541690803b1561036a57838a916101049360405197889687956360dae9af60e11b875260048701526024860152604485015260648401528a608484015260c060a4840152602060c48401527f4d757475616c20726566756e642061677265656d656e7420616363657074656460e48401525af180156124b157612475575b5060208286937ff91aa0a9813cbc386975170e821fb6193d22ab6759de1354d8f4c4f7cf42ad91935460081c1694541694604051908152a433907ffd3d8eb8c74c125342483824fd0ad7e0033d5d74d8ed512a0b4fb798d38c685a8380a36001815580f35b8286937ff91aa0a9813cbc386975170e821fb6193d22ab6759de1354d8f4c4f7cf42ad9193986124a660209461268f565b989350509250612410565b6040513d89823e3d90fd5b60405162461bcd60e51b815260206004820152602360248201527f4f6e6c79207061727469636970616e74732063616e20616363657074207265666044820152621d5b9960ea1b6064820152608490fd5b5083600287015416331461235a565b90503461046f578160031936011261046f576002546001600160a01b03168152602090f35b604090600319011261199d576004359060243590565b600435906001600160a01b038216820361199d57565b604090600319011261199d576004356001600160a01b038116810361199d5790602435801515810361199d5790565b600211156118ef57565b9060088210156118ef5752565b919082519283825260005b8481106125df575050826000602080949584010152601f8019910116010190565b6020818301810151848301820152016125be565b9181601f8401121561199d5782359167ffffffffffffffff831161199d576020838186019501011161199d57565b90604060031983011261199d57600435916024359067ffffffffffffffff821161199d57612651916004016125f3565b9091565b90600182811c92168015612685575b602083101461266f57565b634e487b7160e01b600052602260045260246000fd5b91607f1691612664565b67ffffffffffffffff81116106e857604052565b610260810190811067ffffffffffffffff8211176106e857604052565b90601f8019910116810190811067ffffffffffffffff8211176106e857604052565b90604051918260008254926126f684612655565b9081845260019485811690816000146127655750600114612722575b5050612720925003836126c0565b565b9093915060005260209081600020936000915b81831061274d57505061272093508201013880612712565b85548884018501529485019487945091830191612735565b91505061272094506020925060ff191682840152151560051b8201013880612712565b6001546001600160a01b0316330361279c57565b60405163118cdaa760e01b8152336004820152602490fd5b156127bb57565b60405162461bcd60e51b8152602060048201526014602482015273151bdad95b881a5cc8189b1858dadb1a5cdd195960621b6044820152606490fd5b156127fe57565b60405162461bcd60e51b815260206004820152601160248201527005374616b65206d757374206265203e203607c1b6044820152606490fd5b1561283e57565b60405162461bcd60e51b815260206004820152601960248201527f506f696e747320726577617264206d757374206265203e2030000000000000006044820152606490fd5b1561288a57565b60405162461bcd60e51b815260206004820152601f60248201527f506f696e7473207265776172642063616e6e6f742065786365656420353030006044820152606490fd5b60001981146128de5760010190565b634e487b7160e01b600052601160045260246000fd5b600260005414612905576002600055565b604051633ee5aeb560e01b8152600490fd5b1561291e57565b60405162461bcd60e51b815260206004820152600c60248201526b496e76616c6964207369646560a01b6044820152606490fd5b1561295957565b60405162461bcd60e51b815260206004820152601960248201527f446f206e6f742073656e642045544820666f72204552433230000000000000006044820152606490fd5b156129a557565b60405162461bcd60e51b815260206004820152601360248201527208aa89040c2dadeeadce840dad2e6dac2e8c6d606b1b6044820152606490fd5b6040516323b872dd60e01b60208201526001600160a01b03928316602482015292909116604483015260648083019390935291815260a081019181831067ffffffffffffffff8411176106e857612720926040525b906000602091828151910182855af115612a91576000513d612a8857506001600160a01b0381163b155b612a665750565b604051635274afe760e01b81526001600160a01b039091166004820152602490fd5b60011415612a5f565b6040513d6000823e3d90fd5b15612aa457565b60405162461bcd60e51b81526020600482015260116024820152704e6f7420503250206368616c6c656e676560781b6044820152606490fd5b15612ae457565b60405162461bcd60e51b815260206004820152600e60248201526d496e76616c69642073746174757360901b6044820152606490fd5b908060209392818452848401376000828201840152601f01601f1916010190565b15612b4257565b60405162461bcd60e51b815260206004820152601660248201527510da185b1b195b99d9481b9bdd08191a5cdc1d5d195960521b6044820152606490fd5b15612b8757565b60405162461bcd60e51b815260206004820152600d60248201526c24b73b30b634b2103a37b5b2b760991b6044820152606490fdfea2646970667358221220012d7d4fb51500b9dd84884831aab5cc711c4524a9650cbb907914532e4e56e064736f6c63430008140033","opcodes":"PUSH1 0x80 CALLVALUE PUSH3 0x1D8 JUMPI PUSH1 0x1F PUSH3 0x2DFB CODESIZE DUP2 SWAP1 SUB SWAP2 DUP3 ADD PUSH1 0x1F NOT AND DUP4 ADD SWAP3 SWAP2 SWAP1 PUSH1 0x1 PUSH1 0x1 PUSH1 0x40 SHL SUB DUP5 GT DUP4 DUP6 LT OR PUSH3 0x1DD JUMPI DUP2 PUSH1 0x60 SWAP3 DUP5 SWAP3 PUSH1 0x40 SWAP7 DUP8 MSTORE DUP4 CODECOPY DUP2 ADD SUB SLT PUSH3 0x1D8 JUMPI DUP1 MLOAD PUSH1 0x1 PUSH1 0x1 PUSH1 0xA0 SHL SUB DUP1 DUP3 AND SWAP3 SWAP2 DUP4 SWAP1 SUB PUSH3 0x1D8 JUMPI PUSH3 0x78 DUP5 PUSH3 0x70 PUSH1 0x20 DUP6 ADD PUSH3 0x1F3 JUMP JUMPDEST SWAP4 ADD PUSH3 0x1F3 JUMP JUMPDEST SWAP1 PUSH1 0x1 PUSH1 0x0 SSTORE CALLER ISZERO PUSH3 0x1C0 JUMPI PUSH1 0x1 DUP1 SLOAD CALLER PUSH1 0x1 PUSH1 0x1 PUSH1 0xA0 SHL SUB NOT DUP1 DUP4 AND DUP3 OR SWAP1 SWAP4 SSTORE DUP8 MLOAD SWAP3 SWAP6 SWAP3 SWAP2 DUP5 AND PUSH32 0x8BE0079C531659141344CD1FD0A4F28419497F9722A3DAAFE3B4186F6B6457E0 PUSH1 0x0 DUP1 LOG3 PUSH1 0x1 PUSH1 0x5 SSTORE PUSH1 0xA PUSH1 0x6 SSTORE DUP6 ISZERO PUSH3 0x18D JUMPI POP DUP2 AND SWAP2 DUP3 ISZERO PUSH3 0x159 JUMPI AND SWAP3 DUP4 ISZERO PUSH3 0x115 JUMPI DUP3 PUSH1 0x2 SLOAD AND OR PUSH1 0x2 SSTORE DUP2 PUSH1 0x3 SLOAD AND OR PUSH1 0x3 SSTORE PUSH1 0x4 SLOAD AND OR PUSH1 0x4 SSTORE MLOAD PUSH2 0x2BF2 SWAP1 DUP2 PUSH3 0x209 DUP3 CODECOPY RETURN JUMPDEST DUP5 MLOAD PUSH3 0x461BCD PUSH1 0xE5 SHL DUP2 MSTORE PUSH1 0x20 PUSH1 0x4 DUP3 ADD MSTORE PUSH1 0x15 PUSH1 0x24 DUP3 ADD MSTORE PUSH32 0x496E76616C69642066656520726563697069656E740000000000000000000000 PUSH1 0x44 DUP3 ADD MSTORE PUSH1 0x64 SWAP1 REVERT JUMPDEST DUP6 MLOAD PUSH3 0x461BCD PUSH1 0xE5 SHL DUP2 MSTORE PUSH1 0x20 PUSH1 0x4 DUP3 ADD MSTORE PUSH1 0xD PUSH1 0x24 DUP3 ADD MSTORE PUSH13 0x24B73B30B634B21030B236B4B7 PUSH1 0x99 SHL PUSH1 0x44 DUP3 ADD MSTORE PUSH1 0x64 SWAP1 REVERT JUMPDEST PUSH3 0x461BCD PUSH1 0xE5 SHL DUP2 MSTORE PUSH1 0x20 PUSH1 0x4 DUP3 ADD MSTORE PUSH1 0xE PUSH1 0x24 DUP3 ADD MSTORE PUSH14 0x496E76616C696420657363726F77 PUSH1 0x90 SHL PUSH1 0x44 DUP3 ADD MSTORE PUSH1 0x64 SWAP1 REVERT JUMPDEST DUP5 MLOAD PUSH4 0x1E4FBDF7 PUSH1 0xE0 SHL DUP2 MSTORE PUSH1 0x0 PUSH1 0x4 DUP3 ADD MSTORE PUSH1 0x24 SWAP1 REVERT JUMPDEST PUSH1 0x0 DUP1 REVERT JUMPDEST PUSH4 0x4E487B71 PUSH1 0xE0 SHL PUSH1 0x0 MSTORE PUSH1 0x41 PUSH1 0x4 MSTORE PUSH1 0x24 PUSH1 0x0 REVERT JUMPDEST MLOAD SWAP1 PUSH1 0x1 PUSH1 0x1 PUSH1 0xA0 SHL SUB DUP3 AND DUP3 SUB PUSH3 0x1D8 JUMPI JUMP INVALID PUSH1 0x80 DUP1 PUSH1 0x40 MSTORE PUSH1 0x4 CALLDATASIZE LT ISZERO PUSH2 0x1D JUMPI JUMPDEST POP CALLDATASIZE ISZERO PUSH2 0x1B JUMPI PUSH1 0x0 DUP1 REVERT JUMPDEST STOP JUMPDEST PUSH1 0x0 SWAP1 DUP2 CALLDATALOAD PUSH1 0xE0 SHR SWAP1 DUP2 PUSH4 0x17B975B EQ PUSH2 0x251C JUMPI POP DUP1 PUSH4 0x28DF0D4 EQ PUSH2 0x22E1 JUMPI DUP1 PUSH4 0xD8D2D08 EQ PUSH2 0x2274 JUMPI DUP1 PUSH4 0x1871E243 EQ PUSH2 0x21D1 JUMPI DUP1 PUSH4 0x190E4C55 EQ PUSH2 0x2160 JUMPI DUP1 PUSH4 0x1BAAAFFE EQ PUSH2 0x503 JUMPI DUP1 PUSH4 0x1BDD4B74 EQ PUSH2 0x1E3B JUMPI DUP1 PUSH4 0x3AE5EF0E EQ PUSH2 0x1C61 JUMPI DUP1 PUSH4 0x44C7D6EF EQ PUSH2 0x1AC0 JUMPI DUP1 PUSH4 0x4B117E32 EQ PUSH2 0x19A2 JUMPI DUP1 PUSH4 0x5C8B5F44 EQ PUSH2 0xB90 JUMPI DUP1 PUSH4 0x62193BC8 EQ PUSH2 0x13F2 JUMPI DUP1 PUSH4 0x68A2B7DE EQ PUSH2 0x1206 JUMPI DUP1 PUSH4 0x69249FBA EQ PUSH2 0x13C8 JUMPI DUP1 PUSH4 0x704B6C02 EQ PUSH2 0x1329 JUMPI DUP1 PUSH4 0x715018A6 EQ PUSH2 0x12CB JUMPI DUP1 PUSH4 0x8333903E EQ PUSH2 0x123F JUMPI DUP1 PUSH4 0x86FF06E7 EQ PUSH2 0x1206 JUMPI DUP1 PUSH4 0x8DA5CB5B EQ PUSH2 0x11DD JUMPI DUP1 PUSH4 0x8F1D3776 EQ PUSH2 0x106D JUMPI DUP1 PUSH4 0xC25D8B7B EQ PUSH2 0xDCC JUMPI DUP1 PUSH4 0xC5AC3D4B EQ PUSH2 0xBED JUMPI DUP1 PUSH4 0xCDD78CFC EQ PUSH2 0xBCF JUMPI DUP1 PUSH4 0xCE9BE9BA EQ PUSH2 0xB90 JUMPI DUP1 PUSH4 0xD2D66482 EQ PUSH2 0xB13 JUMPI DUP1 PUSH4 0xD917FD47 EQ PUSH2 0x762 JUMPI DUP1 PUSH4 0xEB13554F EQ PUSH2 0x739 JUMPI DUP1 PUSH4 0xEC3889B5 EQ PUSH2 0x542 JUMPI DUP1 PUSH4 0xEC867B27 EQ PUSH2 0x503 JUMPI DUP1 PUSH4 0xF2FDE38B EQ PUSH2 0x473 JUMPI DUP1 PUSH4 0xF4A947EF EQ PUSH2 0x1DA JUMPI DUP1 PUSH4 0xF851A440 EQ PUSH2 0x1B1 JUMPI PUSH4 0xFC67AA50 SUB PUSH2 0xF JUMPI CALLVALUE PUSH2 0x1AE JUMPI DUP1 PUSH1 0x3 NOT CALLDATASIZE ADD SLT PUSH2 0x1AE JUMPI PUSH1 0x20 PUSH1 0x5 SLOAD PUSH1 0x40 MLOAD SWAP1 DUP2 MSTORE RETURN JUMPDEST DUP1 REVERT JUMPDEST POP CALLVALUE PUSH2 0x1AE JUMPI DUP1 PUSH1 0x3 NOT CALLDATASIZE ADD SLT PUSH2 0x1AE JUMPI PUSH1 0x3 SLOAD PUSH1 0x40 MLOAD PUSH1 0x1 PUSH1 0x1 PUSH1 0xA0 SHL SUB SWAP1 SWAP2 AND DUP2 MSTORE PUSH1 0x20 SWAP1 RETURN JUMPDEST POP PUSH1 0x20 DUP1 PUSH1 0x3 NOT CALLDATASIZE ADD SLT PUSH2 0x46F JUMPI PUSH1 0x4 CALLDATALOAD PUSH2 0x1F3 PUSH2 0x28F4 JUMP JUMPDEST DUP1 DUP4 MSTORE PUSH1 0x7 DUP3 MSTORE PUSH1 0x40 DUP4 KECCAK256 PUSH1 0x1 DUP2 ADD SLOAD PUSH2 0x21B PUSH1 0x1 PUSH1 0xFF DUP4 AND PUSH2 0x215 DUP2 PUSH2 0x259C JUMP JUMPDEST EQ PUSH2 0x2A9D JUMP JUMPDEST PUSH1 0x6 DUP3 ADD PUSH1 0xFF DUP2 SLOAD AND PUSH1 0x8 DUP2 LT ISZERO PUSH2 0x45B JUMPI PUSH1 0x1 PUSH2 0x239 SWAP2 EQ PUSH2 0x2ADD JUMP JUMPDEST PUSH1 0x1 PUSH1 0x1 PUSH1 0xA0 SHL SUB SWAP2 PUSH1 0x8 SHR DUP3 AND CALLER SUB PUSH2 0x416 JUMPI PUSH1 0xA DUP4 ADD SWAP3 DUP4 SLOAD PUSH1 0xFF DUP2 PUSH1 0x10 SHR AND PUSH2 0x3D8 JUMPI PUSH1 0x18 SHR PUSH1 0xFF AND ISZERO PUSH2 0x393 JUMPI DUP7 PUSH1 0x3 DUP3 ADD SWAP4 DUP1 DUP6 SLOAD AND DUP1 ISZERO PUSH1 0x0 EQ PUSH2 0x36E JUMPI POP PUSH2 0x28D PUSH1 0x4 DUP5 ADD SLOAD CALLVALUE EQ PUSH2 0x299E JUMP JUMPDEST DUP1 PUSH1 0x2 SLOAD AND SWAP5 SLOAD AND SWAP4 PUSH1 0x4 DUP4 ADD SWAP5 DUP6 SLOAD SWAP1 DUP3 EXTCODESIZE ISZERO PUSH2 0x36A JUMPI PUSH1 0x40 MLOAD PUSH4 0x7A443E3D PUSH1 0xE1 SHL DUP2 MSTORE CALLER PUSH1 0x4 DUP3 ADD MSTORE PUSH1 0x1 PUSH1 0x1 PUSH1 0xA0 SHL SUB SWAP2 SWAP1 SWAP2 AND PUSH1 0x24 DUP3 ADD MSTORE PUSH1 0x44 DUP2 ADD SWAP2 SWAP1 SWAP2 MSTORE PUSH1 0x64 DUP2 ADD DUP9 SWAP1 MSTORE SWAP1 DUP3 SWAP1 DUP3 SWAP1 PUSH1 0x84 SWAP1 DUP3 SWAP1 DUP5 SWAP1 GAS CALL DUP1 ISZERO PUSH2 0x35F JUMPI PUSH2 0x347 JUMPI JUMPDEST POP POP PUSH32 0xDA802D1F712D76BC374130E717018A5B3A7AD3AF3DF40EFA559A23B96A485067 SWAP4 PUSH3 0x10000 PUSH3 0xFF0000 NOT DUP3 SLOAD AND OR SWAP1 SSTORE PUSH1 0xB TIMESTAMP SWAP2 ADD SSTORE PUSH1 0x2 PUSH1 0xFF NOT DUP3 SLOAD AND OR SWAP1 SSTORE SLOAD SWAP3 PUSH1 0x40 MLOAD SWAP4 DUP5 MSTORE CALLER SWAP4 LOG3 PUSH1 0x1 DUP2 SSTORE DUP1 RETURN JUMPDEST PUSH2 0x350 SWAP1 PUSH2 0x268F JUMP JUMPDEST PUSH2 0x35B JUMPI DUP7 CODESIZE PUSH2 0x2F1 JUMP JUMPDEST DUP7 DUP1 REVERT JUMPDEST PUSH1 0x40 MLOAD RETURNDATASIZE DUP5 DUP3 RETURNDATACOPY RETURNDATASIZE SWAP1 REVERT JUMPDEST DUP4 DUP1 REVERT JUMPDEST PUSH2 0x38E SWAP1 PUSH2 0x37C CALLVALUE ISZERO PUSH2 0x2952 JUMP JUMPDEST DUP3 PUSH1 0x2 SLOAD AND PUSH1 0x4 DUP7 ADD SLOAD SWAP2 CALLER SWAP1 PUSH2 0x29E0 JUMP JUMPDEST PUSH2 0x28D JUMP JUMPDEST PUSH1 0x40 MLOAD PUSH3 0x461BCD PUSH1 0xE5 SHL DUP2 MSTORE PUSH1 0x4 DUP2 ADD DUP8 SWAP1 MSTORE PUSH1 0x1E PUSH1 0x24 DUP3 ADD MSTORE PUSH32 0x5061727469636970616E7420686173206E6F74207374616B6564207965740000 PUSH1 0x44 DUP3 ADD MSTORE PUSH1 0x64 SWAP1 REVERT JUMPDEST PUSH1 0x40 MLOAD PUSH3 0x461BCD PUSH1 0xE5 SHL DUP2 MSTORE PUSH1 0x4 DUP2 ADD DUP9 SWAP1 MSTORE PUSH1 0x16 PUSH1 0x24 DUP3 ADD MSTORE PUSH22 0x10DC99585D1BDC88185B1C9958591E481CDD185AD959 PUSH1 0x52 SHL PUSH1 0x44 DUP3 ADD MSTORE PUSH1 0x64 SWAP1 REVERT JUMPDEST PUSH1 0x40 MLOAD PUSH3 0x461BCD PUSH1 0xE5 SHL DUP2 MSTORE PUSH1 0x4 DUP2 ADD DUP7 SWAP1 MSTORE PUSH1 0x1B PUSH1 0x24 DUP3 ADD MSTORE PUSH32 0x4F6E6C792063726561746F722063616E206C6F636B207374616B650000000000 PUSH1 0x44 DUP3 ADD MSTORE PUSH1 0x64 SWAP1 REVERT JUMPDEST PUSH4 0x4E487B71 PUSH1 0xE0 SHL DUP8 MSTORE PUSH1 0x21 PUSH1 0x4 MSTORE PUSH1 0x24 DUP8 REVERT JUMPDEST POP DUP1 REVERT JUMPDEST POP CALLVALUE PUSH2 0x1AE JUMPI PUSH1 0x20 CALLDATASIZE PUSH1 0x3 NOT ADD SLT PUSH2 0x1AE JUMPI PUSH2 0x48D PUSH2 0x2557 JUMP JUMPDEST PUSH2 0x495 PUSH2 0x2788 JUMP JUMPDEST PUSH1 0x1 PUSH1 0x1 PUSH1 0xA0 SHL SUB SWAP1 DUP2 AND SWAP1 DUP2 ISZERO PUSH2 0x4EA JUMPI PUSH1 0x1 SLOAD DUP3 PUSH12 0xFFFFFFFFFFFFFFFFFFFFFFFF PUSH1 0xA0 SHL DUP3 AND OR PUSH1 0x1 SSTORE AND PUSH32 0x8BE0079C531659141344CD1FD0A4F28419497F9722A3DAAFE3B4186F6B6457E0 PUSH1 0x0 DUP1 LOG3 DUP1 RETURN JUMPDEST PUSH1 0x40 MLOAD PUSH4 0x1E4FBDF7 PUSH1 0xE0 SHL DUP2 MSTORE PUSH1 0x4 DUP2 ADD DUP5 SWAP1 MSTORE PUSH1 0x24 SWAP1 REVERT JUMPDEST POP CALLVALUE PUSH2 0x1AE JUMPI PUSH1 0x20 CALLDATASIZE PUSH1 0x3 NOT ADD SLT PUSH2 0x1AE JUMPI PUSH1 0x20 SWAP1 PUSH1 0xFF SWAP1 PUSH1 0x40 SWAP1 PUSH1 0x1 PUSH1 0x1 PUSH1 0xA0 SHL SUB PUSH2 0x52E PUSH2 0x2557 JUMP JUMPDEST AND DUP2 MSTORE PUSH1 0xA DUP5 MSTORE KECCAK256 SLOAD AND PUSH1 0x40 MLOAD SWAP1 ISZERO ISZERO DUP2 MSTORE RETURN JUMPDEST POP CALLVALUE PUSH2 0x1AE JUMPI PUSH1 0x20 DUP1 PUSH1 0x3 NOT CALLDATASIZE ADD SLT PUSH2 0x46F JUMPI PUSH2 0x55D PUSH2 0x2557 JUMP JUMPDEST SWAP1 PUSH2 0x566 PUSH2 0x2788 JUMP JUMPDEST PUSH2 0x56E PUSH2 0x28F4 JUMP JUMPDEST PUSH1 0x1 PUSH1 0x1 PUSH1 0xA0 SHL SUB SWAP2 DUP3 AND DUP1 DUP5 MSTORE PUSH1 0xC DUP3 MSTORE PUSH1 0x40 DUP5 KECCAK256 SLOAD SWAP3 SWAP1 SWAP2 SWAP1 DUP4 ISZERO PUSH2 0x6FE JUMPI DUP3 DUP6 MSTORE PUSH1 0xC DUP3 MSTORE DUP5 PUSH1 0x40 DUP2 KECCAK256 SSTORE DUP3 ISZERO PUSH1 0x0 EQ PUSH2 0x677 JUMPI DUP5 DUP1 DUP1 DUP1 DUP8 DUP6 PUSH1 0x4 SLOAD AND GAS CALL RETURNDATASIZE ISZERO PUSH2 0x672 JUMPI RETURNDATASIZE PUSH8 0xFFFFFFFFFFFFFFFF DUP2 GT PUSH2 0x65E JUMPI PUSH1 0x40 MLOAD SWAP1 PUSH2 0x5DE PUSH1 0x1F DUP3 ADD PUSH1 0x1F NOT AND DUP7 ADD DUP4 PUSH2 0x26C0 JUMP JUMPDEST DUP2 MSTORE DUP7 DUP5 RETURNDATASIZE SWAP3 ADD RETURNDATACOPY JUMPDEST ISZERO PUSH2 0x623 JUMPI SWAP1 PUSH32 0x8273342A380B5301480C28BA6B7DFB7BFDA23BFD871714C935E45A15E9CB823 SWAP2 JUMPDEST PUSH1 0x4 SLOAD AND SWAP4 PUSH1 0x40 MLOAD SWAP1 DUP2 MSTORE LOG3 PUSH1 0x1 DUP2 SSTORE DUP1 RETURN JUMPDEST PUSH1 0x40 MLOAD PUSH3 0x461BCD PUSH1 0xE5 SHL DUP2 MSTORE PUSH1 0x4 DUP2 ADD DUP4 SWAP1 MSTORE PUSH1 0x13 PUSH1 0x24 DUP3 ADD MSTORE PUSH19 0x115512081D1C985B9CD9995C8819985A5B1959 PUSH1 0x6A SHL PUSH1 0x44 DUP3 ADD MSTORE PUSH1 0x64 SWAP1 REVERT JUMPDEST PUSH4 0x4E487B71 PUSH1 0xE0 SHL DUP8 MSTORE PUSH1 0x41 PUSH1 0x4 MSTORE PUSH1 0x24 DUP8 REVERT JUMPDEST PUSH2 0x5E7 JUMP JUMPDEST PUSH1 0x4 SLOAD PUSH1 0x40 MLOAD PUSH4 0xA9059CBB PUSH1 0xE0 SHL DUP2 DUP6 ADD MSTORE SWAP1 DUP3 AND PUSH1 0x24 DUP3 ADD MSTORE PUSH1 0x44 DUP1 DUP3 ADD DUP7 SWAP1 MSTORE DUP2 MSTORE SWAP2 SWAP1 PUSH1 0x80 DUP4 ADD PUSH8 0xFFFFFFFFFFFFFFFF DUP2 GT DUP5 DUP3 LT OR PUSH2 0x6E8 JUMPI PUSH32 0x8273342A380B5301480C28BA6B7DFB7BFDA23BFD871714C935E45A15E9CB823 SWAP4 PUSH2 0x6E3 SWAP2 PUSH1 0x40 MSTORE DUP6 PUSH2 0x2A35 JUMP JUMPDEST PUSH2 0x610 JUMP JUMPDEST PUSH4 0x4E487B71 PUSH1 0xE0 SHL PUSH1 0x0 MSTORE PUSH1 0x41 PUSH1 0x4 MSTORE PUSH1 0x24 PUSH1 0x0 REVERT JUMPDEST PUSH1 0x40 MLOAD PUSH3 0x461BCD PUSH1 0xE5 SHL DUP2 MSTORE PUSH1 0x4 DUP2 ADD DUP4 SWAP1 MSTORE PUSH1 0x13 PUSH1 0x24 DUP3 ADD MSTORE PUSH19 0x4E6F206665657320746F207769746864726177 PUSH1 0x68 SHL PUSH1 0x44 DUP3 ADD MSTORE PUSH1 0x64 SWAP1 REVERT JUMPDEST POP CALLVALUE PUSH2 0x1AE JUMPI DUP1 PUSH1 0x3 NOT CALLDATASIZE ADD SLT PUSH2 0x1AE JUMPI PUSH1 0x4 SLOAD PUSH1 0x40 MLOAD PUSH1 0x1 PUSH1 0x1 PUSH1 0xA0 SHL SUB SWAP1 SWAP2 AND DUP2 MSTORE PUSH1 0x20 SWAP1 RETURN JUMPDEST POP PUSH2 0x76C CALLDATASIZE PUSH2 0x2541 JUMP JUMPDEST SWAP1 PUSH2 0x775 PUSH2 0x28F4 JUMP JUMPDEST DUP1 DUP4 MSTORE PUSH1 0x20 SWAP1 PUSH1 0x7 DUP3 MSTORE PUSH1 0x40 DUP5 KECCAK256 PUSH1 0x1 SWAP4 DUP5 DUP3 ADD SLOAD PUSH1 0xFF PUSH2 0x79C DUP8 DUP3 DUP5 AND PUSH2 0x215 DUP2 PUSH2 0x259C JUMP JUMPDEST PUSH1 0x6 DUP5 ADD SWAP3 DUP2 DUP5 SLOAD AND PUSH1 0x8 DUP2 LT ISZERO PUSH2 0xAFF JUMPI PUSH2 0xAC5 JUMPI PUSH1 0x1 PUSH1 0x1 PUSH1 0xA0 SHL SUB SWAP3 PUSH1 0x8 SHR DUP4 AND CALLER EQ PUSH2 0xA74 JUMPI DUP1 ISZERO DUP1 ISZERO PUSH2 0xA6B JUMPI JUMPDEST PUSH2 0x7D8 SWAP1 PUSH2 0x2917 JUMP JUMPDEST PUSH1 0xA DUP6 ADD SWAP3 DUP3 DUP5 SLOAD AND PUSH2 0x7EA DUP2 PUSH2 0x259C JUMP JUMPDEST PUSH2 0xA64 JUMPI DUP3 DUP11 JUMPDEST AND DUP3 EQ PUSH2 0xA10 JUMPI PUSH1 0x2 DUP7 ADD DUP1 SLOAD DUP12 SWAP4 SWAP3 SWAP2 SWAP1 DUP1 DUP4 AND ISZERO PUSH2 0x9FA JUMPI POP DUP2 SWAP3 SWAP4 POP SLOAD AND CALLER SUB PUSH2 0x9B5 JUMPI SWAP1 PUSH1 0x4 DUP11 SWAP3 JUMPDEST PUSH1 0x3 DUP9 ADD SWAP3 DUP2 DUP5 SLOAD AND DUP1 ISZERO PUSH1 0x0 EQ PUSH2 0x991 JUMPI POP PUSH2 0x83F DUP4 DUP11 ADD SLOAD CALLVALUE EQ PUSH2 0x299E JUMP JUMPDEST PUSH2 0x848 DUP2 PUSH2 0x259C JUMP JUMPDEST PUSH2 0x851 DUP2 PUSH2 0x259C JUMP JUMPDEST PUSH2 0xFF00 DUP8 SLOAD SWAP2 PUSH1 0x8 SHL AND SWAP1 PUSH2 0xFF00 NOT AND OR DUP7 SSTORE DUP1 PUSH1 0x2 SLOAD AND SWAP3 SLOAD AND SWAP7 ADD SWAP6 DUP7 SLOAD SWAP1 DUP3 EXTCODESIZE ISZERO PUSH2 0x36A JUMPI PUSH1 0x40 MLOAD PUSH4 0x7A443E3D PUSH1 0xE1 SHL DUP2 MSTORE CALLER PUSH1 0x4 DUP3 ADD MSTORE PUSH1 0x1 PUSH1 0x1 PUSH1 0xA0 SHL SUB SWAP2 SWAP1 SWAP2 AND PUSH1 0x24 DUP3 ADD MSTORE PUSH1 0x44 DUP2 ADD SWAP2 SWAP1 SWAP2 MSTORE PUSH1 0x64 DUP2 ADD DUP9 SWAP1 MSTORE SWAP1 DUP3 SWAP1 DUP3 SWAP1 PUSH1 0x84 SWAP1 DUP3 SWAP1 DUP5 SWAP1 GAS CALL DUP1 ISZERO PUSH2 0x35F JUMPI PUSH2 0x979 JUMPI JUMPDEST POP POP DUP1 DUP3 SLOAD PUSH4 0x1000000 PUSH4 0xFF000000 NOT DUP3 AND OR DUP1 SWAP5 SSTORE AND SWAP2 PUSH1 0x8 SHR AND SWAP1 PUSH2 0x8EB DUP3 PUSH2 0x259C JUMP JUMPDEST PUSH2 0x8F4 DUP2 PUSH2 0x259C JUMP JUMPDEST EQ PUSH2 0x934 JUMPI DUP1 SLOAD PUSH1 0xFF NOT AND DUP6 OR SWAP1 SSTORE SLOAD PUSH1 0x40 MLOAD SWAP1 DUP2 MSTORE CALLER SWAP3 PUSH32 0xAA5D071B783A3C78EF80284714EEBA5FE6E9DCBB542FF148B3F55702594C1BCD SWAP2 LOG3 DUP2 SSTORE DUP1 RETURN JUMPDEST PUSH1 0x40 MLOAD PUSH3 0x461BCD PUSH1 0xE5 SHL DUP2 MSTORE PUSH1 0x4 DUP2 ADD DUP6 SWAP1 MSTORE PUSH1 0x1A PUSH1 0x24 DUP3 ADD MSTORE PUSH32 0x496E76616C6964207369646520636F6E66696775726174696F6E000000000000 PUSH1 0x44 DUP3 ADD MSTORE PUSH1 0x64 SWAP1 REVERT JUMPDEST PUSH2 0x982 SWAP1 PUSH2 0x268F JUMP JUMPDEST PUSH2 0x98D JUMPI DUP8 CODESIZE PUSH2 0x8C5 JUMP JUMPDEST DUP8 DUP1 REVERT JUMPDEST PUSH2 0x9B0 SWAP1 PUSH2 0x99F CALLVALUE ISZERO PUSH2 0x2952 JUMP JUMPDEST DUP4 PUSH1 0x2 SLOAD AND DUP6 DUP13 ADD SLOAD SWAP2 CALLER SWAP1 PUSH2 0x29E0 JUMP JUMPDEST PUSH2 0x83F JUMP JUMPDEST PUSH1 0x40 MLOAD PUSH3 0x461BCD PUSH1 0xE5 SHL DUP2 MSTORE PUSH1 0x4 DUP2 ADD DUP10 SWAP1 MSTORE PUSH1 0x1D PUSH1 0x24 DUP3 ADD MSTORE PUSH32 0x4E6F742074686520737065636966696564207061727469636970616E74000000 PUSH1 0x44 DUP3 ADD MSTORE PUSH1 0x64 SWAP1 REVERT JUMPDEST PUSH1 0x1 PUSH1 0x1 PUSH1 0xA0 SHL SUB NOT AND CALLER OR SWAP1 SSTORE PUSH1 0x4 SWAP1 PUSH2 0x81E JUMP JUMPDEST PUSH1 0x40 MLOAD PUSH3 0x461BCD PUSH1 0xE5 SHL DUP2 MSTORE PUSH1 0x4 DUP2 ADD DUP10 SWAP1 MSTORE PUSH1 0x26 PUSH1 0x24 DUP3 ADD MSTORE PUSH32 0x4D7573742063686F6F7365206F70706F7369746520736964652066726F6D2063 PUSH1 0x44 DUP3 ADD MSTORE PUSH6 0x3932B0BA37B9 PUSH1 0xD1 SHL PUSH1 0x64 DUP3 ADD MSTORE PUSH1 0x84 SWAP1 REVERT JUMPDEST DUP3 DUP10 PUSH2 0x7F1 JUMP JUMPDEST POP DUP1 DUP9 EQ PUSH2 0x7CF JUMP JUMPDEST PUSH1 0x40 MLOAD PUSH3 0x461BCD PUSH1 0xE5 SHL DUP2 MSTORE PUSH1 0x4 DUP2 ADD DUP9 SWAP1 MSTORE PUSH1 0x23 PUSH1 0x24 DUP3 ADD MSTORE PUSH32 0x43726561746F722063616E6E6F7420616363657074206F776E206368616C6C65 PUSH1 0x44 DUP3 ADD MSTORE PUSH3 0x6E6765 PUSH1 0xE8 SHL PUSH1 0x64 DUP3 ADD MSTORE PUSH1 0x84 SWAP1 REVERT JUMPDEST PUSH1 0x40 MLOAD PUSH3 0x461BCD PUSH1 0xE5 SHL DUP2 MSTORE PUSH1 0x4 DUP2 ADD DUP9 SWAP1 MSTORE PUSH1 0x12 PUSH1 0x24 DUP3 ADD MSTORE PUSH18 0x21B430B63632B733B2903737BA1037B832B7 PUSH1 0x71 SHL PUSH1 0x44 DUP3 ADD MSTORE PUSH1 0x64 SWAP1 REVERT JUMPDEST PUSH4 0x4E487B71 PUSH1 0xE0 SHL DUP11 MSTORE PUSH1 0x21 PUSH1 0x4 MSTORE PUSH1 0x24 DUP11 REVERT JUMPDEST POP CALLVALUE PUSH2 0x1AE JUMPI PUSH1 0x20 PUSH32 0xD128F4457567637D4D9A19A54A44A6E47BA1ED0CC875B3CFF7B762C8BB27B416 PUSH2 0xB45 CALLDATASIZE PUSH2 0x256D JUMP JUMPDEST SWAP3 SWAP1 PUSH2 0xB4F PUSH2 0x2788 JUMP JUMPDEST PUSH1 0x1 PUSH1 0x1 PUSH1 0xA0 SHL SUB AND SWAP3 PUSH2 0xB64 DUP5 ISZERO ISZERO PUSH2 0x2B80 JUMP JUMPDEST DUP4 DUP6 MSTORE PUSH1 0xA DUP3 MSTORE PUSH2 0xB84 DUP2 PUSH1 0x40 DUP8 KECCAK256 SWAP1 PUSH1 0xFF DUP1 NOT DUP4 SLOAD AND SWAP2 ISZERO ISZERO AND OR SWAP1 SSTORE JUMP JUMPDEST PUSH1 0x40 MLOAD SWAP1 ISZERO ISZERO DUP2 MSTORE LOG2 DUP1 RETURN JUMPDEST POP CALLVALUE PUSH2 0x1AE JUMPI PUSH1 0x20 CALLDATASIZE PUSH1 0x3 NOT ADD SLT PUSH2 0x1AE JUMPI PUSH1 0x20 SWAP1 PUSH1 0xFF SWAP1 PUSH1 0x40 SWAP1 PUSH1 0x1 PUSH1 0x1 PUSH1 0xA0 SHL SUB PUSH2 0xBBB PUSH2 0x2557 JUMP JUMPDEST AND DUP2 MSTORE PUSH1 0xB DUP5 MSTORE KECCAK256 SLOAD AND PUSH1 0x40 MLOAD SWAP1 ISZERO ISZERO DUP2 MSTORE RETURN JUMPDEST POP CALLVALUE PUSH2 0x1AE JUMPI DUP1 PUSH1 0x3 NOT CALLDATASIZE ADD SLT PUSH2 0x1AE JUMPI PUSH1 0x20 PUSH1 0x6 SLOAD PUSH1 0x40 MLOAD SWAP1 DUP2 MSTORE RETURN JUMPDEST POP CALLVALUE PUSH2 0x1AE JUMPI PUSH2 0xBFC CALLDATASIZE PUSH2 0x2621 JUMP JUMPDEST SWAP2 SWAP1 PUSH2 0xC06 PUSH2 0x28F4 JUMP JUMPDEST DUP2 DUP5 MSTORE PUSH1 0x7 PUSH1 0x20 MSTORE PUSH1 0x40 DUP5 KECCAK256 PUSH1 0x1 DUP2 ADD SLOAD PUSH2 0xC29 PUSH1 0x1 PUSH1 0xFF DUP4 AND PUSH2 0x215 DUP2 PUSH2 0x259C JUMP JUMPDEST PUSH1 0xA DUP3 ADD SLOAD PUSH1 0xFF DUP2 PUSH1 0x10 SHR AND SWAP1 DUP2 PUSH2 0xDBE JUMPI JUMPDEST POP ISZERO PUSH2 0xD81 JUMPI PUSH1 0x6 DUP3 ADD SWAP1 DUP2 SLOAD SWAP1 PUSH1 0xFF DUP3 AND SWAP1 PUSH1 0x8 DUP3 LT ISZERO SWAP1 DUP2 PUSH2 0xAFF JUMPI PUSH1 0x2 DUP4 EQ DUP1 SWAP4 DUP2 ISZERO PUSH2 0xD70 JUMPI JUMPDEST POP PUSH2 0xC71 SWAP1 PUSH2 0x2ADD JUMP JUMPDEST PUSH1 0x1 DUP1 PUSH1 0xA0 SHL SUB DUP1 SWAP2 PUSH1 0x8 SHR AND CALLER EQ SWAP1 DUP2 ISZERO PUSH2 0xD60 JUMPI JUMPDEST POP ISZERO PUSH2 0xD0F JUMPI PUSH2 0xCFB JUMPI SWAP2 PUSH2 0xCD9 SWAP4 SWAP2 PUSH32 0x5A28917ADA7E719E75DEB413B0EDDFB869B62C4CF3808ECD3C5CEB107B882450 SWAP6 SWAP4 PUSH2 0xCE3 JUMPI JUMPDEST POP POP POP PUSH1 0x40 MLOAD SWAP2 DUP3 SWAP2 PUSH1 0x20 DUP4 MSTORE CALLER SWAP7 PUSH1 0x20 DUP5 ADD SWAP2 PUSH2 0x2B1A JUMP JUMPDEST SUB SWAP1 LOG3 PUSH1 0x1 DUP2 SSTORE DUP1 RETURN JUMPDEST PUSH1 0x6 SWAP1 PUSH1 0xFF NOT AND OR SWAP1 SSTORE PUSH1 0xC TIMESTAMP SWAP2 ADD SSTORE CODESIZE DUP1 DUP1 PUSH2 0xCC0 JUMP JUMPDEST PUSH4 0x4E487B71 PUSH1 0xE0 SHL DUP9 MSTORE PUSH1 0x21 PUSH1 0x4 MSTORE PUSH1 0x24 DUP9 REVERT JUMPDEST PUSH1 0x40 MLOAD PUSH3 0x461BCD PUSH1 0xE5 SHL DUP2 MSTORE PUSH1 0x20 PUSH1 0x4 DUP3 ADD MSTORE PUSH1 0x24 DUP1 DUP3 ADD MSTORE PUSH32 0x4F6E6C79207061727469636970616E74732063616E2072657175657374207265 PUSH1 0x44 DUP3 ADD MSTORE PUSH4 0x199D5B99 PUSH1 0xE2 SHL PUSH1 0x64 DUP3 ADD MSTORE PUSH1 0x84 SWAP1 REVERT JUMPDEST SWAP1 POP PUSH1 0x2 DUP7 ADD SLOAD AND CALLER EQ CODESIZE PUSH2 0xC88 JUMP JUMPDEST PUSH1 0x0 SWAP4 POP PUSH1 0x6 EQ SWAP1 POP PUSH2 0xC71 PUSH2 0xC67 JUMP JUMPDEST PUSH1 0x40 MLOAD PUSH3 0x461BCD PUSH1 0xE5 SHL DUP2 MSTORE PUSH1 0x20 PUSH1 0x4 DUP3 ADD MSTORE PUSH1 0x15 PUSH1 0x24 DUP3 ADD MSTORE PUSH21 0x109BDD1A081B5D5CDD081A185D99481CDD185AD959 PUSH1 0x5A SHL PUSH1 0x44 DUP3 ADD MSTORE PUSH1 0x64 SWAP1 REVERT JUMPDEST PUSH1 0xFF SWAP2 POP PUSH1 0x18 SHR AND CODESIZE PUSH2 0xC3C JUMP JUMPDEST POP CALLVALUE PUSH2 0x1AE JUMPI PUSH1 0x80 CALLDATASIZE PUSH1 0x3 NOT ADD SLT PUSH2 0x1AE JUMPI PUSH2 0xDE6 PUSH2 0x2557 JUMP JUMPDEST PUSH8 0xFFFFFFFFFFFFFFFF SWAP2 PUSH1 0x24 CALLDATALOAD SWAP2 SWAP1 PUSH1 0x44 CALLDATALOAD PUSH1 0x64 CALLDATALOAD DUP6 DUP2 GT PUSH2 0x1069 JUMPI PUSH2 0xE10 SWAP1 CALLDATASIZE SWAP1 PUSH1 0x4 ADD PUSH2 0x25F3 JUMP JUMPDEST SWAP5 SWAP1 SWAP4 PUSH2 0xE1B PUSH2 0x2788 JUMP JUMPDEST PUSH2 0xE23 PUSH2 0x28F4 JUMP JUMPDEST PUSH1 0x1 PUSH1 0x1 PUSH1 0xA0 SHL SUB AND SWAP2 DUP3 ISZERO PUSH2 0x102C JUMPI DUP3 DUP5 MSTORE PUSH1 0x20 SWAP7 PUSH1 0xB DUP9 MSTORE PUSH2 0xE4E PUSH1 0xFF PUSH1 0x40 DUP8 KECCAK256 SLOAD AND ISZERO PUSH2 0x27B4 JUMP JUMPDEST PUSH2 0xE59 DUP4 ISZERO ISZERO PUSH2 0x27F7 JUMP JUMPDEST PUSH2 0xE64 DUP3 ISZERO ISZERO PUSH2 0x2837 JUMP JUMPDEST PUSH2 0xE72 PUSH2 0x1F4 DUP4 GT ISZERO PUSH2 0x2883 JUMP JUMPDEST PUSH1 0x5 SLOAD SWAP7 PUSH2 0xE7F DUP9 PUSH2 0x28CF JUMP JUMPDEST PUSH1 0x5 SSTORE DUP8 DUP7 MSTORE PUSH1 0x7 DUP10 MSTORE PUSH1 0x40 DUP7 KECCAK256 DUP9 DUP2 SSTORE PUSH1 0x1 DUP1 DUP3 ADD DUP1 SLOAD PUSH1 0x1 PUSH1 0x1 PUSH1 0xA8 SHL SUB NOT AND CALLER PUSH1 0x8 SHL PUSH2 0x100 PUSH1 0x1 PUSH1 0xA8 SHL SUB AND OR SWAP1 SSTORE SWAP8 SWAP1 PUSH1 0x9 SWAP1 PUSH1 0xFF NOT PUSH1 0x3 DUP3 ADD DUP10 PUSH12 0xFFFFFFFFFFFFFFFFFFFFFFFF PUSH1 0xA0 SHL DUP3 SLOAD AND OR SWAP1 SSTORE DUP8 PUSH1 0x4 DUP4 ADD SSTORE DUP7 PUSH1 0x5 DUP4 ADD SSTORE PUSH1 0x6 DUP3 ADD SWAP1 DUP2 SLOAD AND SWAP1 SSTORE TIMESTAMP PUSH1 0x7 DUP3 ADD SSTORE ADD SWAP3 DUP3 GT PUSH2 0x65E JUMPI DUP2 SWAP1 PUSH2 0xF05 DUP5 SLOAD PUSH2 0x2655 JUMP JUMPDEST PUSH1 0x1F DUP2 GT PUSH2 0xFDC JUMPI JUMPDEST POP DUP8 SWAP1 PUSH1 0x1F DUP4 GT PUSH1 0x1 EQ PUSH2 0xF7C JUMPI DUP9 SWAP3 PUSH2 0xF71 JUMPI JUMPDEST POP POP PUSH1 0x0 NOT PUSH1 0x3 DUP4 SWAP1 SHL SHR NOT AND SWAP1 DUP8 SHL OR SWAP1 SSTORE JUMPDEST PUSH1 0x40 MLOAD SWAP2 DUP3 MSTORE DUP7 DUP3 ADD MSTORE DUP5 PUSH32 0xAC61621ED399481A7FDD906A7B94C9D3667DEE8643E9C121E783B860A3F2282D PUSH1 0x40 CALLER SWAP4 LOG4 SSTORE PUSH1 0x40 MLOAD SWAP1 DUP2 MSTORE RETURN JUMPDEST ADD CALLDATALOAD SWAP1 POP CODESIZE DUP1 PUSH2 0xF23 JUMP JUMPDEST DUP5 DUP10 MSTORE DUP12 DUP10 KECCAK256 DUP11 SWAP5 POP SWAP2 PUSH1 0x1F NOT DUP5 AND DUP11 DUP15 JUMPDEST DUP3 DUP3 LT PUSH2 0xFC5 JUMPI POP POP DUP5 GT PUSH2 0xFAB JUMPI JUMPDEST POP POP POP DUP2 SHL ADD SWAP1 SSTORE PUSH2 0xF37 JUMP JUMPDEST ADD CALLDATALOAD PUSH1 0x0 NOT PUSH1 0x3 DUP5 SWAP1 SHL PUSH1 0xF8 AND SHR NOT AND SWAP1 SSTORE CODESIZE DUP1 DUP1 PUSH2 0xF9E JUMP JUMPDEST DUP4 DUP6 ADD CALLDATALOAD DUP7 SSTORE DUP14 SWAP8 SWAP1 SWAP6 ADD SWAP5 SWAP3 DUP4 ADD SWAP3 ADD DUP15 PUSH2 0xF8E JUMP JUMPDEST SWAP1 SWAP2 POP DUP4 DUP9 MSTORE DUP11 DUP9 KECCAK256 PUSH1 0x1F DUP5 ADD PUSH1 0x5 SHR DUP2 ADD SWAP2 DUP13 DUP6 LT PUSH2 0x1022 JUMPI JUMPDEST DUP5 SWAP4 SWAP3 SWAP2 PUSH1 0x1F DUP13 SWAP3 ADD PUSH1 0x5 SHR ADD SWAP2 JUMPDEST DUP3 DUP2 LT PUSH2 0x1014 JUMPI POP POP PUSH2 0xF0E JUMP JUMPDEST DUP11 DUP2 SSTORE DUP6 SWAP5 POP DUP12 SWAP2 ADD PUSH2 0x1006 JUMP JUMPDEST SWAP1 SWAP2 POP DUP2 SWAP1 PUSH2 0xFF7 JUMP JUMPDEST PUSH1 0x40 MLOAD PUSH3 0x461BCD PUSH1 0xE5 SHL DUP2 MSTORE PUSH1 0x20 PUSH1 0x4 DUP3 ADD MSTORE PUSH1 0x15 PUSH1 0x24 DUP3 ADD MSTORE PUSH21 0x24B73B30B634B2103830BCB6B2B73A103A37B5B2B7 PUSH1 0x59 SHL PUSH1 0x44 DUP3 ADD MSTORE PUSH1 0x64 SWAP1 REVERT JUMPDEST DUP3 DUP1 REVERT JUMPDEST POP CALLVALUE PUSH2 0x1AE JUMPI PUSH1 0x20 CALLDATASIZE PUSH1 0x3 NOT ADD SLT PUSH2 0x1AE JUMPI PUSH1 0x4 CALLDATALOAD DUP2 MSTORE PUSH1 0x7 PUSH1 0x20 MSTORE PUSH1 0x40 SWAP1 KECCAK256 DUP1 SLOAD PUSH1 0x1 DUP3 ADD SLOAD SWAP2 PUSH1 0x1 PUSH1 0xA0 SHL PUSH1 0x1 SWAP1 SUB PUSH1 0x2 DUP3 ADD SLOAD AND PUSH1 0x1 PUSH1 0xA0 SHL PUSH1 0x1 SWAP1 SUB PUSH1 0x3 DUP4 ADD SLOAD AND SWAP2 PUSH1 0x4 DUP2 ADD SLOAD SWAP3 PUSH1 0x5 DUP3 ADD SLOAD PUSH1 0x6 DUP4 ADD SLOAD PUSH1 0x7 DUP5 ADD SLOAD PUSH1 0x8 DUP6 ADD SLOAD SWAP2 PUSH1 0x9 DUP7 ADD PUSH2 0x10DC SWAP1 PUSH2 0x26E2 JUMP JUMPDEST SWAP4 PUSH1 0xA DUP8 ADD SLOAD SWAP9 PUSH1 0xB DUP9 ADD SLOAD SWAP7 PUSH1 0xC DUP10 ADD SLOAD SWAP9 PUSH1 0xD ADD SLOAD PUSH1 0xFF AND SWAP10 PUSH1 0x40 MLOAD DUP1 SWAP15 DUP2 SWAP15 DUP3 MSTORE PUSH1 0xFF DUP2 AND PUSH2 0x110D DUP2 PUSH2 0x259C JUMP JUMPDEST PUSH1 0x20 DUP4 ADD MSTORE PUSH1 0x8 SHR PUSH1 0x1 PUSH1 0x1 PUSH1 0xA0 SHL SUB AND PUSH1 0x40 SWAP1 SWAP2 ADD MSTORE PUSH1 0x60 DUP14 ADD MSTORE PUSH1 0x80 DUP13 ADD MSTORE PUSH1 0xA0 DUP12 ADD MSTORE PUSH1 0xC0 DUP11 ADD MSTORE PUSH2 0x1148 PUSH1 0xE0 DUP11 ADD PUSH1 0xFF DUP4 AND PUSH2 0x25A6 JUMP JUMPDEST PUSH1 0x8 SHR PUSH1 0x1 PUSH1 0x1 PUSH1 0xA0 SHL SUB AND PUSH2 0x100 DUP10 ADD MSTORE PUSH2 0x120 DUP9 ADD MSTORE PUSH2 0x140 DUP8 ADD MSTORE PUSH2 0x260 PUSH2 0x160 DUP8 ADD DUP2 SWAP1 MSTORE PUSH2 0x117E SWAP2 SWAP1 DUP8 ADD SWAP1 PUSH2 0x25B3 JUMP JUMPDEST SWAP4 PUSH1 0xFF DUP2 AND PUSH2 0x118C DUP2 PUSH2 0x259C JUMP JUMPDEST PUSH2 0x180 DUP8 ADD MSTORE DUP1 PUSH1 0x8 SHR PUSH1 0xFF AND PUSH2 0x11A2 DUP2 PUSH2 0x259C JUMP JUMPDEST PUSH2 0x1A0 DUP8 ADD MSTORE DUP1 PUSH1 0x10 SHR PUSH1 0xFF AND ISZERO ISZERO PUSH2 0x1C0 DUP8 ADD MSTORE PUSH1 0x18 SHR PUSH1 0xFF AND ISZERO ISZERO PUSH2 0x1E0 DUP7 ADD MSTORE PUSH2 0x200 DUP6 ADD MSTORE PUSH2 0x220 DUP5 ADD MSTORE ISZERO ISZERO PUSH2 0x240 DUP4 ADD MSTORE SUB SWAP1 RETURN JUMPDEST POP CALLVALUE PUSH2 0x1AE JUMPI DUP1 PUSH1 0x3 NOT CALLDATASIZE ADD SLT PUSH2 0x1AE JUMPI PUSH1 0x1 SLOAD PUSH1 0x40 MLOAD PUSH1 0x1 PUSH1 0x1 PUSH1 0xA0 SHL SUB SWAP1 SWAP2 AND DUP2 MSTORE PUSH1 0x20 SWAP1 RETURN JUMPDEST POP CALLVALUE PUSH2 0x1AE JUMPI PUSH1 0x20 CALLDATASIZE PUSH1 0x3 NOT ADD SLT PUSH2 0x1AE JUMPI PUSH1 0x20 SWAP1 PUSH1 0x40 SWAP1 PUSH1 0x1 PUSH1 0x1 PUSH1 0xA0 SHL SUB PUSH2 0x122E PUSH2 0x2557 JUMP JUMPDEST AND DUP2 MSTORE PUSH1 0xC DUP4 MSTORE KECCAK256 SLOAD PUSH1 0x40 MLOAD SWAP1 DUP2 MSTORE RETURN JUMPDEST POP CALLVALUE PUSH2 0x1AE JUMPI PUSH1 0x20 CALLDATASIZE PUSH1 0x3 NOT ADD SLT PUSH2 0x1AE JUMPI PUSH1 0x4 CALLDATALOAD PUSH2 0x125C PUSH2 0x2788 JUMP JUMPDEST PUSH2 0x2710 DUP2 GT PUSH2 0x1297 JUMPI PUSH1 0x20 DUP2 PUSH32 0xD0A5DDFA06600C6481DCD2923A572827C06E53859F23F7DDAB41FF3144EE8687 SWAP3 PUSH1 0x6 SSTORE PUSH1 0x40 MLOAD SWAP1 DUP2 MSTORE LOG1 DUP1 RETURN JUMPDEST PUSH1 0x40 MLOAD PUSH3 0x461BCD PUSH1 0xE5 SHL DUP2 MSTORE PUSH1 0x20 PUSH1 0x4 DUP3 ADD MSTORE PUSH1 0xC PUSH1 0x24 DUP3 ADD MSTORE PUSH12 0x8CCACA40E8DEDE40D0D2CED PUSH1 0xA3 SHL PUSH1 0x44 DUP3 ADD MSTORE PUSH1 0x64 SWAP1 REVERT JUMPDEST POP CALLVALUE PUSH2 0x1AE JUMPI DUP1 PUSH1 0x3 NOT CALLDATASIZE ADD SLT PUSH2 0x1AE JUMPI PUSH2 0x12E4 PUSH2 0x2788 JUMP JUMPDEST PUSH1 0x1 DUP1 SLOAD PUSH1 0x1 PUSH1 0x1 PUSH1 0xA0 SHL SUB NOT DUP2 AND SWAP1 SWAP2 SSTORE PUSH1 0x0 SWAP1 PUSH1 0x1 PUSH1 0x1 PUSH1 0xA0 SHL SUB AND PUSH32 0x8BE0079C531659141344CD1FD0A4F28419497F9722A3DAAFE3B4186F6B6457E0 DUP3 DUP1 LOG3 DUP1 RETURN JUMPDEST POP CALLVALUE PUSH2 0x1AE JUMPI PUSH1 0x20 CALLDATASIZE PUSH1 0x3 NOT ADD SLT PUSH2 0x1AE JUMPI PUSH2 0x1343 PUSH2 0x2557 JUMP JUMPDEST PUSH2 0x134B PUSH2 0x2788 JUMP JUMPDEST PUSH1 0x1 PUSH1 0x1 PUSH1 0xA0 SHL SUB AND DUP1 ISZERO PUSH2 0x1393 JUMPI PUSH1 0x3 DUP1 SLOAD PUSH1 0x1 PUSH1 0x1 PUSH1 0xA0 SHL SUB NOT AND DUP3 OR SWAP1 SSTORE PUSH32 0x54E4612788F90384E6843298D7854436F3A585B2C3831AB66ABF1DE63BFA6C2D DUP3 DUP1 LOG2 DUP1 RETURN JUMPDEST PUSH1 0x40 MLOAD PUSH3 0x461BCD PUSH1 0xE5 SHL DUP2 MSTORE PUSH1 0x20 PUSH1 0x4 DUP3 ADD MSTORE PUSH1 0xD PUSH1 0x24 DUP3 ADD MSTORE PUSH13 0x24B73B30B634B21030B236B4B7 PUSH1 0x99 SHL PUSH1 0x44 DUP3 ADD MSTORE PUSH1 0x64 SWAP1 REVERT JUMPDEST POP CALLVALUE PUSH2 0x1AE JUMPI PUSH1 0x20 CALLDATASIZE PUSH1 0x3 NOT ADD SLT PUSH2 0x1AE JUMPI PUSH1 0x40 PUSH1 0x20 SWAP2 PUSH1 0x4 CALLDATALOAD DUP2 MSTORE PUSH1 0x9 DUP4 MSTORE KECCAK256 SLOAD PUSH1 0x40 MLOAD SWAP1 DUP2 MSTORE RETURN JUMPDEST POP PUSH1 0xC0 CALLDATASIZE PUSH1 0x3 NOT ADD SLT PUSH2 0x1AE JUMPI PUSH2 0x1407 PUSH2 0x2557 JUMP JUMPDEST PUSH1 0x24 CALLDATALOAD PUSH1 0x1 PUSH1 0x1 PUSH1 0xA0 SHL SUB DUP2 AND SWAP1 SUB PUSH2 0x199D JUMPI PUSH1 0xA4 CALLDATALOAD PUSH8 0xFFFFFFFFFFFFFFFF DUP2 GT PUSH2 0x1069 JUMPI PUSH2 0x143A SWAP1 CALLDATASIZE SWAP1 PUSH1 0x4 ADD PUSH2 0x25F3 JUMP JUMPDEST SWAP2 SWAP1 PUSH2 0x1444 PUSH2 0x28F4 JUMP JUMPDEST PUSH1 0x1 PUSH1 0x1 PUSH1 0xA0 SHL SUB DUP3 AND PUSH2 0x1948 JUMPI JUMPDEST PUSH1 0x64 CALLDATALOAD ISZERO DUP1 ISZERO PUSH2 0x193C JUMPI JUMPDEST PUSH2 0x1467 SWAP1 PUSH2 0x2917 JUMP JUMPDEST PUSH1 0x24 CALLDATALOAD PUSH1 0x1 PUSH1 0x1 PUSH1 0xA0 SHL SUB AND DUP5 MSTORE PUSH1 0xB PUSH1 0x20 MSTORE PUSH1 0x40 DUP5 KECCAK256 SLOAD PUSH2 0x148C SWAP1 PUSH1 0xFF AND ISZERO PUSH2 0x27B4 JUMP JUMPDEST PUSH2 0x1499 PUSH1 0x44 CALLDATALOAD ISZERO ISZERO PUSH2 0x27F7 JUMP JUMPDEST PUSH2 0x14A6 PUSH1 0x84 CALLDATALOAD ISZERO ISZERO PUSH2 0x2837 JUMP JUMPDEST PUSH2 0x14B6 PUSH2 0x1F4 PUSH1 0x84 CALLDATALOAD GT ISZERO PUSH2 0x2883 JUMP JUMPDEST PUSH1 0x24 CALLDATALOAD PUSH1 0x1 PUSH1 0x1 PUSH1 0xA0 SHL SUB AND PUSH2 0x190B JUMPI PUSH2 0x14D3 PUSH1 0x44 CALLDATALOAD CALLVALUE EQ PUSH2 0x299E JUMP JUMPDEST PUSH1 0x5 SLOAD SWAP3 PUSH2 0x14E0 DUP5 PUSH2 0x28CF JUMP JUMPDEST PUSH1 0x5 SSTORE DUP4 DUP6 MSTORE PUSH1 0x7 PUSH1 0x20 MSTORE PUSH1 0x40 DUP6 KECCAK256 DUP5 DUP2 SSTORE PUSH1 0x1 DUP1 DUP3 ADD DUP1 SLOAD PUSH1 0x1 PUSH1 0x1 PUSH1 0xA8 SHL SUB NOT AND CALLER PUSH1 0x8 SHL PUSH2 0x100 PUSH1 0x1 PUSH1 0xA8 SHL SUB AND OR SWAP1 SWAP2 OR SWAP1 SSTORE SWAP2 PUSH1 0xFF NOT PUSH1 0x2 DUP5 ADD DUP1 SLOAD PUSH1 0x1 PUSH1 0x1 PUSH1 0xA0 SHL SUB DUP8 DUP2 AND PUSH1 0x1 PUSH1 0x1 PUSH1 0xA0 SHL SUB NOT SWAP3 DUP4 AND OR SWAP1 SWAP3 SSTORE PUSH1 0x3 DUP7 ADD DUP1 SLOAD PUSH1 0x24 CALLDATALOAD SWAP1 SWAP4 AND SWAP3 SWAP1 SWAP2 AND SWAP2 SWAP1 SWAP2 OR SWAP1 SSTORE PUSH1 0x44 CALLDATALOAD PUSH1 0x4 DUP6 ADD SSTORE PUSH1 0x84 CALLDATALOAD PUSH1 0x5 DUP6 ADD SSTORE PUSH2 0x156D PUSH1 0x64 CALLDATALOAD PUSH2 0x259C JUMP JUMPDEST PUSH2 0x1578 PUSH1 0x64 CALLDATALOAD PUSH2 0x259C JUMP JUMPDEST PUSH1 0xA DUP5 ADD DUP1 SLOAD DUP3 AND PUSH1 0xFF PUSH1 0x64 CALLDATALOAD AND OR SWAP1 SSTORE PUSH1 0x1 PUSH1 0x1 PUSH1 0xA0 SHL SUB DUP6 AND PUSH2 0x1905 JUMPI DUP7 JUMPDEST PUSH1 0x6 DUP6 ADD SWAP2 PUSH1 0x8 DUP3 LT ISZERO PUSH2 0x18EF JUMPI PUSH1 0xFF SWAP1 DUP4 SLOAD AND SWAP2 AND OR SWAP1 SSTORE TIMESTAMP PUSH1 0x7 DUP5 ADD SSTORE PUSH8 0xFFFFFFFFFFFFFFFF DUP3 GT PUSH2 0x18DB JUMPI DUP2 SWAP1 PUSH2 0x15D6 PUSH1 0x9 DUP6 ADD SLOAD PUSH2 0x2655 JUMP JUMPDEST PUSH1 0x1F DUP2 GT PUSH2 0x188B JUMPI JUMPDEST POP DUP7 SWAP1 PUSH1 0x1F DUP4 GT PUSH1 0x1 EQ PUSH2 0x181F JUMPI DUP8 SWAP3 PUSH2 0x1814 JUMPI JUMPDEST POP POP DUP2 PUSH1 0x1 SHL SWAP2 PUSH1 0x0 NOT SWAP1 PUSH1 0x3 SHL SHR NOT AND OR PUSH1 0x9 DUP3 ADD SSTORE JUMPDEST PUSH1 0xA DUP2 ADD DUP1 SLOAD PUSH4 0xFFFF0000 NOT AND SWAP1 SSTORE PUSH1 0x1 PUSH1 0x1 PUSH1 0xA0 SHL SUB DUP3 AND ISZERO PUSH2 0x1750 JUMPI PUSH1 0x2 SLOAD PUSH1 0x1 PUSH1 0x1 PUSH1 0xA0 SHL SUB AND DUP1 EXTCODESIZE ISZERO PUSH2 0x174C JUMPI PUSH1 0x40 MLOAD PUSH4 0x7A443E3D PUSH1 0xE1 SHL DUP2 MSTORE CALLER PUSH1 0x4 DUP3 ADD MSTORE PUSH1 0x24 DUP1 CALLDATALOAD PUSH1 0x1 PUSH1 0x1 PUSH1 0xA0 SHL SUB AND SWAP1 DUP3 ADD MSTORE PUSH1 0x44 DUP1 CALLDATALOAD SWAP1 DUP3 ADD MSTORE PUSH1 0x64 DUP2 ADD DUP6 SWAP1 MSTORE SWAP1 DUP6 SWAP1 DUP3 SWAP1 DUP2 DUP4 DUP2 PUSH1 0x84 DUP2 ADD SUB SWAP3 GAS CALL DUP1 ISZERO PUSH2 0x1741 JUMPI PUSH2 0x172D JUMPI JUMPDEST POP SWAP3 PUSH1 0x1 SWAP2 PUSH1 0x20 SWAP5 PUSH1 0xA PUSH3 0x10000 PUSH3 0xFF0000 NOT DUP3 DUP5 ADD SLOAD AND OR SWAP2 ADD SSTORE PUSH1 0x40 MLOAD PUSH1 0x44 CALLDATALOAD DUP2 MSTORE DUP5 PUSH32 0xDA802D1F712D76BC374130E717018A5B3A7AD3AF3DF40EFA559A23B96A485067 DUP8 CALLER SWAP4 LOG3 JUMPDEST PUSH1 0x40 MLOAD SWAP1 DUP4 DUP1 PUSH1 0xA0 SHL SUB PUSH1 0x24 CALLDATALOAD AND DUP3 MSTORE PUSH1 0x44 CALLDATALOAD DUP7 DUP4 ADD MSTORE PUSH1 0x84 CALLDATALOAD PUSH1 0x40 DUP4 ADD MSTORE DUP4 DUP1 PUSH1 0xA0 SHL SUB AND SWAP1 DUP5 PUSH32 0xF4F5A9F479B06CD99960B03CDDC4864CB98EAA763A8F668617C80F5895127779 PUSH1 0x60 CALLER SWAP4 LOG4 SSTORE PUSH1 0x40 MLOAD SWAP1 DUP2 MSTORE RETURN JUMPDEST PUSH2 0x1737 DUP6 SWAP2 PUSH2 0x268F JUMP JUMPDEST PUSH2 0x36A JUMPI CODESIZE PUSH2 0x168B JUMP JUMPDEST PUSH1 0x40 MLOAD RETURNDATASIZE DUP8 DUP3 RETURNDATACOPY RETURNDATASIZE SWAP1 REVERT JUMPDEST DUP5 DUP1 REVERT JUMPDEST PUSH1 0x2 SLOAD PUSH1 0x1 PUSH1 0x1 PUSH1 0xA0 SHL SUB AND DUP1 EXTCODESIZE ISZERO PUSH2 0x174C JUMPI PUSH1 0x40 MLOAD PUSH4 0x7A443E3D PUSH1 0xE1 SHL DUP2 MSTORE CALLER PUSH1 0x4 DUP3 ADD MSTORE PUSH1 0x24 DUP1 CALLDATALOAD PUSH1 0x1 PUSH1 0x1 PUSH1 0xA0 SHL SUB AND SWAP1 DUP3 ADD MSTORE PUSH1 0x44 DUP1 CALLDATALOAD SWAP1 DUP3 ADD MSTORE PUSH1 0x64 DUP2 ADD DUP6 SWAP1 MSTORE SWAP1 DUP6 SWAP1 DUP3 SWAP1 DUP2 DUP4 DUP2 PUSH1 0x84 DUP2 ADD SUB SWAP3 GAS CALL DUP1 ISZERO PUSH2 0x1741 JUMPI PUSH2 0x1800 JUMPI JUMPDEST POP SWAP3 PUSH1 0x1 SWAP2 PUSH1 0x20 SWAP5 PUSH1 0xA PUSH3 0x10000 PUSH3 0xFF0000 NOT DUP3 DUP5 ADD SLOAD AND OR SWAP2 ADD SSTORE PUSH1 0x40 MLOAD PUSH1 0x44 CALLDATALOAD DUP2 MSTORE DUP5 PUSH32 0xDA802D1F712D76BC374130E717018A5B3A7AD3AF3DF40EFA559A23B96A485067 DUP8 CALLER SWAP4 LOG3 PUSH2 0x16D6 JUMP JUMPDEST PUSH2 0x180A DUP6 SWAP2 PUSH2 0x268F JUMP JUMPDEST PUSH2 0x36A JUMPI CODESIZE PUSH2 0x17B1 JUMP JUMPDEST ADD CALLDATALOAD SWAP1 POP CODESIZE DUP1 PUSH2 0x15F4 JUMP JUMPDEST PUSH1 0x9 DUP6 ADD DUP9 MSTORE PUSH1 0x20 DUP9 KECCAK256 DUP9 SWAP5 POP SWAP2 JUMPDEST PUSH1 0x1F NOT DUP5 AND DUP6 LT PUSH2 0x1873 JUMPI PUSH1 0x1 SWAP5 POP DUP4 PUSH1 0x1F NOT DUP2 AND LT PUSH2 0x1859 JUMPI JUMPDEST POP POP POP DUP2 SHL ADD PUSH1 0x9 DUP3 ADD SSTORE PUSH2 0x160C JUMP JUMPDEST ADD CALLDATALOAD PUSH1 0x0 NOT PUSH1 0x3 DUP5 SWAP1 SHL PUSH1 0xF8 AND SHR NOT AND SWAP1 SSTORE CODESIZE DUP1 DUP1 PUSH2 0x1849 JUMP JUMPDEST DUP2 DUP2 ADD CALLDATALOAD DUP4 SSTORE PUSH1 0x20 SWAP5 DUP6 ADD SWAP5 PUSH1 0x1 SWAP1 SWAP4 ADD SWAP3 ADD PUSH2 0x182E JUMP JUMPDEST SWAP1 SWAP2 POP PUSH1 0x9 DUP5 ADD DUP8 MSTORE PUSH1 0x20 DUP8 KECCAK256 PUSH1 0x1F DUP5 ADD PUSH1 0x5 SHR DUP2 ADD PUSH1 0x20 DUP6 LT PUSH2 0x18D4 JUMPI JUMPDEST SWAP1 DUP5 SWAP4 SWAP3 SWAP2 JUMPDEST PUSH1 0x1F DUP4 ADD PUSH1 0x5 SHR DUP3 ADD DUP2 LT PUSH2 0x18C6 JUMPI POP POP PUSH2 0x15DF JUMP JUMPDEST DUP10 DUP2 SSTORE DUP6 SWAP5 POP PUSH1 0x1 ADD PUSH2 0x18B0 JUMP JUMPDEST POP DUP1 PUSH2 0x18AA JUMP JUMPDEST PUSH4 0x4E487B71 PUSH1 0xE0 SHL DUP7 MSTORE PUSH1 0x41 PUSH1 0x4 MSTORE PUSH1 0x24 DUP7 REVERT JUMPDEST PUSH4 0x4E487B71 PUSH1 0xE0 SHL PUSH1 0x0 MSTORE PUSH1 0x21 PUSH1 0x4 MSTORE PUSH1 0x24 PUSH1 0x0 REVERT JUMPDEST DUP7 PUSH2 0x1599 JUMP JUMPDEST PUSH2 0x1915 CALLVALUE ISZERO PUSH2 0x2952 JUMP JUMPDEST PUSH1 0x2 SLOAD PUSH2 0x1937 SWAP1 PUSH1 0x44 CALLDATALOAD SWAP1 PUSH1 0x1 PUSH1 0x1 PUSH1 0xA0 SHL SUB SWAP1 DUP2 AND SWAP1 CALLER SWAP1 PUSH1 0x24 CALLDATALOAD AND PUSH2 0x29E0 JUMP JUMPDEST PUSH2 0x14D3 JUMP JUMPDEST POP PUSH1 0x64 CALLDATALOAD PUSH1 0x1 EQ PUSH2 0x145E JUMP JUMPDEST CALLER PUSH1 0x1 PUSH1 0x1 PUSH1 0xA0 SHL SUB DUP4 AND SUB PUSH2 0x1453 JUMPI PUSH1 0x40 MLOAD PUSH3 0x461BCD PUSH1 0xE5 SHL DUP2 MSTORE PUSH1 0x20 PUSH1 0x4 DUP3 ADD MSTORE PUSH1 0x19 PUSH1 0x24 DUP3 ADD MSTORE PUSH32 0x43616E6E6F74206368616C6C656E676520796F757273656C6600000000000000 PUSH1 0x44 DUP3 ADD MSTORE PUSH1 0x64 SWAP1 REVERT JUMPDEST PUSH1 0x0 DUP1 REVERT JUMPDEST POP CALLVALUE PUSH2 0x1AE JUMPI PUSH1 0x20 CALLDATASIZE PUSH1 0x3 NOT ADD SLT PUSH2 0x1AE JUMPI PUSH1 0x4 CALLDATALOAD PUSH2 0x19BF PUSH2 0x28F4 JUMP JUMPDEST DUP1 DUP3 MSTORE PUSH1 0x7 PUSH1 0x20 MSTORE PUSH1 0x40 DUP3 KECCAK256 PUSH1 0x1 DUP2 ADD SLOAD PUSH2 0x19E2 PUSH1 0x1 PUSH1 0xFF DUP4 AND PUSH2 0x215 DUP2 PUSH2 0x259C JUMP JUMPDEST PUSH1 0xFF PUSH1 0x6 DUP4 ADD SLOAD AND PUSH1 0x8 DUP2 LT ISZERO PUSH2 0x1AAC JUMPI PUSH1 0x6 PUSH2 0x19FF SWAP2 EQ PUSH2 0x2B3B JUMP JUMPDEST PUSH1 0x1 DUP1 PUSH1 0xA0 SHL SUB DUP1 SWAP2 PUSH1 0x8 SHR AND CALLER EQ SWAP2 DUP3 ISZERO PUSH2 0x1A9B JUMPI JUMPDEST POP POP ISZERO PUSH2 0x1A4A JUMPI CALLER SWAP1 PUSH32 0x8662F95F63B18BD2D50A68BA55DA66F73E4E5E1619D07DD9A7B7012E93A426FF DUP4 DUP1 LOG3 PUSH1 0x1 DUP2 SSTORE DUP1 RETURN JUMPDEST PUSH1 0x40 MLOAD PUSH3 0x461BCD PUSH1 0xE5 SHL DUP2 MSTORE PUSH1 0x20 PUSH1 0x4 DUP3 ADD MSTORE PUSH1 0x24 DUP1 DUP3 ADD MSTORE PUSH32 0x4F6E6C79207061727469636970616E74732063616E206465636C696E65207265 PUSH1 0x44 DUP3 ADD MSTORE PUSH4 0x199D5B99 PUSH1 0xE2 SHL PUSH1 0x64 DUP3 ADD MSTORE PUSH1 0x84 SWAP1 REVERT JUMPDEST PUSH1 0x2 SWAP2 SWAP3 POP ADD SLOAD AND CALLER EQ CODESIZE DUP1 PUSH2 0x1A16 JUMP JUMPDEST PUSH4 0x4E487B71 PUSH1 0xE0 SHL DUP6 MSTORE PUSH1 0x21 PUSH1 0x4 MSTORE PUSH1 0x24 DUP6 REVERT JUMPDEST POP CALLVALUE PUSH2 0x1AE JUMPI PUSH1 0x20 DUP1 PUSH1 0x3 NOT CALLDATASIZE ADD SLT PUSH2 0x46F JUMPI PUSH1 0x4 CALLDATALOAD SWAP1 PUSH2 0x1ADF PUSH2 0x28F4 JUMP JUMPDEST DUP2 DUP4 MSTORE PUSH1 0x7 DUP2 MSTORE PUSH1 0x40 DUP4 KECCAK256 SWAP2 PUSH1 0x6 DUP4 ADD DUP1 SLOAD SWAP1 PUSH1 0xFF DUP3 AND PUSH1 0x8 DUP2 LT ISZERO PUSH2 0x45B JUMPI PUSH1 0x3 SUB PUSH2 0x1C23 JUMPI PUSH1 0x1 PUSH1 0x1 PUSH1 0xA0 SHL SUB SWAP2 PUSH1 0x8 DUP2 SWAP1 SHR DUP4 AND CALLER DUP2 SUB PUSH2 0x1BE6 JUMPI ISZERO PUSH2 0x1BB1 JUMPI PUSH1 0x40 MLOAD PUSH1 0x40 DUP2 ADD DUP2 DUP2 LT PUSH8 0xFFFFFFFFFFFFFFFF DUP3 GT OR PUSH2 0x6E8 JUMPI PUSH1 0x40 MSTORE PUSH1 0x1 DUP2 MSTORE DUP6 DUP2 ADD SWAP1 DUP7 CALLDATASIZE DUP4 CALLDATACOPY MLOAD ISZERO PUSH2 0x1B9D JUMPI SWAP2 PUSH1 0x4 PUSH32 0x401AF6ACAF4DFD2AB7650E060F96CF76F6A51FD9D42102601E60FDACD4EACFF2 SWAP5 SWAP3 DUP2 SWAP5 CALLER SWAP1 MSTORE PUSH1 0xFF NOT AND OR SWAP1 SSTORE PUSH1 0x3 DUP7 ADD SLOAD AND SWAP5 ADD SLOAD SWAP3 PUSH1 0x40 MLOAD SWAP4 DUP5 MSTORE CALLER SWAP4 LOG4 PUSH1 0x1 DUP2 SSTORE DUP1 RETURN JUMPDEST PUSH4 0x4E487B71 PUSH1 0xE0 SHL DUP9 MSTORE PUSH1 0x32 PUSH1 0x4 MSTORE PUSH1 0x24 DUP9 REVERT JUMPDEST PUSH1 0x40 MLOAD PUSH3 0x461BCD PUSH1 0xE5 SHL DUP2 MSTORE PUSH1 0x4 DUP2 ADD DUP7 SWAP1 MSTORE PUSH1 0xD PUSH1 0x24 DUP3 ADD MSTORE PUSH13 0x139BC81DDA5B9B995C881CD95D PUSH1 0x9A SHL PUSH1 0x44 DUP3 ADD MSTORE PUSH1 0x64 SWAP1 REVERT JUMPDEST PUSH1 0x40 MLOAD PUSH3 0x461BCD PUSH1 0xE5 SHL DUP2 MSTORE PUSH1 0x4 DUP2 ADD DUP8 SWAP1 MSTORE PUSH1 0x15 PUSH1 0x24 DUP3 ADD MSTORE PUSH21 0x4F6E6C792077696E6E65722063616E20636C61696D PUSH1 0x58 SHL PUSH1 0x44 DUP3 ADD MSTORE PUSH1 0x64 SWAP1 REVERT JUMPDEST PUSH1 0x40 MLOAD PUSH3 0x461BCD PUSH1 0xE5 SHL DUP2 MSTORE PUSH1 0x4 DUP2 ADD DUP6 SWAP1 MSTORE PUSH1 0x16 PUSH1 0x24 DUP3 ADD MSTORE PUSH22 0x10DA185B1B195B99D9481B9BDD081C995CDBDB1D9959 PUSH1 0x52 SHL PUSH1 0x44 DUP3 ADD MSTORE PUSH1 0x64 SWAP1 REVERT JUMPDEST POP CALLVALUE PUSH2 0x1AE JUMPI PUSH2 0x1C70 CALLDATASIZE PUSH2 0x2621 JUMP JUMPDEST SWAP1 PUSH2 0x1C79 PUSH2 0x2788 JUMP JUMPDEST PUSH2 0x1C81 PUSH2 0x28F4 JUMP JUMPDEST DUP3 DUP5 MSTORE PUSH1 0x7 PUSH1 0x20 MSTORE PUSH1 0x40 DUP5 KECCAK256 SWAP2 PUSH1 0x1 DUP4 ADD SWAP3 DUP4 SLOAD SWAP1 PUSH2 0x1CA8 PUSH1 0x1 PUSH1 0xFF DUP5 AND PUSH2 0x215 DUP2 PUSH2 0x259C JUMP JUMPDEST PUSH1 0x6 DUP2 ADD DUP1 SLOAD PUSH1 0xFF DUP2 AND PUSH1 0x8 DUP2 LT ISZERO PUSH2 0xAFF JUMPI PUSH1 0x6 SUB PUSH2 0x1DF6 JUMPI PUSH1 0x7 SWAP1 PUSH1 0xFF NOT AND OR SWAP1 SSTORE PUSH1 0x4 DUP2 ADD SLOAD SWAP2 PUSH1 0x1 DUP1 PUSH1 0xA0 SHL SUB SWAP6 DUP9 DUP8 PUSH1 0x2 SLOAD AND PUSH1 0x2 DUP6 ADD SWAP5 DUP10 PUSH1 0x3 DUP2 DUP9 SLOAD AND SWAP3 ADD SLOAD AND SWAP2 DUP1 EXTCODESIZE ISZERO PUSH2 0x36A JUMPI DUP4 SWAP3 DUP13 SWAP3 DUP13 PUSH1 0x40 MLOAD SWAP9 DUP10 SWAP6 PUSH4 0x60DAE9AF PUSH1 0xE1 SHL DUP8 MSTORE PUSH1 0x4 DUP8 ADD MSTORE PUSH1 0x8 SHR AND PUSH1 0x24 DUP6 ADD MSTORE PUSH1 0x44 DUP5 ADD MSTORE PUSH1 0x64 DUP4 ADD MSTORE DUP8 PUSH1 0x84 DUP4 ADD MSTORE PUSH1 0xC0 PUSH1 0xA4 DUP4 ADD MSTORE DUP2 DUP4 DUP2 PUSH2 0x1D44 DUP14 DUP14 PUSH1 0xC4 DUP5 ADD SWAP2 PUSH2 0x2B1A JUMP JUMPDEST SUB SWAP3 GAS CALL SWAP3 DUP4 ISZERO PUSH2 0x1DE9 JUMPI DUP10 SWAP4 PUSH2 0x1DD0 JUMPI JUMPDEST POP POP PUSH1 0x20 DUP8 PUSH32 0xBEA640A4E0032618E4DAB2CBCC4A119AF2C351AE2C26E3C0BDF8AEC842313391 SWAP9 PUSH32 0xF91AA0A9813CBC386975170E821FB6193D22AB6759DE1354D8F4C4F7CF42AD91 SWAP4 SLOAD PUSH1 0x8 SHR AND SWAP5 SLOAD AND SWAP5 PUSH1 0x40 MLOAD SWAP1 DUP2 MSTORE LOG4 PUSH2 0x1DC6 PUSH1 0x40 MLOAD SWAP3 DUP4 SWAP3 PUSH1 0x20 DUP5 MSTORE PUSH1 0x20 DUP5 ADD SWAP2 PUSH2 0x2B1A JUMP JUMPDEST SUB SWAP1 LOG2 PUSH1 0x1 DUP2 SSTORE DUP1 RETURN JUMPDEST PUSH2 0x1DDC SWAP2 SWAP3 SWAP4 POP PUSH2 0x268F JUMP JUMPDEST PUSH2 0x98D JUMPI DUP7 SWAP1 DUP9 CODESIZE PUSH2 0x1D56 JUMP JUMPDEST POP PUSH1 0x40 MLOAD SWAP1 RETURNDATASIZE SWAP1 DUP3 RETURNDATACOPY RETURNDATASIZE SWAP1 REVERT JUMPDEST PUSH1 0x40 MLOAD PUSH3 0x461BCD PUSH1 0xE5 SHL DUP2 MSTORE PUSH1 0x20 PUSH1 0x4 DUP3 ADD MSTORE PUSH1 0x1A PUSH1 0x24 DUP3 ADD MSTORE PUSH32 0x4368616C6C656E6765206D757374206265206469737075746564000000000000 PUSH1 0x44 DUP3 ADD MSTORE PUSH1 0x64 SWAP1 REVERT JUMPDEST POP CALLVALUE PUSH2 0x1AE JUMPI PUSH1 0x20 CALLDATASIZE PUSH1 0x3 NOT ADD SLT PUSH2 0x1AE JUMPI DUP1 PUSH2 0x240 PUSH1 0x40 MLOAD PUSH2 0x1E5D DUP2 PUSH2 0x26A3 JUMP JUMPDEST DUP3 DUP2 MSTORE DUP3 PUSH1 0x20 DUP3 ADD MSTORE DUP3 PUSH1 0x40 DUP3 ADD MSTORE DUP3 PUSH1 0x60 DUP3 ADD MSTORE DUP3 PUSH1 0x80 DUP3 ADD MSTORE DUP3 PUSH1 0xA0 DUP3 ADD MSTORE DUP3 PUSH1 0xC0 DUP3 ADD MSTORE DUP3 PUSH1 0xE0 DUP3 ADD MSTORE DUP3 PUSH2 0x100 DUP3 ADD MSTORE DUP3 PUSH2 0x120 DUP3 ADD MSTORE DUP3 PUSH2 0x140 DUP3 ADD MSTORE PUSH1 0x60 PUSH2 0x160 DUP3 ADD MSTORE DUP3 PUSH2 0x180 DUP3 ADD MSTORE DUP3 PUSH2 0x1A0 DUP3 ADD MSTORE DUP3 PUSH2 0x1C0 DUP3 ADD MSTORE DUP3 PUSH2 0x1E0 DUP3 ADD MSTORE DUP3 PUSH2 0x200 DUP3 ADD MSTORE DUP3 PUSH2 0x220 DUP3 ADD MSTORE ADD MSTORE PUSH1 0x4 CALLDATALOAD DUP2 MSTORE PUSH1 0x7 PUSH1 0x20 MSTORE PUSH1 0x40 DUP2 KECCAK256 PUSH1 0x40 MLOAD SWAP2 PUSH2 0x1EEE DUP4 PUSH2 0x26A3 JUMP JUMPDEST DUP2 SLOAD DUP4 MSTORE PUSH1 0x1 DUP3 ADD SLOAD PUSH2 0x1F03 PUSH1 0xFF DUP3 AND PUSH2 0x259C JUMP JUMPDEST PUSH1 0xFF DUP2 DUP2 AND PUSH1 0x20 DUP7 ADD MSTORE PUSH1 0x1 PUSH1 0x1 PUSH1 0xA0 SHL SUB PUSH1 0x8 SWAP3 DUP4 SHR DUP2 AND PUSH1 0x40 DUP8 ADD MSTORE PUSH1 0x2 DUP6 ADD SLOAD DUP2 AND PUSH1 0x60 DUP8 ADD MSTORE PUSH1 0x3 DUP6 ADD SLOAD AND PUSH1 0x80 DUP7 ADD MSTORE PUSH1 0x4 DUP5 ADD SLOAD PUSH1 0xA0 DUP7 ADD MSTORE PUSH1 0x5 DUP5 ADD SLOAD PUSH1 0xC0 DUP7 ADD MSTORE PUSH1 0x6 DUP5 ADD SLOAD SWAP3 SWAP2 SWAP1 DUP4 AND LT ISZERO PUSH2 0x214C JUMPI POP PUSH1 0xFF DUP2 DUP2 AND PUSH1 0xE0 DUP6 ADD MSTORE PUSH1 0x8 SWAP2 DUP3 SHR PUSH1 0x1 PUSH1 0x1 PUSH1 0xA0 SHL SUB AND PUSH2 0x100 DUP6 ADD MSTORE PUSH1 0x7 DUP4 ADD SLOAD PUSH2 0x120 DUP6 ADD MSTORE SWAP1 DUP3 ADD SLOAD PUSH2 0x140 DUP5 ADD MSTORE SWAP1 PUSH1 0xD SWAP1 PUSH2 0x1FA0 PUSH1 0x9 DUP3 ADD PUSH2 0x26E2 JUMP JUMPDEST PUSH2 0x160 DUP6 ADD MSTORE DUP3 PUSH1 0xA DUP3 ADD SLOAD PUSH2 0x1FB7 DUP3 DUP3 AND PUSH2 0x259C JUMP JUMPDEST DUP2 DUP2 AND PUSH2 0x180 DUP8 ADD MSTORE PUSH2 0x1FCE DUP3 DUP3 PUSH1 0x8 SHR AND PUSH2 0x259C JUMP JUMPDEST DUP2 DUP2 PUSH1 0x8 SHR AND PUSH2 0x1A0 DUP8 ADD MSTORE DUP2 DUP2 PUSH1 0x10 SHR AND ISZERO ISZERO PUSH2 0x1C0 DUP8 ADD MSTORE PUSH1 0x18 SHR AND ISZERO ISZERO PUSH2 0x1E0 DUP6 ADD MSTORE PUSH1 0xB DUP2 ADD SLOAD PUSH2 0x200 DUP6 ADD MSTORE PUSH1 0xC DUP2 ADD SLOAD PUSH2 0x220 DUP6 ADD MSTORE ADD SLOAD AND ISZERO ISZERO PUSH2 0x240 DUP3 ADD MSTORE PUSH1 0x40 MLOAD DUP1 SWAP2 PUSH1 0x20 DUP3 MSTORE DUP1 MLOAD PUSH1 0x20 DUP4 ADD MSTORE PUSH1 0x20 DUP2 ADD MLOAD PUSH2 0x2033 DUP2 PUSH2 0x259C JUMP JUMPDEST PUSH1 0x40 DUP4 ADD MSTORE PUSH1 0x1 DUP1 PUSH1 0xA0 SHL SUB PUSH1 0x40 DUP3 ADD MLOAD AND PUSH1 0x60 DUP4 ADD MSTORE PUSH1 0x1 DUP1 PUSH1 0xA0 SHL SUB PUSH1 0x60 DUP3 ADD MLOAD AND PUSH1 0x80 DUP4 ADD MSTORE PUSH1 0x1 DUP1 PUSH1 0xA0 SHL SUB PUSH1 0x80 DUP3 ADD MLOAD AND PUSH1 0xA0 DUP4 ADD MSTORE PUSH1 0xA0 DUP2 ADD MLOAD PUSH1 0xC0 DUP4 ADD MSTORE PUSH1 0xC0 DUP2 ADD MLOAD PUSH1 0xE0 DUP4 ADD MSTORE PUSH2 0x2095 PUSH1 0xE0 DUP3 ADD MLOAD PUSH2 0x100 DUP5 ADD SWAP1 PUSH2 0x25A6 JUMP JUMPDEST PUSH1 0x1 DUP1 PUSH1 0xA0 SHL SUB PUSH2 0x100 DUP3 ADD MLOAD AND PUSH2 0x120 DUP4 ADD MSTORE PUSH2 0x120 DUP2 ADD MLOAD PUSH2 0x140 DUP4 ADD MSTORE PUSH2 0x140 DUP2 ADD MLOAD PUSH2 0x160 DUP4 ADD MSTORE PUSH2 0x160 DUP2 ADD MLOAD PUSH2 0x240 PUSH2 0x20E3 PUSH2 0x260 SWAP3 DUP4 PUSH2 0x180 DUP8 ADD MSTORE PUSH2 0x280 DUP7 ADD SWAP1 PUSH2 0x25B3 JUMP JUMPDEST SWAP3 PUSH2 0x180 DUP2 ADD MLOAD PUSH2 0x20F3 DUP2 PUSH2 0x259C JUMP JUMPDEST PUSH2 0x1A0 DUP7 ADD MSTORE PUSH2 0x1A0 DUP2 ADD MLOAD PUSH2 0x2108 DUP2 PUSH2 0x259C JUMP JUMPDEST PUSH2 0x1C0 DUP7 ADD MSTORE PUSH2 0x1C0 DUP2 ADD MLOAD ISZERO ISZERO PUSH2 0x1E0 DUP7 ADD MSTORE PUSH2 0x1E0 DUP2 ADD MLOAD ISZERO ISZERO PUSH2 0x200 DUP7 ADD MSTORE PUSH2 0x200 DUP2 ADD MLOAD PUSH2 0x220 DUP7 ADD MSTORE PUSH2 0x220 DUP2 ADD MLOAD DUP3 DUP7 ADD MSTORE ADD MLOAD ISZERO ISZERO SWAP1 DUP4 ADD MSTORE SUB SWAP1 RETURN JUMPDEST PUSH4 0x4E487B71 PUSH1 0xE0 SHL DUP2 MSTORE PUSH1 0x21 PUSH1 0x4 MSTORE PUSH1 0x24 SWAP1 REVERT JUMPDEST POP CALLVALUE PUSH2 0x1AE JUMPI PUSH1 0x20 PUSH32 0xCED2684241C29578DF8F7FBAB74348D0053114FA157B900B2F1F4A1D4A2B3395 PUSH2 0x2192 CALLDATASIZE PUSH2 0x256D JUMP JUMPDEST SWAP3 SWAP1 PUSH2 0x219C PUSH2 0x2788 JUMP JUMPDEST PUSH1 0x1 PUSH1 0x1 PUSH1 0xA0 SHL SUB AND SWAP3 PUSH2 0x21B1 DUP5 ISZERO ISZERO PUSH2 0x2B80 JUMP JUMPDEST DUP4 DUP6 MSTORE PUSH1 0xB DUP3 MSTORE PUSH2 0xB84 DUP2 PUSH1 0x40 DUP8 KECCAK256 SWAP1 PUSH1 0xFF DUP1 NOT DUP4 SLOAD AND SWAP2 ISZERO ISZERO AND OR SWAP1 SSTORE JUMP JUMPDEST POP CALLVALUE PUSH2 0x1AE JUMPI PUSH1 0x20 CALLDATASIZE PUSH1 0x3 NOT ADD SLT PUSH2 0x1AE JUMPI PUSH2 0x21EB PUSH2 0x2557 JUMP JUMPDEST PUSH2 0x21F3 PUSH2 0x2788 JUMP JUMPDEST PUSH1 0x1 PUSH1 0x1 PUSH1 0xA0 SHL SUB AND DUP1 ISZERO PUSH2 0x223B JUMPI PUSH1 0x4 DUP1 SLOAD PUSH1 0x1 PUSH1 0x1 PUSH1 0xA0 SHL SUB NOT AND DUP3 OR SWAP1 SSTORE PUSH32 0xBA887708E7D4436DD36B62187BDCED03E0B9ABE66CAF392A66DD84386641B209 DUP3 DUP1 LOG2 DUP1 RETURN JUMPDEST PUSH1 0x40 MLOAD PUSH3 0x461BCD PUSH1 0xE5 SHL DUP2 MSTORE PUSH1 0x20 PUSH1 0x4 DUP3 ADD MSTORE PUSH1 0x11 PUSH1 0x24 DUP3 ADD MSTORE PUSH17 0x125B9D985B1A59081C9958DA5C1A595B9D PUSH1 0x7A SHL PUSH1 0x44 DUP3 ADD MSTORE PUSH1 0x64 SWAP1 REVERT JUMPDEST POP CALLVALUE PUSH2 0x1AE JUMPI PUSH2 0x2283 CALLDATASIZE PUSH2 0x2541 JUMP JUMPDEST SWAP1 DUP3 MSTORE PUSH1 0x8 PUSH1 0x20 MSTORE PUSH1 0x40 DUP3 KECCAK256 DUP1 SLOAD DUP3 LT ISZERO PUSH2 0x1069 JUMPI PUSH1 0x20 DUP4 PUSH1 0x3 SWAP3 PUSH1 0x80 SWAP6 MSTORE KECCAK256 SWAP2 MUL ADD DUP1 SLOAD SWAP1 PUSH1 0xFF PUSH1 0x2 PUSH1 0x1 DUP4 ADD SLOAD SWAP3 ADD SLOAD AND SWAP1 PUSH1 0xFF PUSH1 0x40 MLOAD SWAP4 PUSH1 0x1 DUP1 PUSH1 0xA0 SHL SUB DUP2 AND DUP6 MSTORE PUSH1 0xA0 SHR AND ISZERO ISZERO PUSH1 0x20 DUP5 ADD MSTORE PUSH1 0x40 DUP4 ADD MSTORE ISZERO ISZERO PUSH1 0x60 DUP3 ADD MSTORE RETURN JUMPDEST POP CALLVALUE PUSH2 0x1AE JUMPI PUSH1 0x20 CALLDATASIZE PUSH1 0x3 NOT ADD SLT PUSH2 0x1AE JUMPI PUSH1 0x4 CALLDATALOAD PUSH2 0x22FE PUSH2 0x28F4 JUMP JUMPDEST DUP1 DUP3 MSTORE PUSH1 0x7 PUSH1 0x20 MSTORE PUSH1 0x40 DUP3 KECCAK256 PUSH1 0x1 DUP2 ADD DUP1 SLOAD PUSH2 0x2322 PUSH1 0x1 PUSH1 0xFF DUP4 AND PUSH2 0x215 DUP2 PUSH2 0x259C JUMP JUMPDEST PUSH1 0x6 DUP4 ADD SWAP2 DUP3 SLOAD PUSH1 0xFF DUP2 AND PUSH1 0x8 DUP2 LT ISZERO PUSH2 0xCFB JUMPI PUSH1 0x6 PUSH2 0x2342 SWAP2 EQ PUSH2 0x2B3B JUMP JUMPDEST PUSH1 0x1 DUP1 PUSH1 0xA0 SHL SUB DUP1 SWAP4 PUSH1 0x8 SHR AND SWAP4 DUP5 CALLER EQ DUP1 ISZERO PUSH2 0x250D JUMPI JUMPDEST ISZERO PUSH2 0x24BC JUMPI PUSH1 0x7 PUSH1 0xFF NOT DUP1 SWAP4 AND OR SWAP1 SSTORE PUSH1 0x1 PUSH1 0xD DUP7 ADD SWAP2 DUP3 SLOAD AND OR SWAP1 SSTORE PUSH1 0x4 DUP5 ADD SLOAD SWAP4 DUP7 DUP4 PUSH1 0x2 SLOAD AND SWAP5 PUSH1 0x2 DUP4 ADD SWAP6 DUP6 PUSH1 0x3 DUP2 DUP10 SLOAD AND SWAP6 ADD SLOAD AND SWAP1 DUP1 EXTCODESIZE ISZERO PUSH2 0x36A JUMPI DUP4 DUP11 SWAP2 PUSH2 0x104 SWAP4 PUSH1 0x40 MLOAD SWAP8 DUP9 SWAP7 DUP8 SWAP6 PUSH4 0x60DAE9AF PUSH1 0xE1 SHL DUP8 MSTORE PUSH1 0x4 DUP8 ADD MSTORE PUSH1 0x24 DUP7 ADD MSTORE PUSH1 0x44 DUP6 ADD MSTORE PUSH1 0x64 DUP5 ADD MSTORE DUP11 PUSH1 0x84 DUP5 ADD MSTORE PUSH1 0xC0 PUSH1 0xA4 DUP5 ADD MSTORE PUSH1 0x20 PUSH1 0xC4 DUP5 ADD MSTORE PUSH32 0x4D757475616C20726566756E642061677265656D656E74206163636570746564 PUSH1 0xE4 DUP5 ADD MSTORE GAS CALL DUP1 ISZERO PUSH2 0x24B1 JUMPI PUSH2 0x2475 JUMPI JUMPDEST POP PUSH1 0x20 DUP3 DUP7 SWAP4 PUSH32 0xF91AA0A9813CBC386975170E821FB6193D22AB6759DE1354D8F4C4F7CF42AD91 SWAP4 SLOAD PUSH1 0x8 SHR AND SWAP5 SLOAD AND SWAP5 PUSH1 0x40 MLOAD SWAP1 DUP2 MSTORE LOG4 CALLER SWAP1 PUSH32 0xFD3D8EB8C74C125342483824FD0AD7E0033D5D74D8ED512A0B4FB798D38C685A DUP4 DUP1 LOG3 PUSH1 0x1 DUP2 SSTORE DUP1 RETURN JUMPDEST DUP3 DUP7 SWAP4 PUSH32 0xF91AA0A9813CBC386975170E821FB6193D22AB6759DE1354D8F4C4F7CF42AD91 SWAP4 SWAP9 PUSH2 0x24A6 PUSH1 0x20 SWAP5 PUSH2 0x268F JUMP JUMPDEST SWAP9 SWAP4 POP POP SWAP3 POP PUSH2 0x2410 JUMP JUMPDEST PUSH1 0x40 MLOAD RETURNDATASIZE DUP10 DUP3 RETURNDATACOPY RETURNDATASIZE SWAP1 REVERT JUMPDEST PUSH1 0x40 MLOAD PUSH3 0x461BCD PUSH1 0xE5 SHL DUP2 MSTORE PUSH1 0x20 PUSH1 0x4 DUP3 ADD MSTORE PUSH1 0x23 PUSH1 0x24 DUP3 ADD MSTORE PUSH32 0x4F6E6C79207061727469636970616E74732063616E2061636365707420726566 PUSH1 0x44 DUP3 ADD MSTORE PUSH3 0x1D5B99 PUSH1 0xEA SHL PUSH1 0x64 DUP3 ADD MSTORE PUSH1 0x84 SWAP1 REVERT JUMPDEST POP DUP4 PUSH1 0x2 DUP8 ADD SLOAD AND CALLER EQ PUSH2 0x235A JUMP JUMPDEST SWAP1 POP CALLVALUE PUSH2 0x46F JUMPI DUP2 PUSH1 0x3 NOT CALLDATASIZE ADD SLT PUSH2 0x46F JUMPI PUSH1 0x2 SLOAD PUSH1 0x1 PUSH1 0x1 PUSH1 0xA0 SHL SUB AND DUP2 MSTORE PUSH1 0x20 SWAP1 RETURN JUMPDEST PUSH1 0x40 SWAP1 PUSH1 0x3 NOT ADD SLT PUSH2 0x199D JUMPI PUSH1 0x4 CALLDATALOAD SWAP1 PUSH1 0x24 CALLDATALOAD SWAP1 JUMP JUMPDEST PUSH1 0x4 CALLDATALOAD SWAP1 PUSH1 0x1 PUSH1 0x1 PUSH1 0xA0 SHL SUB DUP3 AND DUP3 SUB PUSH2 0x199D JUMPI JUMP JUMPDEST PUSH1 0x40 SWAP1 PUSH1 0x3 NOT ADD SLT PUSH2 0x199D JUMPI PUSH1 0x4 CALLDATALOAD PUSH1 0x1 PUSH1 0x1 PUSH1 0xA0 SHL SUB DUP2 AND DUP2 SUB PUSH2 0x199D JUMPI SWAP1 PUSH1 0x24 CALLDATALOAD DUP1 ISZERO ISZERO DUP2 SUB PUSH2 0x199D JUMPI SWAP1 JUMP JUMPDEST PUSH1 0x2 GT ISZERO PUSH2 0x18EF JUMPI JUMP JUMPDEST SWAP1 PUSH1 0x8 DUP3 LT ISZERO PUSH2 0x18EF JUMPI MSTORE JUMP JUMPDEST SWAP2 SWAP1 DUP3 MLOAD SWAP3 DUP4 DUP3 MSTORE PUSH1 0x0 JUMPDEST DUP5 DUP2 LT PUSH2 0x25DF JUMPI POP POP DUP3 PUSH1 0x0 PUSH1 0x20 DUP1 SWAP5 SWAP6 DUP5 ADD ADD MSTORE PUSH1 0x1F DUP1 NOT SWAP2 ADD AND ADD ADD SWAP1 JUMP JUMPDEST PUSH1 0x20 DUP2 DUP4 ADD DUP2 ADD MLOAD DUP5 DUP4 ADD DUP3 ADD MSTORE ADD PUSH2 0x25BE JUMP JUMPDEST SWAP2 DUP2 PUSH1 0x1F DUP5 ADD SLT ISZERO PUSH2 0x199D JUMPI DUP3 CALLDATALOAD SWAP2 PUSH8 0xFFFFFFFFFFFFFFFF DUP4 GT PUSH2 0x199D JUMPI PUSH1 0x20 DUP4 DUP2 DUP7 ADD SWAP6 ADD ADD GT PUSH2 0x199D JUMPI JUMP JUMPDEST SWAP1 PUSH1 0x40 PUSH1 0x3 NOT DUP4 ADD SLT PUSH2 0x199D JUMPI PUSH1 0x4 CALLDATALOAD SWAP2 PUSH1 0x24 CALLDATALOAD SWAP1 PUSH8 0xFFFFFFFFFFFFFFFF DUP3 GT PUSH2 0x199D JUMPI PUSH2 0x2651 SWAP2 PUSH1 0x4 ADD PUSH2 0x25F3 JUMP JUMPDEST SWAP1 SWAP2 JUMP JUMPDEST SWAP1 PUSH1 0x1 DUP3 DUP2 SHR SWAP3 AND DUP1 ISZERO PUSH2 0x2685 JUMPI JUMPDEST PUSH1 0x20 DUP4 LT EQ PUSH2 0x266F JUMPI JUMP JUMPDEST PUSH4 0x4E487B71 PUSH1 0xE0 SHL PUSH1 0x0 MSTORE PUSH1 0x22 PUSH1 0x4 MSTORE PUSH1 0x24 PUSH1 0x0 REVERT JUMPDEST SWAP2 PUSH1 0x7F AND SWAP2 PUSH2 0x2664 JUMP JUMPDEST PUSH8 0xFFFFFFFFFFFFFFFF DUP2 GT PUSH2 0x6E8 JUMPI PUSH1 0x40 MSTORE JUMP JUMPDEST PUSH2 0x260 DUP2 ADD SWAP1 DUP2 LT PUSH8 0xFFFFFFFFFFFFFFFF DUP3 GT OR PUSH2 0x6E8 JUMPI PUSH1 0x40 MSTORE JUMP JUMPDEST SWAP1 PUSH1 0x1F DUP1 NOT SWAP2 ADD AND DUP2 ADD SWAP1 DUP2 LT PUSH8 0xFFFFFFFFFFFFFFFF DUP3 GT OR PUSH2 0x6E8 JUMPI PUSH1 0x40 MSTORE JUMP JUMPDEST SWAP1 PUSH1 0x40 MLOAD SWAP2 DUP3 PUSH1 0x0 DUP3 SLOAD SWAP3 PUSH2 0x26F6 DUP5 PUSH2 0x2655 JUMP JUMPDEST SWAP1 DUP2 DUP5 MSTORE PUSH1 0x1 SWAP5 DUP6 DUP2 AND SWAP1 DUP2 PUSH1 0x0 EQ PUSH2 0x2765 JUMPI POP PUSH1 0x1 EQ PUSH2 0x2722 JUMPI JUMPDEST POP POP PUSH2 0x2720 SWAP3 POP SUB DUP4 PUSH2 0x26C0 JUMP JUMPDEST JUMP JUMPDEST SWAP1 SWAP4 SWAP2 POP PUSH1 0x0 MSTORE PUSH1 0x20 SWAP1 DUP2 PUSH1 0x0 KECCAK256 SWAP4 PUSH1 0x0 SWAP2 JUMPDEST DUP2 DUP4 LT PUSH2 0x274D JUMPI POP POP PUSH2 0x2720 SWAP4 POP DUP3 ADD ADD CODESIZE DUP1 PUSH2 0x2712 JUMP JUMPDEST DUP6 SLOAD DUP9 DUP5 ADD DUP6 ADD MSTORE SWAP5 DUP6 ADD SWAP5 DUP8 SWAP5 POP SWAP2 DUP4 ADD SWAP2 PUSH2 0x2735 JUMP JUMPDEST SWAP2 POP POP PUSH2 0x2720 SWAP5 POP PUSH1 0x20 SWAP3 POP PUSH1 0xFF NOT AND DUP3 DUP5 ADD MSTORE ISZERO ISZERO PUSH1 0x5 SHL DUP3 ADD ADD CODESIZE DUP1 PUSH2 0x2712 JUMP JUMPDEST PUSH1 0x1 SLOAD PUSH1 0x1 PUSH1 0x1 PUSH1 0xA0 SHL SUB AND CALLER SUB PUSH2 0x279C JUMPI JUMP JUMPDEST PUSH1 0x40 MLOAD PUSH4 0x118CDAA7 PUSH1 0xE0 SHL DUP2 MSTORE CALLER PUSH1 0x4 DUP3 ADD MSTORE PUSH1 0x24 SWAP1 REVERT JUMPDEST ISZERO PUSH2 0x27BB JUMPI JUMP JUMPDEST PUSH1 0x40 MLOAD PUSH3 0x461BCD PUSH1 0xE5 SHL DUP2 MSTORE PUSH1 0x20 PUSH1 0x4 DUP3 ADD MSTORE PUSH1 0x14 PUSH1 0x24 DUP3 ADD MSTORE PUSH20 0x151BDAD95B881A5CC8189B1858DADB1A5CDD1959 PUSH1 0x62 SHL PUSH1 0x44 DUP3 ADD MSTORE PUSH1 0x64 SWAP1 REVERT JUMPDEST ISZERO PUSH2 0x27FE JUMPI JUMP JUMPDEST PUSH1 0x40 MLOAD PUSH3 0x461BCD PUSH1 0xE5 SHL DUP2 MSTORE PUSH1 0x20 PUSH1 0x4 DUP3 ADD MSTORE PUSH1 0x11 PUSH1 0x24 DUP3 ADD MSTORE PUSH17 0x5374616B65206D757374206265203E203 PUSH1 0x7C SHL PUSH1 0x44 DUP3 ADD MSTORE PUSH1 0x64 SWAP1 REVERT JUMPDEST ISZERO PUSH2 0x283E JUMPI JUMP JUMPDEST PUSH1 0x40 MLOAD PUSH3 0x461BCD PUSH1 0xE5 SHL DUP2 MSTORE PUSH1 0x20 PUSH1 0x4 DUP3 ADD MSTORE PUSH1 0x19 PUSH1 0x24 DUP3 ADD MSTORE PUSH32 0x506F696E747320726577617264206D757374206265203E203000000000000000 PUSH1 0x44 DUP3 ADD MSTORE PUSH1 0x64 SWAP1 REVERT JUMPDEST ISZERO PUSH2 0x288A JUMPI JUMP JUMPDEST PUSH1 0x40 MLOAD PUSH3 0x461BCD PUSH1 0xE5 SHL DUP2 MSTORE PUSH1 0x20 PUSH1 0x4 DUP3 ADD MSTORE PUSH1 0x1F PUSH1 0x24 DUP3 ADD MSTORE PUSH32 0x506F696E7473207265776172642063616E6E6F74206578636565642035303000 PUSH1 0x44 DUP3 ADD MSTORE PUSH1 0x64 SWAP1 REVERT JUMPDEST PUSH1 0x0 NOT DUP2 EQ PUSH2 0x28DE JUMPI PUSH1 0x1 ADD SWAP1 JUMP JUMPDEST PUSH4 0x4E487B71 PUSH1 0xE0 SHL PUSH1 0x0 MSTORE PUSH1 0x11 PUSH1 0x4 MSTORE PUSH1 0x24 PUSH1 0x0 REVERT JUMPDEST PUSH1 0x2 PUSH1 0x0 SLOAD EQ PUSH2 0x2905 JUMPI PUSH1 0x2 PUSH1 0x0 SSTORE JUMP JUMPDEST PUSH1 0x40 MLOAD PUSH4 0x3EE5AEB5 PUSH1 0xE0 SHL DUP2 MSTORE PUSH1 0x4 SWAP1 REVERT JUMPDEST ISZERO PUSH2 0x291E JUMPI JUMP JUMPDEST PUSH1 0x40 MLOAD PUSH3 0x461BCD PUSH1 0xE5 SHL DUP2 MSTORE PUSH1 0x20 PUSH1 0x4 DUP3 ADD MSTORE PUSH1 0xC PUSH1 0x24 DUP3 ADD MSTORE PUSH12 0x496E76616C69642073696465 PUSH1 0xA0 SHL PUSH1 0x44 DUP3 ADD MSTORE PUSH1 0x64 SWAP1 REVERT JUMPDEST ISZERO PUSH2 0x2959 JUMPI JUMP JUMPDEST PUSH1 0x40 MLOAD PUSH3 0x461BCD PUSH1 0xE5 SHL DUP2 MSTORE PUSH1 0x20 PUSH1 0x4 DUP3 ADD MSTORE PUSH1 0x19 PUSH1 0x24 DUP3 ADD MSTORE PUSH32 0x446F206E6F742073656E642045544820666F7220455243323000000000000000 PUSH1 0x44 DUP3 ADD MSTORE PUSH1 0x64 SWAP1 REVERT JUMPDEST ISZERO PUSH2 0x29A5 JUMPI JUMP JUMPDEST PUSH1 0x40 MLOAD PUSH3 0x461BCD PUSH1 0xE5 SHL DUP2 MSTORE PUSH1 0x20 PUSH1 0x4 DUP3 ADD MSTORE PUSH1 0x13 PUSH1 0x24 DUP3 ADD MSTORE PUSH19 0x8AA89040C2DADEEADCE840DAD2E6DAC2E8C6D PUSH1 0x6B SHL PUSH1 0x44 DUP3 ADD MSTORE PUSH1 0x64 SWAP1 REVERT JUMPDEST PUSH1 0x40 MLOAD PUSH4 0x23B872DD PUSH1 0xE0 SHL PUSH1 0x20 DUP3 ADD MSTORE PUSH1 0x1 PUSH1 0x1 PUSH1 0xA0 SHL SUB SWAP3 DUP4 AND PUSH1 0x24 DUP3 ADD MSTORE SWAP3 SWAP1 SWAP2 AND PUSH1 0x44 DUP4 ADD MSTORE PUSH1 0x64 DUP1 DUP4 ADD SWAP4 SWAP1 SWAP4 MSTORE SWAP2 DUP2 MSTORE PUSH1 0xA0 DUP2 ADD SWAP2 DUP2 DUP4 LT PUSH8 0xFFFFFFFFFFFFFFFF DUP5 GT OR PUSH2 0x6E8 JUMPI PUSH2 0x2720 SWAP3 PUSH1 0x40 MSTORE JUMPDEST SWAP1 PUSH1 0x0 PUSH1 0x20 SWAP2 DUP3 DUP2 MLOAD SWAP2 ADD DUP3 DUP6 GAS CALL ISZERO PUSH2 0x2A91 JUMPI PUSH1 0x0 MLOAD RETURNDATASIZE PUSH2 0x2A88 JUMPI POP PUSH1 0x1 PUSH1 0x1 PUSH1 0xA0 SHL SUB DUP2 AND EXTCODESIZE ISZERO JUMPDEST PUSH2 0x2A66 JUMPI POP JUMP JUMPDEST PUSH1 0x40 MLOAD PUSH4 0x5274AFE7 PUSH1 0xE0 SHL DUP2 MSTORE PUSH1 0x1 PUSH1 0x1 PUSH1 0xA0 SHL SUB SWAP1 SWAP2 AND PUSH1 0x4 DUP3 ADD MSTORE PUSH1 0x24 SWAP1 REVERT JUMPDEST PUSH1 0x1 EQ ISZERO PUSH2 0x2A5F JUMP JUMPDEST PUSH1 0x40 MLOAD RETURNDATASIZE PUSH1 0x0 DUP3 RETURNDATACOPY RETURNDATASIZE SWAP1 REVERT JUMPDEST ISZERO PUSH2 0x2AA4 JUMPI JUMP JUMPDEST PUSH1 0x40 MLOAD PUSH3 0x461BCD PUSH1 0xE5 SHL DUP2 MSTORE PUSH1 0x20 PUSH1 0x4 DUP3 ADD MSTORE PUSH1 0x11 PUSH1 0x24 DUP3 ADD MSTORE PUSH17 0x4E6F7420503250206368616C6C656E6765 PUSH1 0x78 SHL PUSH1 0x44 DUP3 ADD MSTORE PUSH1 0x64 SWAP1 REVERT JUMPDEST ISZERO PUSH2 0x2AE4 JUMPI JUMP JUMPDEST PUSH1 0x40 MLOAD PUSH3 0x461BCD PUSH1 0xE5 SHL DUP2 MSTORE PUSH1 0x20 PUSH1 0x4 DUP3 ADD MSTORE PUSH1 0xE PUSH1 0x24 DUP3 ADD MSTORE PUSH14 0x496E76616C696420737461747573 PUSH1 0x90 SHL PUSH1 0x44 DUP3 ADD MSTORE PUSH1 0x64 SWAP1 REVERT JUMPDEST SWAP1 DUP1 PUSH1 0x20 SWAP4 SWAP3 DUP2 DUP5 MSTORE DUP5 DUP5 ADD CALLDATACOPY PUSH1 0x0 DUP3 DUP3 ADD DUP5 ADD MSTORE PUSH1 0x1F ADD PUSH1 0x1F NOT AND ADD ADD SWAP1 JUMP JUMPDEST ISZERO PUSH2 0x2B42 JUMPI JUMP JUMPDEST PUSH1 0x40 MLOAD PUSH3 0x461BCD PUSH1 0xE5 SHL DUP2 MSTORE PUSH1 0x20 PUSH1 0x4 DUP3 ADD MSTORE PUSH1 0x16 PUSH1 0x24 DUP3 ADD MSTORE PUSH22 0x10DA185B1B195B99D9481B9BDD08191A5CDC1D5D1959 PUSH1 0x52 SHL PUSH1 0x44 DUP3 ADD MSTORE PUSH1 0x64 SWAP1 REVERT JUMPDEST ISZERO PUSH2 0x2B87 JUMPI JUMP JUMPDEST PUSH1 0x40 MLOAD PUSH3 0x461BCD PUSH1 0xE5 SHL DUP2 MSTORE PUSH1 0x20 PUSH1 0x4 DUP3 ADD MSTORE PUSH1 0xD PUSH1 0x24 DUP3 ADD MSTORE PUSH13 0x24B73B30B634B2103A37B5B2B7 PUSH1 0x99 SHL PUSH1 0x44 DUP3 ADD MSTORE PUSH1 0x64 SWAP1 REVERT INVALID LOG2 PUSH5 0x6970667358 0x22 SLT KECCAK256 ADD 0x2D PUSH30 0x4FB51500B9DD84884831AAB5CC711C4524A9650CBB907914532E4E56E064 PUSH20 0x6F6C634300081400330000000000000000000000 "},"methodIdentifiers":{"acceptP2PChallenge(uint256,uint256)":"d917fd47","acceptRefund(uint256)":"028df0d4","admin()":"f851a440","blacklistToken(address,bool)":"190e4c55","blacklistedTokens(address)":"5c8b5f44","challenges(uint256)":"8f1d3776","claimStake(uint256)":"44c7d6ef","createGroupChallenge(address,uint256,uint256,string)":"c25d8b7b","createP2PChallenge(address,address,uint256,uint256,uint256,string)":"62193bc8","declineRefund(uint256)":"4b117e32","forceRefund(uint256,string)":"3ae5ef0e","getChallenge(uint256)":"1bdd4b74","getPlatformFeeBalance(address)":"68a2b7de","groupChallengeParticipants(uint256,uint256)":"0d8d2d08","isTokenBlacklisted(address)":"ce9be9ba","isTokenVerified(address)":"ec867b27","lockCreatorStake(uint256)":"f4a947ef","nextChallengeId()":"fc67aa50","owner()":"8da5cb5b","p2pChallengeAmounts(uint256)":"69249fba","platformFeeBalance(address)":"86ff06e7","platformFeePercentage()":"cdd78cfc","platformFeeRecipient()":"eb13554f","renounceOwnership()":"715018a6","requestRefund(uint256,string)":"c5ac3d4b","setAdmin(address)":"704b6c02","setPlatformFeePercentage(uint256)":"8333903e","setPlatformFeeRecipient(address)":"1871e243","stakeEscrow()":"017b975b","transferOwnership(address)":"f2fde38b","verifiedTokens(address)":"1baaaffe","verifyToken(address,bool)":"d2d66482","withdrawPlatformFees(address)":"ec3889b5"}}}}}