{"src/ChallengeEscrow.sol":{"ChallengeEscrow":{"abi":[{"inputs":[{"internalType":"address","name":"_challengeFactory","type":"address"}],"stateMutability":"nonpayable","type":"constructor"},{"inputs":[{"internalType":"address","name":"owner","type":"address"}],"name":"OwnableInvalidOwner","type":"error"},{"inputs":[{"internalType":"address","name":"account","type":"address"}],"name":"OwnableUnauthorizedAccount","type":"error"},{"inputs":[],"name":"ReentrancyGuardReentrantCall","type":"error"},{"inputs":[{"internalType":"address","name":"token","type":"address"}],"name":"SafeERC20FailedOperation","type":"error"},{"anonymous":false,"inputs":[{"indexed":true,"internalType":"address","name":"newFactory","type":"address"}],"name":"ChallengeFactoryUpdated","type":"event"},{"anonymous":false,"inputs":[{"indexed":true,"internalType":"address","name":"previousOwner","type":"address"},{"indexed":true,"internalType":"address","name":"newOwner","type":"address"}],"name":"OwnershipTransferred","type":"event"},{"anonymous":false,"inputs":[{"indexed":true,"internalType":"address","name":"user","type":"address"},{"indexed":true,"internalType":"address","name":"token","type":"address"},{"indexed":false,"internalType":"uint256","name":"amount","type":"uint256"},{"indexed":true,"internalType":"uint256","name":"challengeId","type":"uint256"}],"name":"StakeLocked","type":"event"},{"anonymous":false,"inputs":[{"indexed":true,"internalType":"address","name":"user","type":"address"},{"indexed":true,"internalType":"address","name":"token","type":"address"},{"indexed":false,"internalType":"uint256","name":"amount","type":"uint256"},{"indexed":true,"internalType":"uint256","name":"challengeId","type":"uint256"}],"name":"StakeReleased","type":"event"},{"anonymous":false,"inputs":[{"indexed":true,"internalType":"address","name":"from","type":"address"},{"indexed":true,"internalType":"address","name":"to","type":"address"},{"indexed":true,"internalType":"address","name":"token","type":"address"},{"indexed":false,"internalType":"uint256","name":"amount","type":"uint256"},{"indexed":false,"internalType":"uint256","name":"challengeId","type":"uint256"},{"indexed":false,"internalType":"string","name":"reason","type":"string"}],"name":"StakeTransferred","type":"event"},{"anonymous":false,"inputs":[{"indexed":true,"internalType":"address","name":"user1","type":"address"},{"indexed":true,"internalType":"address","name":"user2","type":"address"},{"indexed":true,"internalType":"address","name":"token","type":"address"},{"indexed":false,"internalType":"uint256","name":"amount","type":"uint256"},{"indexed":false,"internalType":"uint256","name":"challengeId","type":"uint256"},{"indexed":false,"internalType":"string","name":"reason","type":"string"}],"name":"StakesRefunded","type":"event"},{"inputs":[],"name":"challengeFactory","outputs":[{"internalType":"address","name":"","type":"address"}],"stateMutability":"view","type":"function"},{"inputs":[{"internalType":"uint256","name":"","type":"uint256"},{"internalType":"uint256","name":"","type":"uint256"}],"name":"challengeParticipants","outputs":[{"internalType":"address","name":"","type":"address"}],"stateMutability":"view","type":"function"},{"inputs":[{"internalType":"uint256","name":"","type":"uint256"},{"internalType":"uint256","name":"","type":"uint256"}],"name":"challengeStakes","outputs":[{"internalType":"address","name":"token","type":"address"},{"internalType":"uint256","name":"amount","type":"uint256"},{"internalType":"uint256","name":"lockedAt","type":"uint256"},{"internalType":"uint256","name":"challengeId","type":"uint256"},{"internalType":"bool","name":"released","type":"bool"}],"stateMutability":"view","type":"function"},{"inputs":[{"internalType":"uint256","name":"challengeId","type":"uint256"}],"name":"getChallengeParticipants","outputs":[{"internalType":"address[]","name":"","type":"address[]"}],"stateMutability":"view","type":"function"},{"inputs":[{"internalType":"uint256","name":"challengeId","type":"uint256"}],"name":"getChallengeStakes","outputs":[{"components":[{"internalType":"address","name":"token","type":"address"},{"internalType":"uint256","name":"amount","type":"uint256"},{"internalType":"uint256","name":"lockedAt","type":"uint256"},{"internalType":"uint256","name":"challengeId","type":"uint256"},{"internalType":"bool","name":"released","type":"bool"}],"internalType":"struct ChallengeEscrow.LockedStake[]","name":"","type":"tuple[]"}],"stateMutability":"view","type":"function"},{"inputs":[{"internalType":"address","name":"user","type":"address"},{"internalType":"address","name":"token","type":"address"}],"name":"getTotalLockedByToken","outputs":[{"internalType":"uint256","name":"","type":"uint256"}],"stateMutability":"view","type":"function"},{"inputs":[{"internalType":"address","name":"user","type":"address"},{"internalType":"address","name":"token","type":"address"},{"internalType":"uint256","name":"amount","type":"uint256"},{"internalType":"uint256","name":"challengeId","type":"uint256"}],"name":"lockStake","outputs":[],"stateMutability":"nonpayable","type":"function"},{"inputs":[],"name":"owner","outputs":[{"internalType":"address","name":"","type":"address"}],"stateMutability":"view","type":"function"},{"inputs":[{"internalType":"uint256","name":"challengeId","type":"uint256"},{"internalType":"address","name":"user1","type":"address"},{"internalType":"address","name":"user2","type":"address"},{"internalType":"address","name":"token","type":"address"},{"internalType":"uint256","name":"amount","type":"uint256"},{"internalType":"string","name":"reason","type":"string"}],"name":"refundBothStakes","outputs":[],"stateMutability":"nonpayable","type":"function"},{"inputs":[{"internalType":"uint256","name":"challengeId","type":"uint256"},{"internalType":"address[]","name":"users","type":"address[]"}],"name":"releaseStakes","outputs":[],"stateMutability":"nonpayable","type":"function"},{"inputs":[],"name":"renounceOwnership","outputs":[],"stateMutability":"nonpayable","type":"function"},{"inputs":[{"internalType":"address","name":"_newFactory","type":"address"}],"name":"setChallengeFactory","outputs":[],"stateMutability":"nonpayable","type":"function"},{"inputs":[{"internalType":"address","name":"","type":"address"},{"internalType":"address","name":"","type":"address"}],"name":"totalLockedByToken","outputs":[{"internalType":"uint256","name":"","type":"uint256"}],"stateMutability":"view","type":"function"},{"inputs":[{"internalType":"address","name":"newOwner","type":"address"}],"name":"transferOwnership","outputs":[],"stateMutability":"nonpayable","type":"function"},{"inputs":[{"internalType":"address","name":"from","type":"address"},{"internalType":"address","name":"to","type":"address"},{"internalType":"address","name":"token","type":"address"},{"internalType":"uint256","name":"amount","type":"uint256"},{"internalType":"uint256","name":"challengeId","type":"uint256"}],"name":"transferStake","outputs":[],"stateMutability":"nonpayable","type":"function"},{"stateMutability":"payable","type":"receive"}],"evm":{"bytecode":{"linkReferences":{},"object":"60803461010b57601f61129a38819003918201601f19168301916001600160401b038311848410176101105780849260209460405283398101031261010b57516001600160a01b038082169182900361010b57600160005533156100f25760018054336001600160a01b0319808316821790935560405192939091167f8be0079c531659141344cd1fd0a4f28419497f9722a3daafe3b4186f6b6457e0600080a382156100be5750600254161760025560405161117390816101278239f35b62461bcd60e51b815260206004820152600f60248201526e496e76616c696420666163746f727960881b6044820152606490fd5b604051631e4fbdf760e01b815260006004820152602490fd5b600080fd5b634e487b7160e01b600052604160045260246000fdfe6080604081815260049182361015610022575b505050361561002057600080fd5b005b600090813560e01c908163023bf95814610d505750806312fa0aa014610b69578063137b298814610af75780635479da3d146104085780635c3d9dec14610a545780635dbaf68b14610a2b5780636b12afa014610865578063715018a6146108085780638da5cb5b146107df5780639d7d4b96146106a1578063c1b5d35e14610451578063c84c7da814610408578063f2fde38b14610374578063f4887c7a146101185763ffac1a95036100125734610115576100de36610e49565b9390825260205281812090815484101561011557506020926100ff91610e91565b905491519160018060a01b039160031b1c168152f35b80fd5b50903461037057608036600319011261037057610133610e02565b9061013c610e1d565b600254606435936001600160a01b039160443591839161015f9083163314610ed5565b610167611016565b1692831561033e57829061017c831515610f19565b169384610302575b80519261019084610f5a565b8584526020938481019084825283810190428252606081018a815260808201928c84528b8d5260058952868d209485546801000000000000000096878210156102ed57906101e391600182018155610e5f565b9490946102da57908f94939291889051166bffffffffffffffffffffffff60a01b855416178455516001840155516002830155516003820155019051151560ff8019835416911617905585895260038552828920878a5285528289208054908582018092116102c757558789528985528289208054918210156102b457816102959160017f1d80c2b0b59d2f1543a8b483e392137e35f1d5ebfffcb3ad3a85c07a756363139897969594018155610e91565b819291549060031b9188831b921b191617905551908152a46001815580f35b634e487b7160e01b8a5260418b5260248afd5b634e487b7160e01b8b5260118c5260248bfd5b8f8f80602492634e487b7160e01b825252fd5b508f8f6041602492634e487b7160e01b835252fd5b61033981516323b872dd60e01b60208201523360248201523060448201528360648201526064815261033381610f5a565b86610fae565b610184565b845162461bcd60e51b81526020818a0152600c60248201526b24b73b30b634b2103ab9b2b960a11b6044820152606490fd5b5080fd5b5091346104045760203660031901126104045761038f610e02565b90610398610ea9565b6001600160a01b039182169283156103ee575050600154826bffffffffffffffffffffffff60a01b821617600155167f8be0079c531659141344cd1fd0a4f28419497f9722a3daafe3b4186f6b6457e08380a380f35b51631e4fbdf760e01b8152908101849052602490fd5b8280fd5b50903461037057806003193601126103705780602092610426610e02565b61042e610e1d565b6001600160a01b0391821683526003865283832091168252845220549051908152f35b5091346104045760c03660031901126104045780359161046f610e1d565b610477610e33565b6001600160a01b036064358181169391929084900361069d5760843560a4359367ffffffffffffffff9081861161069957366023870112156106995785890135918211610699573660248388010111610699576104d981600254163314610ed5565b6104e1611016565b808516948515158061068e575b1561065b576104fe841515610f19565b83886106415761053991508c808080938a5af161051961105e565b508c80808088878b165af161052c61105e565b5081610639575b5061109e565b848b5260209360038552888c20888d528552888c206105598582546110de565b90551694858b5260038452878b20878c528452878b2061057a8482546110de565b9055898b5260058452878b20978b5b89548110156105d3578060ff8c6105a36105b1948e610e5f565b50015416156105b657611039565b610589565b8b6105c1828d610e5f565b5001805460ff19166001179055611039565b508b9850918060247f1fd5efa002ba27f4b9b800e7ebe2a184152f8986c5f7f973d2b5189dbc6470fd96959360606080968f8151998a98895288015286015282606086015201848401378181018301899052601f01601f19168101030190a46001815580f35b905038610533565b61064b91896110eb565b6106568385896110eb565b610539565b885162461bcd60e51b81526020818c0152600d60248201526c496e76616c696420757365727360981b6044820152606490fd5b5081851615156104ee565b8a80fd5b8780fd5b508234610370576020908160031936011261040457803583526005918281528484209283549067ffffffffffffffff82116107cc5786519295936106e983831b880185610f8c565b82845286840190819686528786209086925b85841061077057505050505050845193808501918186525180925285850193925b8281106107295785850386f35b835180516001600160a01b03168652808301518684015287810151888701526060808201519087015260809081015115159086015260a0909401939281019260010161071c565b848a6001928d809d9a9b9d519061078682610f5a565b858060a01b03885416825285880154848301526002880154908201526003870154606082015260ff868801541615156080820152815201930193019291989695986106fb565b634e487b7160e01b865260418452602486fd5b50903461037057816003193601126103705760015490516001600160a01b039091168152602090f35b5034610115578060031936011261011557610821610ea9565b600180546001600160a01b0319811690915581906001600160a01b03167f8be0079c531659141344cd1fd0a4f28419497f9722a3daafe3b4186f6b6457e08280a380f35b50913461040457816003193601126104045767ffffffffffffffff9080359060248035848111610a275736602382011215610a275780830135948511610a2757600595368387891b8401011161069d5760018060a09895939497981b036108d181600254163314610ed5565b6108d9611016565b858952602092858452828a20988a985b818a106108f8578b6001815580f35b808a899d9a9b9c9d1b880101359684881698898903610699578a8e5b54811015610a0657906109558f959493928e8e8e8e8e8e8e8e6109388f8a90610e5f565b5090810160ff8154161561095f575b505050505050505050611039565b9091929394610914565b7f607e275a4cdbfc07ae250ee663261b358db8397a819037f055b7c5d9730a821b958383541680156000146109f25750506109a78880808060018701548c5af161053361105e565b6001808301986109cf868b54928b815260038a528181208888541682528a52209182546110de565b905560ff19825416179055541694549051908152a48e8e8e8e8e8e8e3880610947565b610a01916001850154916110eb565b6109a7565b50929a999c9b90939850610a1c91949750611039565b9890969195926108e9565b8680fd5b50903461037057816003193601126103705760025490516001600160a01b039091168152602090f35b50913461040457602036600319011261040457610a6f610e02565b610a77610ea9565b6001600160a01b0316918215610ac2575050600280546001600160a01b031916821790557fb9a1f6d01069d240a4bebe47b464192f46dc977bf49ec60b388e25e4db1a88af8280a280f35b906020606492519162461bcd60e51b8352820152600f60248201526e496e76616c696420666163746f727960881b6044820152fd5b5091903461040457610b0836610e49565b939081526005602052818120908154851015610115575060a093610b2b91610e5f565b50600180851b038154169260018201549260ff6002840154926003850154940154169381519586526020860152840152606083015215156080820152f35b5091346104045760a036600319011261040457610b84610e02565b90610b8d610e1d565b90610b96610e33565b936064359160018060a01b038095610bb382600254163314610ed5565b610bbb611016565b16938415610d1e57858116958615610cee57610bd8851515610f19565b8589526003602052838920971696878952602052828820610bfa8582546110de565b905586610cb557508680808086895af1610c1261105e565b5015610c7d57507fea5d9bc662aefe5f02d7f0544d609f56eb4d7273187209c55fd79fdc1516fe9891606060a0925b80519283526084356020840152820152601460608201527310da185b1b195b99d9481cd95d1d1b195b595b9d60621b6080820152a46001815580f35b6020606492519162461bcd60e51b83528201526013602482015272115512081d1c985b9cd9995c8819985a5b1959606a1b6044820152fd5b83915060a092610ce97fea5d9bc662aefe5f02d7f0544d609f56eb4d7273187209c55fd79fdc1516fe98956060938a6110eb565b610c41565b835162461bcd60e51b8152602081850152600a602482015269496e76616c696420746f60b01b6044820152606490fd5b506020606492519162461bcd60e51b8352820152600c60248201526b496e76616c69642066726f6d60a01b6044820152fd5b905083346104045760209081600319360112610dfe5780949391943582528452828120918254808252858201908194845286842090845b818110610de15750505081610d9d910382610f8c565b83519485948186019282875251809352850193925b828110610dc157505050500390f35b83516001600160a01b031685528695509381019392810192600101610db2565b82546001600160a01b031684529288019260019283019201610d87565b8380fd5b600435906001600160a01b0382168203610e1857565b600080fd5b602435906001600160a01b0382168203610e1857565b604435906001600160a01b0382168203610e1857565b6040906003190112610e18576004359060243590565b8054821015610e7b576000526005602060002091020190600090565b634e487b7160e01b600052603260045260246000fd5b8054821015610e7b5760005260206000200190600090565b6001546001600160a01b03163303610ebd57565b60405163118cdaa760e01b8152336004820152602490fd5b15610edc57565b60405162461bcd60e51b81526020600482015260156024820152744f6e6c79204368616c6c656e6765466163746f727960581b6044820152606490fd5b15610f2057565b60405162461bcd60e51b81526020600482015260126024820152710416d6f756e74206d757374206265203e20360741b6044820152606490fd5b60a0810190811067ffffffffffffffff821117610f7657604052565b634e487b7160e01b600052604160045260246000fd5b90601f8019910116810190811067ffffffffffffffff821117610f7657604052565b906000602091828151910182855af11561100a576000513d61100157506001600160a01b0381163b155b610fdf5750565b604051635274afe760e01b81526001600160a01b039091166004820152602490fd5b60011415610fd8565b6040513d6000823e3d90fd5b600260005414611027576002600055565b604051633ee5aeb560e01b8152600490fd5b60001981146110485760010190565b634e487b7160e01b600052601160045260246000fd5b3d15611099573d9067ffffffffffffffff8211610f76576040519161108d601f8201601f191660200184610f8c565b82523d6000602084013e565b606090565b156110a557565b60405162461bcd60e51b8152602060048201526011602482015270115512081c99599d5b990819985a5b1959607a1b6044820152606490fd5b9190820391821161104857565b60405163a9059cbb60e01b60208201526001600160a01b039092166024830152604480830193909352918152608081019167ffffffffffffffff831182841017610f765761113b92604052610fae565b56fea264697066735822122049d920de58a7f0716bc42a39cef86a15893c1d3b59fa110a40b63eeecbbbfce464736f6c63430008140033","opcodes":"PUSH1 0x80 CALLVALUE PUSH2 0x10B JUMPI PUSH1 0x1F PUSH2 0x129A CODESIZE DUP2 SWAP1 SUB SWAP2 DUP3 ADD PUSH1 0x1F NOT AND DUP4 ADD SWAP2 PUSH1 0x1 PUSH1 0x1 PUSH1 0x40 SHL SUB DUP4 GT DUP5 DUP5 LT OR PUSH2 0x110 JUMPI DUP1 DUP5 SWAP3 PUSH1 0x20 SWAP5 PUSH1 0x40 MSTORE DUP4 CODECOPY DUP2 ADD SUB SLT PUSH2 0x10B JUMPI MLOAD PUSH1 0x1 PUSH1 0x1 PUSH1 0xA0 SHL SUB DUP1 DUP3 AND SWAP2 DUP3 SWAP1 SUB PUSH2 0x10B JUMPI PUSH1 0x1 PUSH1 0x0 SSTORE CALLER ISZERO PUSH2 0xF2 JUMPI PUSH1 0x1 DUP1 SLOAD CALLER PUSH1 0x1 PUSH1 0x1 PUSH1 0xA0 SHL SUB NOT DUP1 DUP4 AND DUP3 OR SWAP1 SWAP4 SSTORE PUSH1 0x40 MLOAD SWAP3 SWAP4 SWAP1 SWAP2 AND PUSH32 0x8BE0079C531659141344CD1FD0A4F28419497F9722A3DAAFE3B4186F6B6457E0 PUSH1 0x0 DUP1 LOG3 DUP3 ISZERO PUSH2 0xBE JUMPI POP PUSH1 0x2 SLOAD AND OR PUSH1 0x2 SSTORE PUSH1 0x40 MLOAD PUSH2 0x1173 SWAP1 DUP2 PUSH2 0x127 DUP3 CODECOPY RETURN JUMPDEST PUSH3 0x461BCD PUSH1 0xE5 SHL DUP2 MSTORE PUSH1 0x20 PUSH1 0x4 DUP3 ADD MSTORE PUSH1 0xF PUSH1 0x24 DUP3 ADD MSTORE PUSH15 0x496E76616C696420666163746F7279 PUSH1 0x88 SHL PUSH1 0x44 DUP3 ADD MSTORE PUSH1 0x64 SWAP1 REVERT JUMPDEST PUSH1 0x40 MLOAD PUSH4 0x1E4FBDF7 PUSH1 0xE0 SHL DUP2 MSTORE PUSH1 0x0 PUSH1 0x4 DUP3 ADD MSTORE PUSH1 0x24 SWAP1 REVERT JUMPDEST PUSH1 0x0 DUP1 REVERT JUMPDEST PUSH4 0x4E487B71 PUSH1 0xE0 SHL PUSH1 0x0 MSTORE PUSH1 0x41 PUSH1 0x4 MSTORE PUSH1 0x24 PUSH1 0x0 REVERT INVALID PUSH1 0x80 PUSH1 0x40 DUP2 DUP2 MSTORE PUSH1 0x4 SWAP2 DUP3 CALLDATASIZE LT ISZERO PUSH2 0x22 JUMPI JUMPDEST POP POP POP CALLDATASIZE ISZERO PUSH2 0x20 JUMPI PUSH1 0x0 DUP1 REVERT JUMPDEST STOP JUMPDEST PUSH1 0x0 SWAP1 DUP2 CALLDATALOAD PUSH1 0xE0 SHR SWAP1 DUP2 PUSH4 0x23BF958 EQ PUSH2 0xD50 JUMPI POP DUP1 PUSH4 0x12FA0AA0 EQ PUSH2 0xB69 JUMPI DUP1 PUSH4 0x137B2988 EQ PUSH2 0xAF7 JUMPI DUP1 PUSH4 0x5479DA3D EQ PUSH2 0x408 JUMPI DUP1 PUSH4 0x5C3D9DEC EQ PUSH2 0xA54 JUMPI DUP1 PUSH4 0x5DBAF68B EQ PUSH2 0xA2B JUMPI DUP1 PUSH4 0x6B12AFA0 EQ PUSH2 0x865 JUMPI DUP1 PUSH4 0x715018A6 EQ PUSH2 0x808 JUMPI DUP1 PUSH4 0x8DA5CB5B EQ PUSH2 0x7DF JUMPI DUP1 PUSH4 0x9D7D4B96 EQ PUSH2 0x6A1 JUMPI DUP1 PUSH4 0xC1B5D35E EQ PUSH2 0x451 JUMPI DUP1 PUSH4 0xC84C7DA8 EQ PUSH2 0x408 JUMPI DUP1 PUSH4 0xF2FDE38B EQ PUSH2 0x374 JUMPI DUP1 PUSH4 0xF4887C7A EQ PUSH2 0x118 JUMPI PUSH4 0xFFAC1A95 SUB PUSH2 0x12 JUMPI CALLVALUE PUSH2 0x115 JUMPI PUSH2 0xDE CALLDATASIZE PUSH2 0xE49 JUMP JUMPDEST SWAP4 SWAP1 DUP3 MSTORE PUSH1 0x20 MSTORE DUP2 DUP2 KECCAK256 SWAP1 DUP2 SLOAD DUP5 LT ISZERO PUSH2 0x115 JUMPI POP PUSH1 0x20 SWAP3 PUSH2 0xFF SWAP2 PUSH2 0xE91 JUMP JUMPDEST SWAP1 SLOAD SWAP2 MLOAD SWAP2 PUSH1 0x1 DUP1 PUSH1 0xA0 SHL SUB SWAP2 PUSH1 0x3 SHL SHR AND DUP2 MSTORE RETURN JUMPDEST DUP1 REVERT JUMPDEST POP SWAP1 CALLVALUE PUSH2 0x370 JUMPI PUSH1 0x80 CALLDATASIZE PUSH1 0x3 NOT ADD SLT PUSH2 0x370 JUMPI PUSH2 0x133 PUSH2 0xE02 JUMP JUMPDEST SWAP1 PUSH2 0x13C PUSH2 0xE1D JUMP JUMPDEST PUSH1 0x2 SLOAD PUSH1 0x64 CALLDATALOAD SWAP4 PUSH1 0x1 PUSH1 0x1 PUSH1 0xA0 SHL SUB SWAP2 PUSH1 0x44 CALLDATALOAD SWAP2 DUP4 SWAP2 PUSH2 0x15F SWAP1 DUP4 AND CALLER EQ PUSH2 0xED5 JUMP JUMPDEST PUSH2 0x167 PUSH2 0x1016 JUMP JUMPDEST AND SWAP3 DUP4 ISZERO PUSH2 0x33E JUMPI DUP3 SWAP1 PUSH2 0x17C DUP4 ISZERO ISZERO PUSH2 0xF19 JUMP JUMPDEST AND SWAP4 DUP5 PUSH2 0x302 JUMPI JUMPDEST DUP1 MLOAD SWAP3 PUSH2 0x190 DUP5 PUSH2 0xF5A JUMP JUMPDEST DUP6 DUP5 MSTORE PUSH1 0x20 SWAP4 DUP5 DUP2 ADD SWAP1 DUP5 DUP3 MSTORE DUP4 DUP2 ADD SWAP1 TIMESTAMP DUP3 MSTORE PUSH1 0x60 DUP2 ADD DUP11 DUP2 MSTORE PUSH1 0x80 DUP3 ADD SWAP3 DUP13 DUP5 MSTORE DUP12 DUP14 MSTORE PUSH1 0x5 DUP10 MSTORE DUP7 DUP14 KECCAK256 SWAP5 DUP6 SLOAD PUSH9 0x10000000000000000 SWAP7 DUP8 DUP3 LT ISZERO PUSH2 0x2ED JUMPI SWAP1 PUSH2 0x1E3 SWAP2 PUSH1 0x1 DUP3 ADD DUP2 SSTORE PUSH2 0xE5F JUMP JUMPDEST SWAP5 SWAP1 SWAP5 PUSH2 0x2DA JUMPI SWAP1 DUP16 SWAP5 SWAP4 SWAP3 SWAP2 DUP9 SWAP1 MLOAD AND PUSH12 0xFFFFFFFFFFFFFFFFFFFFFFFF PUSH1 0xA0 SHL DUP6 SLOAD AND OR DUP5 SSTORE MLOAD PUSH1 0x1 DUP5 ADD SSTORE MLOAD PUSH1 0x2 DUP4 ADD SSTORE MLOAD PUSH1 0x3 DUP3 ADD SSTORE ADD SWAP1 MLOAD ISZERO ISZERO PUSH1 0xFF DUP1 NOT DUP4 SLOAD AND SWAP2 AND OR SWAP1 SSTORE DUP6 DUP10 MSTORE PUSH1 0x3 DUP6 MSTORE DUP3 DUP10 KECCAK256 DUP8 DUP11 MSTORE DUP6 MSTORE DUP3 DUP10 KECCAK256 DUP1 SLOAD SWAP1 DUP6 DUP3 ADD DUP1 SWAP3 GT PUSH2 0x2C7 JUMPI SSTORE DUP8 DUP10 MSTORE DUP10 DUP6 MSTORE DUP3 DUP10 KECCAK256 DUP1 SLOAD SWAP2 DUP3 LT ISZERO PUSH2 0x2B4 JUMPI DUP2 PUSH2 0x295 SWAP2 PUSH1 0x1 PUSH32 0x1D80C2B0B59D2F1543A8B483E392137E35F1D5EBFFFCB3AD3A85C07A75636313 SWAP9 SWAP8 SWAP7 SWAP6 SWAP5 ADD DUP2 SSTORE PUSH2 0xE91 JUMP JUMPDEST DUP2 SWAP3 SWAP2 SLOAD SWAP1 PUSH1 0x3 SHL SWAP2 DUP9 DUP4 SHL SWAP3 SHL NOT AND OR SWAP1 SSTORE MLOAD SWAP1 DUP2 MSTORE LOG4 PUSH1 0x1 DUP2 SSTORE DUP1 RETURN JUMPDEST PUSH4 0x4E487B71 PUSH1 0xE0 SHL DUP11 MSTORE PUSH1 0x41 DUP12 MSTORE PUSH1 0x24 DUP11 REVERT JUMPDEST PUSH4 0x4E487B71 PUSH1 0xE0 SHL DUP12 MSTORE PUSH1 0x11 DUP13 MSTORE PUSH1 0x24 DUP12 REVERT JUMPDEST DUP16 DUP16 DUP1 PUSH1 0x24 SWAP3 PUSH4 0x4E487B71 PUSH1 0xE0 SHL DUP3 MSTORE MSTORE REVERT JUMPDEST POP DUP16 DUP16 PUSH1 0x41 PUSH1 0x24 SWAP3 PUSH4 0x4E487B71 PUSH1 0xE0 SHL DUP4 MSTORE MSTORE REVERT JUMPDEST PUSH2 0x339 DUP2 MLOAD PUSH4 0x23B872DD PUSH1 0xE0 SHL PUSH1 0x20 DUP3 ADD MSTORE CALLER PUSH1 0x24 DUP3 ADD MSTORE ADDRESS PUSH1 0x44 DUP3 ADD MSTORE DUP4 PUSH1 0x64 DUP3 ADD MSTORE PUSH1 0x64 DUP2 MSTORE PUSH2 0x333 DUP2 PUSH2 0xF5A JUMP JUMPDEST DUP7 PUSH2 0xFAE JUMP JUMPDEST PUSH2 0x184 JUMP JUMPDEST DUP5 MLOAD PUSH3 0x461BCD PUSH1 0xE5 SHL DUP2 MSTORE PUSH1 0x20 DUP2 DUP11 ADD MSTORE PUSH1 0xC PUSH1 0x24 DUP3 ADD MSTORE PUSH12 0x24B73B30B634B2103AB9B2B9 PUSH1 0xA1 SHL PUSH1 0x44 DUP3 ADD MSTORE PUSH1 0x64 SWAP1 REVERT JUMPDEST POP DUP1 REVERT JUMPDEST POP SWAP2 CALLVALUE PUSH2 0x404 JUMPI PUSH1 0x20 CALLDATASIZE PUSH1 0x3 NOT ADD SLT PUSH2 0x404 JUMPI PUSH2 0x38F PUSH2 0xE02 JUMP JUMPDEST SWAP1 PUSH2 0x398 PUSH2 0xEA9 JUMP JUMPDEST PUSH1 0x1 PUSH1 0x1 PUSH1 0xA0 SHL SUB SWAP2 DUP3 AND SWAP3 DUP4 ISZERO PUSH2 0x3EE JUMPI POP POP PUSH1 0x1 SLOAD DUP3 PUSH12 0xFFFFFFFFFFFFFFFFFFFFFFFF PUSH1 0xA0 SHL DUP3 AND OR PUSH1 0x1 SSTORE AND PUSH32 0x8BE0079C531659141344CD1FD0A4F28419497F9722A3DAAFE3B4186F6B6457E0 DUP4 DUP1 LOG3 DUP1 RETURN JUMPDEST MLOAD PUSH4 0x1E4FBDF7 PUSH1 0xE0 SHL DUP2 MSTORE SWAP1 DUP2 ADD DUP5 SWAP1 MSTORE PUSH1 0x24 SWAP1 REVERT JUMPDEST DUP3 DUP1 REVERT JUMPDEST POP SWAP1 CALLVALUE PUSH2 0x370 JUMPI DUP1 PUSH1 0x3 NOT CALLDATASIZE ADD SLT PUSH2 0x370 JUMPI DUP1 PUSH1 0x20 SWAP3 PUSH2 0x426 PUSH2 0xE02 JUMP JUMPDEST PUSH2 0x42E PUSH2 0xE1D JUMP JUMPDEST PUSH1 0x1 PUSH1 0x1 PUSH1 0xA0 SHL SUB SWAP2 DUP3 AND DUP4 MSTORE PUSH1 0x3 DUP7 MSTORE DUP4 DUP4 KECCAK256 SWAP2 AND DUP3 MSTORE DUP5 MSTORE KECCAK256 SLOAD SWAP1 MLOAD SWAP1 DUP2 MSTORE RETURN JUMPDEST POP SWAP2 CALLVALUE PUSH2 0x404 JUMPI PUSH1 0xC0 CALLDATASIZE PUSH1 0x3 NOT ADD SLT PUSH2 0x404 JUMPI DUP1 CALLDATALOAD SWAP2 PUSH2 0x46F PUSH2 0xE1D JUMP JUMPDEST PUSH2 0x477 PUSH2 0xE33 JUMP JUMPDEST PUSH1 0x1 PUSH1 0x1 PUSH1 0xA0 SHL SUB PUSH1 0x64 CALLDATALOAD DUP2 DUP2 AND SWAP4 SWAP2 SWAP3 SWAP1 DUP5 SWAP1 SUB PUSH2 0x69D JUMPI PUSH1 0x84 CALLDATALOAD PUSH1 0xA4 CALLDATALOAD SWAP4 PUSH8 0xFFFFFFFFFFFFFFFF SWAP1 DUP2 DUP7 GT PUSH2 0x699 JUMPI CALLDATASIZE PUSH1 0x23 DUP8 ADD SLT ISZERO PUSH2 0x699 JUMPI DUP6 DUP10 ADD CALLDATALOAD SWAP2 DUP3 GT PUSH2 0x699 JUMPI CALLDATASIZE PUSH1 0x24 DUP4 DUP9 ADD ADD GT PUSH2 0x699 JUMPI PUSH2 0x4D9 DUP2 PUSH1 0x2 SLOAD AND CALLER EQ PUSH2 0xED5 JUMP JUMPDEST PUSH2 0x4E1 PUSH2 0x1016 JUMP JUMPDEST DUP1 DUP6 AND SWAP5 DUP6 ISZERO ISZERO DUP1 PUSH2 0x68E JUMPI JUMPDEST ISZERO PUSH2 0x65B JUMPI PUSH2 0x4FE DUP5 ISZERO ISZERO PUSH2 0xF19 JUMP JUMPDEST DUP4 DUP9 PUSH2 0x641 JUMPI PUSH2 0x539 SWAP2 POP DUP13 DUP1 DUP1 DUP1 SWAP4 DUP11 GAS CALL PUSH2 0x519 PUSH2 0x105E JUMP JUMPDEST POP DUP13 DUP1 DUP1 DUP1 DUP9 DUP8 DUP12 AND GAS CALL PUSH2 0x52C PUSH2 0x105E JUMP JUMPDEST POP DUP2 PUSH2 0x639 JUMPI JUMPDEST POP PUSH2 0x109E JUMP JUMPDEST DUP5 DUP12 MSTORE PUSH1 0x20 SWAP4 PUSH1 0x3 DUP6 MSTORE DUP9 DUP13 KECCAK256 DUP9 DUP14 MSTORE DUP6 MSTORE DUP9 DUP13 KECCAK256 PUSH2 0x559 DUP6 DUP3 SLOAD PUSH2 0x10DE JUMP JUMPDEST SWAP1 SSTORE AND SWAP5 DUP6 DUP12 MSTORE PUSH1 0x3 DUP5 MSTORE DUP8 DUP12 KECCAK256 DUP8 DUP13 MSTORE DUP5 MSTORE DUP8 DUP12 KECCAK256 PUSH2 0x57A DUP5 DUP3 SLOAD PUSH2 0x10DE JUMP JUMPDEST SWAP1 SSTORE DUP10 DUP12 MSTORE PUSH1 0x5 DUP5 MSTORE DUP8 DUP12 KECCAK256 SWAP8 DUP12 JUMPDEST DUP10 SLOAD DUP2 LT ISZERO PUSH2 0x5D3 JUMPI DUP1 PUSH1 0xFF DUP13 PUSH2 0x5A3 PUSH2 0x5B1 SWAP5 DUP15 PUSH2 0xE5F JUMP JUMPDEST POP ADD SLOAD AND ISZERO PUSH2 0x5B6 JUMPI PUSH2 0x1039 JUMP JUMPDEST PUSH2 0x589 JUMP JUMPDEST DUP12 PUSH2 0x5C1 DUP3 DUP14 PUSH2 0xE5F JUMP JUMPDEST POP ADD DUP1 SLOAD PUSH1 0xFF NOT AND PUSH1 0x1 OR SWAP1 SSTORE PUSH2 0x1039 JUMP JUMPDEST POP DUP12 SWAP9 POP SWAP2 DUP1 PUSH1 0x24 PUSH32 0x1FD5EFA002BA27F4B9B800E7EBE2A184152F8986C5F7F973D2B5189DBC6470FD SWAP7 SWAP6 SWAP4 PUSH1 0x60 PUSH1 0x80 SWAP7 DUP16 DUP2 MLOAD SWAP10 DUP11 SWAP9 DUP10 MSTORE DUP9 ADD MSTORE DUP7 ADD MSTORE DUP3 PUSH1 0x60 DUP7 ADD MSTORE ADD DUP5 DUP5 ADD CALLDATACOPY DUP2 DUP2 ADD DUP4 ADD DUP10 SWAP1 MSTORE PUSH1 0x1F ADD PUSH1 0x1F NOT AND DUP2 ADD SUB ADD SWAP1 LOG4 PUSH1 0x1 DUP2 SSTORE DUP1 RETURN JUMPDEST SWAP1 POP CODESIZE PUSH2 0x533 JUMP JUMPDEST PUSH2 0x64B SWAP2 DUP10 PUSH2 0x10EB JUMP JUMPDEST PUSH2 0x656 DUP4 DUP6 DUP10 PUSH2 0x10EB JUMP JUMPDEST PUSH2 0x539 JUMP JUMPDEST DUP9 MLOAD PUSH3 0x461BCD PUSH1 0xE5 SHL DUP2 MSTORE PUSH1 0x20 DUP2 DUP13 ADD MSTORE PUSH1 0xD PUSH1 0x24 DUP3 ADD MSTORE PUSH13 0x496E76616C6964207573657273 PUSH1 0x98 SHL PUSH1 0x44 DUP3 ADD MSTORE PUSH1 0x64 SWAP1 REVERT JUMPDEST POP DUP2 DUP6 AND ISZERO ISZERO PUSH2 0x4EE JUMP JUMPDEST DUP11 DUP1 REVERT JUMPDEST DUP8 DUP1 REVERT JUMPDEST POP DUP3 CALLVALUE PUSH2 0x370 JUMPI PUSH1 0x20 SWAP1 DUP2 PUSH1 0x3 NOT CALLDATASIZE ADD SLT PUSH2 0x404 JUMPI DUP1 CALLDATALOAD DUP4 MSTORE PUSH1 0x5 SWAP2 DUP3 DUP2 MSTORE DUP5 DUP5 KECCAK256 SWAP3 DUP4 SLOAD SWAP1 PUSH8 0xFFFFFFFFFFFFFFFF DUP3 GT PUSH2 0x7CC JUMPI DUP7 MLOAD SWAP3 SWAP6 SWAP4 PUSH2 0x6E9 DUP4 DUP4 SHL DUP9 ADD DUP6 PUSH2 0xF8C JUMP JUMPDEST DUP3 DUP5 MSTORE DUP7 DUP5 ADD SWAP1 DUP2 SWAP7 DUP7 MSTORE DUP8 DUP7 KECCAK256 SWAP1 DUP7 SWAP3 JUMPDEST DUP6 DUP5 LT PUSH2 0x770 JUMPI POP POP POP POP POP POP DUP5 MLOAD SWAP4 DUP1 DUP6 ADD SWAP2 DUP2 DUP7 MSTORE MLOAD DUP1 SWAP3 MSTORE DUP6 DUP6 ADD SWAP4 SWAP3 JUMPDEST DUP3 DUP2 LT PUSH2 0x729 JUMPI DUP6 DUP6 SUB DUP7 RETURN JUMPDEST DUP4 MLOAD DUP1 MLOAD PUSH1 0x1 PUSH1 0x1 PUSH1 0xA0 SHL SUB AND DUP7 MSTORE DUP1 DUP4 ADD MLOAD DUP7 DUP5 ADD MSTORE DUP8 DUP2 ADD MLOAD DUP9 DUP8 ADD MSTORE PUSH1 0x60 DUP1 DUP3 ADD MLOAD SWAP1 DUP8 ADD MSTORE PUSH1 0x80 SWAP1 DUP2 ADD MLOAD ISZERO ISZERO SWAP1 DUP7 ADD MSTORE PUSH1 0xA0 SWAP1 SWAP5 ADD SWAP4 SWAP3 DUP2 ADD SWAP3 PUSH1 0x1 ADD PUSH2 0x71C JUMP JUMPDEST DUP5 DUP11 PUSH1 0x1 SWAP3 DUP14 DUP1 SWAP14 SWAP11 SWAP12 SWAP14 MLOAD SWAP1 PUSH2 0x786 DUP3 PUSH2 0xF5A JUMP JUMPDEST DUP6 DUP1 PUSH1 0xA0 SHL SUB DUP9 SLOAD AND DUP3 MSTORE DUP6 DUP9 ADD SLOAD DUP5 DUP4 ADD MSTORE PUSH1 0x2 DUP9 ADD SLOAD SWAP1 DUP3 ADD MSTORE PUSH1 0x3 DUP8 ADD SLOAD PUSH1 0x60 DUP3 ADD MSTORE PUSH1 0xFF DUP7 DUP9 ADD SLOAD AND ISZERO ISZERO PUSH1 0x80 DUP3 ADD MSTORE DUP2 MSTORE ADD SWAP4 ADD SWAP4 ADD SWAP3 SWAP2 SWAP9 SWAP7 SWAP6 SWAP9 PUSH2 0x6FB JUMP JUMPDEST PUSH4 0x4E487B71 PUSH1 0xE0 SHL DUP7 MSTORE PUSH1 0x41 DUP5 MSTORE PUSH1 0x24 DUP7 REVERT JUMPDEST POP SWAP1 CALLVALUE PUSH2 0x370 JUMPI DUP2 PUSH1 0x3 NOT CALLDATASIZE ADD SLT PUSH2 0x370 JUMPI PUSH1 0x1 SLOAD SWAP1 MLOAD PUSH1 0x1 PUSH1 0x1 PUSH1 0xA0 SHL SUB SWAP1 SWAP2 AND DUP2 MSTORE PUSH1 0x20 SWAP1 RETURN JUMPDEST POP CALLVALUE PUSH2 0x115 JUMPI DUP1 PUSH1 0x3 NOT CALLDATASIZE ADD SLT PUSH2 0x115 JUMPI PUSH2 0x821 PUSH2 0xEA9 JUMP JUMPDEST PUSH1 0x1 DUP1 SLOAD PUSH1 0x1 PUSH1 0x1 PUSH1 0xA0 SHL SUB NOT DUP2 AND SWAP1 SWAP2 SSTORE DUP2 SWAP1 PUSH1 0x1 PUSH1 0x1 PUSH1 0xA0 SHL SUB AND PUSH32 0x8BE0079C531659141344CD1FD0A4F28419497F9722A3DAAFE3B4186F6B6457E0 DUP3 DUP1 LOG3 DUP1 RETURN JUMPDEST POP SWAP2 CALLVALUE PUSH2 0x404 JUMPI DUP2 PUSH1 0x3 NOT CALLDATASIZE ADD SLT PUSH2 0x404 JUMPI PUSH8 0xFFFFFFFFFFFFFFFF SWAP1 DUP1 CALLDATALOAD SWAP1 PUSH1 0x24 DUP1 CALLDATALOAD DUP5 DUP2 GT PUSH2 0xA27 JUMPI CALLDATASIZE PUSH1 0x23 DUP3 ADD SLT ISZERO PUSH2 0xA27 JUMPI DUP1 DUP4 ADD CALLDATALOAD SWAP5 DUP6 GT PUSH2 0xA27 JUMPI PUSH1 0x5 SWAP6 CALLDATASIZE DUP4 DUP8 DUP10 SHL DUP5 ADD ADD GT PUSH2 0x69D JUMPI PUSH1 0x1 DUP1 PUSH1 0xA0 SWAP9 SWAP6 SWAP4 SWAP5 SWAP8 SWAP9 SHL SUB PUSH2 0x8D1 DUP2 PUSH1 0x2 SLOAD AND CALLER EQ PUSH2 0xED5 JUMP JUMPDEST PUSH2 0x8D9 PUSH2 0x1016 JUMP JUMPDEST DUP6 DUP10 MSTORE PUSH1 0x20 SWAP3 DUP6 DUP5 MSTORE DUP3 DUP11 KECCAK256 SWAP9 DUP11 SWAP9 JUMPDEST DUP2 DUP11 LT PUSH2 0x8F8 JUMPI DUP12 PUSH1 0x1 DUP2 SSTORE DUP1 RETURN JUMPDEST DUP1 DUP11 DUP10 SWAP14 SWAP11 SWAP12 SWAP13 SWAP14 SHL DUP9 ADD ADD CALLDATALOAD SWAP7 DUP5 DUP9 AND SWAP9 DUP10 DUP10 SUB PUSH2 0x699 JUMPI DUP11 DUP15 JUMPDEST SLOAD DUP2 LT ISZERO PUSH2 0xA06 JUMPI SWAP1 PUSH2 0x955 DUP16 SWAP6 SWAP5 SWAP4 SWAP3 DUP15 DUP15 DUP15 DUP15 DUP15 DUP15 DUP15 DUP15 PUSH2 0x938 DUP16 DUP11 SWAP1 PUSH2 0xE5F JUMP JUMPDEST POP SWAP1 DUP2 ADD PUSH1 0xFF DUP2 SLOAD AND ISZERO PUSH2 0x95F JUMPI JUMPDEST POP POP POP POP POP POP POP POP POP PUSH2 0x1039 JUMP JUMPDEST SWAP1 SWAP2 SWAP3 SWAP4 SWAP5 PUSH2 0x914 JUMP JUMPDEST PUSH32 0x607E275A4CDBFC07AE250EE663261B358DB8397A819037F055B7C5D9730A821B SWAP6 DUP4 DUP4 SLOAD AND DUP1 ISZERO PUSH1 0x0 EQ PUSH2 0x9F2 JUMPI POP POP PUSH2 0x9A7 DUP9 DUP1 DUP1 DUP1 PUSH1 0x1 DUP8 ADD SLOAD DUP13 GAS CALL PUSH2 0x533 PUSH2 0x105E JUMP JUMPDEST PUSH1 0x1 DUP1 DUP4 ADD SWAP9 PUSH2 0x9CF DUP7 DUP12 SLOAD SWAP3 DUP12 DUP2 MSTORE PUSH1 0x3 DUP11 MSTORE DUP2 DUP2 KECCAK256 DUP9 DUP9 SLOAD AND DUP3 MSTORE DUP11 MSTORE KECCAK256 SWAP2 DUP3 SLOAD PUSH2 0x10DE JUMP JUMPDEST SWAP1 SSTORE PUSH1 0xFF NOT DUP3 SLOAD AND OR SWAP1 SSTORE SLOAD AND SWAP5 SLOAD SWAP1 MLOAD SWAP1 DUP2 MSTORE LOG4 DUP15 DUP15 DUP15 DUP15 DUP15 DUP15 DUP15 CODESIZE DUP1 PUSH2 0x947 JUMP JUMPDEST PUSH2 0xA01 SWAP2 PUSH1 0x1 DUP6 ADD SLOAD SWAP2 PUSH2 0x10EB JUMP JUMPDEST PUSH2 0x9A7 JUMP JUMPDEST POP SWAP3 SWAP11 SWAP10 SWAP13 SWAP12 SWAP1 SWAP4 SWAP9 POP PUSH2 0xA1C SWAP2 SWAP5 SWAP8 POP PUSH2 0x1039 JUMP JUMPDEST SWAP9 SWAP1 SWAP7 SWAP2 SWAP6 SWAP3 PUSH2 0x8E9 JUMP JUMPDEST DUP7 DUP1 REVERT JUMPDEST POP SWAP1 CALLVALUE PUSH2 0x370 JUMPI DUP2 PUSH1 0x3 NOT CALLDATASIZE ADD SLT PUSH2 0x370 JUMPI PUSH1 0x2 SLOAD SWAP1 MLOAD PUSH1 0x1 PUSH1 0x1 PUSH1 0xA0 SHL SUB SWAP1 SWAP2 AND DUP2 MSTORE PUSH1 0x20 SWAP1 RETURN JUMPDEST POP SWAP2 CALLVALUE PUSH2 0x404 JUMPI PUSH1 0x20 CALLDATASIZE PUSH1 0x3 NOT ADD SLT PUSH2 0x404 JUMPI PUSH2 0xA6F PUSH2 0xE02 JUMP JUMPDEST PUSH2 0xA77 PUSH2 0xEA9 JUMP JUMPDEST PUSH1 0x1 PUSH1 0x1 PUSH1 0xA0 SHL SUB AND SWAP2 DUP3 ISZERO PUSH2 0xAC2 JUMPI POP POP PUSH1 0x2 DUP1 SLOAD PUSH1 0x1 PUSH1 0x1 PUSH1 0xA0 SHL SUB NOT AND DUP3 OR SWAP1 SSTORE PUSH32 0xB9A1F6D01069D240A4BEBE47B464192F46DC977BF49EC60B388E25E4DB1A88AF DUP3 DUP1 LOG2 DUP1 RETURN JUMPDEST SWAP1 PUSH1 0x20 PUSH1 0x64 SWAP3 MLOAD SWAP2 PUSH3 0x461BCD PUSH1 0xE5 SHL DUP4 MSTORE DUP3 ADD MSTORE PUSH1 0xF PUSH1 0x24 DUP3 ADD MSTORE PUSH15 0x496E76616C696420666163746F7279 PUSH1 0x88 SHL PUSH1 0x44 DUP3 ADD MSTORE REVERT JUMPDEST POP SWAP2 SWAP1 CALLVALUE PUSH2 0x404 JUMPI PUSH2 0xB08 CALLDATASIZE PUSH2 0xE49 JUMP JUMPDEST SWAP4 SWAP1 DUP2 MSTORE PUSH1 0x5 PUSH1 0x20 MSTORE DUP2 DUP2 KECCAK256 SWAP1 DUP2 SLOAD DUP6 LT ISZERO PUSH2 0x115 JUMPI POP PUSH1 0xA0 SWAP4 PUSH2 0xB2B SWAP2 PUSH2 0xE5F JUMP JUMPDEST POP PUSH1 0x1 DUP1 DUP6 SHL SUB DUP2 SLOAD AND SWAP3 PUSH1 0x1 DUP3 ADD SLOAD SWAP3 PUSH1 0xFF PUSH1 0x2 DUP5 ADD SLOAD SWAP3 PUSH1 0x3 DUP6 ADD SLOAD SWAP5 ADD SLOAD AND SWAP4 DUP2 MLOAD SWAP6 DUP7 MSTORE PUSH1 0x20 DUP7 ADD MSTORE DUP5 ADD MSTORE PUSH1 0x60 DUP4 ADD MSTORE ISZERO ISZERO PUSH1 0x80 DUP3 ADD MSTORE RETURN JUMPDEST POP SWAP2 CALLVALUE PUSH2 0x404 JUMPI PUSH1 0xA0 CALLDATASIZE PUSH1 0x3 NOT ADD SLT PUSH2 0x404 JUMPI PUSH2 0xB84 PUSH2 0xE02 JUMP JUMPDEST SWAP1 PUSH2 0xB8D PUSH2 0xE1D JUMP JUMPDEST SWAP1 PUSH2 0xB96 PUSH2 0xE33 JUMP JUMPDEST SWAP4 PUSH1 0x64 CALLDATALOAD SWAP2 PUSH1 0x1 DUP1 PUSH1 0xA0 SHL SUB DUP1 SWAP6 PUSH2 0xBB3 DUP3 PUSH1 0x2 SLOAD AND CALLER EQ PUSH2 0xED5 JUMP JUMPDEST PUSH2 0xBBB PUSH2 0x1016 JUMP JUMPDEST AND SWAP4 DUP5 ISZERO PUSH2 0xD1E JUMPI DUP6 DUP2 AND SWAP6 DUP7 ISZERO PUSH2 0xCEE JUMPI PUSH2 0xBD8 DUP6 ISZERO ISZERO PUSH2 0xF19 JUMP JUMPDEST DUP6 DUP10 MSTORE PUSH1 0x3 PUSH1 0x20 MSTORE DUP4 DUP10 KECCAK256 SWAP8 AND SWAP7 DUP8 DUP10 MSTORE PUSH1 0x20 MSTORE DUP3 DUP9 KECCAK256 PUSH2 0xBFA DUP6 DUP3 SLOAD PUSH2 0x10DE JUMP JUMPDEST SWAP1 SSTORE DUP7 PUSH2 0xCB5 JUMPI POP DUP7 DUP1 DUP1 DUP1 DUP7 DUP10 GAS CALL PUSH2 0xC12 PUSH2 0x105E JUMP JUMPDEST POP ISZERO PUSH2 0xC7D JUMPI POP PUSH32 0xEA5D9BC662AEFE5F02D7F0544D609F56EB4D7273187209C55FD79FDC1516FE98 SWAP2 PUSH1 0x60 PUSH1 0xA0 SWAP3 JUMPDEST DUP1 MLOAD SWAP3 DUP4 MSTORE PUSH1 0x84 CALLDATALOAD PUSH1 0x20 DUP5 ADD MSTORE DUP3 ADD MSTORE PUSH1 0x14 PUSH1 0x60 DUP3 ADD MSTORE PUSH20 0x10DA185B1B195B99D9481CD95D1D1B195B595B9D PUSH1 0x62 SHL PUSH1 0x80 DUP3 ADD MSTORE LOG4 PUSH1 0x1 DUP2 SSTORE DUP1 RETURN JUMPDEST PUSH1 0x20 PUSH1 0x64 SWAP3 MLOAD SWAP2 PUSH3 0x461BCD PUSH1 0xE5 SHL DUP4 MSTORE DUP3 ADD MSTORE PUSH1 0x13 PUSH1 0x24 DUP3 ADD MSTORE PUSH19 0x115512081D1C985B9CD9995C8819985A5B1959 PUSH1 0x6A SHL PUSH1 0x44 DUP3 ADD MSTORE REVERT JUMPDEST DUP4 SWAP2 POP PUSH1 0xA0 SWAP3 PUSH2 0xCE9 PUSH32 0xEA5D9BC662AEFE5F02D7F0544D609F56EB4D7273187209C55FD79FDC1516FE98 SWAP6 PUSH1 0x60 SWAP4 DUP11 PUSH2 0x10EB JUMP JUMPDEST PUSH2 0xC41 JUMP JUMPDEST DUP4 MLOAD PUSH3 0x461BCD PUSH1 0xE5 SHL DUP2 MSTORE PUSH1 0x20 DUP2 DUP6 ADD MSTORE PUSH1 0xA PUSH1 0x24 DUP3 ADD MSTORE PUSH10 0x496E76616C696420746F PUSH1 0xB0 SHL PUSH1 0x44 DUP3 ADD MSTORE PUSH1 0x64 SWAP1 REVERT JUMPDEST POP PUSH1 0x20 PUSH1 0x64 SWAP3 MLOAD SWAP2 PUSH3 0x461BCD PUSH1 0xE5 SHL DUP4 MSTORE DUP3 ADD MSTORE PUSH1 0xC PUSH1 0x24 DUP3 ADD MSTORE PUSH12 0x496E76616C69642066726F6D PUSH1 0xA0 SHL PUSH1 0x44 DUP3 ADD MSTORE REVERT JUMPDEST SWAP1 POP DUP4 CALLVALUE PUSH2 0x404 JUMPI PUSH1 0x20 SWAP1 DUP2 PUSH1 0x3 NOT CALLDATASIZE ADD SLT PUSH2 0xDFE JUMPI DUP1 SWAP5 SWAP4 SWAP2 SWAP5 CALLDATALOAD DUP3 MSTORE DUP5 MSTORE DUP3 DUP2 KECCAK256 SWAP2 DUP3 SLOAD DUP1 DUP3 MSTORE DUP6 DUP3 ADD SWAP1 DUP2 SWAP5 DUP5 MSTORE DUP7 DUP5 KECCAK256 SWAP1 DUP5 JUMPDEST DUP2 DUP2 LT PUSH2 0xDE1 JUMPI POP POP POP DUP2 PUSH2 0xD9D SWAP2 SUB DUP3 PUSH2 0xF8C JUMP JUMPDEST DUP4 MLOAD SWAP5 DUP6 SWAP5 DUP2 DUP7 ADD SWAP3 DUP3 DUP8 MSTORE MLOAD DUP1 SWAP4 MSTORE DUP6 ADD SWAP4 SWAP3 JUMPDEST DUP3 DUP2 LT PUSH2 0xDC1 JUMPI POP POP POP POP SUB SWAP1 RETURN JUMPDEST DUP4 MLOAD PUSH1 0x1 PUSH1 0x1 PUSH1 0xA0 SHL SUB AND DUP6 MSTORE DUP7 SWAP6 POP SWAP4 DUP2 ADD SWAP4 SWAP3 DUP2 ADD SWAP3 PUSH1 0x1 ADD PUSH2 0xDB2 JUMP JUMPDEST DUP3 SLOAD PUSH1 0x1 PUSH1 0x1 PUSH1 0xA0 SHL SUB AND DUP5 MSTORE SWAP3 DUP9 ADD SWAP3 PUSH1 0x1 SWAP3 DUP4 ADD SWAP3 ADD PUSH2 0xD87 JUMP JUMPDEST DUP4 DUP1 REVERT JUMPDEST PUSH1 0x4 CALLDATALOAD SWAP1 PUSH1 0x1 PUSH1 0x1 PUSH1 0xA0 SHL SUB DUP3 AND DUP3 SUB PUSH2 0xE18 JUMPI JUMP JUMPDEST PUSH1 0x0 DUP1 REVERT JUMPDEST PUSH1 0x24 CALLDATALOAD SWAP1 PUSH1 0x1 PUSH1 0x1 PUSH1 0xA0 SHL SUB DUP3 AND DUP3 SUB PUSH2 0xE18 JUMPI JUMP JUMPDEST PUSH1 0x44 CALLDATALOAD SWAP1 PUSH1 0x1 PUSH1 0x1 PUSH1 0xA0 SHL SUB DUP3 AND DUP3 SUB PUSH2 0xE18 JUMPI JUMP JUMPDEST PUSH1 0x40 SWAP1 PUSH1 0x3 NOT ADD SLT PUSH2 0xE18 JUMPI PUSH1 0x4 CALLDATALOAD SWAP1 PUSH1 0x24 CALLDATALOAD SWAP1 JUMP JUMPDEST DUP1 SLOAD DUP3 LT ISZERO PUSH2 0xE7B JUMPI PUSH1 0x0 MSTORE PUSH1 0x5 PUSH1 0x20 PUSH1 0x0 KECCAK256 SWAP2 MUL ADD SWAP1 PUSH1 0x0 SWAP1 JUMP JUMPDEST PUSH4 0x4E487B71 PUSH1 0xE0 SHL PUSH1 0x0 MSTORE PUSH1 0x32 PUSH1 0x4 MSTORE PUSH1 0x24 PUSH1 0x0 REVERT JUMPDEST DUP1 SLOAD DUP3 LT ISZERO PUSH2 0xE7B JUMPI PUSH1 0x0 MSTORE PUSH1 0x20 PUSH1 0x0 KECCAK256 ADD SWAP1 PUSH1 0x0 SWAP1 JUMP JUMPDEST PUSH1 0x1 SLOAD PUSH1 0x1 PUSH1 0x1 PUSH1 0xA0 SHL SUB AND CALLER SUB PUSH2 0xEBD JUMPI JUMP JUMPDEST PUSH1 0x40 MLOAD PUSH4 0x118CDAA7 PUSH1 0xE0 SHL DUP2 MSTORE CALLER PUSH1 0x4 DUP3 ADD MSTORE PUSH1 0x24 SWAP1 REVERT JUMPDEST ISZERO PUSH2 0xEDC JUMPI JUMP JUMPDEST PUSH1 0x40 MLOAD PUSH3 0x461BCD PUSH1 0xE5 SHL DUP2 MSTORE PUSH1 0x20 PUSH1 0x4 DUP3 ADD MSTORE PUSH1 0x15 PUSH1 0x24 DUP3 ADD MSTORE PUSH21 0x4F6E6C79204368616C6C656E6765466163746F7279 PUSH1 0x58 SHL PUSH1 0x44 DUP3 ADD MSTORE PUSH1 0x64 SWAP1 REVERT JUMPDEST ISZERO PUSH2 0xF20 JUMPI JUMP JUMPDEST PUSH1 0x40 MLOAD PUSH3 0x461BCD PUSH1 0xE5 SHL DUP2 MSTORE PUSH1 0x20 PUSH1 0x4 DUP3 ADD MSTORE PUSH1 0x12 PUSH1 0x24 DUP3 ADD MSTORE PUSH18 0x416D6F756E74206D757374206265203E203 PUSH1 0x74 SHL PUSH1 0x44 DUP3 ADD MSTORE PUSH1 0x64 SWAP1 REVERT JUMPDEST PUSH1 0xA0 DUP2 ADD SWAP1 DUP2 LT PUSH8 0xFFFFFFFFFFFFFFFF DUP3 GT OR PUSH2 0xF76 JUMPI PUSH1 0x40 MSTORE JUMP JUMPDEST PUSH4 0x4E487B71 PUSH1 0xE0 SHL PUSH1 0x0 MSTORE PUSH1 0x41 PUSH1 0x4 MSTORE PUSH1 0x24 PUSH1 0x0 REVERT JUMPDEST SWAP1 PUSH1 0x1F DUP1 NOT SWAP2 ADD AND DUP2 ADD SWAP1 DUP2 LT PUSH8 0xFFFFFFFFFFFFFFFF DUP3 GT OR PUSH2 0xF76 JUMPI PUSH1 0x40 MSTORE JUMP JUMPDEST SWAP1 PUSH1 0x0 PUSH1 0x20 SWAP2 DUP3 DUP2 MLOAD SWAP2 ADD DUP3 DUP6 GAS CALL ISZERO PUSH2 0x100A JUMPI PUSH1 0x0 MLOAD RETURNDATASIZE PUSH2 0x1001 JUMPI POP PUSH1 0x1 PUSH1 0x1 PUSH1 0xA0 SHL SUB DUP2 AND EXTCODESIZE ISZERO JUMPDEST PUSH2 0xFDF JUMPI POP JUMP JUMPDEST PUSH1 0x40 MLOAD PUSH4 0x5274AFE7 PUSH1 0xE0 SHL DUP2 MSTORE PUSH1 0x1 PUSH1 0x1 PUSH1 0xA0 SHL SUB SWAP1 SWAP2 AND PUSH1 0x4 DUP3 ADD MSTORE PUSH1 0x24 SWAP1 REVERT JUMPDEST PUSH1 0x1 EQ ISZERO PUSH2 0xFD8 JUMP JUMPDEST PUSH1 0x40 MLOAD RETURNDATASIZE PUSH1 0x0 DUP3 RETURNDATACOPY RETURNDATASIZE SWAP1 REVERT JUMPDEST PUSH1 0x2 PUSH1 0x0 SLOAD EQ PUSH2 0x1027 JUMPI PUSH1 0x2 PUSH1 0x0 SSTORE JUMP JUMPDEST PUSH1 0x40 MLOAD PUSH4 0x3EE5AEB5 PUSH1 0xE0 SHL DUP2 MSTORE PUSH1 0x4 SWAP1 REVERT JUMPDEST PUSH1 0x0 NOT DUP2 EQ PUSH2 0x1048 JUMPI PUSH1 0x1 ADD SWAP1 JUMP JUMPDEST PUSH4 0x4E487B71 PUSH1 0xE0 SHL PUSH1 0x0 MSTORE PUSH1 0x11 PUSH1 0x4 MSTORE PUSH1 0x24 PUSH1 0x0 REVERT JUMPDEST RETURNDATASIZE ISZERO PUSH2 0x1099 JUMPI RETURNDATASIZE SWAP1 PUSH8 0xFFFFFFFFFFFFFFFF DUP3 GT PUSH2 0xF76 JUMPI PUSH1 0x40 MLOAD SWAP2 PUSH2 0x108D PUSH1 0x1F DUP3 ADD PUSH1 0x1F NOT AND PUSH1 0x20 ADD DUP5 PUSH2 0xF8C JUMP JUMPDEST DUP3 MSTORE RETURNDATASIZE PUSH1 0x0 PUSH1 0x20 DUP5 ADD RETURNDATACOPY JUMP JUMPDEST PUSH1 0x60 SWAP1 JUMP JUMPDEST ISZERO PUSH2 0x10A5 JUMPI JUMP JUMPDEST PUSH1 0x40 MLOAD PUSH3 0x461BCD PUSH1 0xE5 SHL DUP2 MSTORE PUSH1 0x20 PUSH1 0x4 DUP3 ADD MSTORE PUSH1 0x11 PUSH1 0x24 DUP3 ADD MSTORE PUSH17 0x115512081C99599D5B990819985A5B1959 PUSH1 0x7A SHL PUSH1 0x44 DUP3 ADD MSTORE PUSH1 0x64 SWAP1 REVERT JUMPDEST SWAP2 SWAP1 DUP3 SUB SWAP2 DUP3 GT PUSH2 0x1048 JUMPI JUMP JUMPDEST PUSH1 0x40 MLOAD PUSH4 0xA9059CBB PUSH1 0xE0 SHL PUSH1 0x20 DUP3 ADD MSTORE PUSH1 0x1 PUSH1 0x1 PUSH1 0xA0 SHL SUB SWAP1 SWAP3 AND PUSH1 0x24 DUP4 ADD MSTORE PUSH1 0x44 DUP1 DUP4 ADD SWAP4 SWAP1 SWAP4 MSTORE SWAP2 DUP2 MSTORE PUSH1 0x80 DUP2 ADD SWAP2 PUSH8 0xFFFFFFFFFFFFFFFF DUP4 GT DUP3 DUP5 LT OR PUSH2 0xF76 JUMPI PUSH2 0x113B SWAP3 PUSH1 0x40 MSTORE PUSH2 0xFAE JUMP JUMPDEST JUMP INVALID LOG2 PUSH5 0x6970667358 0x22 SLT KECCAK256 0x49 0xD9 KECCAK256 0xDE PC 0xA7 CREATE PUSH18 0x6BC42A39CEF86A15893C1D3B59FA110A40B6 RETURNDATACOPY 0xEE 0xCB 0xBB 0xFC 0xE4 PUSH5 0x736F6C6343 STOP ADDMOD EQ STOP CALLER "},"methodIdentifiers":{"challengeFactory()":"5dbaf68b","challengeParticipants(uint256,uint256)":"ffac1a95","challengeStakes(uint256,uint256)":"137b2988","getChallengeParticipants(uint256)":"023bf958","getChallengeStakes(uint256)":"9d7d4b96","getTotalLockedByToken(address,address)":"c84c7da8","lockStake(address,address,uint256,uint256)":"f4887c7a","owner()":"8da5cb5b","refundBothStakes(uint256,address,address,address,uint256,string)":"c1b5d35e","releaseStakes(uint256,address[])":"6b12afa0","renounceOwnership()":"715018a6","setChallengeFactory(address)":"5c3d9dec","totalLockedByToken(address,address)":"5479da3d","transferOwnership(address)":"f2fde38b","transferStake(address,address,address,uint256,uint256)":"12fa0aa0"}}}}}