{"src/ChallengeFactory.sol":{"ChallengeFactory":{"abi":[{"inputs":[{"internalType":"address payable","name":"_stakeEscrow","type":"address"},{"internalType":"address","name":"_admin","type":"address"},{"internalType":"address","name":"_platformFeeRecipient","type":"address"}],"stateMutability":"nonpayable","type":"constructor"},{"inputs":[{"internalType":"address","name":"owner","type":"address"}],"name":"OwnableInvalidOwner","type":"error"},{"inputs":[{"internalType":"address","name":"account","type":"address"}],"name":"OwnableUnauthorizedAccount","type":"error"},{"inputs":[],"name":"ReentrancyGuardReentrantCall","type":"error"},{"inputs":[{"internalType":"address","name":"token","type":"address"}],"name":"SafeERC20FailedOperation","type":"error"},{"anonymous":false,"inputs":[{"indexed":true,"internalType":"uint256","name":"challengeId","type":"uint256"},{"indexed":false,"internalType":"string","name":"reason","type":"string"}],"name":"AdminForcedRefund","type":"event"},{"anonymous":false,"inputs":[{"indexed":true,"internalType":"address","name":"newAdmin","type":"address"}],"name":"AdminUpdated","type":"event"},{"anonymous":false,"inputs":[{"indexed":true,"internalType":"uint256","name":"challengeId","type":"uint256"},{"indexed":true,"internalType":"address","name":"creator","type":"address"},{"indexed":true,"internalType":"address","name":"paymentToken","type":"address"},{"indexed":false,"internalType":"uint256","name":"stakeAmount","type":"uint256"},{"indexed":false,"internalType":"uint256","name":"pointsReward","type":"uint256"}],"name":"ChallengeCreatedGroup","type":"event"},{"anonymous":false,"inputs":[{"indexed":true,"internalType":"uint256","name":"challengeId","type":"uint256"},{"indexed":true,"internalType":"address","name":"creator","type":"address"},{"indexed":true,"internalType":"address","name":"participant","type":"address"},{"indexed":false,"internalType":"address","name":"paymentToken","type":"address"},{"indexed":false,"internalType":"uint256","name":"stakeAmount","type":"uint256"},{"indexed":false,"internalType":"uint256","name":"pointsReward","type":"uint256"}],"name":"ChallengeCreatedP2P","type":"event"},{"anonymous":false,"inputs":[{"indexed":true,"internalType":"uint256","name":"challengeId","type":"uint256"},{"indexed":true,"internalType":"address","name":"winner","type":"address"},{"indexed":true,"internalType":"address","name":"paymentToken","type":"address"},{"indexed":false,"internalType":"uint256","name":"stakeAmount","type":"uint256"},{"indexed":false,"internalType":"uint256","name":"pointsAwarded","type":"uint256"}],"name":"ChallengeResolved","type":"event"},{"anonymous":false,"inputs":[{"indexed":true,"internalType":"uint256","name":"challengeId","type":"uint256"},{"indexed":true,"internalType":"address","name":"creator","type":"address"},{"indexed":false,"internalType":"uint256","name":"stakeAmount","type":"uint256"}],"name":"CreatorStakeLocked","type":"event"},{"anonymous":false,"inputs":[{"indexed":true,"internalType":"address","name":"previousOwner","type":"address"},{"indexed":true,"internalType":"address","name":"newOwner","type":"address"}],"name":"OwnershipTransferred","type":"event"},{"anonymous":false,"inputs":[{"indexed":true,"internalType":"uint256","name":"challengeId","type":"uint256"},{"indexed":true,"internalType":"address","name":"participant","type":"address"},{"indexed":false,"internalType":"uint256","name":"stakeAmount","type":"uint256"}],"name":"ParticipantStakeLocked","type":"event"},{"anonymous":false,"inputs":[{"indexed":true,"internalType":"address","name":"token","type":"address"},{"indexed":false,"internalType":"bool","name":"enabled","type":"bool"}],"name":"PaymentTokenToggled","type":"event"},{"anonymous":false,"inputs":[{"indexed":true,"internalType":"address","name":"token","type":"address"},{"indexed":false,"internalType":"uint256","name":"amount","type":"uint256"}],"name":"PlatformFeeCollected","type":"event"},{"anonymous":false,"inputs":[{"indexed":false,"internalType":"uint256","name":"newPercentage","type":"uint256"}],"name":"PlatformFeePercentageUpdated","type":"event"},{"anonymous":false,"inputs":[{"indexed":true,"internalType":"address","name":"newRecipient","type":"address"}],"name":"PlatformFeeRecipientUpdated","type":"event"},{"anonymous":false,"inputs":[{"indexed":true,"internalType":"address","name":"token","type":"address"},{"indexed":false,"internalType":"uint256","name":"amount","type":"uint256"},{"indexed":true,"internalType":"address","name":"recipient","type":"address"}],"name":"PlatformFeeWithdrawn","type":"event"},{"anonymous":false,"inputs":[{"indexed":true,"internalType":"uint256","name":"challengeId","type":"uint256"},{"indexed":true,"internalType":"address","name":"acceptor","type":"address"}],"name":"RefundAccepted","type":"event"},{"anonymous":false,"inputs":[{"indexed":true,"internalType":"uint256","name":"challengeId","type":"uint256"},{"indexed":true,"internalType":"address","name":"decliner","type":"address"}],"name":"RefundDeclined","type":"event"},{"anonymous":false,"inputs":[{"indexed":true,"internalType":"uint256","name":"challengeId","type":"uint256"},{"indexed":true,"internalType":"address","name":"requester","type":"address"},{"indexed":false,"internalType":"string","name":"reason","type":"string"}],"name":"RefundRequested","type":"event"},{"anonymous":false,"inputs":[{"indexed":true,"internalType":"uint256","name":"challengeId","type":"uint256"},{"indexed":true,"internalType":"address","name":"user","type":"address"},{"indexed":true,"internalType":"address","name":"paymentToken","type":"address"},{"indexed":false,"internalType":"uint256","name":"amount","type":"uint256"}],"name":"StakeClaimed","type":"event"},{"anonymous":false,"inputs":[{"indexed":true,"internalType":"uint256","name":"challengeId","type":"uint256"},{"indexed":true,"internalType":"address","name":"creator","type":"address"},{"indexed":true,"internalType":"address","name":"participant","type":"address"},{"indexed":false,"internalType":"uint256","name":"refundAmount","type":"uint256"}],"name":"StakesRefunded","type":"event"},{"anonymous":false,"inputs":[{"indexed":true,"internalType":"address","name":"token","type":"address"},{"indexed":false,"internalType":"bool","name":"blacklisted","type":"bool"}],"name":"TokenBlacklisted","type":"event"},{"anonymous":false,"inputs":[{"indexed":true,"internalType":"address","name":"token","type":"address"},{"indexed":false,"internalType":"bool","name":"verified","type":"bool"}],"name":"TokenVerified","type":"event"},{"inputs":[{"internalType":"uint256","name":"challengeId","type":"uint256"},{"internalType":"uint256","name":"participantSide","type":"uint256"},{"internalType":"uint256","name":"permitDeadline","type":"uint256"},{"internalType":"uint8","name":"v","type":"uint8"},{"internalType":"bytes32","name":"r","type":"bytes32"},{"internalType":"bytes32","name":"s","type":"bytes32"}],"name":"acceptP2PChallenge","outputs":[],"stateMutability":"payable","type":"function"},{"inputs":[{"internalType":"uint256","name":"challengeId","type":"uint256"}],"name":"acceptRefund","outputs":[],"stateMutability":"nonpayable","type":"function"},{"inputs":[],"name":"admin","outputs":[{"internalType":"address","name":"","type":"address"}],"stateMutability":"view","type":"function"},{"inputs":[{"internalType":"address","name":"token","type":"address"},{"internalType":"bool","name":"blacklisted","type":"bool"}],"name":"blacklistToken","outputs":[],"stateMutability":"nonpayable","type":"function"},{"inputs":[{"internalType":"address","name":"","type":"address"}],"name":"blacklistedTokens","outputs":[{"internalType":"bool","name":"","type":"bool"}],"stateMutability":"view","type":"function"},{"inputs":[{"internalType":"uint256","name":"","type":"uint256"}],"name":"challenges","outputs":[{"internalType":"uint256","name":"id","type":"uint256"},{"internalType":"enum ChallengeFactory.ChallengeType","name":"challengeType","type":"uint8"},{"internalType":"address","name":"creator","type":"address"},{"internalType":"address","name":"participant","type":"address"},{"internalType":"address","name":"paymentToken","type":"address"},{"internalType":"uint256","name":"stakeAmount","type":"uint256"},{"internalType":"uint256","name":"pointsReward","type":"uint256"},{"internalType":"enum ChallengeFactory.ChallengeStatus","name":"status","type":"uint8"},{"internalType":"address","name":"winner","type":"address"},{"internalType":"uint256","name":"createdAt","type":"uint256"},{"internalType":"uint256","name":"resolvedAt","type":"uint256"},{"internalType":"string","name":"metadataURI","type":"string"},{"internalType":"enum ChallengeFactory.Side","name":"creatorSide","type":"uint8"},{"internalType":"enum ChallengeFactory.Side","name":"participantSide","type":"uint8"},{"internalType":"bool","name":"creatorStaked","type":"bool"},{"internalType":"bool","name":"participantStaked","type":"bool"},{"internalType":"uint256","name":"stakedAt","type":"uint256"},{"internalType":"uint256","name":"refundRequestedAt","type":"uint256"},{"internalType":"bool","name":"refundAccepted","type":"bool"}],"stateMutability":"view","type":"function"},{"inputs":[{"internalType":"uint256","name":"challengeId","type":"uint256"}],"name":"claimStake","outputs":[],"stateMutability":"nonpayable","type":"function"},{"inputs":[{"internalType":"address","name":"paymentToken","type":"address"},{"internalType":"uint256","name":"stakeAmount","type":"uint256"},{"internalType":"uint256","name":"pointsReward","type":"uint256"},{"internalType":"string","name":"metadataURI","type":"string"}],"name":"createGroupChallenge","outputs":[{"internalType":"uint256","name":"","type":"uint256"}],"stateMutability":"nonpayable","type":"function"},{"inputs":[{"internalType":"address","name":"participant","type":"address"},{"internalType":"address","name":"paymentToken","type":"address"},{"internalType":"uint256","name":"stakeAmount","type":"uint256"},{"internalType":"uint256","name":"creatorSide","type":"uint256"},{"internalType":"uint256","name":"pointsReward","type":"uint256"},{"internalType":"string","name":"metadataURI","type":"string"}],"name":"createP2PChallenge","outputs":[{"internalType":"uint256","name":"","type":"uint256"}],"stateMutability":"payable","type":"function"},{"inputs":[{"internalType":"uint256","name":"challengeId","type":"uint256"}],"name":"declineRefund","outputs":[],"stateMutability":"nonpayable","type":"function"},{"inputs":[{"internalType":"uint256","name":"challengeId","type":"uint256"},{"internalType":"string","name":"reason","type":"string"}],"name":"forceRefund","outputs":[],"stateMutability":"nonpayable","type":"function"},{"inputs":[{"internalType":"uint256","name":"challengeId","type":"uint256"}],"name":"getChallenge","outputs":[{"components":[{"internalType":"uint256","name":"id","type":"uint256"},{"internalType":"enum ChallengeFactory.ChallengeType","name":"challengeType","type":"uint8"},{"internalType":"address","name":"creator","type":"address"},{"internalType":"address","name":"participant","type":"address"},{"internalType":"address","name":"paymentToken","type":"address"},{"internalType":"uint256","name":"stakeAmount","type":"uint256"},{"internalType":"uint256","name":"pointsReward","type":"uint256"},{"internalType":"enum ChallengeFactory.ChallengeStatus","name":"status","type":"uint8"},{"internalType":"address","name":"winner","type":"address"},{"internalType":"uint256","name":"createdAt","type":"uint256"},{"internalType":"uint256","name":"resolvedAt","type":"uint256"},{"internalType":"string","name":"metadataURI","type":"string"},{"internalType":"enum ChallengeFactory.Side","name":"creatorSide","type":"uint8"},{"internalType":"enum ChallengeFactory.Side","name":"participantSide","type":"uint8"},{"internalType":"bool","name":"creatorStaked","type":"bool"},{"internalType":"bool","name":"participantStaked","type":"bool"},{"internalType":"uint256","name":"stakedAt","type":"uint256"},{"internalType":"uint256","name":"refundRequestedAt","type":"uint256"},{"internalType":"bool","name":"refundAccepted","type":"bool"}],"internalType":"struct ChallengeFactory.Challenge","name":"","type":"tuple"}],"stateMutability":"view","type":"function"},{"inputs":[{"internalType":"address","name":"token","type":"address"}],"name":"getPlatformFeeBalance","outputs":[{"internalType":"uint256","name":"","type":"uint256"}],"stateMutability":"view","type":"function"},{"inputs":[{"internalType":"uint256","name":"","type":"uint256"},{"internalType":"uint256","name":"","type":"uint256"}],"name":"groupChallengeParticipants","outputs":[{"internalType":"address","name":"user","type":"address"},{"internalType":"bool","name":"side","type":"bool"},{"internalType":"uint256","name":"stakeAmount","type":"uint256"},{"internalType":"bool","name":"claimed","type":"bool"}],"stateMutability":"view","type":"function"},{"inputs":[{"internalType":"address","name":"token","type":"address"}],"name":"isTokenBlacklisted","outputs":[{"internalType":"bool","name":"","type":"bool"}],"stateMutability":"view","type":"function"},{"inputs":[{"internalType":"address","name":"token","type":"address"}],"name":"isTokenVerified","outputs":[{"internalType":"bool","name":"","type":"bool"}],"stateMutability":"view","type":"function"},{"inputs":[{"internalType":"uint256","name":"challengeId","type":"uint256"}],"name":"lockCreatorStake","outputs":[],"stateMutability":"payable","type":"function"},{"inputs":[],"name":"nextChallengeId","outputs":[{"internalType":"uint256","name":"","type":"uint256"}],"stateMutability":"view","type":"function"},{"inputs":[],"name":"owner","outputs":[{"internalType":"address","name":"","type":"address"}],"stateMutability":"view","type":"function"},{"inputs":[{"internalType":"uint256","name":"","type":"uint256"}],"name":"p2pChallengeAmounts","outputs":[{"internalType":"uint256","name":"","type":"uint256"}],"stateMutability":"view","type":"function"},{"inputs":[{"internalType":"address","name":"","type":"address"}],"name":"platformFeeBalance","outputs":[{"internalType":"uint256","name":"","type":"uint256"}],"stateMutability":"view","type":"function"},{"inputs":[],"name":"platformFeePercentage","outputs":[{"internalType":"uint256","name":"","type":"uint256"}],"stateMutability":"view","type":"function"},{"inputs":[],"name":"platformFeeRecipient","outputs":[{"internalType":"address","name":"","type":"address"}],"stateMutability":"view","type":"function"},{"inputs":[],"name":"renounceOwnership","outputs":[],"stateMutability":"nonpayable","type":"function"},{"inputs":[{"internalType":"uint256","name":"challengeId","type":"uint256"},{"internalType":"string","name":"reason","type":"string"}],"name":"requestRefund","outputs":[],"stateMutability":"nonpayable","type":"function"},{"inputs":[{"internalType":"address","name":"newAdmin","type":"address"}],"name":"setAdmin","outputs":[],"stateMutability":"nonpayable","type":"function"},{"inputs":[{"internalType":"uint256","name":"newPercentage","type":"uint256"}],"name":"setPlatformFeePercentage","outputs":[],"stateMutability":"nonpayable","type":"function"},{"inputs":[{"internalType":"address","name":"newRecipient","type":"address"}],"name":"setPlatformFeeRecipient","outputs":[],"stateMutability":"nonpayable","type":"function"},{"inputs":[{"internalType":"address","name":"participant","type":"address"},{"internalType":"address","name":"paymentToken","type":"address"},{"internalType":"uint256","name":"stakeAmount","type":"uint256"},{"internalType":"uint256","name":"creatorSide","type":"uint256"},{"internalType":"uint256","name":"pointsReward","type":"uint256"},{"internalType":"string","name":"metadataURI","type":"string"},{"internalType":"uint256","name":"permitDeadline","type":"uint256"},{"internalType":"uint8","name":"v","type":"uint8"},{"internalType":"bytes32","name":"r","type":"bytes32"},{"internalType":"bytes32","name":"s","type":"bytes32"}],"name":"stakeAndCreateP2PChallenge","outputs":[{"internalType":"uint256","name":"","type":"uint256"}],"stateMutability":"payable","type":"function"},{"inputs":[],"name":"stakeEscrow","outputs":[{"internalType":"contract ChallengeEscrow","name":"","type":"address"}],"stateMutability":"view","type":"function"},{"inputs":[{"internalType":"address","name":"newOwner","type":"address"}],"name":"transferOwnership","outputs":[],"stateMutability":"nonpayable","type":"function"},{"inputs":[{"internalType":"address","name":"","type":"address"}],"name":"verifiedTokens","outputs":[{"internalType":"bool","name":"","type":"bool"}],"stateMutability":"view","type":"function"},{"inputs":[{"internalType":"address","name":"token","type":"address"},{"internalType":"bool","name":"verified","type":"bool"}],"name":"verifyToken","outputs":[],"stateMutability":"nonpayable","type":"function"},{"inputs":[{"internalType":"address","name":"token","type":"address"}],"name":"withdrawPlatformFees","outputs":[],"stateMutability":"nonpayable","type":"function"},{"stateMutability":"payable","type":"receive"}],"evm":{"bytecode":{"linkReferences":{},"object":"608034620001d857601f6200347438819003918201601f191683019291906001600160401b03841183851017620001dd578160609284926040968752833981010312620001d85780516001600160a01b038082169291839003620001d85762000078846200007060208501620001f3565b9301620001f3565b9060016000553315620001c05760018054336001600160a01b0319808316821790935587519295929184167f8be0079c531659141344cd1fd0a4f28419497f9722a3daafe3b4186f6b6457e0600080a36001600555600a60065585156200018d57508116918215620001595716928315620001155782600254161760025581600354161760035560045416176004555161326b9081620002098239f35b845162461bcd60e51b815260206004820152601560248201527f496e76616c69642066656520726563697069656e7400000000000000000000006044820152606490fd5b855162461bcd60e51b815260206004820152600d60248201526c24b73b30b634b21030b236b4b760991b6044820152606490fd5b62461bcd60e51b815260206004820152600e60248201526d496e76616c696420657363726f7760901b6044820152606490fd5b8451631e4fbdf760e01b815260006004820152602490fd5b600080fd5b634e487b7160e01b600052604160045260246000fd5b51906001600160a01b0382168203620001d85756fe608080604052600436101561001d575b50361561001b57600080fd5b005b600090813560e01c908163017b975b14612ace57508063028df0d4146128935780630d8d2d081461281e5780631871e2431461277b578063190e4c551461270a5780631baaaffe146105615780631bdd4b74146123e55780632880d7691461200a5780633ae5ef0e14611e2c57806344c7d6ef14611c8c5780634b117e3214611b825780635c8b5f441461083b57806362193bc81461159e57806368a2b7de146113b257806369249fba14611574578063704b6c02146114d5578063715018a6146114775780638333903e146113eb57806386ff06e7146113b25780638da5cb5b146113895780638f1d377614611219578063907cc00c14610d2b578063c25d8b7b14610a8b578063c5ac3d4b14610898578063cdd78cfc1461087a578063ce9be9ba1461083b578063d2d66482146107be578063eb13554f14610795578063ec3889b5146105a0578063ec867b2714610561578063f2fde38b146104d1578063f4a947ef146101e5578063f851a440146101bc5763fc67aa500361000f57346101b957806003193601126101b9576020600554604051908152f35b80fd5b50346101b957806003193601126101b9576003546040516001600160a01b039091168152602090f35b506020806003193601126104cd576004356101fe612ea1565b8083526007825260408320600181015490610227600160ff841661022181612b4e565b146130d7565b600681019160ff83541660088110156104b95760016102469114613136565b6001600160a01b039060081c8116330361047457600a820190815460ff8160101c166104365760181c60ff16156103f1576003830180548892908116806103535750600485015490610299823414612f97565b8060025416925416823b1561034f576102cf928285938a9360405196879586948593637a443e3d60e11b85523360048601612ff1565b03925af1801561034457610328575b505090600080516020613216833981519152926004925b805462ff000019166201000017905542600b830155805460ff191660021790550154604051908152339390a36001815580f35b61033490939293612c3f565b610340579085386102de565b8580fd5b6040513d84823e3d90fd5b8380fd5b9061035e3415612f4b565b6103768160025416926004880193845491339061301b565b8060025416925416905490823b1561034f576103af928492838a9360405196879586948593637a443e3d60e11b85523360048601612ff1565b03925af18015610344576103d9575b505090600080516020613216833981519152926004926102f5565b6103e590939293612c3f565b610340579085386103be565b60405162461bcd60e51b815260048101879052601e60248201527f5061727469636970616e7420686173206e6f74207374616b65642079657400006044820152606490fd5b60405162461bcd60e51b815260048101889052601660248201527510dc99585d1bdc88185b1c9958591e481cdd185ad95960521b6044820152606490fd5b60405162461bcd60e51b815260048101869052601b60248201527f4f6e6c792063726561746f722063616e206c6f636b207374616b6500000000006044820152606490fd5b634e487b7160e01b87526021600452602487fd5b5080fd5b50346101b95760203660031901126101b9576104eb612af3565b6104f3612d35565b6001600160a01b0390811690811561054857600154826bffffffffffffffffffffffff60a01b821617600155167f8be0079c531659141344cd1fd0a4f28419497f9722a3daafe3b4186f6b6457e0600080a380f35b604051631e4fbdf760e01b815260048101849052602490fd5b50346101b95760203660031901126101b95760209060ff906040906001600160a01b0361058c612af3565b168152600a84522054166040519015158152f35b50346101b9576020806003193601126104cd576105bb612af3565b906105c4612d35565b6105cc612ea1565b6001600160a01b03918216808452600c8252604084205492909190831561075a57828552600c825284604081205582156000146106d457848080808785600454165af13d156106cf573d6001600160401b0381116106bb576040519061063b601f8201601f1916860183612c6e565b815286843d92013e5b1561068057907f08273342a380b5301480c28ba6b7dfb7bfda23bfd871714c935e45a15e9cb823915b6004541693604051908152a36001815580f35b60405162461bcd60e51b8152600481018390526013602482015272115512081d1c985b9cd9995c8819985a5b1959606a1b6044820152606490fd5b634e487b7160e01b87526041600452602487fd5b610644565b60045460405163a9059cbb60e01b818501529082166024820152604480820186905281529190608083016001600160401b03811184821017610744577f08273342a380b5301480c28ba6b7dfb7bfda23bfd871714c935e45a15e9cb8239361073f916040528561306f565b61066d565b634e487b7160e01b600052604160045260246000fd5b60405162461bcd60e51b81526004810183905260136024820152724e6f206665657320746f20776974686472617760681b6044820152606490fd5b50346101b957806003193601126101b9576004546040516001600160a01b039091168152602090f35b50346101b95760207fd128f4457567637d4d9a19a54a44a6e47ba1ed0cc875b3cff7b762c8bb27b4166107f036612b1f565b92906107fa612d35565b6001600160a01b03169261080f8415156131d9565b838552600a825261082f81604087209060ff801983541691151516179055565b6040519015158152a280f35b50346101b95760203660031901126101b95760209060ff906040906001600160a01b03610866612af3565b168152600b84522054166040519015158152f35b50346101b957806003193601126101b9576020600654604051908152f35b50346101b9576108a736612bd2565b91906108b1612ea1565b81845260076020526040842060018101546108d4600160ff831661022181612b4e565b600a82015460ff8160101c169081610a7d575b5015610a4057600682019081549060ff82169060088210159081610a2c576002831480938115610a1b575b5061091c90613136565b60018060a01b03809160081c163314908115610a0b575b50156109ba576109a6579161098493917f5a28917ada7e719e75deb413b0eddfb869b62c4cf3808ecd3c5ceb107b882450959361098e575b5050506040519182916020835233966020840191613173565b0390a36001815580f35b60069060ff1916179055600c4291015538808061096b565b634e487b7160e01b88526021600452602488fd5b60405162461bcd60e51b8152602060048201526024808201527f4f6e6c79207061727469636970616e74732063616e2072657175657374207265604482015263199d5b9960e21b6064820152608490fd5b9050600286015416331438610933565b60009350600614905061091c610912565b634e487b7160e01b8a52602160045260248afd5b60405162461bcd60e51b8152602060048201526015602482015274109bdd1a081b5d5cdd081a185d99481cdd185ad959605a1b6044820152606490fd5b60ff915060181c16386108e7565b50346101b95760803660031901126101b957610aa5612af3565b6001600160401b03916024359190604435606435858111610d2757610ace903690600401612ba5565b949093610ad9612d35565b610ae1612ea1565b6001600160a01b0316918215610cea57828452602096600b8852610b0c60ff60408720541615612d61565b610b17831515612da4565b610b22821515612de4565b610b306101f4831115612e30565b60055496610b3d88612e7c565b6005558786526007895260408620888155600180820180546001600160a81b0319163360081b610100600160a81b0316179055979060099060ff1960038201896bffffffffffffffffffffffff60a01b82541617905587600483015586600583015560068201908154169055426007820155019282116106bb578190610bc38454612c05565b601f8111610c9a575b508790601f8311600114610c3a578892610c2f575b5050600019600383901b1c191690871b1790555b60405191825286820152847fac61621ed399481a7fdd906a7b94c9d3667dee8643e9c121e783b860a3f2282d60403393a455604051908152f35b013590503880610be1565b8489528b89208a945091601f1984168a8e5b828210610c835750508411610c69575b505050811b019055610bf5565b0135600019600384901b60f8161c19169055388080610c5c565b8385013586558d979095019492830192018e610c4c565b9091508388528a8820601f840160051c8101918c8510610ce0575b84939291601f8c920160051c01915b828110610cd2575050610bcc565b8a81558594508b9101610cc4565b9091508190610cb5565b60405162461bcd60e51b815260206004820152601560248201527424b73b30b634b2103830bcb6b2b73a103a37b5b2b760591b6044820152606490fd5b8280fd5b5060c03660031901126101b957606460ff81351681350361121457610d4e612ea1565b6004358252600760205260408220906001820154610d74600160ff831661022181612b4e565b60ff6006840154166008811015611200576111c8573360089190911c6001600160a01b0316146111785760243515801561116c575b610db290612f10565b60ff600a83015416610dc381612b4e565b6111635760ff835b1660243514611110576002820180546001600160a01b038116156110fd5750546001600160a01b031633036110bb575b600382015483906001600160a01b031680610f74575060048301610e2181543414612f97565b610e2c602435612b4e565b610e3b602435600a8601613117565b6002549054600385015490916001600160a01b039081169116813b1561034f578391610e8391604051948580948193637a443e3d60e11b835283600435913360048601612ff1565b03925af1801561034457610f60575b50505b600a82015460ff80630100000063ff000000198416179283600a870155169160081c1690610ec282612b4e565b610ecb81612b4e565b14610f1e5750600490600160ff19600683015416176006820155015460405190815233907faa5d071b783a3c78ef80284714eeba5fe6e9dcbb542ff148b3f55702594c1bcd602060043592a36001815580f35b60405162461bcd60e51b815260206004820152601a60248201527f496e76616c6964207369646520636f6e66696775726174696f6e0000000000006044820152fd5b610f6990612c3f565b610d27578238610e92565b610f7e3415612f4b565b60443561103b575b5060038301546002546004850180549092610faf926001600160a01b039081169133911661301b565b610fba602435612b4e565b610fc9602435600a8601613117565b600254600385015491546001600160a01b0391821692909116823b1561034f5761101192849283604051809681958294637a443e3d60e11b8452600435913360048601612ff1565b03925af1801561034457611027575b5050610e95565b61103090612c3f565b610d27578238611020565b600484015490803b15610d275760405163d505accf60e01b815233600482015230602482015260448082019390935291356064830152833560ff166084808401919091523560a4808401919091523560c48301528290829060e490829084905af180156103445715610f86576110b090612c3f565b610d27578238610f86565b60405162461bcd60e51b815260206004820152601d60248201527f4e6f742074686520737065636966696564207061727469636970616e740000006044820152fd5b6001600160a01b03191633179055610dfb565b608490653932b0ba37b960d11b6040519162461bcd60e51b835260206004840152602660248401527f4d7573742063686f6f7365206f70706f7369746520736964652066726f6d20636044840152820152fd5b60ff6001610dcb565b50602435600114610da9565b608490626e676560e81b6040519162461bcd60e51b835260206004840152602360248401527f43726561746f722063616e6e6f7420616363657074206f776e206368616c6c656044840152820152fd5b5060405162461bcd60e51b815260206004820152601260248201527121b430b63632b733b2903737ba1037b832b760711b6044820152fd5b634e487b7160e01b85526021600452602485fd5b600080fd5b50346101b95760203660031901126101b95760043581526007602052604090208054600182015491600160a01b60019003600282015416600160a01b60019003600383015416916004810154926005820154600683015460078401546008850154916009860161128890612c8f565b93600a87015498600b88015496600c89015498600d015460ff1699604051809e819e825260ff81166112b981612b4e565b602083015260081c6001600160a01b031660409091015260608d015260808c015260a08b015260c08a01526112f460e08a0160ff8316612b58565b60081c6001600160a01b0316610100890152610120880152610140870152610260610160870181905261132a9190870190612b65565b9360ff811661133881612b4e565b6101808701528060081c60ff1661134e81612b4e565b6101a08701528060101c60ff1615156101c087015260181c60ff1615156101e086015261020085015261022084015215156102408301520390f35b50346101b957806003193601126101b9576001546040516001600160a01b039091168152602090f35b50346101b95760203660031901126101b9576020906040906001600160a01b036113da612af3565b168152600c83522054604051908152f35b50346101b95760203660031901126101b957600435611408612d35565b6127108111611443576020817fd0a5ddfa06600c6481dcd2923a572827c06e53859f23f7ddab41ff3144ee868792600655604051908152a180f35b60405162461bcd60e51b815260206004820152600c60248201526b08ccaca40e8dede40d0d2ced60a31b6044820152606490fd5b50346101b957806003193601126101b957611490612d35565b600180546001600160a01b031981169091556000906001600160a01b03167f8be0079c531659141344cd1fd0a4f28419497f9722a3daafe3b4186f6b6457e08280a380f35b50346101b95760203660031901126101b9576114ef612af3565b6114f7612d35565b6001600160a01b0316801561153f57600380546001600160a01b031916821790557f54e4612788f90384e6843298d7854436f3a585b2c3831ab66abf1de63bfa6c2d8280a280f35b60405162461bcd60e51b815260206004820152600d60248201526c24b73b30b634b21030b236b4b760991b6044820152606490fd5b50346101b95760203660031901126101b95760406020916004358152600983522054604051908152f35b5060c03660031901126101b9576115b3612af3565b6115bb612b09565b9060a4356001600160401b03811161034f576115db903690600401612ba5565b92906115e5612ea1565b6001600160a01b038316611b68575b606435158015611b5c575b61160890612f10565b6001600160a01b0382168552600b602052604085205461162b9060ff1615612d61565b6116386044351515612da4565b6116456084351515612de4565b6116556101f46084351115612e30565b6001600160a01b038216611b2d576116706044353414612f97565b6005549361167d85612e7c565b600555848652600760205260408620858155600180820180546001600160a81b0319163360081b610100600160a81b03161790911790559160ff196002840180546001600160a01b038881166001600160a01b0319928316179092556003860180549288169290911691909117905560443560048501556084356005850155611707606435612b4e565b611716606435600a8601612fd9565b6001600160a01b038616611b2757875b60068501916008821015611b115760ff9083541691161790554260078401556001600160401b0382116106bb5781906117626009850154612c05565b601f8111611ac1575b508790601f8311600114611a55578892611a4a575b50508160011b916000199060031b1c19161760098201555b600a8101805463ffff0000191690556001600160a01b03831615611936576001600160a01b0382166118cd576002546001600160a01b0316803b1561034057856040518092637a443e3d60e11b825281806117fb8a6044358a3360048601612ff1565b0391604435905af180156118c2576118aa575b5091602094916001935b600a6201000062ff000019828401541617910155604051604435815285600080516020613216833981519152883393a35b604080516001600160a01b0392909216825260443560208301526084359082015260a084901b8490039190911690339085907ff4f5a9f479b06cd99960b03cddc4864cb98eaa763a8f668617c80f589512777990606090a455604051908152f35b6118b48691612c3f565b6118be573861180e565b8480fd5b6040513d88823e3d90fd5b6002546001600160a01b0316803b1561034057856040518092637a443e3d60e11b82528183816119058b6044358b3360048601612ff1565b03925af180156118c257611922575b509160209491600193611818565b61192c8691612c3f565b6118be5738611914565b6001600160a01b0382166119e1576002546001600160a01b0316803b1561034057856040518092637a443e3d60e11b8252818061197b8a6044358a3360048601612ff1565b0391604435905af180156118c2576119cd575b5091602094916001935b600a6201000062ff000019828401541617910155604051604435815285600080516020613216833981519152883393a3611849565b6119d78691612c3f565b6118be573861198e565b6002546001600160a01b0316803b1561034057856040518092637a443e3d60e11b8252818381611a198b6044358b3360048601612ff1565b03925af180156118c257611a36575b509160209491600193611998565b611a408691612c3f565b6118be5738611a28565b013590503880611780565b60098501895260208920899450915b601f1984168510611aa9576001945083601f19811610611a8f575b505050811b016009820155611798565b0135600019600384901b60f8161c19169055388080611a7f565b81810135835560209485019460019093019201611a64565b90915060098401885260208820601f840160051c810160208510611b0a575b90849392915b601f830160051c82018110611afc57505061176b565b8a8155859450600101611ae6565b5080611ae0565b634e487b7160e01b600052602160045260246000fd5b87611726565b611b373415612f4b565b600254611b5790604435906001600160a01b03908116903390861661301b565b611670565b506064356001146115ff565b611b7d6001600160a01b038416331415612ec4565b6115f4565b50346101b95760203660031901126101b957600435611b9f612ea1565b8082526007602052604082206001810154611bc2600160ff831661022181612b4e565b60ff6006830154166008811015611200576006611bdf9114613194565b60018060a01b03809160081c163314918215611c7b575b505015611c2a5733907f8662f95f63b18bd2d50a68ba55da66f73e4e5e1619d07dd9a7b7012e93a426ff8380a36001815580f35b60405162461bcd60e51b8152602060048201526024808201527f4f6e6c79207061727469636970616e74732063616e206465636c696e65207265604482015263199d5b9960e21b6064820152608490fd5b600291925001541633143880611bf6565b50346101b9576020806003193601126104cd5760043590611cab612ea1565b8183526007815260408320916006830180549060ff821660088110156104b957600303611dee576001600160a01b0391600881901c8316338103611db15715611d7c57604051604081018181106001600160401b03821117610744576040526001815285810190863683375115611d68579160047f401af6acaf4dfd2ab7650e060f96cf76f6a51fd9d42102601e60fdacd4eacff29492819433905260ff1916179055600386015416940154926040519384523393a46001815580f35b634e487b7160e01b88526032600452602488fd5b60405162461bcd60e51b815260048101869052600d60248201526c139bc81dda5b9b995c881cd95d609a1b6044820152606490fd5b60405162461bcd60e51b81526004810187905260156024820152744f6e6c792077696e6e65722063616e20636c61696d60581b6044820152606490fd5b60405162461bcd60e51b815260048101859052601660248201527510da185b1b195b99d9481b9bdd081c995cdbdb1d995960521b6044820152606490fd5b50346101b957611e3b36612bd2565b90611e44612d35565b611e4c612ea1565b828452600760205260408420916001830192835490611e73600160ff841661022181612b4e565b60068101805460ff81166008811015610a2c57600603611fc55760079060ff191617905560048101549160018060a01b03958887600254166002850194896003818854169201541691803b1561034f5783928c928c6040519889956360dae9af60e11b8752600487015260081c1660248501526044840152606483015287608483015260c060a4830152818381611f0f8d8d60c4840191613173565b03925af1928315611fb8578993611f9b575b50506020877fbea640a4e0032618e4dab2cbcc4a119af2c351ae2c26e3c0bdf8aec842313391987ff91aa0a9813cbc386975170e821fb6193d22ab6759de1354d8f4c4f7cf42ad91935460081c1694541694604051908152a4611f91604051928392602084526020840191613173565b0390a26001815580f35b611fa791929350612c3f565b611fb45786908838611f21565b8780fd5b50604051903d90823e3d90fd5b60405162461bcd60e51b815260206004820152601a60248201527f4368616c6c656e6765206d7573742062652064697370757465640000000000006044820152606490fd5b506101403660031901126101b957612020612af3565b612028612b09565b9060a4356001600160401b03811161034f57612048903690600401612ba5565b929060ff60e4351660e4350361121457612060612ea1565b6001600160a01b0383166123cb575b6064351580156123bf575b61208390612f10565b6001600160a01b0382168552600b60205260408520546120a69060ff1615612d61565b6120b36044351515612da4565b6120c06084351515612de4565b6120d06101f46084351115612e30565b600554936120dd85612e7c565b600555848652600760205260408620858155600180820180546001600160a81b0319163360081b610100600160a81b03161790911790559160ff196002840180546001600160a01b038881166001600160a01b0319928316179092556003860180549288169290911691909117905560443560048501556084356005850155612167606435612b4e565b612176606435600a8601612fd9565b600684019081541690554260078401556001600160401b0382116106bb5781906121a36009850154612c05565b601f811161236f575b508790601f83116001146123035788926122f8575b50508160011b916000199060031b1c19161760098201555b600a8101805463ffff0000191690556001600160a01b03821661223a576122036044353414612f97565b6002546001600160a01b0316803b1561034057856040518092637a443e3d60e11b825281806117fb8a6044358a3360048601612ff1565b6122443415612f4b565b8460c43580612270575b50506002546118cd90604435906001600160a01b03908116903390861661301b565b6001600160a01b0384163b156104cd5760405163d505accf60e01b81523360048201523060248201526044803590820152606481019190915260e4803560ff1660848301526101043560a48301526101243560c48301528290829081836001600160a01b0389165af18015610344571561224e576122ed90612c3f565b6118be57843861224e565b0135905038806121c1565b60098501895260208920899450915b601f1984168510612357576001945083601f1981161061233d575b505050811b0160098201556121d9565b0135600019600384901b60f8161c1916905538808061232d565b81810135835560209485019460019093019201612312565b90915060098401885260208820601f840160051c8101602085106123b8575b90849392915b601f830160051c820181106123aa5750506121ac565b8a8155859450600101612394565b508061238e565b5060643560011461207a565b6123e06001600160a01b038416331415612ec4565b61206f565b50346101b95760203660031901126101b9578061024060405161240781612c52565b8281528260208201528260408201528260608201528260808201528260a08201528260c08201528260e0820152826101008201528261012082015282610140820152606061016082015282610180820152826101a0820152826101c0820152826101e08201528261020082015282610220820152015260043581526007602052604081206040519161249883612c52565b8154835260018201546124ad60ff8216612b4e565b60ff81811660208601526001600160a01b03600892831c811660408701526002850154811660608701526003850154166080860152600484015460a0860152600584015460c08601526006840154929190831610156126f6575060ff81811660e0850152600891821c6001600160a01b031661010085015260078301546101208501529082015461014084015290600d9061254a60098201612c8f565b61016085015282600a820154612561828216612b4e565b818116610180870152612578828260081c16612b4e565b818160081c166101a0870152818160101c1615156101c087015260181c1615156101e0850152600b810154610200850152600c81015461022085015201541615156102408201526040518091602082528051602083015260208101516125dd81612b4e565b604083015260018060a01b03604082015116606083015260018060a01b03606082015116608083015260018060a01b0360808201511660a083015260a081015160c083015260c081015160e083015261263f60e0820151610100840190612b58565b60018060a01b036101008201511661012083015261012081015161014083015261014081015161016083015261016081015161024061268d6102609283610180870152610280860190612b65565b9261018081015161269d81612b4e565b6101a08601526101a08101516126b281612b4e565b6101c08601526101c081015115156101e08601526101e081015115156102008601526102008101516102208601526102208101518286015201511515908301520390f35b634e487b7160e01b81526021600452602490fd5b50346101b95760207fced2684241c29578df8f7fbab74348d0053114fa157b900b2f1f4a1d4a2b339561273c36612b1f565b9290612746612d35565b6001600160a01b03169261275b8415156131d9565b838552600b825261082f81604087209060ff801983541691151516179055565b50346101b95760203660031901126101b957612795612af3565b61279d612d35565b6001600160a01b031680156127e557600480546001600160a01b031916821790557fba887708e7d4436dd36b62187bdced03e0b9abe66caf392a66dd84386641b2098280a280f35b60405162461bcd60e51b8152602060048201526011602482015270125b9d985b1a59081c9958da5c1a595b9d607a1b6044820152606490fd5b50346101b95760403660031901126101b95760243560043582526008602052604082208054821015610d2757602083600392608095522091020180549060ff60026001830154920154169060ff6040519360018060a01b038116855260a01c1615156020840152604083015215156060820152f35b50346101b95760203660031901126101b9576004356128b0612ea1565b8082526007602052604082206001810180546128d4600160ff831661022181612b4e565b6006830191825460ff811660088110156109a65760066128f49114613194565b60018060a01b03809360081c16938433148015612abf575b15612a6e57600760ff198093161790556001600d860191825416179055600484015493868360025416946002830195856003818954169501541690803b1561034f57838a916101049360405197889687956360dae9af60e11b875260048701526024860152604485015260648401528a608484015260c060a4840152602060c48401527f4d757475616c20726566756e642061677265656d656e7420616363657074656460e48401525af18015612a6357612a27575b5060208286937ff91aa0a9813cbc386975170e821fb6193d22ab6759de1354d8f4c4f7cf42ad91935460081c1694541694604051908152a433907ffd3d8eb8c74c125342483824fd0ad7e0033d5d74d8ed512a0b4fb798d38c685a8380a36001815580f35b8286937ff91aa0a9813cbc386975170e821fb6193d22ab6759de1354d8f4c4f7cf42ad919398612a58602094612c3f565b9893505092506129c2565b6040513d89823e3d90fd5b60405162461bcd60e51b815260206004820152602360248201527f4f6e6c79207061727469636970616e74732063616e20616363657074207265666044820152621d5b9960ea1b6064820152608490fd5b5083600287015416331461290c565b9050346104cd57816003193601126104cd576002546001600160a01b03168152602090f35b600435906001600160a01b038216820361121457565b602435906001600160a01b038216820361121457565b6040906003190112611214576004356001600160a01b0381168103611214579060243580151581036112145790565b60021115611b1157565b906008821015611b115752565b919082519283825260005b848110612b91575050826000602080949584010152601f8019910116010190565b602081830181015184830182015201612b70565b9181601f84011215611214578235916001600160401b038311611214576020838186019501011161121457565b9060406003198301126112145760043591602435906001600160401b03821161121457612c0191600401612ba5565b9091565b90600182811c92168015612c35575b6020831014612c1f57565b634e487b7160e01b600052602260045260246000fd5b91607f1691612c14565b6001600160401b03811161074457604052565b61026081019081106001600160401b0382111761074457604052565b90601f801991011681019081106001600160401b0382111761074457604052565b9060405191826000825492612ca384612c05565b908184526001948581169081600014612d125750600114612ccf575b5050612ccd92500383612c6e565b565b9093915060005260209081600020936000915b818310612cfa575050612ccd93508201013880612cbf565b85548884018501529485019487945091830191612ce2565b915050612ccd94506020925060ff191682840152151560051b8201013880612cbf565b6001546001600160a01b03163303612d4957565b60405163118cdaa760e01b8152336004820152602490fd5b15612d6857565b60405162461bcd60e51b8152602060048201526014602482015273151bdad95b881a5cc8189b1858dadb1a5cdd195960621b6044820152606490fd5b15612dab57565b60405162461bcd60e51b815260206004820152601160248201527005374616b65206d757374206265203e203607c1b6044820152606490fd5b15612deb57565b60405162461bcd60e51b815260206004820152601960248201527f506f696e747320726577617264206d757374206265203e2030000000000000006044820152606490fd5b15612e3757565b60405162461bcd60e51b815260206004820152601f60248201527f506f696e7473207265776172642063616e6e6f742065786365656420353030006044820152606490fd5b6000198114612e8b5760010190565b634e487b7160e01b600052601160045260246000fd5b600260005414612eb2576002600055565b604051633ee5aeb560e01b8152600490fd5b15612ecb57565b60405162461bcd60e51b815260206004820152601960248201527f43616e6e6f74206368616c6c656e676520796f757273656c66000000000000006044820152606490fd5b15612f1757565b60405162461bcd60e51b815260206004820152600c60248201526b496e76616c6964207369646560a01b6044820152606490fd5b15612f5257565b60405162461bcd60e51b815260206004820152601960248201527f446f206e6f742073656e642045544820666f72204552433230000000000000006044820152606490fd5b15612f9e57565b60405162461bcd60e51b815260206004820152601360248201527208aa89040c2dadeeadce840dad2e6dac2e8c6d606b1b6044820152606490fd5b90612fe381612b4e565b60ff80198354169116179055565b6001600160a01b039182168152911660208201526040810191909152606081019190915260800190565b6040516323b872dd60e01b60208201526001600160a01b03928316602482015292909116604483015260648083019390935291815260a08101918183106001600160401b0384111761074457612ccd926040525b906000602091828151910182855af1156130cb576000513d6130c257506001600160a01b0381163b155b6130a05750565b604051635274afe760e01b81526001600160a01b039091166004820152602490fd5b60011415613099565b6040513d6000823e3d90fd5b156130de57565b60405162461bcd60e51b81526020600482015260116024820152704e6f7420503250206368616c6c656e676560781b6044820152606490fd5b9061312181612b4e565b61ff0082549160081b169061ff001916179055565b1561313d57565b60405162461bcd60e51b815260206004820152600e60248201526d496e76616c69642073746174757360901b6044820152606490fd5b908060209392818452848401376000828201840152601f01601f1916010190565b1561319b57565b60405162461bcd60e51b815260206004820152601660248201527510da185b1b195b99d9481b9bdd08191a5cdc1d5d195960521b6044820152606490fd5b156131e057565b60405162461bcd60e51b815260206004820152600d60248201526c24b73b30b634b2103a37b5b2b760991b6044820152606490fdfeda802d1f712d76bc374130e717018a5b3a7ad3af3df40efa559a23b96a485067a26469706673582212207f1cad135e57eb734bee72d3801e3469d02d777d696c9454d1604ba9fb989fb664736f6c63430008140033","opcodes":"PUSH1 0x80 CALLVALUE PUSH3 0x1D8 JUMPI PUSH1 0x1F PUSH3 0x3474 CODESIZE DUP2 SWAP1 SUB SWAP2 DUP3 ADD PUSH1 0x1F NOT AND DUP4 ADD SWAP3 SWAP2 SWAP1 PUSH1 0x1 PUSH1 0x1 PUSH1 0x40 SHL SUB DUP5 GT DUP4 DUP6 LT OR PUSH3 0x1DD JUMPI DUP2 PUSH1 0x60 SWAP3 DUP5 SWAP3 PUSH1 0x40 SWAP7 DUP8 MSTORE DUP4 CODECOPY DUP2 ADD SUB SLT PUSH3 0x1D8 JUMPI DUP1 MLOAD PUSH1 0x1 PUSH1 0x1 PUSH1 0xA0 SHL SUB DUP1 DUP3 AND SWAP3 SWAP2 DUP4 SWAP1 SUB PUSH3 0x1D8 JUMPI PUSH3 0x78 DUP5 PUSH3 0x70 PUSH1 0x20 DUP6 ADD PUSH3 0x1F3 JUMP JUMPDEST SWAP4 ADD PUSH3 0x1F3 JUMP JUMPDEST SWAP1 PUSH1 0x1 PUSH1 0x0 SSTORE CALLER ISZERO PUSH3 0x1C0 JUMPI PUSH1 0x1 DUP1 SLOAD CALLER PUSH1 0x1 PUSH1 0x1 PUSH1 0xA0 SHL SUB NOT DUP1 DUP4 AND DUP3 OR SWAP1 SWAP4 SSTORE DUP8 MLOAD SWAP3 SWAP6 SWAP3 SWAP2 DUP5 AND PUSH32 0x8BE0079C531659141344CD1FD0A4F28419497F9722A3DAAFE3B4186F6B6457E0 PUSH1 0x0 DUP1 LOG3 PUSH1 0x1 PUSH1 0x5 SSTORE PUSH1 0xA PUSH1 0x6 SSTORE DUP6 ISZERO PUSH3 0x18D JUMPI POP DUP2 AND SWAP2 DUP3 ISZERO PUSH3 0x159 JUMPI AND SWAP3 DUP4 ISZERO PUSH3 0x115 JUMPI DUP3 PUSH1 0x2 SLOAD AND OR PUSH1 0x2 SSTORE DUP2 PUSH1 0x3 SLOAD AND OR PUSH1 0x3 SSTORE PUSH1 0x4 SLOAD AND OR PUSH1 0x4 SSTORE MLOAD PUSH2 0x326B SWAP1 DUP2 PUSH3 0x209 DUP3 CODECOPY RETURN JUMPDEST DUP5 MLOAD PUSH3 0x461BCD PUSH1 0xE5 SHL DUP2 MSTORE PUSH1 0x20 PUSH1 0x4 DUP3 ADD MSTORE PUSH1 0x15 PUSH1 0x24 DUP3 ADD MSTORE PUSH32 0x496E76616C69642066656520726563697069656E740000000000000000000000 PUSH1 0x44 DUP3 ADD MSTORE PUSH1 0x64 SWAP1 REVERT JUMPDEST DUP6 MLOAD PUSH3 0x461BCD PUSH1 0xE5 SHL DUP2 MSTORE PUSH1 0x20 PUSH1 0x4 DUP3 ADD MSTORE PUSH1 0xD PUSH1 0x24 DUP3 ADD MSTORE PUSH13 0x24B73B30B634B21030B236B4B7 PUSH1 0x99 SHL PUSH1 0x44 DUP3 ADD MSTORE PUSH1 0x64 SWAP1 REVERT JUMPDEST PUSH3 0x461BCD PUSH1 0xE5 SHL DUP2 MSTORE PUSH1 0x20 PUSH1 0x4 DUP3 ADD MSTORE PUSH1 0xE PUSH1 0x24 DUP3 ADD MSTORE PUSH14 0x496E76616C696420657363726F77 PUSH1 0x90 SHL PUSH1 0x44 DUP3 ADD MSTORE PUSH1 0x64 SWAP1 REVERT JUMPDEST DUP5 MLOAD PUSH4 0x1E4FBDF7 PUSH1 0xE0 SHL DUP2 MSTORE PUSH1 0x0 PUSH1 0x4 DUP3 ADD MSTORE PUSH1 0x24 SWAP1 REVERT JUMPDEST PUSH1 0x0 DUP1 REVERT JUMPDEST PUSH4 0x4E487B71 PUSH1 0xE0 SHL PUSH1 0x0 MSTORE PUSH1 0x41 PUSH1 0x4 MSTORE PUSH1 0x24 PUSH1 0x0 REVERT JUMPDEST MLOAD SWAP1 PUSH1 0x1 PUSH1 0x1 PUSH1 0xA0 SHL SUB DUP3 AND DUP3 SUB PUSH3 0x1D8 JUMPI JUMP INVALID PUSH1 0x80 DUP1 PUSH1 0x40 MSTORE PUSH1 0x4 CALLDATASIZE LT ISZERO PUSH2 0x1D JUMPI JUMPDEST POP CALLDATASIZE ISZERO PUSH2 0x1B JUMPI PUSH1 0x0 DUP1 REVERT JUMPDEST STOP JUMPDEST PUSH1 0x0 SWAP1 DUP2 CALLDATALOAD PUSH1 0xE0 SHR SWAP1 DUP2 PUSH4 0x17B975B EQ PUSH2 0x2ACE JUMPI POP DUP1 PUSH4 0x28DF0D4 EQ PUSH2 0x2893 JUMPI DUP1 PUSH4 0xD8D2D08 EQ PUSH2 0x281E JUMPI DUP1 PUSH4 0x1871E243 EQ PUSH2 0x277B JUMPI DUP1 PUSH4 0x190E4C55 EQ PUSH2 0x270A JUMPI DUP1 PUSH4 0x1BAAAFFE EQ PUSH2 0x561 JUMPI DUP1 PUSH4 0x1BDD4B74 EQ PUSH2 0x23E5 JUMPI DUP1 PUSH4 0x2880D769 EQ PUSH2 0x200A JUMPI DUP1 PUSH4 0x3AE5EF0E EQ PUSH2 0x1E2C JUMPI DUP1 PUSH4 0x44C7D6EF EQ PUSH2 0x1C8C JUMPI DUP1 PUSH4 0x4B117E32 EQ PUSH2 0x1B82 JUMPI DUP1 PUSH4 0x5C8B5F44 EQ PUSH2 0x83B JUMPI DUP1 PUSH4 0x62193BC8 EQ PUSH2 0x159E JUMPI DUP1 PUSH4 0x68A2B7DE EQ PUSH2 0x13B2 JUMPI DUP1 PUSH4 0x69249FBA EQ PUSH2 0x1574 JUMPI DUP1 PUSH4 0x704B6C02 EQ PUSH2 0x14D5 JUMPI DUP1 PUSH4 0x715018A6 EQ PUSH2 0x1477 JUMPI DUP1 PUSH4 0x8333903E EQ PUSH2 0x13EB JUMPI DUP1 PUSH4 0x86FF06E7 EQ PUSH2 0x13B2 JUMPI DUP1 PUSH4 0x8DA5CB5B EQ PUSH2 0x1389 JUMPI DUP1 PUSH4 0x8F1D3776 EQ PUSH2 0x1219 JUMPI DUP1 PUSH4 0x907CC00C EQ PUSH2 0xD2B JUMPI DUP1 PUSH4 0xC25D8B7B EQ PUSH2 0xA8B JUMPI DUP1 PUSH4 0xC5AC3D4B EQ PUSH2 0x898 JUMPI DUP1 PUSH4 0xCDD78CFC EQ PUSH2 0x87A JUMPI DUP1 PUSH4 0xCE9BE9BA EQ PUSH2 0x83B JUMPI DUP1 PUSH4 0xD2D66482 EQ PUSH2 0x7BE JUMPI DUP1 PUSH4 0xEB13554F EQ PUSH2 0x795 JUMPI DUP1 PUSH4 0xEC3889B5 EQ PUSH2 0x5A0 JUMPI DUP1 PUSH4 0xEC867B27 EQ PUSH2 0x561 JUMPI DUP1 PUSH4 0xF2FDE38B EQ PUSH2 0x4D1 JUMPI DUP1 PUSH4 0xF4A947EF EQ PUSH2 0x1E5 JUMPI DUP1 PUSH4 0xF851A440 EQ PUSH2 0x1BC JUMPI PUSH4 0xFC67AA50 SUB PUSH2 0xF JUMPI CALLVALUE PUSH2 0x1B9 JUMPI DUP1 PUSH1 0x3 NOT CALLDATASIZE ADD SLT PUSH2 0x1B9 JUMPI PUSH1 0x20 PUSH1 0x5 SLOAD PUSH1 0x40 MLOAD SWAP1 DUP2 MSTORE RETURN JUMPDEST DUP1 REVERT JUMPDEST POP CALLVALUE PUSH2 0x1B9 JUMPI DUP1 PUSH1 0x3 NOT CALLDATASIZE ADD SLT PUSH2 0x1B9 JUMPI PUSH1 0x3 SLOAD PUSH1 0x40 MLOAD PUSH1 0x1 PUSH1 0x1 PUSH1 0xA0 SHL SUB SWAP1 SWAP2 AND DUP2 MSTORE PUSH1 0x20 SWAP1 RETURN JUMPDEST POP PUSH1 0x20 DUP1 PUSH1 0x3 NOT CALLDATASIZE ADD SLT PUSH2 0x4CD JUMPI PUSH1 0x4 CALLDATALOAD PUSH2 0x1FE PUSH2 0x2EA1 JUMP JUMPDEST DUP1 DUP4 MSTORE PUSH1 0x7 DUP3 MSTORE PUSH1 0x40 DUP4 KECCAK256 PUSH1 0x1 DUP2 ADD SLOAD SWAP1 PUSH2 0x227 PUSH1 0x1 PUSH1 0xFF DUP5 AND PUSH2 0x221 DUP2 PUSH2 0x2B4E JUMP JUMPDEST EQ PUSH2 0x30D7 JUMP JUMPDEST PUSH1 0x6 DUP2 ADD SWAP2 PUSH1 0xFF DUP4 SLOAD AND PUSH1 0x8 DUP2 LT ISZERO PUSH2 0x4B9 JUMPI PUSH1 0x1 PUSH2 0x246 SWAP2 EQ PUSH2 0x3136 JUMP JUMPDEST PUSH1 0x1 PUSH1 0x1 PUSH1 0xA0 SHL SUB SWAP1 PUSH1 0x8 SHR DUP2 AND CALLER SUB PUSH2 0x474 JUMPI PUSH1 0xA DUP3 ADD SWAP1 DUP2 SLOAD PUSH1 0xFF DUP2 PUSH1 0x10 SHR AND PUSH2 0x436 JUMPI PUSH1 0x18 SHR PUSH1 0xFF AND ISZERO PUSH2 0x3F1 JUMPI PUSH1 0x3 DUP4 ADD DUP1 SLOAD DUP9 SWAP3 SWAP1 DUP2 AND DUP1 PUSH2 0x353 JUMPI POP PUSH1 0x4 DUP6 ADD SLOAD SWAP1 PUSH2 0x299 DUP3 CALLVALUE EQ PUSH2 0x2F97 JUMP JUMPDEST DUP1 PUSH1 0x2 SLOAD AND SWAP3 SLOAD AND DUP3 EXTCODESIZE ISZERO PUSH2 0x34F JUMPI PUSH2 0x2CF SWAP3 DUP3 DUP6 SWAP4 DUP11 SWAP4 PUSH1 0x40 MLOAD SWAP7 DUP8 SWAP6 DUP7 SWAP5 DUP6 SWAP4 PUSH4 0x7A443E3D PUSH1 0xE1 SHL DUP6 MSTORE CALLER PUSH1 0x4 DUP7 ADD PUSH2 0x2FF1 JUMP JUMPDEST SUB SWAP3 GAS CALL DUP1 ISZERO PUSH2 0x344 JUMPI PUSH2 0x328 JUMPI JUMPDEST POP POP SWAP1 PUSH1 0x0 DUP1 MLOAD PUSH1 0x20 PUSH2 0x3216 DUP4 CODECOPY DUP2 MLOAD SWAP2 MSTORE SWAP3 PUSH1 0x4 SWAP3 JUMPDEST DUP1 SLOAD PUSH3 0xFF0000 NOT AND PUSH3 0x10000 OR SWAP1 SSTORE TIMESTAMP PUSH1 0xB DUP4 ADD SSTORE DUP1 SLOAD PUSH1 0xFF NOT AND PUSH1 0x2 OR SWAP1 SSTORE ADD SLOAD PUSH1 0x40 MLOAD SWAP1 DUP2 MSTORE CALLER SWAP4 SWAP1 LOG3 PUSH1 0x1 DUP2 SSTORE DUP1 RETURN JUMPDEST PUSH2 0x334 SWAP1 SWAP4 SWAP3 SWAP4 PUSH2 0x2C3F JUMP JUMPDEST PUSH2 0x340 JUMPI SWAP1 DUP6 CODESIZE PUSH2 0x2DE JUMP JUMPDEST DUP6 DUP1 REVERT JUMPDEST PUSH1 0x40 MLOAD RETURNDATASIZE DUP5 DUP3 RETURNDATACOPY RETURNDATASIZE SWAP1 REVERT JUMPDEST DUP4 DUP1 REVERT JUMPDEST SWAP1 PUSH2 0x35E CALLVALUE ISZERO PUSH2 0x2F4B JUMP JUMPDEST PUSH2 0x376 DUP2 PUSH1 0x2 SLOAD AND SWAP3 PUSH1 0x4 DUP9 ADD SWAP4 DUP5 SLOAD SWAP2 CALLER SWAP1 PUSH2 0x301B JUMP JUMPDEST DUP1 PUSH1 0x2 SLOAD AND SWAP3 SLOAD AND SWAP1 SLOAD SWAP1 DUP3 EXTCODESIZE ISZERO PUSH2 0x34F JUMPI PUSH2 0x3AF SWAP3 DUP5 SWAP3 DUP4 DUP11 SWAP4 PUSH1 0x40 MLOAD SWAP7 DUP8 SWAP6 DUP7 SWAP5 DUP6 SWAP4 PUSH4 0x7A443E3D PUSH1 0xE1 SHL DUP6 MSTORE CALLER PUSH1 0x4 DUP7 ADD PUSH2 0x2FF1 JUMP JUMPDEST SUB SWAP3 GAS CALL DUP1 ISZERO PUSH2 0x344 JUMPI PUSH2 0x3D9 JUMPI JUMPDEST POP POP SWAP1 PUSH1 0x0 DUP1 MLOAD PUSH1 0x20 PUSH2 0x3216 DUP4 CODECOPY DUP2 MLOAD SWAP2 MSTORE SWAP3 PUSH1 0x4 SWAP3 PUSH2 0x2F5 JUMP JUMPDEST PUSH2 0x3E5 SWAP1 SWAP4 SWAP3 SWAP4 PUSH2 0x2C3F JUMP JUMPDEST PUSH2 0x340 JUMPI SWAP1 DUP6 CODESIZE PUSH2 0x3BE JUMP JUMPDEST PUSH1 0x40 MLOAD PUSH3 0x461BCD PUSH1 0xE5 SHL DUP2 MSTORE PUSH1 0x4 DUP2 ADD DUP8 SWAP1 MSTORE PUSH1 0x1E PUSH1 0x24 DUP3 ADD MSTORE PUSH32 0x5061727469636970616E7420686173206E6F74207374616B6564207965740000 PUSH1 0x44 DUP3 ADD MSTORE PUSH1 0x64 SWAP1 REVERT JUMPDEST PUSH1 0x40 MLOAD PUSH3 0x461BCD PUSH1 0xE5 SHL DUP2 MSTORE PUSH1 0x4 DUP2 ADD DUP9 SWAP1 MSTORE PUSH1 0x16 PUSH1 0x24 DUP3 ADD MSTORE PUSH22 0x10DC99585D1BDC88185B1C9958591E481CDD185AD959 PUSH1 0x52 SHL PUSH1 0x44 DUP3 ADD MSTORE PUSH1 0x64 SWAP1 REVERT JUMPDEST PUSH1 0x40 MLOAD PUSH3 0x461BCD PUSH1 0xE5 SHL DUP2 MSTORE PUSH1 0x4 DUP2 ADD DUP7 SWAP1 MSTORE PUSH1 0x1B PUSH1 0x24 DUP3 ADD MSTORE PUSH32 0x4F6E6C792063726561746F722063616E206C6F636B207374616B650000000000 PUSH1 0x44 DUP3 ADD MSTORE PUSH1 0x64 SWAP1 REVERT JUMPDEST PUSH4 0x4E487B71 PUSH1 0xE0 SHL DUP8 MSTORE PUSH1 0x21 PUSH1 0x4 MSTORE PUSH1 0x24 DUP8 REVERT JUMPDEST POP DUP1 REVERT JUMPDEST POP CALLVALUE PUSH2 0x1B9 JUMPI PUSH1 0x20 CALLDATASIZE PUSH1 0x3 NOT ADD SLT PUSH2 0x1B9 JUMPI PUSH2 0x4EB PUSH2 0x2AF3 JUMP JUMPDEST PUSH2 0x4F3 PUSH2 0x2D35 JUMP JUMPDEST PUSH1 0x1 PUSH1 0x1 PUSH1 0xA0 SHL SUB SWAP1 DUP2 AND SWAP1 DUP2 ISZERO PUSH2 0x548 JUMPI PUSH1 0x1 SLOAD DUP3 PUSH12 0xFFFFFFFFFFFFFFFFFFFFFFFF PUSH1 0xA0 SHL DUP3 AND OR PUSH1 0x1 SSTORE AND PUSH32 0x8BE0079C531659141344CD1FD0A4F28419497F9722A3DAAFE3B4186F6B6457E0 PUSH1 0x0 DUP1 LOG3 DUP1 RETURN JUMPDEST PUSH1 0x40 MLOAD PUSH4 0x1E4FBDF7 PUSH1 0xE0 SHL DUP2 MSTORE PUSH1 0x4 DUP2 ADD DUP5 SWAP1 MSTORE PUSH1 0x24 SWAP1 REVERT JUMPDEST POP CALLVALUE PUSH2 0x1B9 JUMPI PUSH1 0x20 CALLDATASIZE PUSH1 0x3 NOT ADD SLT PUSH2 0x1B9 JUMPI PUSH1 0x20 SWAP1 PUSH1 0xFF SWAP1 PUSH1 0x40 SWAP1 PUSH1 0x1 PUSH1 0x1 PUSH1 0xA0 SHL SUB PUSH2 0x58C PUSH2 0x2AF3 JUMP JUMPDEST AND DUP2 MSTORE PUSH1 0xA DUP5 MSTORE KECCAK256 SLOAD AND PUSH1 0x40 MLOAD SWAP1 ISZERO ISZERO DUP2 MSTORE RETURN JUMPDEST POP CALLVALUE PUSH2 0x1B9 JUMPI PUSH1 0x20 DUP1 PUSH1 0x3 NOT CALLDATASIZE ADD SLT PUSH2 0x4CD JUMPI PUSH2 0x5BB PUSH2 0x2AF3 JUMP JUMPDEST SWAP1 PUSH2 0x5C4 PUSH2 0x2D35 JUMP JUMPDEST PUSH2 0x5CC PUSH2 0x2EA1 JUMP JUMPDEST PUSH1 0x1 PUSH1 0x1 PUSH1 0xA0 SHL SUB SWAP2 DUP3 AND DUP1 DUP5 MSTORE PUSH1 0xC DUP3 MSTORE PUSH1 0x40 DUP5 KECCAK256 SLOAD SWAP3 SWAP1 SWAP2 SWAP1 DUP4 ISZERO PUSH2 0x75A JUMPI DUP3 DUP6 MSTORE PUSH1 0xC DUP3 MSTORE DUP5 PUSH1 0x40 DUP2 KECCAK256 SSTORE DUP3 ISZERO PUSH1 0x0 EQ PUSH2 0x6D4 JUMPI DUP5 DUP1 DUP1 DUP1 DUP8 DUP6 PUSH1 0x4 SLOAD AND GAS CALL RETURNDATASIZE ISZERO PUSH2 0x6CF JUMPI RETURNDATASIZE PUSH1 0x1 PUSH1 0x1 PUSH1 0x40 SHL SUB DUP2 GT PUSH2 0x6BB JUMPI PUSH1 0x40 MLOAD SWAP1 PUSH2 0x63B PUSH1 0x1F DUP3 ADD PUSH1 0x1F NOT AND DUP7 ADD DUP4 PUSH2 0x2C6E JUMP JUMPDEST DUP2 MSTORE DUP7 DUP5 RETURNDATASIZE SWAP3 ADD RETURNDATACOPY JUMPDEST ISZERO PUSH2 0x680 JUMPI SWAP1 PUSH32 0x8273342A380B5301480C28BA6B7DFB7BFDA23BFD871714C935E45A15E9CB823 SWAP2 JUMPDEST PUSH1 0x4 SLOAD AND SWAP4 PUSH1 0x40 MLOAD SWAP1 DUP2 MSTORE LOG3 PUSH1 0x1 DUP2 SSTORE DUP1 RETURN JUMPDEST PUSH1 0x40 MLOAD PUSH3 0x461BCD PUSH1 0xE5 SHL DUP2 MSTORE PUSH1 0x4 DUP2 ADD DUP4 SWAP1 MSTORE PUSH1 0x13 PUSH1 0x24 DUP3 ADD MSTORE PUSH19 0x115512081D1C985B9CD9995C8819985A5B1959 PUSH1 0x6A SHL PUSH1 0x44 DUP3 ADD MSTORE PUSH1 0x64 SWAP1 REVERT JUMPDEST PUSH4 0x4E487B71 PUSH1 0xE0 SHL DUP8 MSTORE PUSH1 0x41 PUSH1 0x4 MSTORE PUSH1 0x24 DUP8 REVERT JUMPDEST PUSH2 0x644 JUMP JUMPDEST PUSH1 0x4 SLOAD PUSH1 0x40 MLOAD PUSH4 0xA9059CBB PUSH1 0xE0 SHL DUP2 DUP6 ADD MSTORE SWAP1 DUP3 AND PUSH1 0x24 DUP3 ADD MSTORE PUSH1 0x44 DUP1 DUP3 ADD DUP7 SWAP1 MSTORE DUP2 MSTORE SWAP2 SWAP1 PUSH1 0x80 DUP4 ADD PUSH1 0x1 PUSH1 0x1 PUSH1 0x40 SHL SUB DUP2 GT DUP5 DUP3 LT OR PUSH2 0x744 JUMPI PUSH32 0x8273342A380B5301480C28BA6B7DFB7BFDA23BFD871714C935E45A15E9CB823 SWAP4 PUSH2 0x73F SWAP2 PUSH1 0x40 MSTORE DUP6 PUSH2 0x306F JUMP JUMPDEST PUSH2 0x66D JUMP JUMPDEST PUSH4 0x4E487B71 PUSH1 0xE0 SHL PUSH1 0x0 MSTORE PUSH1 0x41 PUSH1 0x4 MSTORE PUSH1 0x24 PUSH1 0x0 REVERT JUMPDEST PUSH1 0x40 MLOAD PUSH3 0x461BCD PUSH1 0xE5 SHL DUP2 MSTORE PUSH1 0x4 DUP2 ADD DUP4 SWAP1 MSTORE PUSH1 0x13 PUSH1 0x24 DUP3 ADD MSTORE PUSH19 0x4E6F206665657320746F207769746864726177 PUSH1 0x68 SHL PUSH1 0x44 DUP3 ADD MSTORE PUSH1 0x64 SWAP1 REVERT JUMPDEST POP CALLVALUE PUSH2 0x1B9 JUMPI DUP1 PUSH1 0x3 NOT CALLDATASIZE ADD SLT PUSH2 0x1B9 JUMPI PUSH1 0x4 SLOAD PUSH1 0x40 MLOAD PUSH1 0x1 PUSH1 0x1 PUSH1 0xA0 SHL SUB SWAP1 SWAP2 AND DUP2 MSTORE PUSH1 0x20 SWAP1 RETURN JUMPDEST POP CALLVALUE PUSH2 0x1B9 JUMPI PUSH1 0x20 PUSH32 0xD128F4457567637D4D9A19A54A44A6E47BA1ED0CC875B3CFF7B762C8BB27B416 PUSH2 0x7F0 CALLDATASIZE PUSH2 0x2B1F JUMP JUMPDEST SWAP3 SWAP1 PUSH2 0x7FA PUSH2 0x2D35 JUMP JUMPDEST PUSH1 0x1 PUSH1 0x1 PUSH1 0xA0 SHL SUB AND SWAP3 PUSH2 0x80F DUP5 ISZERO ISZERO PUSH2 0x31D9 JUMP JUMPDEST DUP4 DUP6 MSTORE PUSH1 0xA DUP3 MSTORE PUSH2 0x82F DUP2 PUSH1 0x40 DUP8 KECCAK256 SWAP1 PUSH1 0xFF DUP1 NOT DUP4 SLOAD AND SWAP2 ISZERO ISZERO AND OR SWAP1 SSTORE JUMP JUMPDEST PUSH1 0x40 MLOAD SWAP1 ISZERO ISZERO DUP2 MSTORE LOG2 DUP1 RETURN JUMPDEST POP CALLVALUE PUSH2 0x1B9 JUMPI PUSH1 0x20 CALLDATASIZE PUSH1 0x3 NOT ADD SLT PUSH2 0x1B9 JUMPI PUSH1 0x20 SWAP1 PUSH1 0xFF SWAP1 PUSH1 0x40 SWAP1 PUSH1 0x1 PUSH1 0x1 PUSH1 0xA0 SHL SUB PUSH2 0x866 PUSH2 0x2AF3 JUMP JUMPDEST AND DUP2 MSTORE PUSH1 0xB DUP5 MSTORE KECCAK256 SLOAD AND PUSH1 0x40 MLOAD SWAP1 ISZERO ISZERO DUP2 MSTORE RETURN JUMPDEST POP CALLVALUE PUSH2 0x1B9 JUMPI DUP1 PUSH1 0x3 NOT CALLDATASIZE ADD SLT PUSH2 0x1B9 JUMPI PUSH1 0x20 PUSH1 0x6 SLOAD PUSH1 0x40 MLOAD SWAP1 DUP2 MSTORE RETURN JUMPDEST POP CALLVALUE PUSH2 0x1B9 JUMPI PUSH2 0x8A7 CALLDATASIZE PUSH2 0x2BD2 JUMP JUMPDEST SWAP2 SWAP1 PUSH2 0x8B1 PUSH2 0x2EA1 JUMP JUMPDEST DUP2 DUP5 MSTORE PUSH1 0x7 PUSH1 0x20 MSTORE PUSH1 0x40 DUP5 KECCAK256 PUSH1 0x1 DUP2 ADD SLOAD PUSH2 0x8D4 PUSH1 0x1 PUSH1 0xFF DUP4 AND PUSH2 0x221 DUP2 PUSH2 0x2B4E JUMP JUMPDEST PUSH1 0xA DUP3 ADD SLOAD PUSH1 0xFF DUP2 PUSH1 0x10 SHR AND SWAP1 DUP2 PUSH2 0xA7D JUMPI JUMPDEST POP ISZERO PUSH2 0xA40 JUMPI PUSH1 0x6 DUP3 ADD SWAP1 DUP2 SLOAD SWAP1 PUSH1 0xFF DUP3 AND SWAP1 PUSH1 0x8 DUP3 LT ISZERO SWAP1 DUP2 PUSH2 0xA2C JUMPI PUSH1 0x2 DUP4 EQ DUP1 SWAP4 DUP2 ISZERO PUSH2 0xA1B JUMPI JUMPDEST POP PUSH2 0x91C SWAP1 PUSH2 0x3136 JUMP JUMPDEST PUSH1 0x1 DUP1 PUSH1 0xA0 SHL SUB DUP1 SWAP2 PUSH1 0x8 SHR AND CALLER EQ SWAP1 DUP2 ISZERO PUSH2 0xA0B JUMPI JUMPDEST POP ISZERO PUSH2 0x9BA JUMPI PUSH2 0x9A6 JUMPI SWAP2 PUSH2 0x984 SWAP4 SWAP2 PUSH32 0x5A28917ADA7E719E75DEB413B0EDDFB869B62C4CF3808ECD3C5CEB107B882450 SWAP6 SWAP4 PUSH2 0x98E JUMPI JUMPDEST POP POP POP PUSH1 0x40 MLOAD SWAP2 DUP3 SWAP2 PUSH1 0x20 DUP4 MSTORE CALLER SWAP7 PUSH1 0x20 DUP5 ADD SWAP2 PUSH2 0x3173 JUMP JUMPDEST SUB SWAP1 LOG3 PUSH1 0x1 DUP2 SSTORE DUP1 RETURN JUMPDEST PUSH1 0x6 SWAP1 PUSH1 0xFF NOT AND OR SWAP1 SSTORE PUSH1 0xC TIMESTAMP SWAP2 ADD SSTORE CODESIZE DUP1 DUP1 PUSH2 0x96B JUMP JUMPDEST PUSH4 0x4E487B71 PUSH1 0xE0 SHL DUP9 MSTORE PUSH1 0x21 PUSH1 0x4 MSTORE PUSH1 0x24 DUP9 REVERT JUMPDEST PUSH1 0x40 MLOAD PUSH3 0x461BCD PUSH1 0xE5 SHL DUP2 MSTORE PUSH1 0x20 PUSH1 0x4 DUP3 ADD MSTORE PUSH1 0x24 DUP1 DUP3 ADD MSTORE PUSH32 0x4F6E6C79207061727469636970616E74732063616E2072657175657374207265 PUSH1 0x44 DUP3 ADD MSTORE PUSH4 0x199D5B99 PUSH1 0xE2 SHL PUSH1 0x64 DUP3 ADD MSTORE PUSH1 0x84 SWAP1 REVERT JUMPDEST SWAP1 POP PUSH1 0x2 DUP7 ADD SLOAD AND CALLER EQ CODESIZE PUSH2 0x933 JUMP JUMPDEST PUSH1 0x0 SWAP4 POP PUSH1 0x6 EQ SWAP1 POP PUSH2 0x91C PUSH2 0x912 JUMP JUMPDEST PUSH4 0x4E487B71 PUSH1 0xE0 SHL DUP11 MSTORE PUSH1 0x21 PUSH1 0x4 MSTORE PUSH1 0x24 DUP11 REVERT JUMPDEST PUSH1 0x40 MLOAD PUSH3 0x461BCD PUSH1 0xE5 SHL DUP2 MSTORE PUSH1 0x20 PUSH1 0x4 DUP3 ADD MSTORE PUSH1 0x15 PUSH1 0x24 DUP3 ADD MSTORE PUSH21 0x109BDD1A081B5D5CDD081A185D99481CDD185AD959 PUSH1 0x5A SHL PUSH1 0x44 DUP3 ADD MSTORE PUSH1 0x64 SWAP1 REVERT JUMPDEST PUSH1 0xFF SWAP2 POP PUSH1 0x18 SHR AND CODESIZE PUSH2 0x8E7 JUMP JUMPDEST POP CALLVALUE PUSH2 0x1B9 JUMPI PUSH1 0x80 CALLDATASIZE PUSH1 0x3 NOT ADD SLT PUSH2 0x1B9 JUMPI PUSH2 0xAA5 PUSH2 0x2AF3 JUMP JUMPDEST PUSH1 0x1 PUSH1 0x1 PUSH1 0x40 SHL SUB SWAP2 PUSH1 0x24 CALLDATALOAD SWAP2 SWAP1 PUSH1 0x44 CALLDATALOAD PUSH1 0x64 CALLDATALOAD DUP6 DUP2 GT PUSH2 0xD27 JUMPI PUSH2 0xACE SWAP1 CALLDATASIZE SWAP1 PUSH1 0x4 ADD PUSH2 0x2BA5 JUMP JUMPDEST SWAP5 SWAP1 SWAP4 PUSH2 0xAD9 PUSH2 0x2D35 JUMP JUMPDEST PUSH2 0xAE1 PUSH2 0x2EA1 JUMP JUMPDEST PUSH1 0x1 PUSH1 0x1 PUSH1 0xA0 SHL SUB AND SWAP2 DUP3 ISZERO PUSH2 0xCEA JUMPI DUP3 DUP5 MSTORE PUSH1 0x20 SWAP7 PUSH1 0xB DUP9 MSTORE PUSH2 0xB0C PUSH1 0xFF PUSH1 0x40 DUP8 KECCAK256 SLOAD AND ISZERO PUSH2 0x2D61 JUMP JUMPDEST PUSH2 0xB17 DUP4 ISZERO ISZERO PUSH2 0x2DA4 JUMP JUMPDEST PUSH2 0xB22 DUP3 ISZERO ISZERO PUSH2 0x2DE4 JUMP JUMPDEST PUSH2 0xB30 PUSH2 0x1F4 DUP4 GT ISZERO PUSH2 0x2E30 JUMP JUMPDEST PUSH1 0x5 SLOAD SWAP7 PUSH2 0xB3D DUP9 PUSH2 0x2E7C JUMP JUMPDEST PUSH1 0x5 SSTORE DUP8 DUP7 MSTORE PUSH1 0x7 DUP10 MSTORE PUSH1 0x40 DUP7 KECCAK256 DUP9 DUP2 SSTORE PUSH1 0x1 DUP1 DUP3 ADD DUP1 SLOAD PUSH1 0x1 PUSH1 0x1 PUSH1 0xA8 SHL SUB NOT AND CALLER PUSH1 0x8 SHL PUSH2 0x100 PUSH1 0x1 PUSH1 0xA8 SHL SUB AND OR SWAP1 SSTORE SWAP8 SWAP1 PUSH1 0x9 SWAP1 PUSH1 0xFF NOT PUSH1 0x3 DUP3 ADD DUP10 PUSH12 0xFFFFFFFFFFFFFFFFFFFFFFFF PUSH1 0xA0 SHL DUP3 SLOAD AND OR SWAP1 SSTORE DUP8 PUSH1 0x4 DUP4 ADD SSTORE DUP7 PUSH1 0x5 DUP4 ADD SSTORE PUSH1 0x6 DUP3 ADD SWAP1 DUP2 SLOAD AND SWAP1 SSTORE TIMESTAMP PUSH1 0x7 DUP3 ADD SSTORE ADD SWAP3 DUP3 GT PUSH2 0x6BB JUMPI DUP2 SWAP1 PUSH2 0xBC3 DUP5 SLOAD PUSH2 0x2C05 JUMP JUMPDEST PUSH1 0x1F DUP2 GT PUSH2 0xC9A JUMPI JUMPDEST POP DUP8 SWAP1 PUSH1 0x1F DUP4 GT PUSH1 0x1 EQ PUSH2 0xC3A JUMPI DUP9 SWAP3 PUSH2 0xC2F JUMPI JUMPDEST POP POP PUSH1 0x0 NOT PUSH1 0x3 DUP4 SWAP1 SHL SHR NOT AND SWAP1 DUP8 SHL OR SWAP1 SSTORE JUMPDEST PUSH1 0x40 MLOAD SWAP2 DUP3 MSTORE DUP7 DUP3 ADD MSTORE DUP5 PUSH32 0xAC61621ED399481A7FDD906A7B94C9D3667DEE8643E9C121E783B860A3F2282D PUSH1 0x40 CALLER SWAP4 LOG4 SSTORE PUSH1 0x40 MLOAD SWAP1 DUP2 MSTORE RETURN JUMPDEST ADD CALLDATALOAD SWAP1 POP CODESIZE DUP1 PUSH2 0xBE1 JUMP JUMPDEST DUP5 DUP10 MSTORE DUP12 DUP10 KECCAK256 DUP11 SWAP5 POP SWAP2 PUSH1 0x1F NOT DUP5 AND DUP11 DUP15 JUMPDEST DUP3 DUP3 LT PUSH2 0xC83 JUMPI POP POP DUP5 GT PUSH2 0xC69 JUMPI JUMPDEST POP POP POP DUP2 SHL ADD SWAP1 SSTORE PUSH2 0xBF5 JUMP JUMPDEST ADD CALLDATALOAD PUSH1 0x0 NOT PUSH1 0x3 DUP5 SWAP1 SHL PUSH1 0xF8 AND SHR NOT AND SWAP1 SSTORE CODESIZE DUP1 DUP1 PUSH2 0xC5C JUMP JUMPDEST DUP4 DUP6 ADD CALLDATALOAD DUP7 SSTORE DUP14 SWAP8 SWAP1 SWAP6 ADD SWAP5 SWAP3 DUP4 ADD SWAP3 ADD DUP15 PUSH2 0xC4C JUMP JUMPDEST SWAP1 SWAP2 POP DUP4 DUP9 MSTORE DUP11 DUP9 KECCAK256 PUSH1 0x1F DUP5 ADD PUSH1 0x5 SHR DUP2 ADD SWAP2 DUP13 DUP6 LT PUSH2 0xCE0 JUMPI JUMPDEST DUP5 SWAP4 SWAP3 SWAP2 PUSH1 0x1F DUP13 SWAP3 ADD PUSH1 0x5 SHR ADD SWAP2 JUMPDEST DUP3 DUP2 LT PUSH2 0xCD2 JUMPI POP POP PUSH2 0xBCC JUMP JUMPDEST DUP11 DUP2 SSTORE DUP6 SWAP5 POP DUP12 SWAP2 ADD PUSH2 0xCC4 JUMP JUMPDEST SWAP1 SWAP2 POP DUP2 SWAP1 PUSH2 0xCB5 JUMP JUMPDEST PUSH1 0x40 MLOAD PUSH3 0x461BCD PUSH1 0xE5 SHL DUP2 MSTORE PUSH1 0x20 PUSH1 0x4 DUP3 ADD MSTORE PUSH1 0x15 PUSH1 0x24 DUP3 ADD MSTORE PUSH21 0x24B73B30B634B2103830BCB6B2B73A103A37B5B2B7 PUSH1 0x59 SHL PUSH1 0x44 DUP3 ADD MSTORE PUSH1 0x64 SWAP1 REVERT JUMPDEST DUP3 DUP1 REVERT JUMPDEST POP PUSH1 0xC0 CALLDATASIZE PUSH1 0x3 NOT ADD SLT PUSH2 0x1B9 JUMPI PUSH1 0x64 PUSH1 0xFF DUP2 CALLDATALOAD AND DUP2 CALLDATALOAD SUB PUSH2 0x1214 JUMPI PUSH2 0xD4E PUSH2 0x2EA1 JUMP JUMPDEST PUSH1 0x4 CALLDATALOAD DUP3 MSTORE PUSH1 0x7 PUSH1 0x20 MSTORE PUSH1 0x40 DUP3 KECCAK256 SWAP1 PUSH1 0x1 DUP3 ADD SLOAD PUSH2 0xD74 PUSH1 0x1 PUSH1 0xFF DUP4 AND PUSH2 0x221 DUP2 PUSH2 0x2B4E JUMP JUMPDEST PUSH1 0xFF PUSH1 0x6 DUP5 ADD SLOAD AND PUSH1 0x8 DUP2 LT ISZERO PUSH2 0x1200 JUMPI PUSH2 0x11C8 JUMPI CALLER PUSH1 0x8 SWAP2 SWAP1 SWAP2 SHR PUSH1 0x1 PUSH1 0x1 PUSH1 0xA0 SHL SUB AND EQ PUSH2 0x1178 JUMPI PUSH1 0x24 CALLDATALOAD ISZERO DUP1 ISZERO PUSH2 0x116C JUMPI JUMPDEST PUSH2 0xDB2 SWAP1 PUSH2 0x2F10 JUMP JUMPDEST PUSH1 0xFF PUSH1 0xA DUP4 ADD SLOAD AND PUSH2 0xDC3 DUP2 PUSH2 0x2B4E JUMP JUMPDEST PUSH2 0x1163 JUMPI PUSH1 0xFF DUP4 JUMPDEST AND PUSH1 0x24 CALLDATALOAD EQ PUSH2 0x1110 JUMPI PUSH1 0x2 DUP3 ADD DUP1 SLOAD PUSH1 0x1 PUSH1 0x1 PUSH1 0xA0 SHL SUB DUP2 AND ISZERO PUSH2 0x10FD JUMPI POP SLOAD PUSH1 0x1 PUSH1 0x1 PUSH1 0xA0 SHL SUB AND CALLER SUB PUSH2 0x10BB JUMPI JUMPDEST PUSH1 0x3 DUP3 ADD SLOAD DUP4 SWAP1 PUSH1 0x1 PUSH1 0x1 PUSH1 0xA0 SHL SUB AND DUP1 PUSH2 0xF74 JUMPI POP PUSH1 0x4 DUP4 ADD PUSH2 0xE21 DUP2 SLOAD CALLVALUE EQ PUSH2 0x2F97 JUMP JUMPDEST PUSH2 0xE2C PUSH1 0x24 CALLDATALOAD PUSH2 0x2B4E JUMP JUMPDEST PUSH2 0xE3B PUSH1 0x24 CALLDATALOAD PUSH1 0xA DUP7 ADD PUSH2 0x3117 JUMP JUMPDEST PUSH1 0x2 SLOAD SWAP1 SLOAD PUSH1 0x3 DUP6 ADD SLOAD SWAP1 SWAP2 PUSH1 0x1 PUSH1 0x1 PUSH1 0xA0 SHL SUB SWAP1 DUP2 AND SWAP2 AND DUP2 EXTCODESIZE ISZERO PUSH2 0x34F JUMPI DUP4 SWAP2 PUSH2 0xE83 SWAP2 PUSH1 0x40 MLOAD SWAP5 DUP6 DUP1 SWAP5 DUP2 SWAP4 PUSH4 0x7A443E3D PUSH1 0xE1 SHL DUP4 MSTORE DUP4 PUSH1 0x4 CALLDATALOAD SWAP2 CALLER PUSH1 0x4 DUP7 ADD PUSH2 0x2FF1 JUMP JUMPDEST SUB SWAP3 GAS CALL DUP1 ISZERO PUSH2 0x344 JUMPI PUSH2 0xF60 JUMPI JUMPDEST POP POP JUMPDEST PUSH1 0xA DUP3 ADD SLOAD PUSH1 0xFF DUP1 PUSH4 0x1000000 PUSH4 0xFF000000 NOT DUP5 AND OR SWAP3 DUP4 PUSH1 0xA DUP8 ADD SSTORE AND SWAP2 PUSH1 0x8 SHR AND SWAP1 PUSH2 0xEC2 DUP3 PUSH2 0x2B4E JUMP JUMPDEST PUSH2 0xECB DUP2 PUSH2 0x2B4E JUMP JUMPDEST EQ PUSH2 0xF1E JUMPI POP PUSH1 0x4 SWAP1 PUSH1 0x1 PUSH1 0xFF NOT PUSH1 0x6 DUP4 ADD SLOAD AND OR PUSH1 0x6 DUP3 ADD SSTORE ADD SLOAD PUSH1 0x40 MLOAD SWAP1 DUP2 MSTORE CALLER SWAP1 PUSH32 0xAA5D071B783A3C78EF80284714EEBA5FE6E9DCBB542FF148B3F55702594C1BCD PUSH1 0x20 PUSH1 0x4 CALLDATALOAD SWAP3 LOG3 PUSH1 0x1 DUP2 SSTORE DUP1 RETURN JUMPDEST PUSH1 0x40 MLOAD PUSH3 0x461BCD PUSH1 0xE5 SHL DUP2 MSTORE PUSH1 0x20 PUSH1 0x4 DUP3 ADD MSTORE PUSH1 0x1A PUSH1 0x24 DUP3 ADD MSTORE PUSH32 0x496E76616C6964207369646520636F6E66696775726174696F6E000000000000 PUSH1 0x44 DUP3 ADD MSTORE REVERT JUMPDEST PUSH2 0xF69 SWAP1 PUSH2 0x2C3F JUMP JUMPDEST PUSH2 0xD27 JUMPI DUP3 CODESIZE PUSH2 0xE92 JUMP JUMPDEST PUSH2 0xF7E CALLVALUE ISZERO PUSH2 0x2F4B JUMP JUMPDEST PUSH1 0x44 CALLDATALOAD PUSH2 0x103B JUMPI JUMPDEST POP PUSH1 0x3 DUP4 ADD SLOAD PUSH1 0x2 SLOAD PUSH1 0x4 DUP6 ADD DUP1 SLOAD SWAP1 SWAP3 PUSH2 0xFAF SWAP3 PUSH1 0x1 PUSH1 0x1 PUSH1 0xA0 SHL SUB SWAP1 DUP2 AND SWAP2 CALLER SWAP2 AND PUSH2 0x301B JUMP JUMPDEST PUSH2 0xFBA PUSH1 0x24 CALLDATALOAD PUSH2 0x2B4E JUMP JUMPDEST PUSH2 0xFC9 PUSH1 0x24 CALLDATALOAD PUSH1 0xA DUP7 ADD PUSH2 0x3117 JUMP JUMPDEST PUSH1 0x2 SLOAD PUSH1 0x3 DUP6 ADD SLOAD SWAP2 SLOAD PUSH1 0x1 PUSH1 0x1 PUSH1 0xA0 SHL SUB SWAP2 DUP3 AND SWAP3 SWAP1 SWAP2 AND DUP3 EXTCODESIZE ISZERO PUSH2 0x34F JUMPI PUSH2 0x1011 SWAP3 DUP5 SWAP3 DUP4 PUSH1 0x40 MLOAD DUP1 SWAP7 DUP2 SWAP6 DUP3 SWAP5 PUSH4 0x7A443E3D PUSH1 0xE1 SHL DUP5 MSTORE PUSH1 0x4 CALLDATALOAD SWAP2 CALLER PUSH1 0x4 DUP7 ADD PUSH2 0x2FF1 JUMP JUMPDEST SUB SWAP3 GAS CALL DUP1 ISZERO PUSH2 0x344 JUMPI PUSH2 0x1027 JUMPI JUMPDEST POP POP PUSH2 0xE95 JUMP JUMPDEST PUSH2 0x1030 SWAP1 PUSH2 0x2C3F JUMP JUMPDEST PUSH2 0xD27 JUMPI DUP3 CODESIZE PUSH2 0x1020 JUMP JUMPDEST PUSH1 0x4 DUP5 ADD SLOAD SWAP1 DUP1 EXTCODESIZE ISZERO PUSH2 0xD27 JUMPI PUSH1 0x40 MLOAD PUSH4 0xD505ACCF PUSH1 0xE0 SHL DUP2 MSTORE CALLER PUSH1 0x4 DUP3 ADD MSTORE ADDRESS PUSH1 0x24 DUP3 ADD MSTORE PUSH1 0x44 DUP1 DUP3 ADD SWAP4 SWAP1 SWAP4 MSTORE SWAP2 CALLDATALOAD PUSH1 0x64 DUP4 ADD MSTORE DUP4 CALLDATALOAD PUSH1 0xFF AND PUSH1 0x84 DUP1 DUP5 ADD SWAP2 SWAP1 SWAP2 MSTORE CALLDATALOAD PUSH1 0xA4 DUP1 DUP5 ADD SWAP2 SWAP1 SWAP2 MSTORE CALLDATALOAD PUSH1 0xC4 DUP4 ADD MSTORE DUP3 SWAP1 DUP3 SWAP1 PUSH1 0xE4 SWAP1 DUP3 SWAP1 DUP5 SWAP1 GAS CALL DUP1 ISZERO PUSH2 0x344 JUMPI ISZERO PUSH2 0xF86 JUMPI PUSH2 0x10B0 SWAP1 PUSH2 0x2C3F JUMP JUMPDEST PUSH2 0xD27 JUMPI DUP3 CODESIZE PUSH2 0xF86 JUMP JUMPDEST PUSH1 0x40 MLOAD PUSH3 0x461BCD PUSH1 0xE5 SHL DUP2 MSTORE PUSH1 0x20 PUSH1 0x4 DUP3 ADD MSTORE PUSH1 0x1D PUSH1 0x24 DUP3 ADD MSTORE PUSH32 0x4E6F742074686520737065636966696564207061727469636970616E74000000 PUSH1 0x44 DUP3 ADD MSTORE REVERT JUMPDEST PUSH1 0x1 PUSH1 0x1 PUSH1 0xA0 SHL SUB NOT AND CALLER OR SWAP1 SSTORE PUSH2 0xDFB JUMP JUMPDEST PUSH1 0x84 SWAP1 PUSH6 0x3932B0BA37B9 PUSH1 0xD1 SHL PUSH1 0x40 MLOAD SWAP2 PUSH3 0x461BCD PUSH1 0xE5 SHL DUP4 MSTORE PUSH1 0x20 PUSH1 0x4 DUP5 ADD MSTORE PUSH1 0x26 PUSH1 0x24 DUP5 ADD MSTORE PUSH32 0x4D7573742063686F6F7365206F70706F7369746520736964652066726F6D2063 PUSH1 0x44 DUP5 ADD MSTORE DUP3 ADD MSTORE REVERT JUMPDEST PUSH1 0xFF PUSH1 0x1 PUSH2 0xDCB JUMP JUMPDEST POP PUSH1 0x24 CALLDATALOAD PUSH1 0x1 EQ PUSH2 0xDA9 JUMP JUMPDEST PUSH1 0x84 SWAP1 PUSH3 0x6E6765 PUSH1 0xE8 SHL PUSH1 0x40 MLOAD SWAP2 PUSH3 0x461BCD PUSH1 0xE5 SHL DUP4 MSTORE PUSH1 0x20 PUSH1 0x4 DUP5 ADD MSTORE PUSH1 0x23 PUSH1 0x24 DUP5 ADD MSTORE PUSH32 0x43726561746F722063616E6E6F7420616363657074206F776E206368616C6C65 PUSH1 0x44 DUP5 ADD MSTORE DUP3 ADD MSTORE REVERT JUMPDEST POP PUSH1 0x40 MLOAD PUSH3 0x461BCD PUSH1 0xE5 SHL DUP2 MSTORE PUSH1 0x20 PUSH1 0x4 DUP3 ADD MSTORE PUSH1 0x12 PUSH1 0x24 DUP3 ADD MSTORE PUSH18 0x21B430B63632B733B2903737BA1037B832B7 PUSH1 0x71 SHL PUSH1 0x44 DUP3 ADD MSTORE REVERT JUMPDEST PUSH4 0x4E487B71 PUSH1 0xE0 SHL DUP6 MSTORE PUSH1 0x21 PUSH1 0x4 MSTORE PUSH1 0x24 DUP6 REVERT JUMPDEST PUSH1 0x0 DUP1 REVERT JUMPDEST POP CALLVALUE PUSH2 0x1B9 JUMPI PUSH1 0x20 CALLDATASIZE PUSH1 0x3 NOT ADD SLT PUSH2 0x1B9 JUMPI PUSH1 0x4 CALLDATALOAD DUP2 MSTORE PUSH1 0x7 PUSH1 0x20 MSTORE PUSH1 0x40 SWAP1 KECCAK256 DUP1 SLOAD PUSH1 0x1 DUP3 ADD SLOAD SWAP2 PUSH1 0x1 PUSH1 0xA0 SHL PUSH1 0x1 SWAP1 SUB PUSH1 0x2 DUP3 ADD SLOAD AND PUSH1 0x1 PUSH1 0xA0 SHL PUSH1 0x1 SWAP1 SUB PUSH1 0x3 DUP4 ADD SLOAD AND SWAP2 PUSH1 0x4 DUP2 ADD SLOAD SWAP3 PUSH1 0x5 DUP3 ADD SLOAD PUSH1 0x6 DUP4 ADD SLOAD PUSH1 0x7 DUP5 ADD SLOAD PUSH1 0x8 DUP6 ADD SLOAD SWAP2 PUSH1 0x9 DUP7 ADD PUSH2 0x1288 SWAP1 PUSH2 0x2C8F JUMP JUMPDEST SWAP4 PUSH1 0xA DUP8 ADD SLOAD SWAP9 PUSH1 0xB DUP9 ADD SLOAD SWAP7 PUSH1 0xC DUP10 ADD SLOAD SWAP9 PUSH1 0xD ADD SLOAD PUSH1 0xFF AND SWAP10 PUSH1 0x40 MLOAD DUP1 SWAP15 DUP2 SWAP15 DUP3 MSTORE PUSH1 0xFF DUP2 AND PUSH2 0x12B9 DUP2 PUSH2 0x2B4E JUMP JUMPDEST PUSH1 0x20 DUP4 ADD MSTORE PUSH1 0x8 SHR PUSH1 0x1 PUSH1 0x1 PUSH1 0xA0 SHL SUB AND PUSH1 0x40 SWAP1 SWAP2 ADD MSTORE PUSH1 0x60 DUP14 ADD MSTORE PUSH1 0x80 DUP13 ADD MSTORE PUSH1 0xA0 DUP12 ADD MSTORE PUSH1 0xC0 DUP11 ADD MSTORE PUSH2 0x12F4 PUSH1 0xE0 DUP11 ADD PUSH1 0xFF DUP4 AND PUSH2 0x2B58 JUMP JUMPDEST PUSH1 0x8 SHR PUSH1 0x1 PUSH1 0x1 PUSH1 0xA0 SHL SUB AND PUSH2 0x100 DUP10 ADD MSTORE PUSH2 0x120 DUP9 ADD MSTORE PUSH2 0x140 DUP8 ADD MSTORE PUSH2 0x260 PUSH2 0x160 DUP8 ADD DUP2 SWAP1 MSTORE PUSH2 0x132A SWAP2 SWAP1 DUP8 ADD SWAP1 PUSH2 0x2B65 JUMP JUMPDEST SWAP4 PUSH1 0xFF DUP2 AND PUSH2 0x1338 DUP2 PUSH2 0x2B4E JUMP JUMPDEST PUSH2 0x180 DUP8 ADD MSTORE DUP1 PUSH1 0x8 SHR PUSH1 0xFF AND PUSH2 0x134E DUP2 PUSH2 0x2B4E JUMP JUMPDEST PUSH2 0x1A0 DUP8 ADD MSTORE DUP1 PUSH1 0x10 SHR PUSH1 0xFF AND ISZERO ISZERO PUSH2 0x1C0 DUP8 ADD MSTORE PUSH1 0x18 SHR PUSH1 0xFF AND ISZERO ISZERO PUSH2 0x1E0 DUP7 ADD MSTORE PUSH2 0x200 DUP6 ADD MSTORE PUSH2 0x220 DUP5 ADD MSTORE ISZERO ISZERO PUSH2 0x240 DUP4 ADD MSTORE SUB SWAP1 RETURN JUMPDEST POP CALLVALUE PUSH2 0x1B9 JUMPI DUP1 PUSH1 0x3 NOT CALLDATASIZE ADD SLT PUSH2 0x1B9 JUMPI PUSH1 0x1 SLOAD PUSH1 0x40 MLOAD PUSH1 0x1 PUSH1 0x1 PUSH1 0xA0 SHL SUB SWAP1 SWAP2 AND DUP2 MSTORE PUSH1 0x20 SWAP1 RETURN JUMPDEST POP CALLVALUE PUSH2 0x1B9 JUMPI PUSH1 0x20 CALLDATASIZE PUSH1 0x3 NOT ADD SLT PUSH2 0x1B9 JUMPI PUSH1 0x20 SWAP1 PUSH1 0x40 SWAP1 PUSH1 0x1 PUSH1 0x1 PUSH1 0xA0 SHL SUB PUSH2 0x13DA PUSH2 0x2AF3 JUMP JUMPDEST AND DUP2 MSTORE PUSH1 0xC DUP4 MSTORE KECCAK256 SLOAD PUSH1 0x40 MLOAD SWAP1 DUP2 MSTORE RETURN JUMPDEST POP CALLVALUE PUSH2 0x1B9 JUMPI PUSH1 0x20 CALLDATASIZE PUSH1 0x3 NOT ADD SLT PUSH2 0x1B9 JUMPI PUSH1 0x4 CALLDATALOAD PUSH2 0x1408 PUSH2 0x2D35 JUMP JUMPDEST PUSH2 0x2710 DUP2 GT PUSH2 0x1443 JUMPI PUSH1 0x20 DUP2 PUSH32 0xD0A5DDFA06600C6481DCD2923A572827C06E53859F23F7DDAB41FF3144EE8687 SWAP3 PUSH1 0x6 SSTORE PUSH1 0x40 MLOAD SWAP1 DUP2 MSTORE LOG1 DUP1 RETURN JUMPDEST PUSH1 0x40 MLOAD PUSH3 0x461BCD PUSH1 0xE5 SHL DUP2 MSTORE PUSH1 0x20 PUSH1 0x4 DUP3 ADD MSTORE PUSH1 0xC PUSH1 0x24 DUP3 ADD MSTORE PUSH12 0x8CCACA40E8DEDE40D0D2CED PUSH1 0xA3 SHL PUSH1 0x44 DUP3 ADD MSTORE PUSH1 0x64 SWAP1 REVERT JUMPDEST POP CALLVALUE PUSH2 0x1B9 JUMPI DUP1 PUSH1 0x3 NOT CALLDATASIZE ADD SLT PUSH2 0x1B9 JUMPI PUSH2 0x1490 PUSH2 0x2D35 JUMP JUMPDEST PUSH1 0x1 DUP1 SLOAD PUSH1 0x1 PUSH1 0x1 PUSH1 0xA0 SHL SUB NOT DUP2 AND SWAP1 SWAP2 SSTORE PUSH1 0x0 SWAP1 PUSH1 0x1 PUSH1 0x1 PUSH1 0xA0 SHL SUB AND PUSH32 0x8BE0079C531659141344CD1FD0A4F28419497F9722A3DAAFE3B4186F6B6457E0 DUP3 DUP1 LOG3 DUP1 RETURN JUMPDEST POP CALLVALUE PUSH2 0x1B9 JUMPI PUSH1 0x20 CALLDATASIZE PUSH1 0x3 NOT ADD SLT PUSH2 0x1B9 JUMPI PUSH2 0x14EF PUSH2 0x2AF3 JUMP JUMPDEST PUSH2 0x14F7 PUSH2 0x2D35 JUMP JUMPDEST PUSH1 0x1 PUSH1 0x1 PUSH1 0xA0 SHL SUB AND DUP1 ISZERO PUSH2 0x153F JUMPI PUSH1 0x3 DUP1 SLOAD PUSH1 0x1 PUSH1 0x1 PUSH1 0xA0 SHL SUB NOT AND DUP3 OR SWAP1 SSTORE PUSH32 0x54E4612788F90384E6843298D7854436F3A585B2C3831AB66ABF1DE63BFA6C2D DUP3 DUP1 LOG2 DUP1 RETURN JUMPDEST PUSH1 0x40 MLOAD PUSH3 0x461BCD PUSH1 0xE5 SHL DUP2 MSTORE PUSH1 0x20 PUSH1 0x4 DUP3 ADD MSTORE PUSH1 0xD PUSH1 0x24 DUP3 ADD MSTORE PUSH13 0x24B73B30B634B21030B236B4B7 PUSH1 0x99 SHL PUSH1 0x44 DUP3 ADD MSTORE PUSH1 0x64 SWAP1 REVERT JUMPDEST POP CALLVALUE PUSH2 0x1B9 JUMPI PUSH1 0x20 CALLDATASIZE PUSH1 0x3 NOT ADD SLT PUSH2 0x1B9 JUMPI PUSH1 0x40 PUSH1 0x20 SWAP2 PUSH1 0x4 CALLDATALOAD DUP2 MSTORE PUSH1 0x9 DUP4 MSTORE KECCAK256 SLOAD PUSH1 0x40 MLOAD SWAP1 DUP2 MSTORE RETURN JUMPDEST POP PUSH1 0xC0 CALLDATASIZE PUSH1 0x3 NOT ADD SLT PUSH2 0x1B9 JUMPI PUSH2 0x15B3 PUSH2 0x2AF3 JUMP JUMPDEST PUSH2 0x15BB PUSH2 0x2B09 JUMP JUMPDEST SWAP1 PUSH1 0xA4 CALLDATALOAD PUSH1 0x1 PUSH1 0x1 PUSH1 0x40 SHL SUB DUP2 GT PUSH2 0x34F JUMPI PUSH2 0x15DB SWAP1 CALLDATASIZE SWAP1 PUSH1 0x4 ADD PUSH2 0x2BA5 JUMP JUMPDEST SWAP3 SWAP1 PUSH2 0x15E5 PUSH2 0x2EA1 JUMP JUMPDEST PUSH1 0x1 PUSH1 0x1 PUSH1 0xA0 SHL SUB DUP4 AND PUSH2 0x1B68 JUMPI JUMPDEST PUSH1 0x64 CALLDATALOAD ISZERO DUP1 ISZERO PUSH2 0x1B5C JUMPI JUMPDEST PUSH2 0x1608 SWAP1 PUSH2 0x2F10 JUMP JUMPDEST PUSH1 0x1 PUSH1 0x1 PUSH1 0xA0 SHL SUB DUP3 AND DUP6 MSTORE PUSH1 0xB PUSH1 0x20 MSTORE PUSH1 0x40 DUP6 KECCAK256 SLOAD PUSH2 0x162B SWAP1 PUSH1 0xFF AND ISZERO PUSH2 0x2D61 JUMP JUMPDEST PUSH2 0x1638 PUSH1 0x44 CALLDATALOAD ISZERO ISZERO PUSH2 0x2DA4 JUMP JUMPDEST PUSH2 0x1645 PUSH1 0x84 CALLDATALOAD ISZERO ISZERO PUSH2 0x2DE4 JUMP JUMPDEST PUSH2 0x1655 PUSH2 0x1F4 PUSH1 0x84 CALLDATALOAD GT ISZERO PUSH2 0x2E30 JUMP JUMPDEST PUSH1 0x1 PUSH1 0x1 PUSH1 0xA0 SHL SUB DUP3 AND PUSH2 0x1B2D JUMPI PUSH2 0x1670 PUSH1 0x44 CALLDATALOAD CALLVALUE EQ PUSH2 0x2F97 JUMP JUMPDEST PUSH1 0x5 SLOAD SWAP4 PUSH2 0x167D DUP6 PUSH2 0x2E7C JUMP JUMPDEST PUSH1 0x5 SSTORE DUP5 DUP7 MSTORE PUSH1 0x7 PUSH1 0x20 MSTORE PUSH1 0x40 DUP7 KECCAK256 DUP6 DUP2 SSTORE PUSH1 0x1 DUP1 DUP3 ADD DUP1 SLOAD PUSH1 0x1 PUSH1 0x1 PUSH1 0xA8 SHL SUB NOT AND CALLER PUSH1 0x8 SHL PUSH2 0x100 PUSH1 0x1 PUSH1 0xA8 SHL SUB AND OR SWAP1 SWAP2 OR SWAP1 SSTORE SWAP2 PUSH1 0xFF NOT PUSH1 0x2 DUP5 ADD DUP1 SLOAD PUSH1 0x1 PUSH1 0x1 PUSH1 0xA0 SHL SUB DUP9 DUP2 AND PUSH1 0x1 PUSH1 0x1 PUSH1 0xA0 SHL SUB NOT SWAP3 DUP4 AND OR SWAP1 SWAP3 SSTORE PUSH1 0x3 DUP7 ADD DUP1 SLOAD SWAP3 DUP9 AND SWAP3 SWAP1 SWAP2 AND SWAP2 SWAP1 SWAP2 OR SWAP1 SSTORE PUSH1 0x44 CALLDATALOAD PUSH1 0x4 DUP6 ADD SSTORE PUSH1 0x84 CALLDATALOAD PUSH1 0x5 DUP6 ADD SSTORE PUSH2 0x1707 PUSH1 0x64 CALLDATALOAD PUSH2 0x2B4E JUMP JUMPDEST PUSH2 0x1716 PUSH1 0x64 CALLDATALOAD PUSH1 0xA DUP7 ADD PUSH2 0x2FD9 JUMP JUMPDEST PUSH1 0x1 PUSH1 0x1 PUSH1 0xA0 SHL SUB DUP7 AND PUSH2 0x1B27 JUMPI DUP8 JUMPDEST PUSH1 0x6 DUP6 ADD SWAP2 PUSH1 0x8 DUP3 LT ISZERO PUSH2 0x1B11 JUMPI PUSH1 0xFF SWAP1 DUP4 SLOAD AND SWAP2 AND OR SWAP1 SSTORE TIMESTAMP PUSH1 0x7 DUP5 ADD SSTORE PUSH1 0x1 PUSH1 0x1 PUSH1 0x40 SHL SUB DUP3 GT PUSH2 0x6BB JUMPI DUP2 SWAP1 PUSH2 0x1762 PUSH1 0x9 DUP6 ADD SLOAD PUSH2 0x2C05 JUMP JUMPDEST PUSH1 0x1F DUP2 GT PUSH2 0x1AC1 JUMPI JUMPDEST POP DUP8 SWAP1 PUSH1 0x1F DUP4 GT PUSH1 0x1 EQ PUSH2 0x1A55 JUMPI DUP9 SWAP3 PUSH2 0x1A4A JUMPI JUMPDEST POP POP DUP2 PUSH1 0x1 SHL SWAP2 PUSH1 0x0 NOT SWAP1 PUSH1 0x3 SHL SHR NOT AND OR PUSH1 0x9 DUP3 ADD SSTORE JUMPDEST PUSH1 0xA DUP2 ADD DUP1 SLOAD PUSH4 0xFFFF0000 NOT AND SWAP1 SSTORE PUSH1 0x1 PUSH1 0x1 PUSH1 0xA0 SHL SUB DUP4 AND ISZERO PUSH2 0x1936 JUMPI PUSH1 0x1 PUSH1 0x1 PUSH1 0xA0 SHL SUB DUP3 AND PUSH2 0x18CD JUMPI PUSH1 0x2 SLOAD PUSH1 0x1 PUSH1 0x1 PUSH1 0xA0 SHL SUB AND DUP1 EXTCODESIZE ISZERO PUSH2 0x340 JUMPI DUP6 PUSH1 0x40 MLOAD DUP1 SWAP3 PUSH4 0x7A443E3D PUSH1 0xE1 SHL DUP3 MSTORE DUP2 DUP1 PUSH2 0x17FB DUP11 PUSH1 0x44 CALLDATALOAD DUP11 CALLER PUSH1 0x4 DUP7 ADD PUSH2 0x2FF1 JUMP JUMPDEST SUB SWAP2 PUSH1 0x44 CALLDATALOAD SWAP1 GAS CALL DUP1 ISZERO PUSH2 0x18C2 JUMPI PUSH2 0x18AA JUMPI JUMPDEST POP SWAP2 PUSH1 0x20 SWAP5 SWAP2 PUSH1 0x1 SWAP4 JUMPDEST PUSH1 0xA PUSH3 0x10000 PUSH3 0xFF0000 NOT DUP3 DUP5 ADD SLOAD AND OR SWAP2 ADD SSTORE PUSH1 0x40 MLOAD PUSH1 0x44 CALLDATALOAD DUP2 MSTORE DUP6 PUSH1 0x0 DUP1 MLOAD PUSH1 0x20 PUSH2 0x3216 DUP4 CODECOPY DUP2 MLOAD SWAP2 MSTORE DUP9 CALLER SWAP4 LOG3 JUMPDEST PUSH1 0x40 DUP1 MLOAD PUSH1 0x1 PUSH1 0x1 PUSH1 0xA0 SHL SUB SWAP3 SWAP1 SWAP3 AND DUP3 MSTORE PUSH1 0x44 CALLDATALOAD PUSH1 0x20 DUP4 ADD MSTORE PUSH1 0x84 CALLDATALOAD SWAP1 DUP3 ADD MSTORE PUSH1 0xA0 DUP5 SWAP1 SHL DUP5 SWAP1 SUB SWAP2 SWAP1 SWAP2 AND SWAP1 CALLER SWAP1 DUP6 SWAP1 PUSH32 0xF4F5A9F479B06CD99960B03CDDC4864CB98EAA763A8F668617C80F5895127779 SWAP1 PUSH1 0x60 SWAP1 LOG4 SSTORE PUSH1 0x40 MLOAD SWAP1 DUP2 MSTORE RETURN JUMPDEST PUSH2 0x18B4 DUP7 SWAP2 PUSH2 0x2C3F JUMP JUMPDEST PUSH2 0x18BE JUMPI CODESIZE PUSH2 0x180E JUMP JUMPDEST DUP5 DUP1 REVERT JUMPDEST PUSH1 0x40 MLOAD RETURNDATASIZE DUP9 DUP3 RETURNDATACOPY RETURNDATASIZE SWAP1 REVERT JUMPDEST PUSH1 0x2 SLOAD PUSH1 0x1 PUSH1 0x1 PUSH1 0xA0 SHL SUB AND DUP1 EXTCODESIZE ISZERO PUSH2 0x340 JUMPI DUP6 PUSH1 0x40 MLOAD DUP1 SWAP3 PUSH4 0x7A443E3D PUSH1 0xE1 SHL DUP3 MSTORE DUP2 DUP4 DUP2 PUSH2 0x1905 DUP12 PUSH1 0x44 CALLDATALOAD DUP12 CALLER PUSH1 0x4 DUP7 ADD PUSH2 0x2FF1 JUMP JUMPDEST SUB SWAP3 GAS CALL DUP1 ISZERO PUSH2 0x18C2 JUMPI PUSH2 0x1922 JUMPI JUMPDEST POP SWAP2 PUSH1 0x20 SWAP5 SWAP2 PUSH1 0x1 SWAP4 PUSH2 0x1818 JUMP JUMPDEST PUSH2 0x192C DUP7 SWAP2 PUSH2 0x2C3F JUMP JUMPDEST PUSH2 0x18BE JUMPI CODESIZE PUSH2 0x1914 JUMP JUMPDEST PUSH1 0x1 PUSH1 0x1 PUSH1 0xA0 SHL SUB DUP3 AND PUSH2 0x19E1 JUMPI PUSH1 0x2 SLOAD PUSH1 0x1 PUSH1 0x1 PUSH1 0xA0 SHL SUB AND DUP1 EXTCODESIZE ISZERO PUSH2 0x340 JUMPI DUP6 PUSH1 0x40 MLOAD DUP1 SWAP3 PUSH4 0x7A443E3D PUSH1 0xE1 SHL DUP3 MSTORE DUP2 DUP1 PUSH2 0x197B DUP11 PUSH1 0x44 CALLDATALOAD DUP11 CALLER PUSH1 0x4 DUP7 ADD PUSH2 0x2FF1 JUMP JUMPDEST SUB SWAP2 PUSH1 0x44 CALLDATALOAD SWAP1 GAS CALL DUP1 ISZERO PUSH2 0x18C2 JUMPI PUSH2 0x19CD JUMPI JUMPDEST POP SWAP2 PUSH1 0x20 SWAP5 SWAP2 PUSH1 0x1 SWAP4 JUMPDEST PUSH1 0xA PUSH3 0x10000 PUSH3 0xFF0000 NOT DUP3 DUP5 ADD SLOAD AND OR SWAP2 ADD SSTORE PUSH1 0x40 MLOAD PUSH1 0x44 CALLDATALOAD DUP2 MSTORE DUP6 PUSH1 0x0 DUP1 MLOAD PUSH1 0x20 PUSH2 0x3216 DUP4 CODECOPY DUP2 MLOAD SWAP2 MSTORE DUP9 CALLER SWAP4 LOG3 PUSH2 0x1849 JUMP JUMPDEST PUSH2 0x19D7 DUP7 SWAP2 PUSH2 0x2C3F JUMP JUMPDEST PUSH2 0x18BE JUMPI CODESIZE PUSH2 0x198E JUMP JUMPDEST PUSH1 0x2 SLOAD PUSH1 0x1 PUSH1 0x1 PUSH1 0xA0 SHL SUB AND DUP1 EXTCODESIZE ISZERO PUSH2 0x340 JUMPI DUP6 PUSH1 0x40 MLOAD DUP1 SWAP3 PUSH4 0x7A443E3D PUSH1 0xE1 SHL DUP3 MSTORE DUP2 DUP4 DUP2 PUSH2 0x1A19 DUP12 PUSH1 0x44 CALLDATALOAD DUP12 CALLER PUSH1 0x4 DUP7 ADD PUSH2 0x2FF1 JUMP JUMPDEST SUB SWAP3 GAS CALL DUP1 ISZERO PUSH2 0x18C2 JUMPI PUSH2 0x1A36 JUMPI JUMPDEST POP SWAP2 PUSH1 0x20 SWAP5 SWAP2 PUSH1 0x1 SWAP4 PUSH2 0x1998 JUMP JUMPDEST PUSH2 0x1A40 DUP7 SWAP2 PUSH2 0x2C3F JUMP JUMPDEST PUSH2 0x18BE JUMPI CODESIZE PUSH2 0x1A28 JUMP JUMPDEST ADD CALLDATALOAD SWAP1 POP CODESIZE DUP1 PUSH2 0x1780 JUMP JUMPDEST PUSH1 0x9 DUP6 ADD DUP10 MSTORE PUSH1 0x20 DUP10 KECCAK256 DUP10 SWAP5 POP SWAP2 JUMPDEST PUSH1 0x1F NOT DUP5 AND DUP6 LT PUSH2 0x1AA9 JUMPI PUSH1 0x1 SWAP5 POP DUP4 PUSH1 0x1F NOT DUP2 AND LT PUSH2 0x1A8F JUMPI JUMPDEST POP POP POP DUP2 SHL ADD PUSH1 0x9 DUP3 ADD SSTORE PUSH2 0x1798 JUMP JUMPDEST ADD CALLDATALOAD PUSH1 0x0 NOT PUSH1 0x3 DUP5 SWAP1 SHL PUSH1 0xF8 AND SHR NOT AND SWAP1 SSTORE CODESIZE DUP1 DUP1 PUSH2 0x1A7F JUMP JUMPDEST DUP2 DUP2 ADD CALLDATALOAD DUP4 SSTORE PUSH1 0x20 SWAP5 DUP6 ADD SWAP5 PUSH1 0x1 SWAP1 SWAP4 ADD SWAP3 ADD PUSH2 0x1A64 JUMP JUMPDEST SWAP1 SWAP2 POP PUSH1 0x9 DUP5 ADD DUP9 MSTORE PUSH1 0x20 DUP9 KECCAK256 PUSH1 0x1F DUP5 ADD PUSH1 0x5 SHR DUP2 ADD PUSH1 0x20 DUP6 LT PUSH2 0x1B0A JUMPI JUMPDEST SWAP1 DUP5 SWAP4 SWAP3 SWAP2 JUMPDEST PUSH1 0x1F DUP4 ADD PUSH1 0x5 SHR DUP3 ADD DUP2 LT PUSH2 0x1AFC JUMPI POP POP PUSH2 0x176B JUMP JUMPDEST DUP11 DUP2 SSTORE DUP6 SWAP5 POP PUSH1 0x1 ADD PUSH2 0x1AE6 JUMP JUMPDEST POP DUP1 PUSH2 0x1AE0 JUMP JUMPDEST PUSH4 0x4E487B71 PUSH1 0xE0 SHL PUSH1 0x0 MSTORE PUSH1 0x21 PUSH1 0x4 MSTORE PUSH1 0x24 PUSH1 0x0 REVERT JUMPDEST DUP8 PUSH2 0x1726 JUMP JUMPDEST PUSH2 0x1B37 CALLVALUE ISZERO PUSH2 0x2F4B JUMP JUMPDEST PUSH1 0x2 SLOAD PUSH2 0x1B57 SWAP1 PUSH1 0x44 CALLDATALOAD SWAP1 PUSH1 0x1 PUSH1 0x1 PUSH1 0xA0 SHL SUB SWAP1 DUP2 AND SWAP1 CALLER SWAP1 DUP7 AND PUSH2 0x301B JUMP JUMPDEST PUSH2 0x1670 JUMP JUMPDEST POP PUSH1 0x64 CALLDATALOAD PUSH1 0x1 EQ PUSH2 0x15FF JUMP JUMPDEST PUSH2 0x1B7D PUSH1 0x1 PUSH1 0x1 PUSH1 0xA0 SHL SUB DUP5 AND CALLER EQ ISZERO PUSH2 0x2EC4 JUMP JUMPDEST PUSH2 0x15F4 JUMP JUMPDEST POP CALLVALUE PUSH2 0x1B9 JUMPI PUSH1 0x20 CALLDATASIZE PUSH1 0x3 NOT ADD SLT PUSH2 0x1B9 JUMPI PUSH1 0x4 CALLDATALOAD PUSH2 0x1B9F PUSH2 0x2EA1 JUMP JUMPDEST DUP1 DUP3 MSTORE PUSH1 0x7 PUSH1 0x20 MSTORE PUSH1 0x40 DUP3 KECCAK256 PUSH1 0x1 DUP2 ADD SLOAD PUSH2 0x1BC2 PUSH1 0x1 PUSH1 0xFF DUP4 AND PUSH2 0x221 DUP2 PUSH2 0x2B4E JUMP JUMPDEST PUSH1 0xFF PUSH1 0x6 DUP4 ADD SLOAD AND PUSH1 0x8 DUP2 LT ISZERO PUSH2 0x1200 JUMPI PUSH1 0x6 PUSH2 0x1BDF SWAP2 EQ PUSH2 0x3194 JUMP JUMPDEST PUSH1 0x1 DUP1 PUSH1 0xA0 SHL SUB DUP1 SWAP2 PUSH1 0x8 SHR AND CALLER EQ SWAP2 DUP3 ISZERO PUSH2 0x1C7B JUMPI JUMPDEST POP POP ISZERO PUSH2 0x1C2A JUMPI CALLER SWAP1 PUSH32 0x8662F95F63B18BD2D50A68BA55DA66F73E4E5E1619D07DD9A7B7012E93A426FF DUP4 DUP1 LOG3 PUSH1 0x1 DUP2 SSTORE DUP1 RETURN JUMPDEST PUSH1 0x40 MLOAD PUSH3 0x461BCD PUSH1 0xE5 SHL DUP2 MSTORE PUSH1 0x20 PUSH1 0x4 DUP3 ADD MSTORE PUSH1 0x24 DUP1 DUP3 ADD MSTORE PUSH32 0x4F6E6C79207061727469636970616E74732063616E206465636C696E65207265 PUSH1 0x44 DUP3 ADD MSTORE PUSH4 0x199D5B99 PUSH1 0xE2 SHL PUSH1 0x64 DUP3 ADD MSTORE PUSH1 0x84 SWAP1 REVERT JUMPDEST PUSH1 0x2 SWAP2 SWAP3 POP ADD SLOAD AND CALLER EQ CODESIZE DUP1 PUSH2 0x1BF6 JUMP JUMPDEST POP CALLVALUE PUSH2 0x1B9 JUMPI PUSH1 0x20 DUP1 PUSH1 0x3 NOT CALLDATASIZE ADD SLT PUSH2 0x4CD JUMPI PUSH1 0x4 CALLDATALOAD SWAP1 PUSH2 0x1CAB PUSH2 0x2EA1 JUMP JUMPDEST DUP2 DUP4 MSTORE PUSH1 0x7 DUP2 MSTORE PUSH1 0x40 DUP4 KECCAK256 SWAP2 PUSH1 0x6 DUP4 ADD DUP1 SLOAD SWAP1 PUSH1 0xFF DUP3 AND PUSH1 0x8 DUP2 LT ISZERO PUSH2 0x4B9 JUMPI PUSH1 0x3 SUB PUSH2 0x1DEE JUMPI PUSH1 0x1 PUSH1 0x1 PUSH1 0xA0 SHL SUB SWAP2 PUSH1 0x8 DUP2 SWAP1 SHR DUP4 AND CALLER DUP2 SUB PUSH2 0x1DB1 JUMPI ISZERO PUSH2 0x1D7C JUMPI PUSH1 0x40 MLOAD PUSH1 0x40 DUP2 ADD DUP2 DUP2 LT PUSH1 0x1 PUSH1 0x1 PUSH1 0x40 SHL SUB DUP3 GT OR PUSH2 0x744 JUMPI PUSH1 0x40 MSTORE PUSH1 0x1 DUP2 MSTORE DUP6 DUP2 ADD SWAP1 DUP7 CALLDATASIZE DUP4 CALLDATACOPY MLOAD ISZERO PUSH2 0x1D68 JUMPI SWAP2 PUSH1 0x4 PUSH32 0x401AF6ACAF4DFD2AB7650E060F96CF76F6A51FD9D42102601E60FDACD4EACFF2 SWAP5 SWAP3 DUP2 SWAP5 CALLER SWAP1 MSTORE PUSH1 0xFF NOT AND OR SWAP1 SSTORE PUSH1 0x3 DUP7 ADD SLOAD AND SWAP5 ADD SLOAD SWAP3 PUSH1 0x40 MLOAD SWAP4 DUP5 MSTORE CALLER SWAP4 LOG4 PUSH1 0x1 DUP2 SSTORE DUP1 RETURN JUMPDEST PUSH4 0x4E487B71 PUSH1 0xE0 SHL DUP9 MSTORE PUSH1 0x32 PUSH1 0x4 MSTORE PUSH1 0x24 DUP9 REVERT JUMPDEST PUSH1 0x40 MLOAD PUSH3 0x461BCD PUSH1 0xE5 SHL DUP2 MSTORE PUSH1 0x4 DUP2 ADD DUP7 SWAP1 MSTORE PUSH1 0xD PUSH1 0x24 DUP3 ADD MSTORE PUSH13 0x139BC81DDA5B9B995C881CD95D PUSH1 0x9A SHL PUSH1 0x44 DUP3 ADD MSTORE PUSH1 0x64 SWAP1 REVERT JUMPDEST PUSH1 0x40 MLOAD PUSH3 0x461BCD PUSH1 0xE5 SHL DUP2 MSTORE PUSH1 0x4 DUP2 ADD DUP8 SWAP1 MSTORE PUSH1 0x15 PUSH1 0x24 DUP3 ADD MSTORE PUSH21 0x4F6E6C792077696E6E65722063616E20636C61696D PUSH1 0x58 SHL PUSH1 0x44 DUP3 ADD MSTORE PUSH1 0x64 SWAP1 REVERT JUMPDEST PUSH1 0x40 MLOAD PUSH3 0x461BCD PUSH1 0xE5 SHL DUP2 MSTORE PUSH1 0x4 DUP2 ADD DUP6 SWAP1 MSTORE PUSH1 0x16 PUSH1 0x24 DUP3 ADD MSTORE PUSH22 0x10DA185B1B195B99D9481B9BDD081C995CDBDB1D9959 PUSH1 0x52 SHL PUSH1 0x44 DUP3 ADD MSTORE PUSH1 0x64 SWAP1 REVERT JUMPDEST POP CALLVALUE PUSH2 0x1B9 JUMPI PUSH2 0x1E3B CALLDATASIZE PUSH2 0x2BD2 JUMP JUMPDEST SWAP1 PUSH2 0x1E44 PUSH2 0x2D35 JUMP JUMPDEST PUSH2 0x1E4C PUSH2 0x2EA1 JUMP JUMPDEST DUP3 DUP5 MSTORE PUSH1 0x7 PUSH1 0x20 MSTORE PUSH1 0x40 DUP5 KECCAK256 SWAP2 PUSH1 0x1 DUP4 ADD SWAP3 DUP4 SLOAD SWAP1 PUSH2 0x1E73 PUSH1 0x1 PUSH1 0xFF DUP5 AND PUSH2 0x221 DUP2 PUSH2 0x2B4E JUMP JUMPDEST PUSH1 0x6 DUP2 ADD DUP1 SLOAD PUSH1 0xFF DUP2 AND PUSH1 0x8 DUP2 LT ISZERO PUSH2 0xA2C JUMPI PUSH1 0x6 SUB PUSH2 0x1FC5 JUMPI PUSH1 0x7 SWAP1 PUSH1 0xFF NOT AND OR SWAP1 SSTORE PUSH1 0x4 DUP2 ADD SLOAD SWAP2 PUSH1 0x1 DUP1 PUSH1 0xA0 SHL SUB SWAP6 DUP9 DUP8 PUSH1 0x2 SLOAD AND PUSH1 0x2 DUP6 ADD SWAP5 DUP10 PUSH1 0x3 DUP2 DUP9 SLOAD AND SWAP3 ADD SLOAD AND SWAP2 DUP1 EXTCODESIZE ISZERO PUSH2 0x34F JUMPI DUP4 SWAP3 DUP13 SWAP3 DUP13 PUSH1 0x40 MLOAD SWAP9 DUP10 SWAP6 PUSH4 0x60DAE9AF PUSH1 0xE1 SHL DUP8 MSTORE PUSH1 0x4 DUP8 ADD MSTORE PUSH1 0x8 SHR AND PUSH1 0x24 DUP6 ADD MSTORE PUSH1 0x44 DUP5 ADD MSTORE PUSH1 0x64 DUP4 ADD MSTORE DUP8 PUSH1 0x84 DUP4 ADD MSTORE PUSH1 0xC0 PUSH1 0xA4 DUP4 ADD MSTORE DUP2 DUP4 DUP2 PUSH2 0x1F0F DUP14 DUP14 PUSH1 0xC4 DUP5 ADD SWAP2 PUSH2 0x3173 JUMP JUMPDEST SUB SWAP3 GAS CALL SWAP3 DUP4 ISZERO PUSH2 0x1FB8 JUMPI DUP10 SWAP4 PUSH2 0x1F9B JUMPI JUMPDEST POP POP PUSH1 0x20 DUP8 PUSH32 0xBEA640A4E0032618E4DAB2CBCC4A119AF2C351AE2C26E3C0BDF8AEC842313391 SWAP9 PUSH32 0xF91AA0A9813CBC386975170E821FB6193D22AB6759DE1354D8F4C4F7CF42AD91 SWAP4 SLOAD PUSH1 0x8 SHR AND SWAP5 SLOAD AND SWAP5 PUSH1 0x40 MLOAD SWAP1 DUP2 MSTORE LOG4 PUSH2 0x1F91 PUSH1 0x40 MLOAD SWAP3 DUP4 SWAP3 PUSH1 0x20 DUP5 MSTORE PUSH1 0x20 DUP5 ADD SWAP2 PUSH2 0x3173 JUMP JUMPDEST SUB SWAP1 LOG2 PUSH1 0x1 DUP2 SSTORE DUP1 RETURN JUMPDEST PUSH2 0x1FA7 SWAP2 SWAP3 SWAP4 POP PUSH2 0x2C3F JUMP JUMPDEST PUSH2 0x1FB4 JUMPI DUP7 SWAP1 DUP9 CODESIZE PUSH2 0x1F21 JUMP JUMPDEST DUP8 DUP1 REVERT JUMPDEST POP PUSH1 0x40 MLOAD SWAP1 RETURNDATASIZE SWAP1 DUP3 RETURNDATACOPY RETURNDATASIZE SWAP1 REVERT JUMPDEST PUSH1 0x40 MLOAD PUSH3 0x461BCD PUSH1 0xE5 SHL DUP2 MSTORE PUSH1 0x20 PUSH1 0x4 DUP3 ADD MSTORE PUSH1 0x1A PUSH1 0x24 DUP3 ADD MSTORE PUSH32 0x4368616C6C656E6765206D757374206265206469737075746564000000000000 PUSH1 0x44 DUP3 ADD MSTORE PUSH1 0x64 SWAP1 REVERT JUMPDEST POP PUSH2 0x140 CALLDATASIZE PUSH1 0x3 NOT ADD SLT PUSH2 0x1B9 JUMPI PUSH2 0x2020 PUSH2 0x2AF3 JUMP JUMPDEST PUSH2 0x2028 PUSH2 0x2B09 JUMP JUMPDEST SWAP1 PUSH1 0xA4 CALLDATALOAD PUSH1 0x1 PUSH1 0x1 PUSH1 0x40 SHL SUB DUP2 GT PUSH2 0x34F JUMPI PUSH2 0x2048 SWAP1 CALLDATASIZE SWAP1 PUSH1 0x4 ADD PUSH2 0x2BA5 JUMP JUMPDEST SWAP3 SWAP1 PUSH1 0xFF PUSH1 0xE4 CALLDATALOAD AND PUSH1 0xE4 CALLDATALOAD SUB PUSH2 0x1214 JUMPI PUSH2 0x2060 PUSH2 0x2EA1 JUMP JUMPDEST PUSH1 0x1 PUSH1 0x1 PUSH1 0xA0 SHL SUB DUP4 AND PUSH2 0x23CB JUMPI JUMPDEST PUSH1 0x64 CALLDATALOAD ISZERO DUP1 ISZERO PUSH2 0x23BF JUMPI JUMPDEST PUSH2 0x2083 SWAP1 PUSH2 0x2F10 JUMP JUMPDEST PUSH1 0x1 PUSH1 0x1 PUSH1 0xA0 SHL SUB DUP3 AND DUP6 MSTORE PUSH1 0xB PUSH1 0x20 MSTORE PUSH1 0x40 DUP6 KECCAK256 SLOAD PUSH2 0x20A6 SWAP1 PUSH1 0xFF AND ISZERO PUSH2 0x2D61 JUMP JUMPDEST PUSH2 0x20B3 PUSH1 0x44 CALLDATALOAD ISZERO ISZERO PUSH2 0x2DA4 JUMP JUMPDEST PUSH2 0x20C0 PUSH1 0x84 CALLDATALOAD ISZERO ISZERO PUSH2 0x2DE4 JUMP JUMPDEST PUSH2 0x20D0 PUSH2 0x1F4 PUSH1 0x84 CALLDATALOAD GT ISZERO PUSH2 0x2E30 JUMP JUMPDEST PUSH1 0x5 SLOAD SWAP4 PUSH2 0x20DD DUP6 PUSH2 0x2E7C JUMP JUMPDEST PUSH1 0x5 SSTORE DUP5 DUP7 MSTORE PUSH1 0x7 PUSH1 0x20 MSTORE PUSH1 0x40 DUP7 KECCAK256 DUP6 DUP2 SSTORE PUSH1 0x1 DUP1 DUP3 ADD DUP1 SLOAD PUSH1 0x1 PUSH1 0x1 PUSH1 0xA8 SHL SUB NOT AND CALLER PUSH1 0x8 SHL PUSH2 0x100 PUSH1 0x1 PUSH1 0xA8 SHL SUB AND OR SWAP1 SWAP2 OR SWAP1 SSTORE SWAP2 PUSH1 0xFF NOT PUSH1 0x2 DUP5 ADD DUP1 SLOAD PUSH1 0x1 PUSH1 0x1 PUSH1 0xA0 SHL SUB DUP9 DUP2 AND PUSH1 0x1 PUSH1 0x1 PUSH1 0xA0 SHL SUB NOT SWAP3 DUP4 AND OR SWAP1 SWAP3 SSTORE PUSH1 0x3 DUP7 ADD DUP1 SLOAD SWAP3 DUP9 AND SWAP3 SWAP1 SWAP2 AND SWAP2 SWAP1 SWAP2 OR SWAP1 SSTORE PUSH1 0x44 CALLDATALOAD PUSH1 0x4 DUP6 ADD SSTORE PUSH1 0x84 CALLDATALOAD PUSH1 0x5 DUP6 ADD SSTORE PUSH2 0x2167 PUSH1 0x64 CALLDATALOAD PUSH2 0x2B4E JUMP JUMPDEST PUSH2 0x2176 PUSH1 0x64 CALLDATALOAD PUSH1 0xA DUP7 ADD PUSH2 0x2FD9 JUMP JUMPDEST PUSH1 0x6 DUP5 ADD SWAP1 DUP2 SLOAD AND SWAP1 SSTORE TIMESTAMP PUSH1 0x7 DUP5 ADD SSTORE PUSH1 0x1 PUSH1 0x1 PUSH1 0x40 SHL SUB DUP3 GT PUSH2 0x6BB JUMPI DUP2 SWAP1 PUSH2 0x21A3 PUSH1 0x9 DUP6 ADD SLOAD PUSH2 0x2C05 JUMP JUMPDEST PUSH1 0x1F DUP2 GT PUSH2 0x236F JUMPI JUMPDEST POP DUP8 SWAP1 PUSH1 0x1F DUP4 GT PUSH1 0x1 EQ PUSH2 0x2303 JUMPI DUP9 SWAP3 PUSH2 0x22F8 JUMPI JUMPDEST POP POP DUP2 PUSH1 0x1 SHL SWAP2 PUSH1 0x0 NOT SWAP1 PUSH1 0x3 SHL SHR NOT AND OR PUSH1 0x9 DUP3 ADD SSTORE JUMPDEST PUSH1 0xA DUP2 ADD DUP1 SLOAD PUSH4 0xFFFF0000 NOT AND SWAP1 SSTORE PUSH1 0x1 PUSH1 0x1 PUSH1 0xA0 SHL SUB DUP3 AND PUSH2 0x223A JUMPI PUSH2 0x2203 PUSH1 0x44 CALLDATALOAD CALLVALUE EQ PUSH2 0x2F97 JUMP JUMPDEST PUSH1 0x2 SLOAD PUSH1 0x1 PUSH1 0x1 PUSH1 0xA0 SHL SUB AND DUP1 EXTCODESIZE ISZERO PUSH2 0x340 JUMPI DUP6 PUSH1 0x40 MLOAD DUP1 SWAP3 PUSH4 0x7A443E3D PUSH1 0xE1 SHL DUP3 MSTORE DUP2 DUP1 PUSH2 0x17FB DUP11 PUSH1 0x44 CALLDATALOAD DUP11 CALLER PUSH1 0x4 DUP7 ADD PUSH2 0x2FF1 JUMP JUMPDEST PUSH2 0x2244 CALLVALUE ISZERO PUSH2 0x2F4B JUMP JUMPDEST DUP5 PUSH1 0xC4 CALLDATALOAD DUP1 PUSH2 0x2270 JUMPI JUMPDEST POP POP PUSH1 0x2 SLOAD PUSH2 0x18CD SWAP1 PUSH1 0x44 CALLDATALOAD SWAP1 PUSH1 0x1 PUSH1 0x1 PUSH1 0xA0 SHL SUB SWAP1 DUP2 AND SWAP1 CALLER SWAP1 DUP7 AND PUSH2 0x301B JUMP JUMPDEST PUSH1 0x1 PUSH1 0x1 PUSH1 0xA0 SHL SUB DUP5 AND EXTCODESIZE ISZERO PUSH2 0x4CD JUMPI PUSH1 0x40 MLOAD PUSH4 0xD505ACCF PUSH1 0xE0 SHL DUP2 MSTORE CALLER PUSH1 0x4 DUP3 ADD MSTORE ADDRESS PUSH1 0x24 DUP3 ADD MSTORE PUSH1 0x44 DUP1 CALLDATALOAD SWAP1 DUP3 ADD MSTORE PUSH1 0x64 DUP2 ADD SWAP2 SWAP1 SWAP2 MSTORE PUSH1 0xE4 DUP1 CALLDATALOAD PUSH1 0xFF AND PUSH1 0x84 DUP4 ADD MSTORE PUSH2 0x104 CALLDATALOAD PUSH1 0xA4 DUP4 ADD MSTORE PUSH2 0x124 CALLDATALOAD PUSH1 0xC4 DUP4 ADD MSTORE DUP3 SWAP1 DUP3 SWAP1 DUP2 DUP4 PUSH1 0x1 PUSH1 0x1 PUSH1 0xA0 SHL SUB DUP10 AND GAS CALL DUP1 ISZERO PUSH2 0x344 JUMPI ISZERO PUSH2 0x224E JUMPI PUSH2 0x22ED SWAP1 PUSH2 0x2C3F JUMP JUMPDEST PUSH2 0x18BE JUMPI DUP5 CODESIZE PUSH2 0x224E JUMP JUMPDEST ADD CALLDATALOAD SWAP1 POP CODESIZE DUP1 PUSH2 0x21C1 JUMP JUMPDEST PUSH1 0x9 DUP6 ADD DUP10 MSTORE PUSH1 0x20 DUP10 KECCAK256 DUP10 SWAP5 POP SWAP2 JUMPDEST PUSH1 0x1F NOT DUP5 AND DUP6 LT PUSH2 0x2357 JUMPI PUSH1 0x1 SWAP5 POP DUP4 PUSH1 0x1F NOT DUP2 AND LT PUSH2 0x233D JUMPI JUMPDEST POP POP POP DUP2 SHL ADD PUSH1 0x9 DUP3 ADD SSTORE PUSH2 0x21D9 JUMP JUMPDEST ADD CALLDATALOAD PUSH1 0x0 NOT PUSH1 0x3 DUP5 SWAP1 SHL PUSH1 0xF8 AND SHR NOT AND SWAP1 SSTORE CODESIZE DUP1 DUP1 PUSH2 0x232D JUMP JUMPDEST DUP2 DUP2 ADD CALLDATALOAD DUP4 SSTORE PUSH1 0x20 SWAP5 DUP6 ADD SWAP5 PUSH1 0x1 SWAP1 SWAP4 ADD SWAP3 ADD PUSH2 0x2312 JUMP JUMPDEST SWAP1 SWAP2 POP PUSH1 0x9 DUP5 ADD DUP9 MSTORE PUSH1 0x20 DUP9 KECCAK256 PUSH1 0x1F DUP5 ADD PUSH1 0x5 SHR DUP2 ADD PUSH1 0x20 DUP6 LT PUSH2 0x23B8 JUMPI JUMPDEST SWAP1 DUP5 SWAP4 SWAP3 SWAP2 JUMPDEST PUSH1 0x1F DUP4 ADD PUSH1 0x5 SHR DUP3 ADD DUP2 LT PUSH2 0x23AA JUMPI POP POP PUSH2 0x21AC JUMP JUMPDEST DUP11 DUP2 SSTORE DUP6 SWAP5 POP PUSH1 0x1 ADD PUSH2 0x2394 JUMP JUMPDEST POP DUP1 PUSH2 0x238E JUMP JUMPDEST POP PUSH1 0x64 CALLDATALOAD PUSH1 0x1 EQ PUSH2 0x207A JUMP JUMPDEST PUSH2 0x23E0 PUSH1 0x1 PUSH1 0x1 PUSH1 0xA0 SHL SUB DUP5 AND CALLER EQ ISZERO PUSH2 0x2EC4 JUMP JUMPDEST PUSH2 0x206F JUMP JUMPDEST POP CALLVALUE PUSH2 0x1B9 JUMPI PUSH1 0x20 CALLDATASIZE PUSH1 0x3 NOT ADD SLT PUSH2 0x1B9 JUMPI DUP1 PUSH2 0x240 PUSH1 0x40 MLOAD PUSH2 0x2407 DUP2 PUSH2 0x2C52 JUMP JUMPDEST DUP3 DUP2 MSTORE DUP3 PUSH1 0x20 DUP3 ADD MSTORE DUP3 PUSH1 0x40 DUP3 ADD MSTORE DUP3 PUSH1 0x60 DUP3 ADD MSTORE DUP3 PUSH1 0x80 DUP3 ADD MSTORE DUP3 PUSH1 0xA0 DUP3 ADD MSTORE DUP3 PUSH1 0xC0 DUP3 ADD MSTORE DUP3 PUSH1 0xE0 DUP3 ADD MSTORE DUP3 PUSH2 0x100 DUP3 ADD MSTORE DUP3 PUSH2 0x120 DUP3 ADD MSTORE DUP3 PUSH2 0x140 DUP3 ADD MSTORE PUSH1 0x60 PUSH2 0x160 DUP3 ADD MSTORE DUP3 PUSH2 0x180 DUP3 ADD MSTORE DUP3 PUSH2 0x1A0 DUP3 ADD MSTORE DUP3 PUSH2 0x1C0 DUP3 ADD MSTORE DUP3 PUSH2 0x1E0 DUP3 ADD MSTORE DUP3 PUSH2 0x200 DUP3 ADD MSTORE DUP3 PUSH2 0x220 DUP3 ADD MSTORE ADD MSTORE PUSH1 0x4 CALLDATALOAD DUP2 MSTORE PUSH1 0x7 PUSH1 0x20 MSTORE PUSH1 0x40 DUP2 KECCAK256 PUSH1 0x40 MLOAD SWAP2 PUSH2 0x2498 DUP4 PUSH2 0x2C52 JUMP JUMPDEST DUP2 SLOAD DUP4 MSTORE PUSH1 0x1 DUP3 ADD SLOAD PUSH2 0x24AD PUSH1 0xFF DUP3 AND PUSH2 0x2B4E JUMP JUMPDEST PUSH1 0xFF DUP2 DUP2 AND PUSH1 0x20 DUP7 ADD MSTORE PUSH1 0x1 PUSH1 0x1 PUSH1 0xA0 SHL SUB PUSH1 0x8 SWAP3 DUP4 SHR DUP2 AND PUSH1 0x40 DUP8 ADD MSTORE PUSH1 0x2 DUP6 ADD SLOAD DUP2 AND PUSH1 0x60 DUP8 ADD MSTORE PUSH1 0x3 DUP6 ADD SLOAD AND PUSH1 0x80 DUP7 ADD MSTORE PUSH1 0x4 DUP5 ADD SLOAD PUSH1 0xA0 DUP7 ADD MSTORE PUSH1 0x5 DUP5 ADD SLOAD PUSH1 0xC0 DUP7 ADD MSTORE PUSH1 0x6 DUP5 ADD SLOAD SWAP3 SWAP2 SWAP1 DUP4 AND LT ISZERO PUSH2 0x26F6 JUMPI POP PUSH1 0xFF DUP2 DUP2 AND PUSH1 0xE0 DUP6 ADD MSTORE PUSH1 0x8 SWAP2 DUP3 SHR PUSH1 0x1 PUSH1 0x1 PUSH1 0xA0 SHL SUB AND PUSH2 0x100 DUP6 ADD MSTORE PUSH1 0x7 DUP4 ADD SLOAD PUSH2 0x120 DUP6 ADD MSTORE SWAP1 DUP3 ADD SLOAD PUSH2 0x140 DUP5 ADD MSTORE SWAP1 PUSH1 0xD SWAP1 PUSH2 0x254A PUSH1 0x9 DUP3 ADD PUSH2 0x2C8F JUMP JUMPDEST PUSH2 0x160 DUP6 ADD MSTORE DUP3 PUSH1 0xA DUP3 ADD SLOAD PUSH2 0x2561 DUP3 DUP3 AND PUSH2 0x2B4E JUMP JUMPDEST DUP2 DUP2 AND PUSH2 0x180 DUP8 ADD MSTORE PUSH2 0x2578 DUP3 DUP3 PUSH1 0x8 SHR AND PUSH2 0x2B4E JUMP JUMPDEST DUP2 DUP2 PUSH1 0x8 SHR AND PUSH2 0x1A0 DUP8 ADD MSTORE DUP2 DUP2 PUSH1 0x10 SHR AND ISZERO ISZERO PUSH2 0x1C0 DUP8 ADD MSTORE PUSH1 0x18 SHR AND ISZERO ISZERO PUSH2 0x1E0 DUP6 ADD MSTORE PUSH1 0xB DUP2 ADD SLOAD PUSH2 0x200 DUP6 ADD MSTORE PUSH1 0xC DUP2 ADD SLOAD PUSH2 0x220 DUP6 ADD MSTORE ADD SLOAD AND ISZERO ISZERO PUSH2 0x240 DUP3 ADD MSTORE PUSH1 0x40 MLOAD DUP1 SWAP2 PUSH1 0x20 DUP3 MSTORE DUP1 MLOAD PUSH1 0x20 DUP4 ADD MSTORE PUSH1 0x20 DUP2 ADD MLOAD PUSH2 0x25DD DUP2 PUSH2 0x2B4E JUMP JUMPDEST PUSH1 0x40 DUP4 ADD MSTORE PUSH1 0x1 DUP1 PUSH1 0xA0 SHL SUB PUSH1 0x40 DUP3 ADD MLOAD AND PUSH1 0x60 DUP4 ADD MSTORE PUSH1 0x1 DUP1 PUSH1 0xA0 SHL SUB PUSH1 0x60 DUP3 ADD MLOAD AND PUSH1 0x80 DUP4 ADD MSTORE PUSH1 0x1 DUP1 PUSH1 0xA0 SHL SUB PUSH1 0x80 DUP3 ADD MLOAD AND PUSH1 0xA0 DUP4 ADD MSTORE PUSH1 0xA0 DUP2 ADD MLOAD PUSH1 0xC0 DUP4 ADD MSTORE PUSH1 0xC0 DUP2 ADD MLOAD PUSH1 0xE0 DUP4 ADD MSTORE PUSH2 0x263F PUSH1 0xE0 DUP3 ADD MLOAD PUSH2 0x100 DUP5 ADD SWAP1 PUSH2 0x2B58 JUMP JUMPDEST PUSH1 0x1 DUP1 PUSH1 0xA0 SHL SUB PUSH2 0x100 DUP3 ADD MLOAD AND PUSH2 0x120 DUP4 ADD MSTORE PUSH2 0x120 DUP2 ADD MLOAD PUSH2 0x140 DUP4 ADD MSTORE PUSH2 0x140 DUP2 ADD MLOAD PUSH2 0x160 DUP4 ADD MSTORE PUSH2 0x160 DUP2 ADD MLOAD PUSH2 0x240 PUSH2 0x268D PUSH2 0x260 SWAP3 DUP4 PUSH2 0x180 DUP8 ADD MSTORE PUSH2 0x280 DUP7 ADD SWAP1 PUSH2 0x2B65 JUMP JUMPDEST SWAP3 PUSH2 0x180 DUP2 ADD MLOAD PUSH2 0x269D DUP2 PUSH2 0x2B4E JUMP JUMPDEST PUSH2 0x1A0 DUP7 ADD MSTORE PUSH2 0x1A0 DUP2 ADD MLOAD PUSH2 0x26B2 DUP2 PUSH2 0x2B4E JUMP JUMPDEST PUSH2 0x1C0 DUP7 ADD MSTORE PUSH2 0x1C0 DUP2 ADD MLOAD ISZERO ISZERO PUSH2 0x1E0 DUP7 ADD MSTORE PUSH2 0x1E0 DUP2 ADD MLOAD ISZERO ISZERO PUSH2 0x200 DUP7 ADD MSTORE PUSH2 0x200 DUP2 ADD MLOAD PUSH2 0x220 DUP7 ADD MSTORE PUSH2 0x220 DUP2 ADD MLOAD DUP3 DUP7 ADD MSTORE ADD MLOAD ISZERO ISZERO SWAP1 DUP4 ADD MSTORE SUB SWAP1 RETURN JUMPDEST PUSH4 0x4E487B71 PUSH1 0xE0 SHL DUP2 MSTORE PUSH1 0x21 PUSH1 0x4 MSTORE PUSH1 0x24 SWAP1 REVERT JUMPDEST POP CALLVALUE PUSH2 0x1B9 JUMPI PUSH1 0x20 PUSH32 0xCED2684241C29578DF8F7FBAB74348D0053114FA157B900B2F1F4A1D4A2B3395 PUSH2 0x273C CALLDATASIZE PUSH2 0x2B1F JUMP JUMPDEST SWAP3 SWAP1 PUSH2 0x2746 PUSH2 0x2D35 JUMP JUMPDEST PUSH1 0x1 PUSH1 0x1 PUSH1 0xA0 SHL SUB AND SWAP3 PUSH2 0x275B DUP5 ISZERO ISZERO PUSH2 0x31D9 JUMP JUMPDEST DUP4 DUP6 MSTORE PUSH1 0xB DUP3 MSTORE PUSH2 0x82F DUP2 PUSH1 0x40 DUP8 KECCAK256 SWAP1 PUSH1 0xFF DUP1 NOT DUP4 SLOAD AND SWAP2 ISZERO ISZERO AND OR SWAP1 SSTORE JUMP JUMPDEST POP CALLVALUE PUSH2 0x1B9 JUMPI PUSH1 0x20 CALLDATASIZE PUSH1 0x3 NOT ADD SLT PUSH2 0x1B9 JUMPI PUSH2 0x2795 PUSH2 0x2AF3 JUMP JUMPDEST PUSH2 0x279D PUSH2 0x2D35 JUMP JUMPDEST PUSH1 0x1 PUSH1 0x1 PUSH1 0xA0 SHL SUB AND DUP1 ISZERO PUSH2 0x27E5 JUMPI PUSH1 0x4 DUP1 SLOAD PUSH1 0x1 PUSH1 0x1 PUSH1 0xA0 SHL SUB NOT AND DUP3 OR SWAP1 SSTORE PUSH32 0xBA887708E7D4436DD36B62187BDCED03E0B9ABE66CAF392A66DD84386641B209 DUP3 DUP1 LOG2 DUP1 RETURN JUMPDEST PUSH1 0x40 MLOAD PUSH3 0x461BCD PUSH1 0xE5 SHL DUP2 MSTORE PUSH1 0x20 PUSH1 0x4 DUP3 ADD MSTORE PUSH1 0x11 PUSH1 0x24 DUP3 ADD MSTORE PUSH17 0x125B9D985B1A59081C9958DA5C1A595B9D PUSH1 0x7A SHL PUSH1 0x44 DUP3 ADD MSTORE PUSH1 0x64 SWAP1 REVERT JUMPDEST POP CALLVALUE PUSH2 0x1B9 JUMPI PUSH1 0x40 CALLDATASIZE PUSH1 0x3 NOT ADD SLT PUSH2 0x1B9 JUMPI PUSH1 0x24 CALLDATALOAD PUSH1 0x4 CALLDATALOAD DUP3 MSTORE PUSH1 0x8 PUSH1 0x20 MSTORE PUSH1 0x40 DUP3 KECCAK256 DUP1 SLOAD DUP3 LT ISZERO PUSH2 0xD27 JUMPI PUSH1 0x20 DUP4 PUSH1 0x3 SWAP3 PUSH1 0x80 SWAP6 MSTORE KECCAK256 SWAP2 MUL ADD DUP1 SLOAD SWAP1 PUSH1 0xFF PUSH1 0x2 PUSH1 0x1 DUP4 ADD SLOAD SWAP3 ADD SLOAD AND SWAP1 PUSH1 0xFF PUSH1 0x40 MLOAD SWAP4 PUSH1 0x1 DUP1 PUSH1 0xA0 SHL SUB DUP2 AND DUP6 MSTORE PUSH1 0xA0 SHR AND ISZERO ISZERO PUSH1 0x20 DUP5 ADD MSTORE PUSH1 0x40 DUP4 ADD MSTORE ISZERO ISZERO PUSH1 0x60 DUP3 ADD MSTORE RETURN JUMPDEST POP CALLVALUE PUSH2 0x1B9 JUMPI PUSH1 0x20 CALLDATASIZE PUSH1 0x3 NOT ADD SLT PUSH2 0x1B9 JUMPI PUSH1 0x4 CALLDATALOAD PUSH2 0x28B0 PUSH2 0x2EA1 JUMP JUMPDEST DUP1 DUP3 MSTORE PUSH1 0x7 PUSH1 0x20 MSTORE PUSH1 0x40 DUP3 KECCAK256 PUSH1 0x1 DUP2 ADD DUP1 SLOAD PUSH2 0x28D4 PUSH1 0x1 PUSH1 0xFF DUP4 AND PUSH2 0x221 DUP2 PUSH2 0x2B4E JUMP JUMPDEST PUSH1 0x6 DUP4 ADD SWAP2 DUP3 SLOAD PUSH1 0xFF DUP2 AND PUSH1 0x8 DUP2 LT ISZERO PUSH2 0x9A6 JUMPI PUSH1 0x6 PUSH2 0x28F4 SWAP2 EQ PUSH2 0x3194 JUMP JUMPDEST PUSH1 0x1 DUP1 PUSH1 0xA0 SHL SUB DUP1 SWAP4 PUSH1 0x8 SHR AND SWAP4 DUP5 CALLER EQ DUP1 ISZERO PUSH2 0x2ABF JUMPI JUMPDEST ISZERO PUSH2 0x2A6E JUMPI PUSH1 0x7 PUSH1 0xFF NOT DUP1 SWAP4 AND OR SWAP1 SSTORE PUSH1 0x1 PUSH1 0xD DUP7 ADD SWAP2 DUP3 SLOAD AND OR SWAP1 SSTORE PUSH1 0x4 DUP5 ADD SLOAD SWAP4 DUP7 DUP4 PUSH1 0x2 SLOAD AND SWAP5 PUSH1 0x2 DUP4 ADD SWAP6 DUP6 PUSH1 0x3 DUP2 DUP10 SLOAD AND SWAP6 ADD SLOAD AND SWAP1 DUP1 EXTCODESIZE ISZERO PUSH2 0x34F JUMPI DUP4 DUP11 SWAP2 PUSH2 0x104 SWAP4 PUSH1 0x40 MLOAD SWAP8 DUP9 SWAP7 DUP8 SWAP6 PUSH4 0x60DAE9AF PUSH1 0xE1 SHL DUP8 MSTORE PUSH1 0x4 DUP8 ADD MSTORE PUSH1 0x24 DUP7 ADD MSTORE PUSH1 0x44 DUP6 ADD MSTORE PUSH1 0x64 DUP5 ADD MSTORE DUP11 PUSH1 0x84 DUP5 ADD MSTORE PUSH1 0xC0 PUSH1 0xA4 DUP5 ADD MSTORE PUSH1 0x20 PUSH1 0xC4 DUP5 ADD MSTORE PUSH32 0x4D757475616C20726566756E642061677265656D656E74206163636570746564 PUSH1 0xE4 DUP5 ADD MSTORE GAS CALL DUP1 ISZERO PUSH2 0x2A63 JUMPI PUSH2 0x2A27 JUMPI JUMPDEST POP PUSH1 0x20 DUP3 DUP7 SWAP4 PUSH32 0xF91AA0A9813CBC386975170E821FB6193D22AB6759DE1354D8F4C4F7CF42AD91 SWAP4 SLOAD PUSH1 0x8 SHR AND SWAP5 SLOAD AND SWAP5 PUSH1 0x40 MLOAD SWAP1 DUP2 MSTORE LOG4 CALLER SWAP1 PUSH32 0xFD3D8EB8C74C125342483824FD0AD7E0033D5D74D8ED512A0B4FB798D38C685A DUP4 DUP1 LOG3 PUSH1 0x1 DUP2 SSTORE DUP1 RETURN JUMPDEST DUP3 DUP7 SWAP4 PUSH32 0xF91AA0A9813CBC386975170E821FB6193D22AB6759DE1354D8F4C4F7CF42AD91 SWAP4 SWAP9 PUSH2 0x2A58 PUSH1 0x20 SWAP5 PUSH2 0x2C3F JUMP JUMPDEST SWAP9 SWAP4 POP POP SWAP3 POP PUSH2 0x29C2 JUMP JUMPDEST PUSH1 0x40 MLOAD RETURNDATASIZE DUP10 DUP3 RETURNDATACOPY RETURNDATASIZE SWAP1 REVERT JUMPDEST PUSH1 0x40 MLOAD PUSH3 0x461BCD PUSH1 0xE5 SHL DUP2 MSTORE PUSH1 0x20 PUSH1 0x4 DUP3 ADD MSTORE PUSH1 0x23 PUSH1 0x24 DUP3 ADD MSTORE PUSH32 0x4F6E6C79207061727469636970616E74732063616E2061636365707420726566 PUSH1 0x44 DUP3 ADD MSTORE PUSH3 0x1D5B99 PUSH1 0xEA SHL PUSH1 0x64 DUP3 ADD MSTORE PUSH1 0x84 SWAP1 REVERT JUMPDEST POP DUP4 PUSH1 0x2 DUP8 ADD SLOAD AND CALLER EQ PUSH2 0x290C JUMP JUMPDEST SWAP1 POP CALLVALUE PUSH2 0x4CD JUMPI DUP2 PUSH1 0x3 NOT CALLDATASIZE ADD SLT PUSH2 0x4CD JUMPI PUSH1 0x2 SLOAD PUSH1 0x1 PUSH1 0x1 PUSH1 0xA0 SHL SUB AND DUP2 MSTORE PUSH1 0x20 SWAP1 RETURN JUMPDEST PUSH1 0x4 CALLDATALOAD SWAP1 PUSH1 0x1 PUSH1 0x1 PUSH1 0xA0 SHL SUB DUP3 AND DUP3 SUB PUSH2 0x1214 JUMPI JUMP JUMPDEST PUSH1 0x24 CALLDATALOAD SWAP1 PUSH1 0x1 PUSH1 0x1 PUSH1 0xA0 SHL SUB DUP3 AND DUP3 SUB PUSH2 0x1214 JUMPI JUMP JUMPDEST PUSH1 0x40 SWAP1 PUSH1 0x3 NOT ADD SLT PUSH2 0x1214 JUMPI PUSH1 0x4 CALLDATALOAD PUSH1 0x1 PUSH1 0x1 PUSH1 0xA0 SHL SUB DUP2 AND DUP2 SUB PUSH2 0x1214 JUMPI SWAP1 PUSH1 0x24 CALLDATALOAD DUP1 ISZERO ISZERO DUP2 SUB PUSH2 0x1214 JUMPI SWAP1 JUMP JUMPDEST PUSH1 0x2 GT ISZERO PUSH2 0x1B11 JUMPI JUMP JUMPDEST SWAP1 PUSH1 0x8 DUP3 LT ISZERO PUSH2 0x1B11 JUMPI MSTORE JUMP JUMPDEST SWAP2 SWAP1 DUP3 MLOAD SWAP3 DUP4 DUP3 MSTORE PUSH1 0x0 JUMPDEST DUP5 DUP2 LT PUSH2 0x2B91 JUMPI POP POP DUP3 PUSH1 0x0 PUSH1 0x20 DUP1 SWAP5 SWAP6 DUP5 ADD ADD MSTORE PUSH1 0x1F DUP1 NOT SWAP2 ADD AND ADD ADD SWAP1 JUMP JUMPDEST PUSH1 0x20 DUP2 DUP4 ADD DUP2 ADD MLOAD DUP5 DUP4 ADD DUP3 ADD MSTORE ADD PUSH2 0x2B70 JUMP JUMPDEST SWAP2 DUP2 PUSH1 0x1F DUP5 ADD SLT ISZERO PUSH2 0x1214 JUMPI DUP3 CALLDATALOAD SWAP2 PUSH1 0x1 PUSH1 0x1 PUSH1 0x40 SHL SUB DUP4 GT PUSH2 0x1214 JUMPI PUSH1 0x20 DUP4 DUP2 DUP7 ADD SWAP6 ADD ADD GT PUSH2 0x1214 JUMPI JUMP JUMPDEST SWAP1 PUSH1 0x40 PUSH1 0x3 NOT DUP4 ADD SLT PUSH2 0x1214 JUMPI PUSH1 0x4 CALLDATALOAD SWAP2 PUSH1 0x24 CALLDATALOAD SWAP1 PUSH1 0x1 PUSH1 0x1 PUSH1 0x40 SHL SUB DUP3 GT PUSH2 0x1214 JUMPI PUSH2 0x2C01 SWAP2 PUSH1 0x4 ADD PUSH2 0x2BA5 JUMP JUMPDEST SWAP1 SWAP2 JUMP JUMPDEST SWAP1 PUSH1 0x1 DUP3 DUP2 SHR SWAP3 AND DUP1 ISZERO PUSH2 0x2C35 JUMPI JUMPDEST PUSH1 0x20 DUP4 LT EQ PUSH2 0x2C1F JUMPI JUMP JUMPDEST PUSH4 0x4E487B71 PUSH1 0xE0 SHL PUSH1 0x0 MSTORE PUSH1 0x22 PUSH1 0x4 MSTORE PUSH1 0x24 PUSH1 0x0 REVERT JUMPDEST SWAP2 PUSH1 0x7F AND SWAP2 PUSH2 0x2C14 JUMP JUMPDEST PUSH1 0x1 PUSH1 0x1 PUSH1 0x40 SHL SUB DUP2 GT PUSH2 0x744 JUMPI PUSH1 0x40 MSTORE JUMP JUMPDEST PUSH2 0x260 DUP2 ADD SWAP1 DUP2 LT PUSH1 0x1 PUSH1 0x1 PUSH1 0x40 SHL SUB DUP3 GT OR PUSH2 0x744 JUMPI PUSH1 0x40 MSTORE JUMP JUMPDEST SWAP1 PUSH1 0x1F DUP1 NOT SWAP2 ADD AND DUP2 ADD SWAP1 DUP2 LT PUSH1 0x1 PUSH1 0x1 PUSH1 0x40 SHL SUB DUP3 GT OR PUSH2 0x744 JUMPI PUSH1 0x40 MSTORE JUMP JUMPDEST SWAP1 PUSH1 0x40 MLOAD SWAP2 DUP3 PUSH1 0x0 DUP3 SLOAD SWAP3 PUSH2 0x2CA3 DUP5 PUSH2 0x2C05 JUMP JUMPDEST SWAP1 DUP2 DUP5 MSTORE PUSH1 0x1 SWAP5 DUP6 DUP2 AND SWAP1 DUP2 PUSH1 0x0 EQ PUSH2 0x2D12 JUMPI POP PUSH1 0x1 EQ PUSH2 0x2CCF JUMPI JUMPDEST POP POP PUSH2 0x2CCD SWAP3 POP SUB DUP4 PUSH2 0x2C6E JUMP JUMPDEST JUMP JUMPDEST SWAP1 SWAP4 SWAP2 POP PUSH1 0x0 MSTORE PUSH1 0x20 SWAP1 DUP2 PUSH1 0x0 KECCAK256 SWAP4 PUSH1 0x0 SWAP2 JUMPDEST DUP2 DUP4 LT PUSH2 0x2CFA JUMPI POP POP PUSH2 0x2CCD SWAP4 POP DUP3 ADD ADD CODESIZE DUP1 PUSH2 0x2CBF JUMP JUMPDEST DUP6 SLOAD DUP9 DUP5 ADD DUP6 ADD MSTORE SWAP5 DUP6 ADD SWAP5 DUP8 SWAP5 POP SWAP2 DUP4 ADD SWAP2 PUSH2 0x2CE2 JUMP JUMPDEST SWAP2 POP POP PUSH2 0x2CCD SWAP5 POP PUSH1 0x20 SWAP3 POP PUSH1 0xFF NOT AND DUP3 DUP5 ADD MSTORE ISZERO ISZERO PUSH1 0x5 SHL DUP3 ADD ADD CODESIZE DUP1 PUSH2 0x2CBF JUMP JUMPDEST PUSH1 0x1 SLOAD PUSH1 0x1 PUSH1 0x1 PUSH1 0xA0 SHL SUB AND CALLER SUB PUSH2 0x2D49 JUMPI JUMP JUMPDEST PUSH1 0x40 MLOAD PUSH4 0x118CDAA7 PUSH1 0xE0 SHL DUP2 MSTORE CALLER PUSH1 0x4 DUP3 ADD MSTORE PUSH1 0x24 SWAP1 REVERT JUMPDEST ISZERO PUSH2 0x2D68 JUMPI JUMP JUMPDEST PUSH1 0x40 MLOAD PUSH3 0x461BCD PUSH1 0xE5 SHL DUP2 MSTORE PUSH1 0x20 PUSH1 0x4 DUP3 ADD MSTORE PUSH1 0x14 PUSH1 0x24 DUP3 ADD MSTORE PUSH20 0x151BDAD95B881A5CC8189B1858DADB1A5CDD1959 PUSH1 0x62 SHL PUSH1 0x44 DUP3 ADD MSTORE PUSH1 0x64 SWAP1 REVERT JUMPDEST ISZERO PUSH2 0x2DAB JUMPI JUMP JUMPDEST PUSH1 0x40 MLOAD PUSH3 0x461BCD PUSH1 0xE5 SHL DUP2 MSTORE PUSH1 0x20 PUSH1 0x4 DUP3 ADD MSTORE PUSH1 0x11 PUSH1 0x24 DUP3 ADD MSTORE PUSH17 0x5374616B65206D757374206265203E203 PUSH1 0x7C SHL PUSH1 0x44 DUP3 ADD MSTORE PUSH1 0x64 SWAP1 REVERT JUMPDEST ISZERO PUSH2 0x2DEB JUMPI JUMP JUMPDEST PUSH1 0x40 MLOAD PUSH3 0x461BCD PUSH1 0xE5 SHL DUP2 MSTORE PUSH1 0x20 PUSH1 0x4 DUP3 ADD MSTORE PUSH1 0x19 PUSH1 0x24 DUP3 ADD MSTORE PUSH32 0x506F696E747320726577617264206D757374206265203E203000000000000000 PUSH1 0x44 DUP3 ADD MSTORE PUSH1 0x64 SWAP1 REVERT JUMPDEST ISZERO PUSH2 0x2E37 JUMPI JUMP JUMPDEST PUSH1 0x40 MLOAD PUSH3 0x461BCD PUSH1 0xE5 SHL DUP2 MSTORE PUSH1 0x20 PUSH1 0x4 DUP3 ADD MSTORE PUSH1 0x1F PUSH1 0x24 DUP3 ADD MSTORE PUSH32 0x506F696E7473207265776172642063616E6E6F74206578636565642035303000 PUSH1 0x44 DUP3 ADD MSTORE PUSH1 0x64 SWAP1 REVERT JUMPDEST PUSH1 0x0 NOT DUP2 EQ PUSH2 0x2E8B JUMPI PUSH1 0x1 ADD SWAP1 JUMP JUMPDEST PUSH4 0x4E487B71 PUSH1 0xE0 SHL PUSH1 0x0 MSTORE PUSH1 0x11 PUSH1 0x4 MSTORE PUSH1 0x24 PUSH1 0x0 REVERT JUMPDEST PUSH1 0x2 PUSH1 0x0 SLOAD EQ PUSH2 0x2EB2 JUMPI PUSH1 0x2 PUSH1 0x0 SSTORE JUMP JUMPDEST PUSH1 0x40 MLOAD PUSH4 0x3EE5AEB5 PUSH1 0xE0 SHL DUP2 MSTORE PUSH1 0x4 SWAP1 REVERT JUMPDEST ISZERO PUSH2 0x2ECB JUMPI JUMP JUMPDEST PUSH1 0x40 MLOAD PUSH3 0x461BCD PUSH1 0xE5 SHL DUP2 MSTORE PUSH1 0x20 PUSH1 0x4 DUP3 ADD MSTORE PUSH1 0x19 PUSH1 0x24 DUP3 ADD MSTORE PUSH32 0x43616E6E6F74206368616C6C656E676520796F757273656C6600000000000000 PUSH1 0x44 DUP3 ADD MSTORE PUSH1 0x64 SWAP1 REVERT JUMPDEST ISZERO PUSH2 0x2F17 JUMPI JUMP JUMPDEST PUSH1 0x40 MLOAD PUSH3 0x461BCD PUSH1 0xE5 SHL DUP2 MSTORE PUSH1 0x20 PUSH1 0x4 DUP3 ADD MSTORE PUSH1 0xC PUSH1 0x24 DUP3 ADD MSTORE PUSH12 0x496E76616C69642073696465 PUSH1 0xA0 SHL PUSH1 0x44 DUP3 ADD MSTORE PUSH1 0x64 SWAP1 REVERT JUMPDEST ISZERO PUSH2 0x2F52 JUMPI JUMP JUMPDEST PUSH1 0x40 MLOAD PUSH3 0x461BCD PUSH1 0xE5 SHL DUP2 MSTORE PUSH1 0x20 PUSH1 0x4 DUP3 ADD MSTORE PUSH1 0x19 PUSH1 0x24 DUP3 ADD MSTORE PUSH32 0x446F206E6F742073656E642045544820666F7220455243323000000000000000 PUSH1 0x44 DUP3 ADD MSTORE PUSH1 0x64 SWAP1 REVERT JUMPDEST ISZERO PUSH2 0x2F9E JUMPI JUMP JUMPDEST PUSH1 0x40 MLOAD PUSH3 0x461BCD PUSH1 0xE5 SHL DUP2 MSTORE PUSH1 0x20 PUSH1 0x4 DUP3 ADD MSTORE PUSH1 0x13 PUSH1 0x24 DUP3 ADD MSTORE PUSH19 0x8AA89040C2DADEEADCE840DAD2E6DAC2E8C6D PUSH1 0x6B SHL PUSH1 0x44 DUP3 ADD MSTORE PUSH1 0x64 SWAP1 REVERT JUMPDEST SWAP1 PUSH2 0x2FE3 DUP2 PUSH2 0x2B4E JUMP JUMPDEST PUSH1 0xFF DUP1 NOT DUP4 SLOAD AND SWAP2 AND OR SWAP1 SSTORE JUMP JUMPDEST PUSH1 0x1 PUSH1 0x1 PUSH1 0xA0 SHL SUB SWAP2 DUP3 AND DUP2 MSTORE SWAP2 AND PUSH1 0x20 DUP3 ADD MSTORE PUSH1 0x40 DUP2 ADD SWAP2 SWAP1 SWAP2 MSTORE PUSH1 0x60 DUP2 ADD SWAP2 SWAP1 SWAP2 MSTORE PUSH1 0x80 ADD SWAP1 JUMP JUMPDEST PUSH1 0x40 MLOAD PUSH4 0x23B872DD PUSH1 0xE0 SHL PUSH1 0x20 DUP3 ADD MSTORE PUSH1 0x1 PUSH1 0x1 PUSH1 0xA0 SHL SUB SWAP3 DUP4 AND PUSH1 0x24 DUP3 ADD MSTORE SWAP3 SWAP1 SWAP2 AND PUSH1 0x44 DUP4 ADD MSTORE PUSH1 0x64 DUP1 DUP4 ADD SWAP4 SWAP1 SWAP4 MSTORE SWAP2 DUP2 MSTORE PUSH1 0xA0 DUP2 ADD SWAP2 DUP2 DUP4 LT PUSH1 0x1 PUSH1 0x1 PUSH1 0x40 SHL SUB DUP5 GT OR PUSH2 0x744 JUMPI PUSH2 0x2CCD SWAP3 PUSH1 0x40 MSTORE JUMPDEST SWAP1 PUSH1 0x0 PUSH1 0x20 SWAP2 DUP3 DUP2 MLOAD SWAP2 ADD DUP3 DUP6 GAS CALL ISZERO PUSH2 0x30CB JUMPI PUSH1 0x0 MLOAD RETURNDATASIZE PUSH2 0x30C2 JUMPI POP PUSH1 0x1 PUSH1 0x1 PUSH1 0xA0 SHL SUB DUP2 AND EXTCODESIZE ISZERO JUMPDEST PUSH2 0x30A0 JUMPI POP JUMP JUMPDEST PUSH1 0x40 MLOAD PUSH4 0x5274AFE7 PUSH1 0xE0 SHL DUP2 MSTORE PUSH1 0x1 PUSH1 0x1 PUSH1 0xA0 SHL SUB SWAP1 SWAP2 AND PUSH1 0x4 DUP3 ADD MSTORE PUSH1 0x24 SWAP1 REVERT JUMPDEST PUSH1 0x1 EQ ISZERO PUSH2 0x3099 JUMP JUMPDEST PUSH1 0x40 MLOAD RETURNDATASIZE PUSH1 0x0 DUP3 RETURNDATACOPY RETURNDATASIZE SWAP1 REVERT JUMPDEST ISZERO PUSH2 0x30DE JUMPI JUMP JUMPDEST PUSH1 0x40 MLOAD PUSH3 0x461BCD PUSH1 0xE5 SHL DUP2 MSTORE PUSH1 0x20 PUSH1 0x4 DUP3 ADD MSTORE PUSH1 0x11 PUSH1 0x24 DUP3 ADD MSTORE PUSH17 0x4E6F7420503250206368616C6C656E6765 PUSH1 0x78 SHL PUSH1 0x44 DUP3 ADD MSTORE PUSH1 0x64 SWAP1 REVERT JUMPDEST SWAP1 PUSH2 0x3121 DUP2 PUSH2 0x2B4E JUMP JUMPDEST PUSH2 0xFF00 DUP3 SLOAD SWAP2 PUSH1 0x8 SHL AND SWAP1 PUSH2 0xFF00 NOT AND OR SWAP1 SSTORE JUMP JUMPDEST ISZERO PUSH2 0x313D JUMPI JUMP JUMPDEST PUSH1 0x40 MLOAD PUSH3 0x461BCD PUSH1 0xE5 SHL DUP2 MSTORE PUSH1 0x20 PUSH1 0x4 DUP3 ADD MSTORE PUSH1 0xE PUSH1 0x24 DUP3 ADD MSTORE PUSH14 0x496E76616C696420737461747573 PUSH1 0x90 SHL PUSH1 0x44 DUP3 ADD MSTORE PUSH1 0x64 SWAP1 REVERT JUMPDEST SWAP1 DUP1 PUSH1 0x20 SWAP4 SWAP3 DUP2 DUP5 MSTORE DUP5 DUP5 ADD CALLDATACOPY PUSH1 0x0 DUP3 DUP3 ADD DUP5 ADD MSTORE PUSH1 0x1F ADD PUSH1 0x1F NOT AND ADD ADD SWAP1 JUMP JUMPDEST ISZERO PUSH2 0x319B JUMPI JUMP JUMPDEST PUSH1 0x40 MLOAD PUSH3 0x461BCD PUSH1 0xE5 SHL DUP2 MSTORE PUSH1 0x20 PUSH1 0x4 DUP3 ADD MSTORE PUSH1 0x16 PUSH1 0x24 DUP3 ADD MSTORE PUSH22 0x10DA185B1B195B99D9481B9BDD08191A5CDC1D5D1959 PUSH1 0x52 SHL PUSH1 0x44 DUP3 ADD MSTORE PUSH1 0x64 SWAP1 REVERT JUMPDEST ISZERO PUSH2 0x31E0 JUMPI JUMP JUMPDEST PUSH1 0x40 MLOAD PUSH3 0x461BCD PUSH1 0xE5 SHL DUP2 MSTORE PUSH1 0x20 PUSH1 0x4 DUP3 ADD MSTORE PUSH1 0xD PUSH1 0x24 DUP3 ADD MSTORE PUSH13 0x24B73B30B634B2103A37B5B2B7 PUSH1 0x99 SHL PUSH1 0x44 DUP3 ADD MSTORE PUSH1 0x64 SWAP1 REVERT INVALID 0xDA DUP1 0x2D 0x1F PUSH18 0x2D76BC374130E717018A5B3A7AD3AF3DF40E STATICCALL SSTORE SWAP11 0x23 0xB9 PUSH11 0x485067A264697066735822 SLT KECCAK256 PUSH32 0x1CAD135E57EB734BEE72D3801E3469D02D777D696C9454D1604BA9FB989FB664 PUSH20 0x6F6C634300081400330000000000000000000000 "},"methodIdentifiers":{"acceptP2PChallenge(uint256,uint256,uint256,uint8,bytes32,bytes32)":"907cc00c","acceptRefund(uint256)":"028df0d4","admin()":"f851a440","blacklistToken(address,bool)":"190e4c55","blacklistedTokens(address)":"5c8b5f44","challenges(uint256)":"8f1d3776","claimStake(uint256)":"44c7d6ef","createGroupChallenge(address,uint256,uint256,string)":"c25d8b7b","createP2PChallenge(address,address,uint256,uint256,uint256,string)":"62193bc8","declineRefund(uint256)":"4b117e32","forceRefund(uint256,string)":"3ae5ef0e","getChallenge(uint256)":"1bdd4b74","getPlatformFeeBalance(address)":"68a2b7de","groupChallengeParticipants(uint256,uint256)":"0d8d2d08","isTokenBlacklisted(address)":"ce9be9ba","isTokenVerified(address)":"ec867b27","lockCreatorStake(uint256)":"f4a947ef","nextChallengeId()":"fc67aa50","owner()":"8da5cb5b","p2pChallengeAmounts(uint256)":"69249fba","platformFeeBalance(address)":"86ff06e7","platformFeePercentage()":"cdd78cfc","platformFeeRecipient()":"eb13554f","renounceOwnership()":"715018a6","requestRefund(uint256,string)":"c5ac3d4b","setAdmin(address)":"704b6c02","setPlatformFeePercentage(uint256)":"8333903e","setPlatformFeeRecipient(address)":"1871e243","stakeAndCreateP2PChallenge(address,address,uint256,uint256,uint256,string,uint256,uint8,bytes32,bytes32)":"2880d769","stakeEscrow()":"017b975b","transferOwnership(address)":"f2fde38b","verifiedTokens(address)":"1baaaffe","verifyToken(address,bool)":"d2d66482","withdrawPlatformFees(address)":"ec3889b5"}}}}}