{
  "_format": "hh-sol-artifact-1",
  "contractName": "ChallengeEscrow",
  "sourceName": "src/ChallengeEscrow.sol",
  "abi": [
    {
      "inputs": [
        {
          "internalType": "address",
          "name": "_challengeFactory",
          "type": "address"
        }
      ],
      "stateMutability": "nonpayable",
      "type": "constructor"
    },
    {
      "inputs": [
        {
          "internalType": "address",
          "name": "owner",
          "type": "address"
        }
      ],
      "name": "OwnableInvalidOwner",
      "type": "error"
    },
    {
      "inputs": [
        {
          "internalType": "address",
          "name": "account",
          "type": "address"
        }
      ],
      "name": "OwnableUnauthorizedAccount",
      "type": "error"
    },
    {
      "inputs": [],
      "name": "ReentrancyGuardReentrantCall",
      "type": "error"
    },
    {
      "inputs": [
        {
          "internalType": "address",
          "name": "token",
          "type": "address"
        }
      ],
      "name": "SafeERC20FailedOperation",
      "type": "error"
    },
    {
      "anonymous": false,
      "inputs": [
        {
          "indexed": true,
          "internalType": "address",
          "name": "newFactory",
          "type": "address"
        }
      ],
      "name": "ChallengeFactoryUpdated",
      "type": "event"
    },
    {
      "anonymous": false,
      "inputs": [
        {
          "indexed": true,
          "internalType": "address",
          "name": "previousOwner",
          "type": "address"
        },
        {
          "indexed": true,
          "internalType": "address",
          "name": "newOwner",
          "type": "address"
        }
      ],
      "name": "OwnershipTransferred",
      "type": "event"
    },
    {
      "anonymous": false,
      "inputs": [
        {
          "indexed": true,
          "internalType": "address",
          "name": "user",
          "type": "address"
        },
        {
          "indexed": true,
          "internalType": "address",
          "name": "token",
          "type": "address"
        },
        {
          "indexed": false,
          "internalType": "uint256",
          "name": "amount",
          "type": "uint256"
        },
        {
          "indexed": true,
          "internalType": "uint256",
          "name": "challengeId",
          "type": "uint256"
        }
      ],
      "name": "StakeLocked",
      "type": "event"
    },
    {
      "anonymous": false,
      "inputs": [
        {
          "indexed": true,
          "internalType": "address",
          "name": "user",
          "type": "address"
        },
        {
          "indexed": true,
          "internalType": "address",
          "name": "token",
          "type": "address"
        },
        {
          "indexed": false,
          "internalType": "uint256",
          "name": "amount",
          "type": "uint256"
        },
        {
          "indexed": true,
          "internalType": "uint256",
          "name": "challengeId",
          "type": "uint256"
        }
      ],
      "name": "StakeReleased",
      "type": "event"
    },
    {
      "anonymous": false,
      "inputs": [
        {
          "indexed": true,
          "internalType": "address",
          "name": "from",
          "type": "address"
        },
        {
          "indexed": true,
          "internalType": "address",
          "name": "to",
          "type": "address"
        },
        {
          "indexed": true,
          "internalType": "address",
          "name": "token",
          "type": "address"
        },
        {
          "indexed": false,
          "internalType": "uint256",
          "name": "amount",
          "type": "uint256"
        },
        {
          "indexed": false,
          "internalType": "uint256",
          "name": "challengeId",
          "type": "uint256"
        },
        {
          "indexed": false,
          "internalType": "string",
          "name": "reason",
          "type": "string"
        }
      ],
      "name": "StakeTransferred",
      "type": "event"
    },
    {
      "anonymous": false,
      "inputs": [
        {
          "indexed": true,
          "internalType": "address",
          "name": "user1",
          "type": "address"
        },
        {
          "indexed": true,
          "internalType": "address",
          "name": "user2",
          "type": "address"
        },
        {
          "indexed": true,
          "internalType": "address",
          "name": "token",
          "type": "address"
        },
        {
          "indexed": false,
          "internalType": "uint256",
          "name": "amount",
          "type": "uint256"
        },
        {
          "indexed": false,
          "internalType": "uint256",
          "name": "challengeId",
          "type": "uint256"
        },
        {
          "indexed": false,
          "internalType": "string",
          "name": "reason",
          "type": "string"
        }
      ],
      "name": "StakesRefunded",
      "type": "event"
    },
    {
      "inputs": [],
      "name": "challengeFactory",
      "outputs": [
        {
          "internalType": "address",
          "name": "",
          "type": "address"
        }
      ],
      "stateMutability": "view",
      "type": "function"
    },
    {
      "inputs": [
        {
          "internalType": "uint256",
          "name": "",
          "type": "uint256"
        },
        {
          "internalType": "uint256",
          "name": "",
          "type": "uint256"
        }
      ],
      "name": "challengeParticipants",
      "outputs": [
        {
          "internalType": "address",
          "name": "",
          "type": "address"
        }
      ],
      "stateMutability": "view",
      "type": "function"
    },
    {
      "inputs": [
        {
          "internalType": "uint256",
          "name": "",
          "type": "uint256"
        },
        {
          "internalType": "uint256",
          "name": "",
          "type": "uint256"
        }
      ],
      "name": "challengeStakes",
      "outputs": [
        {
          "internalType": "address",
          "name": "token",
          "type": "address"
        },
        {
          "internalType": "uint256",
          "name": "amount",
          "type": "uint256"
        },
        {
          "internalType": "uint256",
          "name": "lockedAt",
          "type": "uint256"
        },
        {
          "internalType": "uint256",
          "name": "challengeId",
          "type": "uint256"
        },
        {
          "internalType": "bool",
          "name": "released",
          "type": "bool"
        }
      ],
      "stateMutability": "view",
      "type": "function"
    },
    {
      "inputs": [
        {
          "internalType": "uint256",
          "name": "challengeId",
          "type": "uint256"
        }
      ],
      "name": "getChallengeParticipants",
      "outputs": [
        {
          "internalType": "address[]",
          "name": "",
          "type": "address[]"
        }
      ],
      "stateMutability": "view",
      "type": "function"
    },
    {
      "inputs": [
        {
          "internalType": "uint256",
          "name": "challengeId",
          "type": "uint256"
        }
      ],
      "name": "getChallengeStakes",
      "outputs": [
        {
          "components": [
            {
              "internalType": "address",
              "name": "token",
              "type": "address"
            },
            {
              "internalType": "uint256",
              "name": "amount",
              "type": "uint256"
            },
            {
              "internalType": "uint256",
              "name": "lockedAt",
              "type": "uint256"
            },
            {
              "internalType": "uint256",
              "name": "challengeId",
              "type": "uint256"
            },
            {
              "internalType": "bool",
              "name": "released",
              "type": "bool"
            }
          ],
          "internalType": "struct ChallengeEscrow.LockedStake[]",
          "name": "",
          "type": "tuple[]"
        }
      ],
      "stateMutability": "view",
      "type": "function"
    },
    {
      "inputs": [
        {
          "internalType": "address",
          "name": "user",
          "type": "address"
        },
        {
          "internalType": "address",
          "name": "token",
          "type": "address"
        }
      ],
      "name": "getTotalLockedByToken",
      "outputs": [
        {
          "internalType": "uint256",
          "name": "",
          "type": "uint256"
        }
      ],
      "stateMutability": "view",
      "type": "function"
    },
    {
      "inputs": [
        {
          "internalType": "address",
          "name": "user",
          "type": "address"
        },
        {
          "internalType": "address",
          "name": "token",
          "type": "address"
        },
        {
          "internalType": "uint256",
          "name": "amount",
          "type": "uint256"
        },
        {
          "internalType": "uint256",
          "name": "challengeId",
          "type": "uint256"
        }
      ],
      "name": "lockStake",
      "outputs": [],
      "stateMutability": "nonpayable",
      "type": "function"
    },
    {
      "inputs": [],
      "name": "owner",
      "outputs": [
        {
          "internalType": "address",
          "name": "",
          "type": "address"
        }
      ],
      "stateMutability": "view",
      "type": "function"
    },
    {
      "inputs": [
        {
          "internalType": "uint256",
          "name": "challengeId",
          "type": "uint256"
        },
        {
          "internalType": "address",
          "name": "user1",
          "type": "address"
        },
        {
          "internalType": "address",
          "name": "user2",
          "type": "address"
        },
        {
          "internalType": "address",
          "name": "token",
          "type": "address"
        },
        {
          "internalType": "uint256",
          "name": "amount",
          "type": "uint256"
        },
        {
          "internalType": "string",
          "name": "reason",
          "type": "string"
        }
      ],
      "name": "refundBothStakes",
      "outputs": [],
      "stateMutability": "nonpayable",
      "type": "function"
    },
    {
      "inputs": [
        {
          "internalType": "uint256",
          "name": "challengeId",
          "type": "uint256"
        },
        {
          "internalType": "address[]",
          "name": "users",
          "type": "address[]"
        }
      ],
      "name": "releaseStakes",
      "outputs": [],
      "stateMutability": "nonpayable",
      "type": "function"
    },
    {
      "inputs": [],
      "name": "renounceOwnership",
      "outputs": [],
      "stateMutability": "nonpayable",
      "type": "function"
    },
    {
      "inputs": [
        {
          "internalType": "address",
          "name": "_newFactory",
          "type": "address"
        }
      ],
      "name": "setChallengeFactory",
      "outputs": [],
      "stateMutability": "nonpayable",
      "type": "function"
    },
    {
      "inputs": [
        {
          "internalType": "address",
          "name": "",
          "type": "address"
        },
        {
          "internalType": "address",
          "name": "",
          "type": "address"
        }
      ],
      "name": "totalLockedByToken",
      "outputs": [
        {
          "internalType": "uint256",
          "name": "",
          "type": "uint256"
        }
      ],
      "stateMutability": "view",
      "type": "function"
    },
    {
      "inputs": [
        {
          "internalType": "address",
          "name": "newOwner",
          "type": "address"
        }
      ],
      "name": "transferOwnership",
      "outputs": [],
      "stateMutability": "nonpayable",
      "type": "function"
    },
    {
      "inputs": [
        {
          "internalType": "address",
          "name": "from",
          "type": "address"
        },
        {
          "internalType": "address",
          "name": "to",
          "type": "address"
        },
        {
          "internalType": "address",
          "name": "token",
          "type": "address"
        },
        {
          "internalType": "uint256",
          "name": "amount",
          "type": "uint256"
        },
        {
          "internalType": "uint256",
          "name": "challengeId",
          "type": "uint256"
        }
      ],
      "name": "transferStake",
      "outputs": [],
      "stateMutability": "nonpayable",
      "type": "function"
    },
    {
      "stateMutability": "payable",
      "type": "receive"
    }
  ],
  "bytecode": "0x60803461010b57601f61129a38819003918201601f19168301916001600160401b038311848410176101105780849260209460405283398101031261010b57516001600160a01b038082169182900361010b57600160005533156100f25760018054336001600160a01b0319808316821790935560405192939091167f8be0079c531659141344cd1fd0a4f28419497f9722a3daafe3b4186f6b6457e0600080a382156100be5750600254161760025560405161117390816101278239f35b62461bcd60e51b815260206004820152600f60248201526e496e76616c696420666163746f727960881b6044820152606490fd5b604051631e4fbdf760e01b815260006004820152602490fd5b600080fd5b634e487b7160e01b600052604160045260246000fdfe6080604081815260049182361015610022575b505050361561002057600080fd5b005b600090813560e01c908163023bf95814610d505750806312fa0aa014610b69578063137b298814610af75780635479da3d146104085780635c3d9dec14610a545780635dbaf68b14610a2b5780636b12afa014610865578063715018a6146108085780638da5cb5b146107df5780639d7d4b96146106a1578063c1b5d35e14610451578063c84c7da814610408578063f2fde38b14610374578063f4887c7a146101185763ffac1a95036100125734610115576100de36610e49565b9390825260205281812090815484101561011557506020926100ff91610e91565b905491519160018060a01b039160031b1c168152f35b80fd5b50903461037057608036600319011261037057610133610e02565b9061013c610e1d565b600254606435936001600160a01b039160443591839161015f9083163314610ed5565b610167611016565b1692831561033e57829061017c831515610f19565b169384610302575b80519261019084610f5a565b8584526020938481019084825283810190428252606081018a815260808201928c84528b8d5260058952868d209485546801000000000000000096878210156102ed57906101e391600182018155610e5f565b9490946102da57908f94939291889051166bffffffffffffffffffffffff60a01b855416178455516001840155516002830155516003820155019051151560ff8019835416911617905585895260038552828920878a5285528289208054908582018092116102c757558789528985528289208054918210156102b457816102959160017f1d80c2b0b59d2f1543a8b483e392137e35f1d5ebfffcb3ad3a85c07a756363139897969594018155610e91565b819291549060031b9188831b921b191617905551908152a46001815580f35b634e487b7160e01b8a5260418b5260248afd5b634e487b7160e01b8b5260118c5260248bfd5b8f8f80602492634e487b7160e01b825252fd5b508f8f6041602492634e487b7160e01b835252fd5b61033981516323b872dd60e01b60208201523360248201523060448201528360648201526064815261033381610f5a565b86610fae565b610184565b845162461bcd60e51b81526020818a0152600c60248201526b24b73b30b634b2103ab9b2b960a11b6044820152606490fd5b5080fd5b5091346104045760203660031901126104045761038f610e02565b90610398610ea9565b6001600160a01b039182169283156103ee575050600154826bffffffffffffffffffffffff60a01b821617600155167f8be0079c531659141344cd1fd0a4f28419497f9722a3daafe3b4186f6b6457e08380a380f35b51631e4fbdf760e01b8152908101849052602490fd5b8280fd5b50903461037057806003193601126103705780602092610426610e02565b61042e610e1d565b6001600160a01b0391821683526003865283832091168252845220549051908152f35b5091346104045760c03660031901126104045780359161046f610e1d565b610477610e33565b6001600160a01b036064358181169391929084900361069d5760843560a4359367ffffffffffffffff9081861161069957366023870112156106995785890135918211610699573660248388010111610699576104d981600254163314610ed5565b6104e1611016565b808516948515158061068e575b1561065b576104fe841515610f19565b83886106415761053991508c808080938a5af161051961105e565b508c80808088878b165af161052c61105e565b5081610639575b5061109e565b848b5260209360038552888c20888d528552888c206105598582546110de565b90551694858b5260038452878b20878c528452878b2061057a8482546110de565b9055898b5260058452878b20978b5b89548110156105d3578060ff8c6105a36105b1948e610e5f565b50015416156105b657611039565b610589565b8b6105c1828d610e5f565b5001805460ff19166001179055611039565b508b9850918060247f1fd5efa002ba27f4b9b800e7ebe2a184152f8986c5f7f973d2b5189dbc6470fd96959360606080968f8151998a98895288015286015282606086015201848401378181018301899052601f01601f19168101030190a46001815580f35b905038610533565b61064b91896110eb565b6106568385896110eb565b610539565b885162461bcd60e51b81526020818c0152600d60248201526c496e76616c696420757365727360981b6044820152606490fd5b5081851615156104ee565b8a80fd5b8780fd5b508234610370576020908160031936011261040457803583526005918281528484209283549067ffffffffffffffff82116107cc5786519295936106e983831b880185610f8c565b82845286840190819686528786209086925b85841061077057505050505050845193808501918186525180925285850193925b8281106107295785850386f35b835180516001600160a01b03168652808301518684015287810151888701526060808201519087015260809081015115159086015260a0909401939281019260010161071c565b848a6001928d809d9a9b9d519061078682610f5a565b858060a01b03885416825285880154848301526002880154908201526003870154606082015260ff868801541615156080820152815201930193019291989695986106fb565b634e487b7160e01b865260418452602486fd5b50903461037057816003193601126103705760015490516001600160a01b039091168152602090f35b5034610115578060031936011261011557610821610ea9565b600180546001600160a01b0319811690915581906001600160a01b03167f8be0079c531659141344cd1fd0a4f28419497f9722a3daafe3b4186f6b6457e08280a380f35b50913461040457816003193601126104045767ffffffffffffffff9080359060248035848111610a275736602382011215610a275780830135948511610a2757600595368387891b8401011161069d5760018060a09895939497981b036108d181600254163314610ed5565b6108d9611016565b858952602092858452828a20988a985b818a106108f8578b6001815580f35b808a899d9a9b9c9d1b880101359684881698898903610699578a8e5b54811015610a0657906109558f959493928e8e8e8e8e8e8e8e6109388f8a90610e5f565b5090810160ff8154161561095f575b505050505050505050611039565b9091929394610914565b7f607e275a4cdbfc07ae250ee663261b358db8397a819037f055b7c5d9730a821b958383541680156000146109f25750506109a78880808060018701548c5af161053361105e565b6001808301986109cf868b54928b815260038a528181208888541682528a52209182546110de565b905560ff19825416179055541694549051908152a48e8e8e8e8e8e8e3880610947565b610a01916001850154916110eb565b6109a7565b50929a999c9b90939850610a1c91949750611039565b9890969195926108e9565b8680fd5b50903461037057816003193601126103705760025490516001600160a01b039091168152602090f35b50913461040457602036600319011261040457610a6f610e02565b610a77610ea9565b6001600160a01b0316918215610ac2575050600280546001600160a01b031916821790557fb9a1f6d01069d240a4bebe47b464192f46dc977bf49ec60b388e25e4db1a88af8280a280f35b906020606492519162461bcd60e51b8352820152600f60248201526e496e76616c696420666163746f727960881b6044820152fd5b5091903461040457610b0836610e49565b939081526005602052818120908154851015610115575060a093610b2b91610e5f565b50600180851b038154169260018201549260ff6002840154926003850154940154169381519586526020860152840152606083015215156080820152f35b5091346104045760a036600319011261040457610b84610e02565b90610b8d610e1d565b90610b96610e33565b936064359160018060a01b038095610bb382600254163314610ed5565b610bbb611016565b16938415610d1e57858116958615610cee57610bd8851515610f19565b8589526003602052838920971696878952602052828820610bfa8582546110de565b905586610cb557508680808086895af1610c1261105e565b5015610c7d57507fea5d9bc662aefe5f02d7f0544d609f56eb4d7273187209c55fd79fdc1516fe9891606060a0925b80519283526084356020840152820152601460608201527310da185b1b195b99d9481cd95d1d1b195b595b9d60621b6080820152a46001815580f35b6020606492519162461bcd60e51b83528201526013602482015272115512081d1c985b9cd9995c8819985a5b1959606a1b6044820152fd5b83915060a092610ce97fea5d9bc662aefe5f02d7f0544d609f56eb4d7273187209c55fd79fdc1516fe98956060938a6110eb565b610c41565b835162461bcd60e51b8152602081850152600a602482015269496e76616c696420746f60b01b6044820152606490fd5b506020606492519162461bcd60e51b8352820152600c60248201526b496e76616c69642066726f6d60a01b6044820152fd5b905083346104045760209081600319360112610dfe5780949391943582528452828120918254808252858201908194845286842090845b818110610de15750505081610d9d910382610f8c565b83519485948186019282875251809352850193925b828110610dc157505050500390f35b83516001600160a01b031685528695509381019392810192600101610db2565b82546001600160a01b031684529288019260019283019201610d87565b8380fd5b600435906001600160a01b0382168203610e1857565b600080fd5b602435906001600160a01b0382168203610e1857565b604435906001600160a01b0382168203610e1857565b6040906003190112610e18576004359060243590565b8054821015610e7b576000526005602060002091020190600090565b634e487b7160e01b600052603260045260246000fd5b8054821015610e7b5760005260206000200190600090565b6001546001600160a01b03163303610ebd57565b60405163118cdaa760e01b8152336004820152602490fd5b15610edc57565b60405162461bcd60e51b81526020600482015260156024820152744f6e6c79204368616c6c656e6765466163746f727960581b6044820152606490fd5b15610f2057565b60405162461bcd60e51b81526020600482015260126024820152710416d6f756e74206d757374206265203e20360741b6044820152606490fd5b60a0810190811067ffffffffffffffff821117610f7657604052565b634e487b7160e01b600052604160045260246000fd5b90601f8019910116810190811067ffffffffffffffff821117610f7657604052565b906000602091828151910182855af11561100a576000513d61100157506001600160a01b0381163b155b610fdf5750565b604051635274afe760e01b81526001600160a01b039091166004820152602490fd5b60011415610fd8565b6040513d6000823e3d90fd5b600260005414611027576002600055565b604051633ee5aeb560e01b8152600490fd5b60001981146110485760010190565b634e487b7160e01b600052601160045260246000fd5b3d15611099573d9067ffffffffffffffff8211610f76576040519161108d601f8201601f191660200184610f8c565b82523d6000602084013e565b606090565b156110a557565b60405162461bcd60e51b8152602060048201526011602482015270115512081c99599d5b990819985a5b1959607a1b6044820152606490fd5b9190820391821161104857565b60405163a9059cbb60e01b60208201526001600160a01b039092166024830152604480830193909352918152608081019167ffffffffffffffff831182841017610f765761113b92604052610fae565b56fea264697066735822122049d920de58a7f0716bc42a39cef86a15893c1d3b59fa110a40b63eeecbbbfce464736f6c63430008140033",
  "linkReferences": {},
  "deployedLinkReferences": {}
}