{
  "_format": "hh-sol-artifact-1",
  "contractName": "ChallengeEscrow",
  "sourceName": "src/ChallengeEscrow.sol",
  "abi": [
    {
      "inputs": [
        {
          "internalType": "address",
          "name": "_challengeFactory",
          "type": "address"
        }
      ],
      "stateMutability": "nonpayable",
      "type": "constructor"
    },
    {
      "inputs": [
        {
          "internalType": "address",
          "name": "owner",
          "type": "address"
        }
      ],
      "name": "OwnableInvalidOwner",
      "type": "error"
    },
    {
      "inputs": [
        {
          "internalType": "address",
          "name": "account",
          "type": "address"
        }
      ],
      "name": "OwnableUnauthorizedAccount",
      "type": "error"
    },
    {
      "inputs": [],
      "name": "ReentrancyGuardReentrantCall",
      "type": "error"
    },
    {
      "inputs": [
        {
          "internalType": "address",
          "name": "token",
          "type": "address"
        }
      ],
      "name": "SafeERC20FailedOperation",
      "type": "error"
    },
    {
      "anonymous": false,
      "inputs": [
        {
          "indexed": true,
          "internalType": "address",
          "name": "newFactory",
          "type": "address"
        }
      ],
      "name": "ChallengeFactoryUpdated",
      "type": "event"
    },
    {
      "anonymous": false,
      "inputs": [
        {
          "indexed": true,
          "internalType": "address",
          "name": "previousOwner",
          "type": "address"
        },
        {
          "indexed": true,
          "internalType": "address",
          "name": "newOwner",
          "type": "address"
        }
      ],
      "name": "OwnershipTransferred",
      "type": "event"
    },
    {
      "anonymous": false,
      "inputs": [
        {
          "indexed": true,
          "internalType": "address",
          "name": "user",
          "type": "address"
        },
        {
          "indexed": true,
          "internalType": "address",
          "name": "token",
          "type": "address"
        },
        {
          "indexed": false,
          "internalType": "uint256",
          "name": "amount",
          "type": "uint256"
        },
        {
          "indexed": true,
          "internalType": "uint256",
          "name": "challengeId",
          "type": "uint256"
        }
      ],
      "name": "StakeLocked",
      "type": "event"
    },
    {
      "anonymous": false,
      "inputs": [
        {
          "indexed": true,
          "internalType": "address",
          "name": "user",
          "type": "address"
        },
        {
          "indexed": true,
          "internalType": "address",
          "name": "token",
          "type": "address"
        },
        {
          "indexed": false,
          "internalType": "uint256",
          "name": "amount",
          "type": "uint256"
        },
        {
          "indexed": true,
          "internalType": "uint256",
          "name": "challengeId",
          "type": "uint256"
        }
      ],
      "name": "StakeReleased",
      "type": "event"
    },
    {
      "anonymous": false,
      "inputs": [
        {
          "indexed": true,
          "internalType": "address",
          "name": "from",
          "type": "address"
        },
        {
          "indexed": true,
          "internalType": "address",
          "name": "to",
          "type": "address"
        },
        {
          "indexed": true,
          "internalType": "address",
          "name": "token",
          "type": "address"
        },
        {
          "indexed": false,
          "internalType": "uint256",
          "name": "amount",
          "type": "uint256"
        },
        {
          "indexed": false,
          "internalType": "uint256",
          "name": "challengeId",
          "type": "uint256"
        },
        {
          "indexed": false,
          "internalType": "string",
          "name": "reason",
          "type": "string"
        }
      ],
      "name": "StakeTransferred",
      "type": "event"
    },
    {
      "anonymous": false,
      "inputs": [
        {
          "indexed": true,
          "internalType": "address",
          "name": "user1",
          "type": "address"
        },
        {
          "indexed": true,
          "internalType": "address",
          "name": "user2",
          "type": "address"
        },
        {
          "indexed": true,
          "internalType": "address",
          "name": "token",
          "type": "address"
        },
        {
          "indexed": false,
          "internalType": "uint256",
          "name": "amount",
          "type": "uint256"
        },
        {
          "indexed": false,
          "internalType": "uint256",
          "name": "challengeId",
          "type": "uint256"
        },
        {
          "indexed": false,
          "internalType": "string",
          "name": "reason",
          "type": "string"
        }
      ],
      "name": "StakesRefunded",
      "type": "event"
    },
    {
      "inputs": [],
      "name": "challengeFactory",
      "outputs": [
        {
          "internalType": "address",
          "name": "",
          "type": "address"
        }
      ],
      "stateMutability": "view",
      "type": "function"
    },
    {
      "inputs": [
        {
          "internalType": "uint256",
          "name": "",
          "type": "uint256"
        },
        {
          "internalType": "uint256",
          "name": "",
          "type": "uint256"
        }
      ],
      "name": "challengeParticipants",
      "outputs": [
        {
          "internalType": "address",
          "name": "",
          "type": "address"
        }
      ],
      "stateMutability": "view",
      "type": "function"
    },
    {
      "inputs": [
        {
          "internalType": "uint256",
          "name": "",
          "type": "uint256"
        },
        {
          "internalType": "uint256",
          "name": "",
          "type": "uint256"
        }
      ],
      "name": "challengeStakes",
      "outputs": [
        {
          "internalType": "address",
          "name": "token",
          "type": "address"
        },
        {
          "internalType": "uint256",
          "name": "amount",
          "type": "uint256"
        },
        {
          "internalType": "uint256",
          "name": "lockedAt",
          "type": "uint256"
        },
        {
          "internalType": "uint256",
          "name": "challengeId",
          "type": "uint256"
        },
        {
          "internalType": "bool",
          "name": "released",
          "type": "bool"
        }
      ],
      "stateMutability": "view",
      "type": "function"
    },
    {
      "inputs": [
        {
          "internalType": "uint256",
          "name": "challengeId",
          "type": "uint256"
        }
      ],
      "name": "getChallengeParticipants",
      "outputs": [
        {
          "internalType": "address[]",
          "name": "",
          "type": "address[]"
        }
      ],
      "stateMutability": "view",
      "type": "function"
    },
    {
      "inputs": [
        {
          "internalType": "uint256",
          "name": "challengeId",
          "type": "uint256"
        }
      ],
      "name": "getChallengeStakes",
      "outputs": [
        {
          "components": [
            {
              "internalType": "address",
              "name": "token",
              "type": "address"
            },
            {
              "internalType": "uint256",
              "name": "amount",
              "type": "uint256"
            },
            {
              "internalType": "uint256",
              "name": "lockedAt",
              "type": "uint256"
            },
            {
              "internalType": "uint256",
              "name": "challengeId",
              "type": "uint256"
            },
            {
              "internalType": "bool",
              "name": "released",
              "type": "bool"
            }
          ],
          "internalType": "struct ChallengeEscrow.LockedStake[]",
          "name": "",
          "type": "tuple[]"
        }
      ],
      "stateMutability": "view",
      "type": "function"
    },
    {
      "inputs": [
        {
          "internalType": "address",
          "name": "user",
          "type": "address"
        },
        {
          "internalType": "address",
          "name": "token",
          "type": "address"
        }
      ],
      "name": "getTotalLockedByToken",
      "outputs": [
        {
          "internalType": "uint256",
          "name": "",
          "type": "uint256"
        }
      ],
      "stateMutability": "view",
      "type": "function"
    },
    {
      "inputs": [
        {
          "internalType": "address",
          "name": "user",
          "type": "address"
        },
        {
          "internalType": "address",
          "name": "token",
          "type": "address"
        },
        {
          "internalType": "uint256",
          "name": "amount",
          "type": "uint256"
        },
        {
          "internalType": "uint256",
          "name": "challengeId",
          "type": "uint256"
        }
      ],
      "name": "lockStake",
      "outputs": [],
      "stateMutability": "payable",
      "type": "function"
    },
    {
      "inputs": [],
      "name": "owner",
      "outputs": [
        {
          "internalType": "address",
          "name": "",
          "type": "address"
        }
      ],
      "stateMutability": "view",
      "type": "function"
    },
    {
      "inputs": [
        {
          "internalType": "uint256",
          "name": "challengeId",
          "type": "uint256"
        },
        {
          "internalType": "address",
          "name": "user1",
          "type": "address"
        },
        {
          "internalType": "address",
          "name": "user2",
          "type": "address"
        },
        {
          "internalType": "address",
          "name": "token",
          "type": "address"
        },
        {
          "internalType": "uint256",
          "name": "amount",
          "type": "uint256"
        },
        {
          "internalType": "string",
          "name": "reason",
          "type": "string"
        }
      ],
      "name": "refundBothStakes",
      "outputs": [],
      "stateMutability": "nonpayable",
      "type": "function"
    },
    {
      "inputs": [
        {
          "internalType": "uint256",
          "name": "challengeId",
          "type": "uint256"
        },
        {
          "internalType": "address[]",
          "name": "users",
          "type": "address[]"
        }
      ],
      "name": "releaseStakes",
      "outputs": [],
      "stateMutability": "nonpayable",
      "type": "function"
    },
    {
      "inputs": [],
      "name": "renounceOwnership",
      "outputs": [],
      "stateMutability": "nonpayable",
      "type": "function"
    },
    {
      "inputs": [
        {
          "internalType": "address",
          "name": "_newFactory",
          "type": "address"
        }
      ],
      "name": "setChallengeFactory",
      "outputs": [],
      "stateMutability": "nonpayable",
      "type": "function"
    },
    {
      "inputs": [
        {
          "internalType": "address",
          "name": "",
          "type": "address"
        },
        {
          "internalType": "address",
          "name": "",
          "type": "address"
        }
      ],
      "name": "totalLockedByToken",
      "outputs": [
        {
          "internalType": "uint256",
          "name": "",
          "type": "uint256"
        }
      ],
      "stateMutability": "view",
      "type": "function"
    },
    {
      "inputs": [
        {
          "internalType": "address",
          "name": "newOwner",
          "type": "address"
        }
      ],
      "name": "transferOwnership",
      "outputs": [],
      "stateMutability": "nonpayable",
      "type": "function"
    },
    {
      "inputs": [
        {
          "internalType": "address",
          "name": "from",
          "type": "address"
        },
        {
          "internalType": "address",
          "name": "to",
          "type": "address"
        },
        {
          "internalType": "address",
          "name": "token",
          "type": "address"
        },
        {
          "internalType": "uint256",
          "name": "amount",
          "type": "uint256"
        },
        {
          "internalType": "uint256",
          "name": "challengeId",
          "type": "uint256"
        }
      ],
      "name": "transferStake",
      "outputs": [],
      "stateMutability": "nonpayable",
      "type": "function"
    },
    {
      "stateMutability": "payable",
      "type": "receive"
    }
  ],
  "bytecode": "0x60803461010b57601f61123638819003918201601f19168301916001600160401b038311848410176101105780849260209460405283398101031261010b57516001600160a01b038082169182900361010b57600160005533156100f25760018054336001600160a01b0319808316821790935560405192939091167f8be0079c531659141344cd1fd0a4f28419497f9722a3daafe3b4186f6b6457e0600080a382156100be5750600254161760025560405161110f90816101278239f35b62461bcd60e51b815260206004820152600f60248201526e496e76616c696420666163746f727960881b6044820152606490fd5b604051631e4fbdf760e01b815260006004820152602490fd5b600080fd5b634e487b7160e01b600052604160045260246000fdfe6080604081815260049182361015610022575b505050361561002057600080fd5b005b600090813560e01c908163023bf95814610d045750806312fa0aa014610b1d578063137b298814610aab5780635479da3d146103bc5780635c3d9dec14610a085780635dbaf68b146109df5780636b12afa014610819578063715018a6146107bc5780638da5cb5b146107935780639d7d4b9614610655578063c1b5d35e14610405578063c84c7da8146103bc578063f2fde38b14610328578063f4887c7a146101185763ffac1a95036100125734610115576100de36610dfd565b9390825260205281812090815484101561011557506020926100ff91610e45565b905491519160018060a01b039160031b1c168152f35b80fd5b509060803660031901126103245761012e610db6565b610136610dd1565b91604435926064359360018060a01b03809461015782600254163314610e89565b61015f610f62565b169283156102f357610172821515610ecd565b8481519361017f85610f0e565b16948584526020938481019084825283810190428252606081018a815260808201928c84528b8d5260058952868d209485546801000000000000000096878210156102de57906101d491600182018155610e13565b9490946102cb57908f94939291889051166bffffffffffffffffffffffff60a01b855416178455516001840155516002830155516003820155019051151560ff8019835416911617905585895260038552828920878a5285528289208054908582018092116102b857558789528985528289208054918210156102a557816102869160017f1d80c2b0b59d2f1543a8b483e392137e35f1d5ebfffcb3ad3a85c07a756363139897969594018155610e45565b819291549060031b9188831b921b191617905551908152a46001815580f35b634e487b7160e01b8a5260418b5260248afd5b634e487b7160e01b8b5260118c5260248bfd5b8f8f80602492634e487b7160e01b825252fd5b508f8f6041602492634e487b7160e01b835252fd5b5162461bcd60e51b8152602081890152600c60248201526b24b73b30b634b2103ab9b2b960a11b6044820152606490fd5b5080fd5b5091346103b85760203660031901126103b857610343610db6565b9061034c610e5d565b6001600160a01b039182169283156103a2575050600154826bffffffffffffffffffffffff60a01b821617600155167f8be0079c531659141344cd1fd0a4f28419497f9722a3daafe3b4186f6b6457e08380a380f35b51631e4fbdf760e01b8152908101849052602490fd5b8280fd5b509034610324578060031936011261032457806020926103da610db6565b6103e2610dd1565b6001600160a01b0391821683526003865283832091168252845220549051908152f35b5091346103b85760c03660031901126103b857803591610423610dd1565b61042b610de7565b6001600160a01b03606435818116939192908490036106515760843560a4359367ffffffffffffffff9081861161064d573660238701121561064d578589013591821161064d57366024838801011161064d5761048d81600254163314610e89565b610495610f62565b8085169485151580610642575b1561060f576104b2841515610ecd565b83886105f5576104ed91508c808080938a5af16104cd610faa565b508c80808088878b165af16104e0610faa565b50816105ed575b50610fea565b848b5260209360038552888c20888d528552888c2061050d85825461102a565b90551694858b5260038452878b20878c528452878b2061052e84825461102a565b9055898b5260058452878b20978b5b8954811015610587578060ff8c610557610565948e610e13565b500154161561056a57610f85565b61053d565b8b610575828d610e13565b5001805460ff19166001179055610f85565b508b9850918060247f1fd5efa002ba27f4b9b800e7ebe2a184152f8986c5f7f973d2b5189dbc6470fd96959360606080968f8151998a98895288015286015282606086015201848401378181018301899052601f01601f19168101030190a46001815580f35b9050386104e7565b6105ff9189611037565b61060a838589611037565b6104ed565b885162461bcd60e51b81526020818c0152600d60248201526c496e76616c696420757365727360981b6044820152606490fd5b5081851615156104a2565b8a80fd5b8780fd5b50823461032457602090816003193601126103b857803583526005918281528484209283549067ffffffffffffffff821161078057865192959361069d83831b880185610f40565b82845286840190819686528786209086925b85841061072457505050505050845193808501918186525180925285850193925b8281106106dd5785850386f35b835180516001600160a01b03168652808301518684015287810151888701526060808201519087015260809081015115159086015260a090940193928101926001016106d0565b848a6001928d809d9a9b9d519061073a82610f0e565b858060a01b03885416825285880154848301526002880154908201526003870154606082015260ff868801541615156080820152815201930193019291989695986106af565b634e487b7160e01b865260418452602486fd5b50903461032457816003193601126103245760015490516001600160a01b039091168152602090f35b50346101155780600319360112610115576107d5610e5d565b600180546001600160a01b0319811690915581906001600160a01b03167f8be0079c531659141344cd1fd0a4f28419497f9722a3daafe3b4186f6b6457e08280a380f35b5091346103b857816003193601126103b85767ffffffffffffffff90803590602480358481116109db57366023820112156109db57808301359485116109db57600595368387891b840101116106515760018060a09895939497981b0361088581600254163314610e89565b61088d610f62565b858952602092858452828a20988a985b818a106108ac578b6001815580f35b808a899d9a9b9c9d1b88010135968488169889890361064d578a8e5b548110156109ba57906109098f959493928e8e8e8e8e8e8e8e6108ec8f8a90610e13565b5090810160ff81541615610913575b505050505050505050610f85565b90919293946108c8565b7f607e275a4cdbfc07ae250ee663261b358db8397a819037f055b7c5d9730a821b958383541680156000146109a657505061095b8880808060018701548c5af16104e7610faa565b600180830198610983868b54928b815260038a528181208888541682528a522091825461102a565b905560ff19825416179055541694549051908152a48e8e8e8e8e8e8e38806108fb565b6109b591600185015491611037565b61095b565b50929a999c9b909398506109d091949750610f85565b98909691959261089d565b8680fd5b50903461032457816003193601126103245760025490516001600160a01b039091168152602090f35b5091346103b85760203660031901126103b857610a23610db6565b610a2b610e5d565b6001600160a01b0316918215610a76575050600280546001600160a01b031916821790557fb9a1f6d01069d240a4bebe47b464192f46dc977bf49ec60b388e25e4db1a88af8280a280f35b906020606492519162461bcd60e51b8352820152600f60248201526e496e76616c696420666163746f727960881b6044820152fd5b509190346103b857610abc36610dfd565b939081526005602052818120908154851015610115575060a093610adf91610e13565b50600180851b038154169260018201549260ff6002840154926003850154940154169381519586526020860152840152606083015215156080820152f35b5091346103b85760a03660031901126103b857610b38610db6565b90610b41610dd1565b90610b4a610de7565b936064359160018060a01b038095610b6782600254163314610e89565b610b6f610f62565b16938415610cd257858116958615610ca257610b8c851515610ecd565b8589526003602052838920971696878952602052828820610bae85825461102a565b905586610c6957508680808086895af1610bc6610faa565b5015610c3157507fea5d9bc662aefe5f02d7f0544d609f56eb4d7273187209c55fd79fdc1516fe9891606060a0925b80519283526084356020840152820152601460608201527310da185b1b195b99d9481cd95d1d1b195b595b9d60621b6080820152a46001815580f35b6020606492519162461bcd60e51b83528201526013602482015272115512081d1c985b9cd9995c8819985a5b1959606a1b6044820152fd5b83915060a092610c9d7fea5d9bc662aefe5f02d7f0544d609f56eb4d7273187209c55fd79fdc1516fe98956060938a611037565b610bf5565b835162461bcd60e51b8152602081850152600a602482015269496e76616c696420746f60b01b6044820152606490fd5b506020606492519162461bcd60e51b8352820152600c60248201526b496e76616c69642066726f6d60a01b6044820152fd5b905083346103b85760209081600319360112610db25780949391943582528452828120918254808252858201908194845286842090845b818110610d955750505081610d51910382610f40565b83519485948186019282875251809352850193925b828110610d7557505050500390f35b83516001600160a01b031685528695509381019392810192600101610d66565b82546001600160a01b031684529288019260019283019201610d3b565b8380fd5b600435906001600160a01b0382168203610dcc57565b600080fd5b602435906001600160a01b0382168203610dcc57565b604435906001600160a01b0382168203610dcc57565b6040906003190112610dcc576004359060243590565b8054821015610e2f576000526005602060002091020190600090565b634e487b7160e01b600052603260045260246000fd5b8054821015610e2f5760005260206000200190600090565b6001546001600160a01b03163303610e7157565b60405163118cdaa760e01b8152336004820152602490fd5b15610e9057565b60405162461bcd60e51b81526020600482015260156024820152744f6e6c79204368616c6c656e6765466163746f727960581b6044820152606490fd5b15610ed457565b60405162461bcd60e51b81526020600482015260126024820152710416d6f756e74206d757374206265203e20360741b6044820152606490fd5b60a0810190811067ffffffffffffffff821117610f2a57604052565b634e487b7160e01b600052604160045260246000fd5b90601f8019910116810190811067ffffffffffffffff821117610f2a57604052565b600260005414610f73576002600055565b604051633ee5aeb560e01b8152600490fd5b6000198114610f945760010190565b634e487b7160e01b600052601160045260246000fd5b3d15610fe5573d9067ffffffffffffffff8211610f2a5760405191610fd9601f8201601f191660200184610f40565b82523d6000602084013e565b606090565b15610ff157565b60405162461bcd60e51b8152602060048201526011602482015270115512081c99599d5b990819985a5b1959607a1b6044820152606490fd5b91908203918211610f9457565b60405163a9059cbb60e01b602082019081526001600160a01b0393841660248301526044808301959095529381529092608082019067ffffffffffffffff821183831017610f2a57602092600092604052519082865af1156110cd576000513d6110c457508082163b155b6110aa575050565b604051635274afe760e01b81529116600482015260249150fd5b600114156110a2565b6040513d6000823e3d90fdfea264697066735822122086172cb61582f0fa0ee9eb9b96287b5172950a1fa660ecf274f2a7d9318c368064736f6c63430008140033",
  "linkReferences": {},
  "deployedLinkReferences": {}
}